:020000040020DA
:10400000F87F00201D4120006D5F20006D5F2000C3
:104010006D5F20006D5F20006D5F20006D5F2000F0
:104020006D5F20006D5F20006D5F20009F5F2000AE
:104030006D5F20006D5F20006D5F20006D5F2000D0
:104040006D5F20006D5F20006D5F20006D5F2000C0
:104050006D5F20006D5F20006D5F20006D5F2000B0
:104060006D5F20006D5F20006D5F20006D5F2000A0
:104070006D5F20006D5F20006D5F20006D5F200090
:104080006D5F20006D5F20006D5F20006D5F200080
:104090006D5F20006D5F20006D5F20006D5F200070
:1040A0006D5F20006D5F20006D5F20006D5F200060
:1040B0006D5F20006D5F20006D5F20006D5F200050
:1040C0006D5F20006D5F20006D5F20006D5F200040
:1040D0006D5F20006D5F20006D5F20006D5F200030
:1040E0006D5F20006D5F20006D5F20006D5F200020
:1040F0006D5F20006D5F200010B5074C54F8043C44
:10410000B3F1FF3F06D0043C984754F8043DB3F1A7
:0C411000FF3FF9D110BD00BF7867200010
:10411C0040400949094A086004319142FBDBFFF732
:10412C00E5FF00BF00F0B2F900F0D2F901B402F0E3
:10413C0041FA00F017FC000004000020EC02002003
:10414C00F0B5CB6881B004460D461746002B2DD038
:10415C0023602B68002623616B68666123622A69E1
:10416C00A661E4616662A66205F10801204601F0D1
:10417C009FF82B69A2686660D218A2F140034FF039
:10418C00807142F8401C0B4A01A942F001029A636B
:10419C0047F00102DA63204641F8047DE36069468A
:1041AC004FF4406201F074FA01B0F0BD024B1B6891
:1041BC00CEE700BF6549200084010020294B30B5B3
:1041CC00186844682246002C47D063683F2B07D8F8
:1041DC00302B11D0D268002A3FD053683F2BF7D92F
:1041EC00303B5360C1683039C16053B11268302123
:1041FC00D018D150043030BD00235360C168303921
:10420C00C160016801290BD0956875B1D468BCB147
:10421C00EC60D2F80CC00139CCF808500160E5E72D
:10422C000021416081600160E0E70029DED0D4F814
:10423C000CC00139C0F804C00160CCF80850D5E7B7
:10424C000029D3D0D0F808C00139DCF808C00160CF
:10425C00C0F808C0CCF80C40C8E700F0CDFB00203B
:10426C00C9E700BF58000020F0B58CB000240A94B8
:10427C000A9B4FF4406701930094029403940497B3
:10428C00FFF79CFF44F23012C0F22002694605464B
:10429C00FFF756FF6FF000430B930B9B0126069321
:1042AC000596079408940997FFF788FF45F2595231
:1042BC00C0F2200205A9FFF743FF40F2A813C2F297
:1042CC0000031E70E86802F0A9F80CB0F0BD00BF46
:1042DC002DE9F0076B4E7368002B76D059680029D6
:1042EC0073D0DFF8A481B24600270022D8F8005022
:1042FC005A60F268521AF2605A68BAB9DAF8004099
:10430C00012C76D09868002800F09B80D3F80CC064
:10431C00BCF1000F00F0A580C0F80CC0DA6890600A
:10432C00DAF80020013ACAF800205A681C68A41870
:10433C0049D00F2947D961602460A760E760EB681A
:10434C0059186B68E960D4F800C06068002B40D045
:10435C00D3F80090604448450CBF1A461A4604D066
:10436C00D26812B111688842FAD159688944CC4597
:10437C0007D0DB68002B2BD01868596841188C4586
:10438C00F7D119461346CBB160685A68821862603F
:10439C002868012802BF6F60AF602F600ED09A684A
:1043AC00002A2ED0D3F80CC0BCF1000F33D0C2F8C9
:1043BC000CC0DB689A602B68013B2B6019B14A6812
:1043CC006368D3184B60736873B9BDE8F007704726
:1043DC0013462968002929D1A160E1602A686C6024
:1043EC000132AC602A60CEE7596800297FF47DAFBA
:1043FC00EBE7CAF80420CAF80820CAF800205A686B
:10440C0094E70028DAD06B68DB686B609A602B68E5
:10441C00013B2B60D2E70028D0D0AB689B68AB6027
:10442C00C3F80CC02B68013B2B60C7E7AA68394660
:10443C00D460AA68E760A2602A68AC6001322A6086
:10444C00A1E7002C3FF472AFDAF80400C068CAF898
:10445C0004008260DAF80020013ACAF800205A6899
:10446C0064E7002C3FF462AFDAF808008068CAF801
:10447C000800C260DAF80020013ACAF800205A6835
:10448C0054E700BFDC02002058000020704700BF3A
:10449C0040F21803C2F200030A204FF0FF31002251
:1044AC00596018601A7240F20C03C2F20003596092
:1044BC0018601A72704700BF40F22403C2F2000366
:1044CC000A221A604FF0FF325A6000221A727047AB
:1044DC002DE9F04FADF5087D01AD284601210222F2
:1044EC0001F09EFB524B00241B880321ADF81C32BB
:1044FC000523009310220C3328468DF81F424FF0F1
:10450C000A0801F06BFA0DF5067B28460C211122E6
:10451C0010234FF6FE77CDF800800BF1070B01F05E
:10452C005DFA0DF50579DFF80CA12646C0F20F07F0
:10453C0011E0414800F01EFA404800F01BFACAF89E
:10454C00008084F0010405EBC403849693F82420C6
:10455C00849B9A424CDC2846214601F07BFA231DB1
:10456C0005EBC3035A78102A5CD09B78102BE0D152
:10457C005946284601F0BEFA314800F0FBF99DF887
:10458C001F3248468DF814328DF8156200F0F2F99E
:10459C002A4800F0EFF986A92846CAF8008001F0F5
:1045AC001FFB284800F0E6F99DF8183248468DF8B4
:1045BC0014328DF8156200F0DDF9234800F0DAF9B9
:1045CC009DF8193248468DF814328DF8156284F036
:1045DC00010400F0CFF9194800F0CCF905EBC40345
:1045EC00849693F82420849BCAF800809A42B2DD0A
:1045FC008396839BBB4205DC839B01338393839B14
:10460C00BB42F9DD849B01338493849B9A42EFDC9B
:10461C002846214601F01EFA231D05EBC3035A78E8
:10462C00102AA2D1284687A901F0B6FA89E700BF63
:10463C00E86520002400002020662000F86520009A
:10464C00EC652000FC6520001C66200030B500F0F5
:10465C00D7F9A9494B68002B00F037815A6846F20C
:10466C000300824209D8B2F5C04F06D0DB68002B9C
:10467C0000F02B815A688242F5D9A2F5C0425A60EB
:10468C00CA689D48A2F5C042CA605A6892B90468CB
:10469C00012C00F0D0809968002900F0FE80DD68C4
:1046AC00002D00F00681CD60DA6891600268013A55
:1046BC0002605A681968DFF844C200238C18CCF8E1
:1046CC000030CCF80430CCF80830CCF80C3049D0A1
:1046DC004FF4C0408C506060A360E360DCF80C3099
:1046EC001B18CCF80C30DCF8043051F802E0606890
:1046FC00002B00F088801D687044A8420CBF1A463D
:10470C001A4604D0D26812B111688842FAD159689D
:10471C006D18AE4507D0DB68002B73D0186859684C
:10472C0041188E45F7D119461346B3B160685A68E3
:10473C0082186260DCF80000012874D09A68002AA4
:10474C007ED0DD68002D00F08980D560DB689A6032
:10475C00DCF80030013BCCF8003019B14A686368D2
:10476C00D3184B60664BC3F800C000F081FA00F020
:10477C0053FB644B93E8300043F24803C4F2030349
:10478C00186849F20043C4F20D031A6822F00102C2
:10479C001A6044F28003C4F20D0301221A6047F23E
:1047AC000803B022C4F20D031A6047F20002C4F2EF
:1047BC000D02136813F0800FFBD047F21003C4F204
:1047CC000D03D3F800C047F20C03C4F20D031B68B1
:1047DC00002144F66D6203EB0C2CC4F2C6120B18CC
:1047EC0003FB02F303F5405344F1000439334CF35B
:1047FC000B1CB3F1FF3F28BF0133434A8CEA030380
:10480C00136030BD1346DCF80010002935D1A160CF
:10481C00E160DCF80020CCF804400132CCF8084010
:10482C00CCF8002081E70023CCF80430CCF8083019
:10483C00CCF8003091E74260826002605A6839E738
:10484C0000288AD0DCF80430DB68CCF804309A609D
:10485C00DCF80030013BCCF800307EE700283FF458
:10486C007CAFDCF808309B68CCF80830DD60DCF8F5
:10487C000030013BCCF800306FE7DCF80820002159
:10488C00D460DCF80820E160A260DCF80020CCF8F1
:10489C0008400132CCF8002047E7002C3FF40AAF67
:1048AC004168C96841608A600268013A02605A68CE
:1048BC0000E7002C3FF4FEAE816889688160CA6015
:1048CC000268013A02605A68F4E6104C0123237224
:1048DC000F4800F04FF80F4800F04CF8DFF81CC000
:1048EC000A2323600023CCF80030CCF80430CCF839
:1048FC000830CCF80C3035E7DC02002048000020F2
:10490C0058000020600000205C00002030000020D7
:10491C0034662000F865200000B500F049F940F23B
:10492C00B4130022C2F200031A6040F2B013C2F2B8
:10493C0000031A6040F23C03C2F200030A204FF05D
:10494C00FF31596018601A7240F23003C2F2000352
:10495C00596018601A7200BD00B5004600F0FAFEEE
:10496C0000BD00BF00B500F0F5FE00BD00B501F0C4
:10497C0069FB00BD2DE9F045002507467C5D1C4E0A
:10498C00AA46DFF8708084B1092C29D00A2C18D0E3
:10499C00336820460133336001F0B4FB33684F2B8E
:1049AC0005DC01357C5D002CEED1BDE8F0850D20D9
:1049BC0001F0A8FB0A2001F0A5FB0135C6F800A008
:1049CC00F0E70D2001F09EFB204601F09BFBD8F890
:1049DC000030C6F800A00133C8F800300135E1E71B
:1049EC00204601F08FFB3368013508333360D9E77B
:1049FC00B0010020B401002000B5FFF7B7FF00BDE7
:104A0C0000B500F003F800F095F800BDDFF81CC10C
:104A1C0047F2F832C2F20002CCEB020270B4002A68
:104A2C004AD00023424DCCF800C0CCF80420CCF87E
:104A3C000830CCF80C30EB686446D318EB606B682C
:104A4C00002B3CD01E680CEB8200B0420CBF1A4607
:104A5C001A4604D0D26812B111688842FAD159684A
:104A6C0006EB8106B44208D0DB68002B26D05868D0
:104A7C00196801EB80018C42F6D119461346ABB193
:104A8C00DCF804005A688218CCF804202C68284AF8
:104A9C00012C23D09868002825D0DD68002D3AD051
:104AAC00C560DB6898601368013B136021B14A68EC
:104ABC00DCF80430D3184B6070BC704713462A687E
:104ACC001B48D2B90121CCF80820CCF80C2001608D
:104ADC00C0F804C0C0F808C01146D0E700235360EA
:104AEC0093601360E2E7002CE0D05368DB685360FE
:104AFC0098601368013B1360D8E781680132C1F8F4
:104B0C000CC08168CCF808100021CCF80C10C0F84F
:104B1C0008C00260B3E7002CC8D093689B68936010
:104B2C00DD601368013B1360C0E700BFEC0200209E
:104B3C00DC02002043F20C03C4F203031A681220B7
:104B4C0022F001021A6042F20802C4F20D0211684E
:104B5C0041F00801116042F20C02C4F20D0211681E
:104B6C0041F00801116043F200020021C4F203027B
:104B7C00116043F20402C4F20302106043F22802F3
:104B8C00C4F203024FF0FF30106043F23802C4F25B
:104B9C000302116043F21802C4F20302116841F0DF
:104BAC00010111601A6842F001021A60704700BFDF
:104BBC004CF22043C4F20D031A6822F0C0021A60B2
:104BCC004CF20043C4F20D031A6822F0C0021A60C2
:104BDC0044F2F8030122C4F20D031A6044F2FC0300
:104BEC00C4F20D031A6042F20002C4F20D02116805
:104BFC004FF6F873CFF6DC6301EA030343F40813B2
:104C0C0042F204011360C4F20D010A6840F2000381
:104C1C00C0F2011302EA0303002BF6D142F20003A7
:104C2C00C4F20D031A6822F4E0621A6042F2040224
:104C3C00C4F20D02136813F0806FFBD0704700BFF5
:104C4C004EF61453CEF200031A6842F001021A60B9
:104C5C0042F29803C4F20D031A6842F001021A6082
:104C6C004EF60853CEF200034FF401121A6070474F
:104C7C0000B5FFF7E5FF00F0ABF900F003F800F02A
:104C8C0085F800BD4EF210034EF21802CEF200036E
:104C9C000021CEF20002196011604EF21402CEF225
:104CAC0000024FF4FA41116006221A6046F2DD014F
:104CBC0040F2B812C2F20002C0F22001D1631A68AD
:104CCC0042F001021A60704740F26E030022C2F2F9
:104CDC0000031A7040F26D03C2F200031A7040F226
:104CEC006803C2F200030221196040F2CC23C2F225
:104CFC0000031A6040F2D823C2F2000349F2380CC8
:104D0C001A60C4F2080C032349F2400049F24C012A
:104D1C00CCF8003030B4C4F208000424C4F208010A
:104D2C0049F244030460C4F208030A601D6845F0AC
:104D3C0040051D601D6845F008051D601D6845F0A7
:104D4C0008051D602023CCF8004002600B6049F27E
:104D5C005003C4F208031A6842F080021A601A6801
:104D6C0042F010021A6049F21C03C4F2080301223B
:104D7C001A6049F22403C4F208031A6049F22C03A6
:104D8C00C4F208031C6030BC704700BF4BF22043D8
:104D9C00C4F20D031A6800B522F004021A604BF23B
:104DAC000043C4F20D031A6842F004021A604BF27D
:104DBC001003C4F20D03FF221A6049F23C02C4F244
:104DCC000802136843F001031360136843F00203F5
:104DDC001360136813F0800FFBD049F20403C4F284
:104DEC0008031A6822F001021A60FFF76DFF074BE7
:104DFC0001221A60064A074BC3F8F0204EF2041346
:104E0C00CEF200034FF480521A6000BD68000020FF
:104E1C00B1622000B801002000B500F01FF900F0CD
:104E2C0001F800BD10B5324B186841680B460029DB
:104E3C0059D04A68272A07D8182A05D0DB68002BD6
:104E4C0051D05A68272AF7D9183A5A60C268183ACA
:104E5C00C2605A6892B9D0F800C0BCF1010F21D0E1
:104E6C009C68002C26D0D96800292FD0E160DA6824
:104E7C000CF1FF3CC0F800C094605A681968182007
:104E8C008B1888500433012119721A4900221A60B8
:104E9C0019610A2218495A60086840B1DA60174A49
:104EAC00136010BD0260426082605A68E6E70B60D6
:104EBC005A68F3E7BCF1000FE0D0C9680CF1FF3C75
:104ECC00C0F800C041608A605A68D7E7BCF1000F97
:104EDC00D4D081680CF1FF3C8968C0F800C08160B7
:104EEC00CA605A68CAE7FFF787FD0023CBE700BF0B
:104EFC005800002091562000B802002088010020A4
:104F0C0040F26003C2F200034DF804BD93E80600C2
:104F1C004FF0010B11EB0B014FF0000C42EB0C02AC
:104F2C0083E806005DF804BB704700BF49F2180324
:104F3C00C4F208031A6840F2C023C2F200031968D5
:104F4C0041EA02021A6049F20803C4F208031A6823
:104F5C0040F2C423C2F20003196841EA02021A604B
:104F6C0049F21003C4F208031A6840F2C823C2F2D3
:104F7C000003196841EA02021A6070470368232B88
:104F8C000DD0252B13D0272B19D0332B01BF43F277
:104F9C002403C4F203034FF0FF321A60704740F24F
:104FAC002403C4F203034FF0FF321A60F6E741F218
:104FBC002403C4F203034FF0FF321A60EEE742F20F
:104FCC002403C4F203034FF0FF321A60E6E700BF7C
:104FDC0072B64EF280134FF0FF32CEF200031A601D
:104FEC004EF28413CEF200031A601549154A0023C1
:104FFC00CA500433B3F5807FFAD10023DFF848C0E0
:10500C0018464CF803000433B3F5807F0E4AF8D1F0
:10501C000E4BC2F88C30C2F89430C2F89C30C2F8F7
:10502C00CC300B4BC2F8F0300A4B0822CB600A4B49
:10503C00C1F8CC304EF20413CEF200031A60704764
:10504C00B80100200160200070000020894F200072
:10505C00394F2000056020000D4F200010B5314B5A
:10506C00186841680B46002957D04A68272A07D888
:10507C00182A05D0DB68002B4FD05A68272AF7D99D
:10508C00183A5A60C268183AC2605A6892B9D0F895
:10509C0000C0BCF1010F1FD09C68002C24D0D96833
:1050AC0000292DD0E160DA680CF1FF3CC0F800C09B
:1050BC0094605A68196818208B18885004331A4960
:1050CC000122196119491A605A601A72486840B174
:1050DC00DA60174A136010BD0260426082605A6841
:1050EC00E8E74B605A68F3E7BCF1000FE2D0C968FF
:1050FC000CF1FF3CC0F800C041608A605A68D9E7E7
:10510C00BCF1000FD6D081680CF1FF3C8968C0F867
:10511C0000C08160CA605A68CCE7FFF76DFC0023C1
:10512C00CDE700BF5800002055512000B8020020E8
:10513C007401002040F27813C2F2000300221A60BE
:10514C005A609A60704700BFF0B572B63F4B1A6850
:10515C0001321A603E4A13682BB151684868013815
:10516C000028486007DD002362B61BB1586803684D
:10517C009B689847F0BD012B3CD0CB680020536056
:10518C0098601368013B1360CB6823B1D3F804C05B
:10519C004868604458600B689868B0F1FF3F03D0D2
:1051AC00013898600028DFD0D3F80CC02848C1F82B
:1051BC0004C01668002E35D047687C68A445B8BF7B
:1051CC003D4609DBF868F8B1C4EB0C0CC1F804C01F
:1051DC0044680546A44514DAA868002829D0CCEB0D
:1051EC00040C0136C5F804C0C160A960CD608860AC
:1051FC001660B9E70023536093601368013B13609A
:10520C00C2E7C0680028DFD19068C4EB0C0CC16009
:10521C008860C1F804C00020C86091601168013139
:10522C001160A1E701228E60CE6002604160816056
:10523C009AE7CCEB040CC5F804C08860CF60B96069
:10524C0051601168013111608EE700BF70010020C0
:10525C007801002040F28C120023C2F20002D360CD
:10526C0013605360936040F2A012C2F2000213600C
:10527C005360704712F0FF0F18BF0C4B00B51FBFE7
:10528C001B68DA685A68DA60884209D003694BB146
:10529C0000230B6150F80C3FCB68C96801F060F932
:1052AC0062B600BD01230361F2E700BF8801002054
:1052BC002DE9F045044672B6614B6248196804F159
:1052CC001C0701311960C368C368002B64D0D0F887
:1052DC000080B8F1000F1FD0D0F804A004F1200614
:1052EC00DAF80410236A0AF10405994256DD534694
:1052FC00D5F800C0216A8C4569DC8368DF60636285
:10530C000023A36203688760013303604E4B186867
:10531C007AB9A260BDE8F0850123C4F82480C4F8F2
:10532C002880036047608760474B18680AB9F0E72C
:10533C00013212F0030FFBD1456804320F2A98BFDB
:10534C0010222B46002D76D0696802F1100C8C458A
:10535C0007D9914205D0DB68002B6CD059686145A8
:10536C00F7D3891A5960C168891AC160596871B933
:10537C000668012E36D09F68002F42D0DD68002DC4
:10538C004BD0FD60D968013E06608F6059681B6880
:10539C0058185A50021DBCE7C760C5E7DAF80C3044
:1053AC00002BA4D0D3F804C031681D1D8C459FDCA4
:1053BC00D96800299CD00B46D3F804C031681D1D58
:1053CC008C45F5DDD5F800C0216A8C4595DD9968D2
:1053DC0069B108F10108CF609F60A3626162C0F8F7
:1053EC000080A1E70160416081605968CFE70368E4
:1053FC0061620133C4F828A0CAF8087003604760E2
:10540C0092E7002EC3D0D5F80CC0013E0660C0F860
:10541C0004C0CCF808105968B9E7002EB7D0D0F802
:10542C0008C0013EDCF808C00660C0F808C0CCF823
:10543C000C105968ABE7FFF7DFFA002269E700BFF1
:10544C009C0100208C01002058000020F0B572B6A1
:10545C003D4BDA68DA681068DA681A68002A3DD0C1
:10546C0059686FF0004CD1F804E0E64536D0012ABB
:10547C00D3F80CE055D0D1F80CC00024013AC3F895
:10548C0004C01A60CCF808401E682F4AD960002E60
:10549C002AD057680EF104057A68DEF804103C1D1A
:1054AC00914243DBFA68002A40D0D2F804C0296844
:1054BC00141D8C4523DDD4F800C0DEF804108C4597
:1054CC0022DC9A68C2F80CE0CEF808200022CEF854
:1054DC000C201A68C3F808E001321A60DB6801225C
:1054EC001968FFF7C7FEF0BD0121CEF80860CEF8B1
:1054FC000C601160C2F804E0C2F808E0EEE7D16875
:10550C000029D8D00A46D0E7916889B10136C1F894
:10551C000CE0C2F808E0CEF80C20CEF808101E60A3
:10552C00DCE700225A609A601A60ADE73A46C2E79F
:10553C001A68CEF808100132CEF80C70C7F808E0E3
:10554C001A60C3F804E0C9E78C01002030B5114D96
:10555C00114C2A682368012B06D962B630BF002A89
:10556C00F8D0FFF773FFF4E772B60C4C0C48FFF75A
:10557C0001FA0A250B48FFF7FDF925600A48FFF7E9
:10558C00F9F90848FFF7F6F9256000F039FD30BF4E
:10559C00002030BD8C0100209C0100203000002038
:1055AC00D0662000F8652000EC662000344BF0B586
:1055BC00DA681C681068DA682CB9DB680122196893
:1055CC00FFF758FEF0BDD3F80CE05F680EF104064F
:1055DC007A68DEF804103D1D914243DBFA68002A1C
:1055EC0040D0D2F804C03168151D8C451FDDD5F8AC
:1055FC0000C0DEF804108C451EDC9A681C68C2F8EA
:10560C000CE0CEF8082001340022CEF80C201C60EF
:10561C00C3F808E04CB1012C1BD05C680021E26897
:10562C005A6091601A68013A1A60DC60C5E7D1686B
:10563C000029DCD00A46D4E79168A9B10134C1F83D
:10564C000CE0C2F808E0CEF80C20CEF808101C6074
:10565C00E0E700225C689A605A601A68DC60013AE4
:10566C001A60AAE73A46C2E71C68CEF80810013463
:10567C00CEF80C70C7F808E01C60C3F804E0C9E76A
:10568C008C01002000B572B6FFF790FF00BD00BF83
:10569C00C368036910B5012B18D00369B3B12C4B47
:1056AC00DA68D96800F11C0291421CD01A68012AF0
:1056BC0029D0416A002935D0846A002C3FD0CC60B7
:1056CC00D0F828C0013ACCF808101A600369012BF5
:1056DC0001D062B610BD026A6FF000439A42F8D056
:1056EC00FFF764FFF6E71A68CAB1012A10D05968AF
:1056FC000024D1F80CC0013AC3F804C01A60CCF8ED
:10570C000840D960E2E700225A609A601A60DDE72F
:10571C00596800225A609A601A60D960D6E711461F
:10572C00D960D3E7002AD1D0D3F804C0013ADCF811
:10573C000CC01A60C3F804C0CCF80810C6E7002AE5
:10574C00C4D09968013A89681A609960CC60BDE749
:10575C008C0100202DE9F04172B69E4BDA68DA68B4
:10576C00D9681268D3F80CC002F11C018C4500F00A
:10577C009E801968012900F0DF80546A002C00F02B
:10578C00AE80956A002D00F0EA80E560D2F828C062
:10579C000139CCF808401960916808600421116146
:1057AC008D490868013808609169002900F09180E2
:1057BC00916901240C61D2F818C0D868D868854961
:1057CC000CF11C0570B30F68002F00F0A180D1F80C
:1057DC0004800CF12006D8F80410DCF8200008F145
:1057EC0004048842C0F2DD80D8F80C10002900F0C7
:1057FC00D880D1F804E030680C1D86457DDDD4F8E6
:10580C0000E0DCF82000864500F38A8099681C686B
:10581C00CD60CCF8241001340021CCF828101C6089
:10582C009D6001E00C68CD60002191616949D868E8
:10583C003CB9DB68104619680122FFF71BFDBDE877
:10584C00F081D1F80CE04F680EF104067868DEF8B0
:10585C0004103D1D884200F3A280F968002900F075
:10586C009E80D1F804C030680D1D84454BDDD5F801
:10587C0000C0DEF80400844563DC99681C68C1F83C
:10588C000CE0CEF8081001340021CEF80C101C608E
:10589C00C3F808E04CB1012C6FD05C680020E168C3
:1058AC0059608860196801391960DC60C1E71968B2
:1058BC0089B101296AD0D3F804C00024DCF80CE0CB
:1058CC000139C3F804E01960CEF80840C3F80CC0E5
:1058DC0062E71C68AAE78C46C3F80CC05CE7002999
:1058EC003FF45AAFD3F804C00139DCF80CC019608E
:1058FC00C3F804C0CCF808404EE7C86800283FF451
:10590C007EAF014675E7C8680028B0D00146A8E70D
:10591C00CCF82470CCF828700C604D608D6083E757
:10592C00886800283FD07C1CC5608D60CCF828109E
:10593C00CCF824001C6077E700215960996019604D
:10594C002AE78868002839D00134C0F80CE0C1F887
:10595C0008E0CEF80C10CEF808001C609AE700297D
:10596C003FF41AAFD3F808C00139DCF808C019604D
:10597C00C3F808C0CCF80C500EE700215C689960A5
:10598C0059601968DC600139196052E7D3F804C01A
:10599C000021596099601960C3F80CC0FCE63946C7
:1059AC0065E741462BE71C68CCF824000134CCF8A1
:1059BC002880C8F808501C605D6035E71C68CEF87C
:1059CC0008000134CEF80C70C7F808E01C60C3F86E
:1059DC0004E05FE78C0100209C010020D0F810C08F
:1059EC0070B4BCF1010F039CC9B2D2B2DBB208BFD8
:1059FC004FF0FF3027D0D1F1010538BF0025002A28
:105A0C0008BF45F0010505BBD3F1010538BF0025E2
:105A1C00002C08BF45F00105BDB90D4DD5F800C0EF
:105A2C00BCF13A0F11DC0CF1040600F8361000EB57
:105A3C00C60100EBCC000CF1010C4A708B70446277
:105A4C00C5F800C0012070BC70470020FBE700BF08
:105A5C00AC010020436910B4012B08D00123436131
:105A6C0083689A68022A2DD0DB68FF221A600369CA
:105A7C00002B25D1D0F800C00CF11802136813F0DC
:105A8C002003FBD1624642F8183B136813F0200345
:105A9C00FBD1624642F8183B136813F0200FFBD180
:105AAC006246552342F8183B043110F83110136844
:105ABC0013F0200FFBD1CCF80010012010BC704764
:105ACC000020FBE793F800C049F200424FEA0C3C7F
:105ADC00C4F20D0262441468D3F804C0DB6844EAD3
:105AEC000C041460FF241C60136823EA0C0CC2F82D
:105AFC0000C0BCE7436910B4012B08D001234361FB
:105B0C0083689A68022A28D0DB68FF221A60006832
:105B1C0000F11802136813F0100FFBD1036813F097
:105B2C00FF0F17D1136813F0100FFBD1036813F09C
:105B3C00FF0F0FD1136813F0100FFBD10368DBB20A
:105B4C00552BF7D1136813F0100FFBD1036801200C
:105B5C000B7000E0002010BC704793F800C049F2B5
:105B6C0000424FEA0C3CC4F20D0262441468D3F8B4
:105B7C0004C044EA0C041460DA68FF2414601A7838
:105B8C0049F200431203C4F20D03D3181A6822EA37
:105B9C000C0CC3F800C0BAE730B4F1B1C569002DE4
:105BAC00D8BF04680EDD0468002004F1180211F857
:105BBC0000C0136813F0200FFBD10130A842C4F8C9
:105BCC0000C0F4DB04F11802136813F0200FFBD1B2
:105BDC00FF232360012030BC70470846FBE700BF61
:105BEC00C36910B4002B10DD4FF0000C046804F1F5
:105BFC001802136813F0100FFBD1236801F80C3056
:105C0C00C3690CF1010C6345F0DC016801F1180269
:105C1C00136813F0100FFBD10B68012010BC7047F8
:105C2C0042F22803C4F20D031A68F0B542F00102E7
:105C3C001A6042F22C03C4F20D031A68044642F0B7
:105C4C0001021A6044F204020023C4F20D02136034
:105C5C0044F284020820C4F20D02106044F2800267
:105C6C00C4F20D02136044F20012C4F20D02136070
:105C7C0049F22042C4F20D0210684FF0FF3640F09A
:105C8C00030010604CF23002C4F20002D2F800C0E3
:105C9C004CF224052CF0010CC2F800C04CF2440C60
:105CAC00C4F2000CCCF800604CF2380CC4F2000CBE
:105CBC00C4F200054CF200004FF4D077CCF8003061
:105CCC00C4F200002F607D2585627025C5622060BE
:105CDC003020CCF800001068636040F4407040F055
:105CEC00010010600A2211F0FF0FC4F8006284F862
:105CFC00043208BF01232361974D012323762868C2
:105D0C0002234168E361C4F8FC210B46002900F032
:105D1C001F814A68272A08D8182A06D0DB68002B6E
:105D2C0000F016815A68272AF6D9183A5A60C268C8
:105D3C00183AC2605A688AB90668012E00F0D780FA
:105D4C009F68002F00F0D880D968002900F0F180FE
:105D5C00F960DA68013E066097605A681968182085
:105D6C008B188850043302221A705A604BF20802C6
:105D7C00C4F20D02DA6000221A6101214BF22042BA
:105D8C005970C4F20D02106820F0020010604BF242
:105D9C0000429960C4F20D021168042041F0020126
:105DAC00116019785A78043102EBC10144F20002F7
:105DBC00C4F20D0242F82100197849F21C42090381
:105DCC00C4F20D028A18596811601978D3F804C00E
:105DDC000803C9000CFA01F149F21872C4F20D0261
:105DEC0082181068A36020EA0101286811604168DC
:105DFC000B46002900F0A8804A68272A08D8182AE0
:105E0C0006D0DB68002B00F09F805A68272AF6D951
:105E1C00183A5A60C268183AC2605A6872B9056872
:105E2C00012D5FD09E68002E70D0D968002976D0E5
:105E3C00F160DA68013D056096605A6819681820AF
:105E4C008B188850043302221A704BF20402C4F2ED
:105E5C000D020021DA604BF220425970C4F20D029F
:105E6C00D2F800C004252CF0010CC2F800C04BF293
:105E7C000042C4F20D02D2F800C001202CF0010C3B
:105E8C00C2F800C093F800C05A780CF1040C02EB75
:105E9C00CC0C44F20002C4F20D0242F82C5093F8E0
:105EAC0000C049F21C424FEA0C3CC4F20D026244A1
:105EBC00106093F800C058604FEA0C354FEACC0CD8
:105ECC0000FA0CF049F21872C4F20D02AA18156807
:105EDC00196125EA000099601060E3606161C4F803
:105EEC00F811F0BD0260426082605A68A6E7026059
:105EFC00426082605A6831E7002E3FF42FAFC968C8
:105F0C00013E066041608A605A6827E7002D95D0F3
:105F1C00C968013D056041608A605A688EE7002DB2
:105F2C008CD08168013D896805608160CA605A68BF
:105F3C0084E7002E3FF412AF8168013E8968066049
:105F4C008160CA605A6809E7FEF756FD00237AE7BC
:105F5C00FEF752FD002306E758000020704700BFF3
:105F6C00EFF3038000F03F0001B500F035F8BDE819
:105F7C0001404FF001034FEA03630D4941F0010169
:105F8C000C4AA2F1010200B50EB42DE90F107047B6
:105F9C0007DF07980798079800F400704FEAD010B5
:105FAC00684400F120008546BFF36F8F00BD704739
:105FBC009C5F2000C55F200000B540F2B81381B093
:105FCC0001AAC2F2000342F8040D53F820306846CF
:105FDC00984701B000BD00BF00B5054B81B053F828
:105FEC00203000900BB16846984701B000BD00BF4F
:105FFC0070000020704700BF00B500F023F800BD12
:10600C0046F2307000B5C0F22000FEF7B3FC46F249
:10601C00F850C0F22000FEF7ADFC40F23003C2F2A3
:10602C0000030A221A604EF60C53CEF200031968D4
:10603C0040F2040289B2C0F2FA5241EA02021A603A
:10604C0000BD00BF2DE9F04172B61E4D1E4E15F875
:10605C00014C4FF000081D4F8CB1092C2AD00A2C92
:10606C001BD0336820460133336000F04BF83368A3
:10607C004F2B08DC013515F8014C002CEDD1FFF746
:10608C00BFFFBDE8F0810D2000F03CF80A2000F0C5
:10609C0039F80135C6F80080EDE70D2000F032F834
:1060AC00204600F02FF83B68C6F8008001333B60B7
:1060BC000135E0E7204600F025F833680135083358
:1060CC003360D8E745672000B0010020B401002000
:1060DC0030B50B4C0546236823B1DA68013ADA6017
:1060EC00DA683AB1636823B15A682846DA601B69EA
:1060FC00984730BD5A68DA601B699847F2E700BFD1
:10610C00B8020020164B81B01B78C0B22BB3EFF352
:10611C001082144BD2B21A7072B649F238030321B2
:10612C00C4F20803196049F29803C4F2080318601A
:10613C0049F24403C4F20803196841F001011960E3
:10614C0000230093009BFE2B05DC009B0133009386
:10615C00009BFE2BF9DD02B962B601B0704700BF9F
:10616C006E0000206C0000204378053B1D2B10D8DE
:10617C00DFE803F011570F0F400F0F0F0F0F0F0F2A
:10618C000F0F0F0F0F0F0F0F0F0F0F0F0F0F0F2002
:10619C00226D002070470378002BFAD18378C278E7
:1061AC0043EA022249F20003C4F208031A60364B98
:1061BC0003221A600120EDE70378A12BE9D1837843
:1061CC00C27853EA0222E4D1304B19681A715A7121
:1061DC0062F31F0108229A712D4A196013608379AA
:1061EC00C279012043EA02222A4B072A28BF072240
:1061FC001A60CFE70378002BCBD10379427953EAAD
:10620C000222C6D18379C27953EA0222C1D18378A2
:10621C00C07843EA00200128BBD11B4B04221A6032
:10622C00B8E70378802BB4D1C378012B1ED0022B96
:10623C00AFD1194A164B1A608379C279012043EA0F
:10624C000222144B432A28BF43221A60A2E7037888
:10625C00212B9ED18379C27953EA022299D182787B
:10626C000E4B02F001021A70012093E70C49084A08
:10627C0011608279C179184642EA0121054A122936
:10628C0028BF1221116085E768000020D002002091
:10629C00CC020020D80200204C6620006D000020AB
:1062AC009066200070B549F23803554AC4F20803D1
:1062BC001C68136882B023B1002113F0040F116025
:1062CC0053D1504A136823B1002113F0010F116010
:1062DC000BD14D4B1A680AB100221A6049F23803EF
:1062EC00C4F208031C6002B070BD484B1A783AB96E
:1062FC00474A127822B101221A702020FFF702FFC0
:10630C0049F23803C4F2080300221A6049F244032C
:10631C00C4F208031B6813F0010F31D049F2580383
:10632C00C4F208031B6849F28001DBB26846C4F270
:10633C000801934206D9D1F800C000F802C001321E
:10634C00082AF6D16846FFF70FFF88B1DFF8C4C002
:10635C00DCF80030002B4AD049F24403C4F20803A5
:10636C001A6842F040021A6010E0FEF7ADFCA8E794
:10637C0049F24403C4F208031A6842F060021A603E
:10638C00DFF890C0DCF80030002BA2D0224E32682F
:10639C00C2B149F28005DCF800100023C4F20805F4
:1063AC00C85C0133013A2860C818CCF80000101EF4
:1063BC0018BF01201F2B8CBF002000F001003260A1
:1063CC000028EDD152B949F24403C4F2080319680C
:1063DC00CCF8002041F00A0119607AE749F2440335
:1063EC00C4F208031A6842F002021A6071E749F21B
:1063FC004403C4F208031A6842F048021A6068E7C2
:10640C00C0020020C4020020C80200206E00002040
:10641C006D000020CC020020D80200204F4B70B43D
:10642C001D6847F2F833C2F200034FF440625A6021
:10643C0000229A60DA60EA681B6002F54062EA604A
:10644C005A686B68002B52D047F2F83CC2F2000C31
:10645C001E689444B4450CBF1A461A4604D0D26840
:10646C0012B111688C45FAD147F2F831C2F2000131
:10647C000C6859687618B44208D0DB68002B35D00C
:10648C00D3F800C0596861448C42F6D119461346C2
:10649C00BBB147F2F832C2F200025468D3F804C020
:1064AC00A444C2F804C02A68012A2ED09C68002C8F
:1064BC0039D0DE68002E2DD0E660DB68013A9C6096
:1064CC002A6039B147F2F833C2F200035B684A68BC
:1064DC00D3184B608546BFF36F8F5DF804CB8CF3FC
:1064EC000388BDE8FF5F00BD70BC704713462A6887
:1064FC0012BB47F2F831C2F200018A60CA606960CF
:10650C00A960012129601146C2E700236B60AB60D2
:10651C002B60D6E7002AD4D0AB68013A9B682A607E
:10652C00AB60DE60CDE7002ACBD06B68013ADB684C
:10653C002A606B609C60C4E7A96847F2F83CC2F221
:10654C00000CC1F80CC0CCF8081001320021CCF8BA
:10655C000C102A60C5F808C09AE700BF580000204C
:10656C0081B04DF804CD0FF2340C4CF0010CCDF889
:10657C0004C05DF804CB2DE9FF5FEFF3038C4DF8FD
:10658C0004CDC0F800D08D46BFF36F8F5DF804CBFF
:10659C008CF30388BDE8FF5F62B600BD704700BF97
:1065AC0040F2DC23C2F2000300221A605A609A60A7
:0465BC00DA607047EA
:1065C000074B10B51A6852B9064C01221A6063686D
:1065D0002BB10434984754F8043F002BFAD110BD76
:0865E000040000207C6720008C
:1065E800414200005441524546413A200000000013
:1065F8000A0000004461646F732052656365626934
:10660800646F732070656C6F204D41535445523A46
:1066180020000000202C200054617265666120492A
:106628006E646566696E6964610000004D4D553A97
:106638003A616C6C6F632829206661696C65642116
:106648000000000009024300020100A0190904002B
:1066580000010202010005240010010424020205C1
:1066680024060001052401000107058203400040BB
:1066780009040100020A0000000705830220000047
:1066880007050402000100001201000202000020B8
:10669800501D1C6003000000000100005468726572
:1066A80061643A3A70617373203D3E207468726584
:1066B800616420280000000029206E6F7420726534
:1066C8006164792100000000546865206C6173746E
:1066D80020746872656164206861732065786974E4
:1066E800656421005265626F6F74696E6720746813
:1066F80065206D616368696E65202E2E2E0000008E
:10670800526573756D652063616C6C656420666F96
:106718007220756E73757370656E646564206F6240
:106728006A656374210000004D616368696E653AAB
:106738003A7265626F6F74282900000050414E4913
:0467480043210A00DF
:10674C00FFFFFFFF75422000DD4220009D4420002A
:10675C00C544200059462000254920004151200005
:10676C0061522000695F2000AD6520000000000030
:08677C00FFFFFFFF0000000019
:040000050020411C7A
:020000040027D3
:0CFFD400FFFFFFEF000000000000200015
:00000001FF
