:020000040020DA
:10400000F87F00201D412000450D2100450D2100B5
:10401000450D2100450D2100450D2100450D2100D4
:10402000450D2100450D2100450D21007B0D21008E
:10403000450D2100450D2100450D2100450D2100B4
:10404000450D2100450D2100450D2100450D2100A4
:10405000450D2100450D2100450D2100450D210094
:10406000450D2100450D2100450D2100450D210084
:10407000450D2100450D2100450D2100450D210074
:10408000450D2100450D2100450D2100450D210064
:10409000450D2100450D2100450D2100450D210054
:1040A000450D2100450D2100450D2100450D210044
:1040B000450D2100450D2100450D2100450D210034
:1040C000450D2100450D2100450D2100450D210024
:1040D000450D2100450D2100450D2100450D210014
:1040E000450D2100450D2100450D2100450D210004
:1040F000450D2100450D210010B5074C54F8043C36
:10410000B3F1FF3F06D0043C984754F8043DB3F1A7
:0C411000FF3FF9D110BD00BFFC212100D1
:10411C0040400949094A086004319142FBDBFFF732
:10412C00E5FF00BF00F02EFA00F056FA01B40DF0D6
:10413C0011FF03F015FC0000040000204C100020BF
:10414C0043680A1D5BB1D0F80CC00133CCF80420D5
:10415C004FF0000CC1F808C04360C26070478B6020
:10416C0001238260C2604360F8E700BF10B444686A
:10417C00012C17D0836801F1040C9C4517D04BB16E
:10418C005A682AB1944503D013465268002AF9D1D3
:10419C008A685A60C268944508BFC360013C446099
:1041AC0010BC704700238360C3604360F8E7002CA9
:1041BC00F6D08B68013C83604460F1E730B58468CD
:1041CC0005464CB12068294603681B68984764680B
:1041DC00002CF7D1012030BD2046FCE7F0B54B6A2E
:1041EC0081B004460D461746002B37D0AC462360F1
:1041FC005CF8043B04F1200E2361BCE80F00AEE830
:10420C000F009CE807008EE807000026AA6A66618A
:10421C00A661E461E663266405F12001204606F000
:10422C0071FDAB6AA2686660D218A2F140034FF030
:10423C00807142F8401C0B4A01A942F001029A63BA
:10424C0047F00102DA63204641F8047DE3606946D9
:10425C004FF4406207F012F801B0F0BD024B1B683E
:10426C00C4E700BF6179200054020020294B30B50F
:10427C00186844682246002C47D06368572B07D82F
:10428C00482B11D0D268002A3FD05368572BF7D94E
:10429C00483B5360C1684839C16053B1126848212A
:1042AC00D018D150043030BD00235360C168483958
:1042BC00C160016801290BD0956875B1D468BCB197
:1042CC00EC60D2F80CC00139CCF808500160E5E77D
:1042DC000021416081600160E0E70029DED0D4F864
:1042EC000CC00139C0F804C00160CCF80850D5E707
:1042FC000029D3D0D0F808C00139DCF808C001601F
:10430C00C0F808C0CCF80C40C8E703F031FB002023
:10431C00C9E700BFE00000202DE9F04598B000246B
:10432C001694169B002500264FF4406A01930094C6
:10433C00069507960495059602950396089409949C
:10434C00CDF828A0FFF792FF44F23012C0F2200201
:10435C0069460746FFF742FF6FF000431793179B20
:10436C004FF001080C93CDF82C80119512960F95F7
:10437C0010960D950E9613941494CDF854A0FFF747
:10438C0075FF4AF6AD72C0F220020BA9FFF726FFAB
:10439C0040F27423C2F2000383F80080F8680CF03A
:1043AC004BFF18B0BDE8F0852DE9F0076B4E736834
:1043BC00002B76D05968002973D0DFF8A481B2465F
:1043CC00002700225A60F268D8F80050521AF260A6
:1043DC005A68BAB9DAF80040012C76D098680028EF
:1043EC0000F09B80D3F80CC0BCF1000F00F0A5804E
:1043FC00C0F80CC0DA689060DAF80020013ACAF80C
:10440C0000205A681C68A41849D00F2947D961604C
:10441C002460A760E760EB6859186B68E960D4F812
:10442C0000C06068002B40D0D3F800906044484531
:10443C000CBF1A461A4604D0D26812B111688842D1
:10444C00FAD159688944CC4507D0DB68002B2BD0B6
:10445C001868596841188C45F7D119461346CBB1E9
:10446C0060685A68821862602868012802BF6F6011
:10447C00AF602F600ED09A68002A2ED0D3F80CC0F3
:10448C00BCF1000F33D0C2F80CC0DB689A602B680B
:10449C00013B2B6019B14A686368D3184B60736891
:1044AC0073B9BDE8F007704713462968002929D174
:1044BC00A160E1602A686C600132AC602A60CEE7D2
:1044CC00596800297FF47DAFEBE7CAF80020CAF8E1
:1044DC000420CAF808205A6894E70028DAD06B68E0
:1044EC00DB686B609A602B68013B2B60D2E700287D
:1044FC00D0D0AB689B68AB60C3F80CC02B68013B99
:10450C002B60C7E7AA683946D460AA68E760A26046
:10451C002A68AC6001322A60A1E7002C3FF472AF2C
:10452C00DAF80400C068CAF804008260DAF80020E7
:10453C00013ACAF800205A6864E7002C3FF462AFD5
:10454C00DAF808008068CAF80800C260DAF80020BF
:10455C00013ACAF800205A6854E700BF3410002012
:10456C00E000002040F21403C2F200030A210022F2
:10457C001A71196040F20C03C2F2000319601A712F
:10458C00704700BF00B503F04DFD00BD0B4940F274
:10459C001C03C2F20003002219605A609A60DA60B0
:1045AC0019615A619A61DA6119625A629A62DA6225
:1045BC0019635A639A63DA63704700BF901F210036
:1045CC00044A40F21C03C2F200031A631A621A6115
:1045DC001A607047901F21002DE9F04FADF5007D5A
:1045EC000CF064FC582801F0EA82303805464FEA9A
:1045FC00E5760CF05BFC58280CD00A24A5FB0423B0
:10460C0004FB06333038151843EBE0760CF04EFC07
:10461C005828F3D172B648F610030021C4F20803EF
:10462C00DFF8D44548F6140048F6180C1960C4F2AB
:10463C000800C4F2080CD4F800E00068DCF800C0F4
:10464C004FEA0E234FEA0C2C11EB0C0743F1000838
:10465C003A1848F62400C4F20800006848F1000338
:10466C004FEA104A0004121848F62000C4F2080061
:10467C00006843EB0A0348F61C0C4FEA102A0006AC
:10468C001218C4F2080CDCF800C043EB0A035218F1
:10469C00216843EB0C038E4505D000204FF480714C
:1046AC00121843EB010362B6DFF850C59CE8030017
:1046BC00801841EB030142094B0942EAC1622846CA
:1046CC003146801A61EB0301DFF83435CDF850C068
:1046DC0083E803004BF22043C4F20D031A6822F066
:1046EC0008021A604BF20043C4F20D031A6842F040
:1046FC0008021A6044F2CC030422C4F20D031A60BF
:10470C004BF21C430822C4F20D031A604BF21873CF
:10471C00C4F20D031A6822F400221A6072B648F62D
:10472C0010030021C4F2080348F6140C48F6180EC6
:10473C001960C4F2080CC4F2080E2068DCF800C042
:10474C00DEF800E003024FEA0E2E11EB0E0543F1EA
:10475C00000615EB0C0248F6240CC4F2080CDCF82D
:10476C0000C046F100034FEA0C454FEA1C4648F6E0
:10477C00200CC4F2080CDCF800E0521948F61C0CB2
:10478C004FEA0E6543EB0603C4F2080C52194FEACC
:10479C001E26DCF800C043EB06035218216843EBDD
:1047AC000C03884205D000204FF48071121843EBA3
:1047BC00010362B6DDF850E00FF2484898E880013A
:1047CC009EE80300801841EB0301430943EAC165ED
:1047DC004E090A950B9651AD05F110020AA903C9B1
:1047EC00C01941EB08015692002305F120028DF807
:1047FC0078315A9202225C925E9A8DF87C3163F386
:10480C0017225E925F9ADFF80464DFF80474DFF815
:10481C00048463F3172248F280455F922790289115
:10482C0051965597CDF86481002060AA0021C0F202
:10483C001E05002662AF40F2E0088DF87B31C2F213
:10484C00000882E8030087E860004FF0FF32D8F8D8
:10485C000000529353935493579358935B935D93E7
:10486C0064926593669343683BB15A686B2A0AD885
:10487C005C2A08D0DB68002BF7D14FF0000803F05E
:10488C0077F845461FE05C3A5A60C2685C3AC260F1
:10489C005A6892B90568012D01F047829968002980
:1048AC0001F0F282DE68002E01F00883CE60DA6837
:1048BC0091600268013A02605A681B685C219D187D
:1048CC0004359950A84672B648F610020023C4F27B
:1048DC000802136048F6180148F61402C4F20802E4
:1048EC00C4F208012068126809680702090213EB78
:1048FC00010A47F1000B1AEB020648F62402C4F237
:10490C000802D2F800C04BF100074FEA0C414FEA05
:10491C001C42761847EB020748F62002C4F2080244
:10492C00D2F800C048F61C02C4F208024FEA0C612F
:10493C00D2F800E076184FEA1C2247EB0207F61873
:10494C00236847EB0E07984205D000224FF4807382
:10495C00B61847EB030762B6DDF850A00DF5E67B01
:10496C009AE800060622CDF84090CDF844A0AA495A
:10497C000DF5E279584603F0AFF80622A6494846F1
:10498C0003F0AAF84FF0000A6FF07B032B7085F848
:10499C0001A010AB0CCB921943EB0703510941EA70
:1049AC00C3616980090CA980C3F34F115B0DE980C9
:1049BC002B815946062205F10A0003F08DF899E87F
:1049CC000300A861A98327A903C941F2883328638E
:1049DC0069630AAA06CA6B624FF064036B8495F88C
:1049EC003C30A962EA6203F0FC036AF38703DBB292
:1049FC0043F0F45343F49023EB635FFA8AF343F0F0
:104A0C0074634FF4167243F410332A842B6402221D
:104A1C005FFA8AF340F2C046A5F81EA0AA636B6445
:104A2C0085F848A0ED642A65C5F854A0C2F20006CA
:104A3C00B36905F14C00002B01F0C68040F2C04771
:104A4C00C2F20007D7F81CC0DCF80430022B01F2CC
:104A5C000C82DCF80830002B01F09F8061465A680C
:104A6C00022A40F2B284002901F0FF8140F2C04AD0
:104A7C00C2F2000A88606B65DAF818300133CAF8A4
:104A8C00183040F2B02CC2F2000C4FF0FF33DCF8BF
:104A9C0000108DF8F8318DF8F93104238DF8FF31C1
:104AAC0008684FF0000A03682D220292CDF800A08E
:104ABC00CDF804A01F6A7FAB03337EAAB847294602
:104ACC0007464B2203F008F8384607F0E7FE384655
:104ADC0007F0EEFC384608F057F8384606F05AFF57
:104AEC0040F2B02EC2F2000EDEF8003039461868E3
:104AFC0003685B6A984751A840F2383100F1100303
:104B0C00C2F2000156934B686795CDF8A0A1CDF881
:104B1C0060A1CDF85C81002B01F06E8040F2383240
:104B2C00C2F2000290684368434541F36E8051AD78
:104B3C0040F23836C2F2000605F11403B360736814
:104B4C005890013373604FF6E461DFF8D0A0CFF6D4
:104B5C00FF710DF5007939AB002249F801A04CF634
:104B6C00241183F83420C8F29241D962596B83F82E
:104B7C00382062F317215963996B03F1100048F246
:104B8C008045586162F3172103F120000026C0F222
:104B9C001E0599635862002100205D649E6440F2FA
:104BAC00E006D863196483F83720DFF874C0DFF8A7
:104BBC0074E0C2F200064FF0FF3130685A609A6020
:104BCC00DA609A61DA619A62C3F810C0C3F820E027
:104BDC001A63D9641A655A6543683BB15A686B2AE3
:104BEC0022D85C2A20D0DB68002BF7D1002602F0FB
:104BFC00BFFE354638E000BF6C0500207005002074
:104C0C0070030020004827AD01000000A41F210004
:104C1C00C01F2100CC1F21003C0500202C202100AE
:104C2C0048202100542021005C3A5A60C2685C3A4A
:104C3C00C2605A6892B90768012F01F0AD8099687B
:104C4C00002901F02E81DD68002D01F04481CD603A
:104C5C00DA6891600268013A02605A681B685C214C
:104C6C009D18043599502E4672B648F61002002352
:104C7C00C4F20802136048F6180C48F61402C4F289
:104C8C000802C4F2080CD4F800E01268DCF800C08A
:104C9C004FEA0E214FEA0C2C13EB0C0A41F1000BDE
:104CAC001AEB020748F62402C4F2080210684BF112
:104CBC0000080104020C7F1848EB020848F6200299
:104CCC00C4F20802106848F61C02C4F2080201067D
:104CDC00D2F800C0020A7F1848EB0208FF182368BC
:104CEC0048EB0C089E4505D000224FF48073BF188A
:104CFC0048EB030862B6DDF850A00DF5DE7B9AE8B0
:104D0C0000060622CDF84890CDF84CA0DFF8081725
:104D1C000DF5DA79584602F0DFFE0622DFF8F816B8
:104D2C00484602F0D9FE4FF0000A6FF07B032B705F
:104D3C0085F801A012AB0CCBD21943EB0803510937
:104D4C0041EAC3616980090CA980C3F34F115B0D63
:104D5C00E9802B815946062205F10A0002F0BCFEBF
:104D6C0099E80300A861A98327A903C941F28833F4
:104D7C00286369630AAA06CA6B624FF064036B84EA
:104D8C0095F83C30A962EA6203F0FC036AF38703EE
:104D9C00DBB243F0F45343F49023EB635FFA8AF3F2
:104DAC0043F074634FF4167243F410332A842B646B
:104DBC004CF624125FFA8AF3C8F292426B6440F20A
:104DCC00C043A5F81EA0AA6385F848A0ED642A6527
:104DDC00C5F854A0C2F20003196805F14C00002973
:104DEC0000F0FA86D3F804C0DCF80430934240F2A9
:104DFC003F8740F2C041C5F854C0C2F200010B68B5
:104E0C00486001330B6040F2B023C2F20003196812
:104E1C004FF0FF338DF8F4318DF8F53104238DF814
:104E2C00FE3108684FF0000803682D220292CDF87D
:104E3C000080CDF804801F6A7DAA0DF5FF73B8477A
:104E4C004B220746294602F047FE384607F026FD5E
:104E5C00384607F02DFB40F2B029384607F094FE97
:104E6C00C2F20009384606F095FDD9F800303946F3
:104E7C00186803685B6A984739AB03F110025A61F2
:104E8C0040F23832C2F2000251689D65C3F85C8072
:104E9C00C3F81C809E61002900F0A68690684368C8
:104EAC009E4280F2128739AB40F2383AC2F2000AC5
:104EBC00D8611433CAF80830DAF804300133CAF870
:104ECC0004304FF6E463DFF8540580A9CFF6FF7386
:104EDC00CB580DF5D27E6990002539A86C901B68D3
:104EEC007146CDF8A8E16B9548F62008984748F62E
:104EFC00180648F6100248F6140348F624074046F4
:104F0C0048F61C01C4F20802C4F20803C4F20806F5
:104F1C00C4F20807C4F20800C4F2080110921293FC
:104F2C00159616971790189172B6DDF84080DDF83B
:104F3C0054E0DDF84890C8F80050D4F800A0D9F837
:104F4C000000DEF800304FF0000B1B0216991BEB33
:104F5C0003074FEA0A2C4CF100083A18086848F18C
:104F6C000003070C00040797069006A903C9121842
:104F7C0043EB01031799189E0868D6F800E04FEA36
:104F8C0010280006CDF82480089008A903C9CDF894
:104F9C0068E01218CDF864B0206843EB010319AF38
:104FAC00C0CF921943EB0703824505D000204FF484
:104FBC008071121843EB010362B6149E289F96E889
:104FCC000300801841EB03014309B7EB511F43EA7F
:104FDC00C16340F22782DFF84804CDF80CC005F01D
:104FEC0019FD72B6109A00231360129FDDF85480DD
:104FFC00D4F800A004933868D8F800304FEA0A2699
:10500C0019020596169E04AB0CCB571843F10008F9
:10501C003A18306848F100034FEA10480004CDF804
:10502C0034800C900CA903C90027121843EB010320
:10503C001799189E0868D6F800E04FEA1028000669
:10504C00CDF83C800E900EA903C9CDF870E0121873
:10505C001B97206843EB01031BAFC0CF921943EBA6
:10506C0007038245DDF80CC005D000204FF4807199
:10507C00121843EB010362B6149962AE91E88001F9
:10508C00BF1848EB0308434679090DF5C079580958
:10509C0041EAC86196E80C0099E88001D21943EB0B
:1050AC000803984200F20E8102D1914200F20A816B
:1050BC005D98649B659A12F0040F18BF5D95D0F152
:1050CC00010038BF0020B3F1FF3F0A9011D040F22D
:1050DC001C02C2F2000202EB83031B6CC2B2996881
:1050EC00022900F07A81DB6811028A1A1A600A9B85
:1050FC005D93DDF89CA1BAF1000F00F0D48040F272
:10510C00B0264FF0FF33C2F2000631688DF8F03153
:10511C008DF8F13104238DF8FD31086861220368A4
:10512C000292009501951F6A7FAB7CAA0133CDF8E2
:10513C000CC0B847074672B6DDF840804FF0000946
:10514C00C8F800901299159E23680A6831684FEAD6
:10515C00032ECDF890E023954FEA012E23A903C925
:10516C0010EB0E0841F10009169918EB02080A68B9
:10517C0049F100094FEA124E1204CDF880E01F925B
:10518C001FA903C918EB000849EB01091799189ED0
:10519C000A68D6F800E0110A12062192229121A980
:1051AC0003C9CDF898E018EB00082595226849EB67
:1051BC00010925A903C918EB000849EB0109934221
:1051CC00DDF80CC006D000214FF4807218EB0108FA
:1051DC0049EB020962B6149B8F490CCB77AE1D923A
:1051EC001E9375A80622CDF80CC002F075FC0622A1
:1051FC008949304602F070FC6FF06B034FF00000F1
:10520C0078703B701DAB0CCB12EB080243EB09031F
:10521C00510941EAC361C1F30720B970F870C1F3B9
:10522C000740090E7971C3F34711B971C3F34731C4
:10523C00F971C3F347515B0F7B72387139720622D7
:10524C0075A907F10A0002F047FC3146062207F166
:10525C00180002F041FC0AF11E011A2207F11E008F
:10526C0002F03AFC04220AF1380107F1380002F08E
:10527C0033FC0A993846F96307F010FB384607F0FF
:10528C0017F9384607F080FC384606F083FB40F2ED
:10529C00B022C2F2000213683946186803685B6AD0
:1052AC009847DDF80CC0689B1BB1669A002A00F089
:1052BC008F830A9F4BF220033A02D21BC4F20D03D8
:1052CC001A6031E6649BB3F1FF3F08BF5D983FF471
:1052DC00F1AE40F21C00C2F2000000EB8302126C33
:1052EC00D2681068003818BF01205D9072B6109912
:1052FC0000220A60DDF84880DDF85490D4F800E014
:10530C002992D8F80070D9F800204FEA0E262A9678
:10531C004FEA022A29AA06CA11EB0A0842F100092F
:10532C0018EB070149F100020A910B92169ADDF86D
:10533C00609017680AAA06CA4FEA17483F04CDF8CE
:10534C00B0802B97DDF85C802BAFC0CF891942EB76
:10535C000702D8F800700A910B92D9F80080390A2C
:10536C003F062D972E914FF0000A2DAA06CA0AAFC0
:10537C00C0CFCDF8C0807618CDF8BCA047EB0207A3
:10538C002FAA06CA761847EB02070A960B972768CE
:10539C00BE4509D000210AAFC0CF4FF480727618F9
:1053AC0047EB02070A960B9762B6149A92E88001B3
:1053BC000AAA06CA7F1848EB02087A0942EAC862B0
:1053CC00414660924A09619274E69A68002A00F09C
:1053DC00E48319461346FFF742BB187849F20041A3
:1053EC000003C4F20D014118D1F800E058684EEAF0
:1053FC0000000860D86811028A1A0260197849F214
:10540C0000420903C4F20D028A1811685B6821EA94
:10541C00030111606BE600BF3C05002060202100F9
:10542C006420210003D1279898423FF6D4ADDFF8D1
:10543C00C01A6C986991036869A95B68984739AB85
:10544C00DFF8B05A4FF6E462DFF8AC7ADFF8AC8ADA
:10545C00DFF8AC9A5C6DCFF6FF7280AE6995B750F1
:10546C00C3F81080C3F8209084B104F15C0005F0FF
:10547C004DF9DFF8903A04F14400636505F01CFB2C
:10548C00204606F019F9204602F076FA39A98C6DFF
:10549C00002C00F0BB8040F23830C2F200004768AC
:1054AC00012F00F05A84836801F11402934200F03A
:1054BC009D8453B1996829B1914203D00B468968F8
:1054CC000029F9D139AAD2699A6040F2383AC2F26D
:1054DC00000ADAF80C103EAA914208BFDFF8282A1D
:1054EC0040F2383CC2F2000C08BFD360DCF8043048
:1054FC00013BCCF804304F9C002C00F08780236DCE
:10550C004CF6CD42CCF6CC42A2FB03E2D20802EB25
:10551C00820252009A1A500040F2C04C00EB020872
:10552C00C2F2000C5CF828704FEA880E012F0CEBCD
:10553C000E0300F01F8408F101085CF8283004F118
:10554C004C01994200F078845BB19F682FB1B9424D
:10555C0003D03B46BF68002FF9D1D4F854C0C3F830
:10556C0008C040F2C04600EB020CC2F2000606EB8B
:10557C008C0CDCF808E040F2C047714508BFCCF851
:10558C000830C2F20007821857F82230013B47F866
:10559C00223094F83C30022262F3010340F2B0282E
:1055AC0084F83C30C2F200084FF0FF33D8F80010FA
:1055BC008DF8E8318DF8E93104238DF8FB3108685A
:1055CC0000230268009301932D2302937EAB0333D7
:1055DC00176A7AAAB847214607464B2202F07CFA92
:1055EC00384607F05BF9384606F062FF384607F09C
:1055FC00CBFA384606F0CEF9D8F8003039461868A0
:10560C0003685B6A9847204602F0B6F939A9C86D61
:10561C00002875D040F2383CC2F2000CDCF8044093
:10562C00012C00F09283DCF8083001F11402934253
:10563C0000F0CA8353B1996829B1914203D00B464B
:10564C0089680029F9D139AAD2699A6040F23839AF
:10565C00C2F20009D9F80C103EAA914208BFDFF83B
:10566C00A82840F2383AC2F2000A08BFD360DAF830
:10567C000430013BCAF804305098002840D0D0F8D0
:10568C0098304CF6CD4CCCF6CC4CACFB03EC4FEA42
:10569C00DC0C0CEB8C0C4FEA4C0CCCEB030CDFF859
:1056AC006C284FEA4C0E0EEB0C0752F8274002EB1D
:1056BC008708012C00F07683013752F8273000F16F
:1056CC009401994200F0AD8353B19C682CB1A14276
:1056DC0003D02346A468002CF9D1D0F89C409C60E0
:1056EC000EEB0C0402EB8404A768F444B94208BF27
:1056FC00A36052F82C30013B42F82C3002F03CF9FC
:10570C00DFF80C1839AA11614FF6E4631562DFF863
:10571C000428CFF6FF7380A8C250DFF8FC17DFF81F
:10572C00FC27DFF8FC37669C51915592599384B154
:10573C0004F15C0004F0EAFFDFF8C83704F1440020
:10574C00636505F0B9F9204605F0B6FF204602F076
:10575C0013F9679C002C00F0B88040F23832C2F28A
:10576C0000025068012800F0EB82936851AD05F1FE
:10577C0014018B4200F0438353B19A682AB18A42D8
:10578C0003D013469268002AF9D1589A9A60679C04
:10579C0040F23837C2F20007F96851AE06F1140234
:1057AC00914208BFDFF8602740F23838C2F2000897
:1057BC0008BFD360D8F80430013BC8F80430002C83
:1057CC0000F08380236D4CF6CD41CCF6CC41A1FB8F
:1057DC000391C90801EB81014900591A4FEA410CA8
:1057EC0040F2C042C2F200020CEB010352F823500B
:1057FC004FEA830E012D02EB0E00924600F0C3829D
:10580C005F1C52F8273004F14C00984200F02183C1
:10581C004BB19A682AB1904203D013469268002A81
:10582C00F9D1626D9A6040F2C0450CEB0102C2F2F4
:10583C00000505EB8202D2F808E040F2C046704544
:10584C006144C2F2000608BF936056F82130013B58
:10585C0046F8213094F83C30022262F3010340F206
:10586C00B02784F83C30C2F200074FF0FF333968A0
:10587C008DF8E4318DF8E53104238DF8FA310868A0
:10588C0000230268009301932D230293156A0DF5F2
:10589C00FD7379AAA847214605464B2202F01CF954
:1058AC00284606F0FBFF284606F002FE284607F0C5
:1058BC006BF9284606F06EF83B68294618680368B1
:1058CC005B6A9847204602F057F86898002877D012
:1058DC0040F23832C2F200025468012C00F02B82E4
:1058EC0093680DF5A27808F114018B4200F07682D2
:1058FC0053B19A682AB18A4203D013469268002A9F
:10590C00F9D1589A9A60689840F2383AC2F2000A73
:10591C00DAF80C100DF5A27909F11402914208BFC6
:10592C00DFF8E42540F2383CC2F2000C08BFD3602B
:10593C00DCF80430013BCCF80430002840D0D0F81F
:10594C0098304CF6CD4ECCF6CC4EAEFB031E4FEA47
:10595C00DE0E0EEB8E0E4FEA4E0ECEEB030EDFF884
:10596C00AC254FEA4E0404EB0E0352F8231002EB65
:10597C008306012900F01F825D1C52F8253000F1CE
:10598C00940C9C4500F0438253B1996829B18C4525
:10599C0003D00B4689680029F9D1D0F89C10996086
:1059AC0004EB0E0102EB81018D68A644AC4508BFE7
:1059BC008B6052F82E30013B42F82E3001F0DCFFA8
:1059CC00DFF860350020D8640DF5007DBDE8F08F60
:1059DC0072B6109EDDF848903260DDF854A026684F
:1059EC00D9F800E0DAF800103702369735920F023A
:1059FC0035A903C910EB070941F1000A19EB0E0791
:105A0C00DDF858904AF10008D9F80010DDF85C90E8
:105A1C004FEA114E0904CDF8C8E0319131A903C900
:105A2C003F1848EB0108DDF860A0D9F80010DAF84F
:105A3C0000E04FEA11290906CDF8D090339133A933
:105A4C0003C9CDF8E0E03F18379248EB010837AABC
:105A5C0006CA7F1848EB02082268964205D000203F
:105A6C004FF480713F1848EB010862B6149A92E823
:105A7C000300C01941EB0801420942EAC16E4A0910
:105A8C006192CDF880E15D9AA3F802E0BDF88261E5
:105A9C00C3F827209E80BDF8847160AADF80BDF812
:105AAC008601188106CA1D911E92DDF8A08162AB99
:105ABC00B8F8022093E80006B8F8043042EA034133
:105ACC00B8F80830B8F8062042EA0342D8F8883013
:105ADC0093423FF6EEAB00F04681D8F890309342FB
:105AEC00FFF4E7AB04D1D8F88C308B42FFF4E1AB78
:105AFC0040F2B026C2F200064FF0FF33D8F88020F7
:105B0C0031688DF8EC318DF8ED3104238DF8FC31D2
:105B1C000868A2F11E03D0F800E0029300950195ED
:105B2C00DEF82070CDF80CC07FAB7BAAB847D8F854
:105B3C0080200746414601F0CFFF1DA903C9FB7821
:105B4C00BA7810EB090042EA03223B7942EA03429D
:105B5C007B7942EA0363C21AC2F3072387F8243025
:105B6C00C2F3074387F82530130E87F8263087F8E1
:105B7C002320384606F092FE384606F099FC38464B
:105B8C0007F002F8384605F005FF33683946186807
:105B9C0003685B6A9847FFF78CBB40F2C049C2F2BE
:105BAC000009D9F82030986000236B65D9F81830BB
:105BBC00C9F820000133C9F81830FEF762BFDA4883
:105BCC00DA4C1490FEF786BD6B65B369F061013356
:105BDC003062B361FEF755BF69651A6858600132CF
:105BEC0098601A60FFF70FB9D96114339360D360D2
:105BFC0001235360FFF765B9589300F114038B60D0
:105C0C00CB6001234B60FEF79EBF8368DBB101467E
:105C1C005A68424512DD00293EF489AF51AF40F27B
:105C2C003838C2F2000807F114028A605893D8F889
:105C3C0004300133C8F80430FEF785BF9A6812B1FE
:105C4C0019461346E4E740F23833C2F20003DA682F
:105C5C0051AD40F2383605F11403C2F200069360E0
:105C6C00F36073680022013358927360FEF76BBFC8
:105C7C00DCF80830BBB1614696465A6872450DD9BE
:105C8C0000293FF4B6A840F2C042C2F2000288607C
:105C9C006B65136801331360FFF7B5B89A6812B1DE
:105CAC0019461346E9E740F2C04AC2F2000ADAF894
:105CBC000830986000236B65DAF80030CAF80800E9
:105CCC000133CAF80030FFF79EB88368E3B1014690
:105CDC00B4465A68624512DD00293FF4E4A839A89D
:105CEC0040F2383CC2F2000C00F114028A60C3612D
:105CFC00DCF804300133CCF80430FFF7E2B89A68D2
:105D0C0012B119461346E4E740F23837C2F20007E5
:105D1C00F96839AA02F114038B60FB607B680021DF
:105D2C000133D1617B60FFF7CCB8426082600260C6
:105D3C005A68FEF7C2BD00239360D3605360FCE544
:105D4C0000239360D360536039E50023CCF808300E
:105D5C00CCF80C30CCF804308EE400238360C360A4
:105D6C004360FFF7C8BBD8F884308B427FF6B5AEE2
:105D7C00FFF79FBA002208F101014CF821209A602C
:105D8C004CF8282005E4002103F1010C42F82C10FA
:105D9C00816042F823105DE54260826002605A68BF
:105DAC00FEF75CBF0023791C42F82130C8F808309C
:105DBC0042F82730A2E4002103F1010C42F82C1028
:105DCC00B16042F82310F9E5002C3FF458ACCB69D4
:105DDC00013CCCF80830CCF804404DE4002C3FF4E6
:105DEC00AEAD589B013C93605460A6E5002F3FF488
:105DFC0086ABCB69013F83604760FFF77CBB002813
:105E0C003FF4E0AC589B013893605060D7E4002914
:105E1C003FF4D4ADD0F89C30013942F825303160D4
:105E2C00CCE5002C3FF46AACD0F89C30013C42F835
:105E3C002730C8F8004061E4002F3FF4AAAB636D33
:105E4C004CF828305CF80E30013B4CF80E30FFF764
:105E5C00A0BB002D3FF4FEAC636D42F8273052F826
:105E6C000E30013B42F80E30F4E440F2C049C5F864
:105E7C0054C0C2F20009D9F81830C9F81C0001331B
:105E8C00C9F81830FEF7FDBD002D3EF416AD416883
:105E9C00C96841608A600268013A02605A68FEF77C
:105EAC000CBD002F3EF4DAAE4168C96841608A60CF
:105EBC000268013A02605A68FEF7D0BE002D3EF42B
:105ECC00FCAC816889688160CA600268013A026032
:105EDC005A68FEF7F2BC002F3EF4C0AE81688968A8
:105EEC008160CA600268013A02605A68FEF7B6BE69
:105EFC0060202100202021002C202100482021009E
:105F0C00542021000020210038030020C002002072
:105F1C0014202100901F2100A41F2100C01F21006C
:105F2C00CC1F210090050020700500206C0500207E
:105F3C00014B0360704700BF00202100014B036040
:105F4C00704700BF00202100F0B472B648F6100371
:105F5C000022C4F20803244D48F614011A60C4F25E
:105F6C000801D5F800C00E6848F61801C4F2080103
:105F7C000F684FEA0C243F02D01944F10001831939
:105F8C0041F1000448F62401C4F208010E68300403
:105F9C00310C1B1844EB010448F62001C4F2080133
:105FAC000E6848F61C01C4F2080130060F68310A6D
:105FBC001B1844EB01049B182A6844EB0704944516
:105FCC0005D000214FF480725B1844EB020462B6DA
:105FDC00064A06CAC91842EB0402480940EAC260E4
:105FEC005109F0BC704700BF6C0500207005002003
:105FFC00014B0360704700BF00202100F0B54388BF
:10600C0082880D4643EA02410289C38884B043EA80
:10601C000243D0F8882004469A4204D805D0D4F81C
:10602C0090209A4209D204B0F0BDD0F884208A4264
:10603C00F9D8D4F890209A42F5D303D1D4F88C3007
:10604C008B42F0D3254E4FF0FF338DF80C308DF88A
:10605C000D30316804238DF80F30D4F880C00868F7
:10606C000023026800930193ACF11E030293176A9C
:10607C000DF10F0303AAB84721460746D4F8802038
:10608C0001F02AFDFA78BB78384643EA02233A79C4
:10609C0043EA02437A7943EA02632A68D31AC3F3C8
:1060AC00072287F8233087F82420C3F307421B0EFE
:1060BC0087F8263087F8252006F0F0FB384606F0E6
:1060CC00F7F9384606F060FD384605F063FC336896
:1060DC003946186803685B6A9847A4E7B002002049
:1060EC00024B00B5036001F047FC00BD002021000D
:1060FC00024B00B5036001F03FFC00BD0020210005
:10610C00024B00B5036001F037FC00BD00202100FC
:10611C0010B5044600F15C0004F0F8FA044B04F1ED
:10612C004400636504F0C8FC204605F0C5FA10BDB8
:10613C000020210000B5406804F096FC00BD00BFB3
:10614C00344B30B5196808B925E0013010F0030F55
:10615C00FBD14C6804300F2898BF10202246002C2D
:10616C0053D0636800F1100C634507D2834213D0FF
:10617C00D268002A49D053686345F7D31B1A536081
:10618C00D1F80CC0C0EB0C0CC1F80CC063B1126898
:10619C00D118D050081D30BD1B1A5360D1F80CC05B
:1061AC00C0EB0C0CC1F80CC0D1F800C0BCF1010F55
:1061BC000BD0956895B1D468DCB1EC60D4680CF167
:1061CC00FF3CA560C1F800C0E1E74FF0000CC1F83E
:1061DC0004C0C1F808C0C1F800C0D8E7BCF1000F7A
:1061EC00D5D0E4680CF1FF3C4C60C1F800C0A56050
:1061FC00CDE7BCF1000FCAD08D680CF1FF3CAD6847
:10620C00C1F800C08D60EC60C1E7084601F0B0FB3E
:10621C000020C0E7E0000020A0F1100000E000BF6B
:10622C002DE9F0451E461B7893B0C3F3C103012B37
:10623C00044600F0838005D3022B00F0C88013B015
:10624C00BDE8F085036D13F0010FF8D096F8282007
:10625C0096F82910C36D42EA012196F82A2096F887
:10626C002D0041EA024196F82B2041EA026196F892
:10627C002C2042EA002296F82E0042EA004296F8C0
:10628C002F00C3F8841042EA0062C3F8882096F805
:10629C00302096F8311096F8350042EA012196F834
:1062AC00322041EA024196F8332041EA026196F825
:1062BC00342042EA002296F8360042EA004296F870
:1062CC003700C3F88C1042EA0062C3F8902096F8AD
:1062DC003C3003F00303022B00F0BD8096F84130F4
:1062EC0096F8422096F8461043EA022296F843307C
:1062FC0042EA034296F8443042EA036296F845308B
:10630C0043EA012396F8471043EA014396F84810F4
:10631C0043EA016352EA030000F0AA80656D002D88
:10632C0000F0DE80E86D296E014388D005F15C0039
:10633C000DA90D920E9304F02FFA80E7F278B37842
:10634C0043EA0223327943EA0243727943EA026157
:10635C00F279B37943EA0223327A43EA0243727A3E
:10636C0043EA0263026C9A4203D330D1C36B8B4273
:10637C002DD2236D13F0040F69D0226BD6F8273081
:10638C00D318236396F8223006F10A0184F83430CE
:10639C00062204F1350001F09FFBB378F278F17915
:1063AC0043EA02223379204642EA0342737942EAF5
:1063BC000362B37943EA0123317A43EA0143717AE8
:1063CC00E26343EA0163236423689B689847236D67
:1063DC0013F0030F3FF433AFE36CB3F1FF3F10D076
:1063EC007D4A02EB83031B6CF26B9968003A18BF71
:1063FC00012202290DD0DB6811028A1A1A60F36B94
:10640C00236304F1350006F10A01062201F064FB56
:10641C0015E7187849F200410003C4F20D01411848
:10642C00D1F800C058684CEA00000860D968100226
:10643C00821A0A60197849F200420903C4F20D026B
:10644C008A1811685B6821EA03031360D7E7D6F852
:10645C002730236396E7656D002D3FF4F0AE284698
:10646C00FFF756FE284601F087FA00236365E6E63F
:10647C00E26C594B03EB82031B6CDB681B68003B23
:10648C0018BF01232363FFF75FFDE36D2164E06315
:10649C00226B5880E18FC3F827209980B4F84020F4
:1064AC00DA80B4F84200188196F83E2096F83D3018
:1064BC0096F83FC043EA022343EA0C4396F840C0E7
:1064CC0004F13C0206CA43EA0C6C11EB0C03E06DC0
:1064DC000BA942EBEC740B930C94FFF78FFDAEE61B
:1064EC000F92109396F83E2096F83D3096F840A007
:1064FC0043EA022396F83F20802043EA024343EA12
:10650C000A6AFFF71DFE0F9AD4F84C800292129281
:10651C00109A06460392129A0020019200212F4AEB
:10652C0004900591126802234FF4406706F1200C89
:10653C000DF1040E069007910093099533610A97AB
:10654C003260BEE80F00ACE80F0008959EE807002B
:10655C007561B561F6618CE807003A46F563356400
:10656C00304608A904F0CEFBB2680A9B7560D318BC
:10657C00A3F140024FF0807143F8401C18491948B0
:10658C0041F00101916340F00101D16313A943F87B
:10659C0038AC43F83C8C43F8344C41F8080DF260AD
:1065AC0030463A4606F1440704F068FE3846294660
:1065BC0004F054FA0C4B06F15C00736506F15402BE
:1065CC000FA94FF0FF33B76504F098F9304604F08B
:1065DC00F7FD666533E600BF1C0000205402002066
:1065EC00617920009D6B2000D81F2100A0F11000C4
:1065FC0000E000BF2DE9F0451E461B7893B0C3F3B5
:10660C00C103012B044600F0828005D3022B00F05D
:10661C00C78013B0BDE8F085036D13F0010FF8D0FF
:10662C0096F8282096F82910C36D42EA012196F8B5
:10663C002A2096F82D0041EA024196F82B2041EAD7
:10664C00026196F82C2042EA002296F82E0042EACB
:10665C00004296F82F00C3F8841042EA0062C3F897
:10666C00882096F8302096F8311096F8350042EADA
:10667C00012196F8322041EA024196F8332041EA92
:10668C00026196F8342042EA002296F8360042EA7B
:10669C00004296F83700C3F88C1042EA0062C3F847
:1066AC00902096F83C3003F00303022B00F0898015
:1066BC0096F8413096F8422096F8461043EA0222AA
:1066CC0096F8433042EA034296F8443042EA0362B9
:1066DC0096F8453043EA012396F8471043EA014304
:1066EC0096F8481043EA016352EA030076D0656DD0
:1066FC00002D00F0A280E86D296E014389D005F1D0
:10670C005C000DA90D920E9304F046F881E7F27827
:10671C00B37843EA0223327943EA0243727943EABB
:10672C000261F279B37943EA0223327A43EA0243F3
:10673C00727A43EA0263026C9A4203D330D1C36B80
:10674C008B422DD2236D13F0040F36D0226BD6F86A
:10675C002730D318236396F8223006F10A0184F807
:10676C003430062204F1350001F0B6F9B378F27832
:10677C00F17943EA02223379204642EA03427379E3
:10678C0042EA0362B37943EA0123317A43EA0143D3
:10679C00717AE26343EA0163236423689B68984738
:1067AC00236D13F0030F3FF434AF04F1350006F101
:1067BC000A01062201F090F92BE7D6F82730236363
:1067CC00C9E7656D002D3FF424AF2846FFF7A0FC08
:1067DC00284601F0D1F8002363651AE72A232363C6
:1067EC00FFF7B2FBE36D2164E063226B5880E18F0D
:1067FC00C3F827209980B4F84020DA80B4F842001E
:10680C00188196F83E2096F83D3096F83FC043EA42
:10681C00022343EA0C4396F840C004F13C0206CA3A
:10682C0043EA0C6C11EB0C03E06D0BA942EBEC741E
:10683C000B930C94FFF7E2FBEBE60F92109396F898
:10684C003E2096F83D3096F840A043EA022396F895
:10685C003F20802043EA024343EA0A6AFFF770FCB8
:10686C000F9AD4F84C8002921292109A0646039218
:10687C00129A0020019200212D4A04900591126871
:10688C0002234FF4406706F1200C0DF1040E069024
:10689C0007910093099533610A973260BEE80F00A7
:1068AC00ACE80F0008959EE807007561B561F661CC
:1068BC008CE807003A46F5633564304608A904F0C5
:1068CC0021FAB2680A9B7560D318A3F140024FF00D
:1068DC00807143F8401C1749174841F0010191633E
:1068EC0040F00101D16313A943F838AC43F83C8C58
:1068FC0043F8344C41F8080DF26030463A4606F144
:10690C00440704F0BBFC3846294604F0A7F80B4BAF
:10691C0006F15C00736506F154020FA94FF0FF33CA
:10692C00B76503F0EBFF304604F04AFC666570E691
:10693C005402002061792000456E2000D81F2100F0
:10694C00A0F1200000E000BF2DE9F048044682B021
:10695C0072B648F610030021C4F20803424D48F603
:10696C0014001960C4F20800D5F800E0D0F800C09B
:10697C0048F61800C4F2080000684FEA0E23000223
:10698C000E1848F62400C4F20800006843F1000712
:10699C004FEA004B16EB0C024FEA104C48F6200065
:1069AC00C4F20800066847F1000348F61C0012EB1D
:1069BC000B024FEA066B43EB0C03C4F2080012EB1C
:1069CC000B024FEA162C006843EB0C038B46521853
:1069DC00296843EB00038E4505D000204FF48071ED
:1069EC00121843EB010362B6204903C9801841EB2E
:1069FC000301430943EAC163E3634B092364E26C7B
:106A0C001B4B204603EB82031B6CDB681B68003BB3
:106A1C0018BF0123236323689B689847E36D0BB170
:106A2C00626D12B102B0BDE8F088226B02A9C3F806
:106A3C002720A28F5A80E28F9A80B4F84020DA8007
:106A4C00B4F842201A8104F144030CCBE06D04F13C
:106A5C003C0530CD121943EB050321E90C006946C6
:106A6C00FFF7CCFADEE700BF6C05002070050020B4
:106A7C001C000020A0F1200000E000BF2DE9F04830
:106A8C00044682B072B648F610030021C4F2080323
:106A9C003D4D48F614001960C4F20800D5F800E02A
:106AAC00D0F800C048F61800C4F2080000684FEA9D
:106ABC000E2300020E1848F62400C4F208000068E9
:106ACC0043F100074FEA004B16EB0C024FEA104C57
:106ADC0048F62000C4F20800066847F1000348F6A7
:106AEC001C0012EB0B024FEA066B43EB0C03C4F2D7
:106AFC00080012EB0B024FEA162C006843EB0C0358
:106B0C008B465218296843EB00038E4505D00020B4
:106B1C004FF48071121843EB010362B61B4903C991
:106B2C00801841EB0301430943EAC163E3634B095A
:106B3C0023642A232363236820469B689847E36DCC
:106B4C000BB1626D12B102B0BDE8F088226B02A9E4
:106B5C00C3F82720A28F5A80E28F9A80B4F8402085
:106B6C00DA80B4F842201A8104F144030CCBE06DB6
:106B7C0004F13C0530CD121943EB050321E90C005F
:106B8C006946FFF73BFADEE76C0500207005002034
:106B9C002DE9F04F48F6180392B0C4F20803109197
:106BAC00924648F6100148F61402C4F20801C4F2E9
:106BBC0008020C939F4B0A910B9248F6240148F65D
:106BCC001C02C4F20801C4F2080203EB80030D910D
:106BDC000E920F9311E000F0C18040F25821C2F2E6
:106BEC000001CB681E68B06E002840F0A78000380A
:106BFC0018BF0120002800F0AE8072B60A9B4FF03F
:106C0C00000BC3F800B059465F460B9ADDF830B064
:106C1C0040F26C5CC2F2000CDCF800901668DBF8F9
:106C2C0000304FEA09201B028046C81848F10001C9
:106C3C00821941F100030D99069708684FEA104C30
:106C4C000004CDF814C0049004A903C9121848F626
:106C5C00200043EB0103C4F208000E9900680E6893
:106C6C004FEA006B4FEA102C12EB0B02079606A9A9
:106C7C0003C943EB0C03121843EB010340F26C51B4
:106C8C00C2F200010868814505D000204FF48071E4
:106C9C00121843EB010362B640F27054C2F20004C6
:106CAC0094E80300801841EB0301DAF85C304D09DD
:106CBC00D3F890204409AA4244EAC1648BD90F98B6
:106CCC00CAF83C40CAF84050026CD2681268003ACC
:106CDC0018BF0122CAF83020C3F82720220C9A8052
:106CEC002A0C5C80DD801A81DAF85C90B9F80230ED
:106CFC00B9F80410B9F8082043EA0141B9F8063094
:106D0C0043EA0243D9F888209A4204D82CD0D9F807
:106D1C0090209A4230D2DAF80030CDF80CC09B6843
:106D2C005046984740F25821C2F20001CB68DDF87A
:106D3C000CC01E68B06E00283FF459AF06F1440039
:106D4C00CDF80CC003F0A4FEB06E003818BF0120C3
:106D5C0000287FF452AF12B0BDE8F08FD3F88C202E
:106D6C00A2427FF63AAFAAE7D9F884208A42D2D859
:106D7C00D9F890209A42CED303D1D9F88C308B42DB
:106D8C00C9D340F2B0224FF0FF33C2F20002D9F85F
:106D9C0080E011688DF844308DF8453004238DF86F
:106DAC00473008680023026800930193AEF11E037C
:106DBC000293CDF80CC0166A0DF1470311AAB04727
:106DCC004946D9F88020064600F086FE109AF378E2
:106DDC00A018B27842EA0322337942EA034273796B
:106DEC0042EA0363C31AC3F3072286F8233086F8FA
:106DFC002420C3F307421B0E86F8252086F8263084
:106E0C00304605F04BFD304605F052FB304605F0A0
:106E1C00BBFE304604F0BEFD40F2B020C2F20000D2
:106E2C0003683146186803685B6A9847DDF80CC044
:106E3C0071E700BF1C0000202DE9F04F92B01091BB
:106E4C0048F6100048F61401C4F20800C4F2080118
:106E5C0092460A900B9148F6180248F6240348F61D
:106E6C00200048F61C01C4F20802C4F20803C4F264
:106E7C000800C4F208010C920D930E900F9111E0D2
:106E8C0000F0B88040F25821C2F20001CB681E68B5
:106E9C00B06E002840F09E80003818BF01200028FA
:106EAC0000F0A58072B60A9A002313600B990C9A15
:106EBC0040F26C5BC2F2000BDBF8009018460E68D7
:106ECC001F4613680D991B0210EB030B4FEA092C9C
:106EDC000868E0464CF1000C1BEB06024CF1000379
:106EEC004FEA104C0004CDF814C0049004A903C957
:106EFC00121843EB01030E99DDF83CB00868DBF87F
:106F0C0000604FEA006B4FEA102C12EB0B02079655
:106F1C00069706A903C943EB0C03121843EB0103B4
:106F2C0040F26C51C2F200010868814505D0002086
:106F3C004FF48071121843EB010362B640F27054A7
:106F4C00C2F2000494E80300801841EB0301DAF864
:106F5C005C304D09D3F890204409AA4244EAC1643C
:106F6C008ED92A22CAF83020C3F82720220CCAF85E
:106F7C003C40CAF840509A802A0C5C80DD801A8113
:106F8C00DAF85C90B9F80230B9F80410B9F80820B6
:106F9C0043EA0141B9F8063043EA0243D9F88820A4
:106FAC009A4204D82CD0D9F890209A4230D2DAF8F0
:106FBC000030CDF80CC09B685046984740F25821E1
:106FCC00C2F20001CB68DDF80CC01E68B06E002860
:106FDC003FF462AF06F14400CDF80CC003F058FD4D
:106FEC00B06E003818BF012000287FF45BAF12B0E0
:106FFC00BDE8F08FD3F88C20A2427FF643AFB0E708
:10700C00D9F884208A42D2D8D9F890209A42CED38B
:10701C0003D1D9F88C308B42C9D340F2B0204FF059
:10702C00FF33C2F20000D9F880E001688DF84430DB
:10703C008DF8453004238DF847300868002302682A
:10704C0000930193AEF11E030293CDF80CC0166AA7
:10705C000DF1470311AAB0474946D9F880200646DE
:10706C0000F03AFD109AF378A018B27842EA0322A5
:10707C00337942EA0342737942EA0363C31AC3F3D6
:10708C00072286F8233086F82420C3F307421B0E10
:10709C0086F8252086F82630304605F0FFFB304672
:1070AC0005F006FA304605F06FFD304604F072FC30
:1070BC0040F2B020C2F20000036831461868036841
:1070CC005B6A9847DDF80CC071E700BF2DE9F04F03
:1070DC000023C56899B08DF8363095F82C308DF8B2
:1070EC0037300E9BEA6A03F07F4343EA12230E9378
:1070FC00AB6D002B00F011825A8CDFF80845009222
:10710C006178227894F803A042EA0122A178E77909
:10711C0042EA014242EA0A6A617922794FF0FF3B66
:10712C0042EA0122A1794FF0FF3C42EA014242EAD5
:10713C000767617A227AB3F8208042EA0122A17AA9
:10714C00B3F81E9042EA0142E17AD3F824E042EA15
:10715C000161019103F1280103C91BEB000B4CEBFE
:10716C00010CBCF1FF3F02D11BF1030F07D8DFF874
:10717C00982492E8001810EB0B0041EB0C014FF037
:10718C00FF3B03F130030CCB4FF0FF3C1BEB020B2E
:10719C004CEB030CBCF1FF3F02D11BF1030F07D8E2
:1071AC00DFF864C49CE8001812EB0B0243EB0C03F1
:1071BC00DDF83CC00FFA89F9CA440CF07F4C8DF80D
:1071CC003BA04CEA1A2ADDF840C0009E0FFA88F862
:1071DC0047440CF07F4CCDF83CA08DF83F704CEA46
:1071EC0017270FFA86FC019E1097B444119E8DF858
:1071FC0043C006F07F4646EA1C2CCDF844C0DDF8AF
:10720C0048C08DF847E00CF07F4C4CEA1E2EDDF8A0
:10721C004CC0CDF848E00CF07F4C4CEA102CCDF86B
:10722C004CC0DDF850C08DF84F100CF07F4C4CEA80
:10723C001121149115998DF84B0001F07F4141EA11
:10724C001221159116998DF8573001F07F4141EAC2
:10725C0013238DF85320169372B648F610030021B1
:10726C00C4F20803DFF8A4C348F614001960C4F292
:10727C000800DCF800E0D0F8008048F61800C4F2F2
:10728C00080000684FEA0E2300020E1848F624008E
:10729C00C4F20800006843F1000716EB080247F13E
:1072AC000003070C060448F62000C4F20800D0F8CE
:1072BC000080921948F61C004FEA086643EB07035E
:1072CC00C4F2080092194FEA1827006843EB070331
:1072DC005218DCF8001043EB00038E4505D000205B
:1072EC004FF48071121843EB010362B6C84E05F1DE
:1072FC003C0898E8800196E80300801841EB0301F4
:10730C004FEA501E05F144030CCB4EEAC16E4909FD
:10731C00D21943EB0803994200F29B8002D19645A7
:10732C0000F29780286B2B6D13F0040F01D0002313
:10733C002B630AF09FF90290039117AF02AE96E807
:10734C000300042287E80300391D304600F0C4FB1B
:10735C0039460422301D00F0BFFB6278237894F884
:10736C0003C043EA0223A278E07943EA024343EAEA
:10737C000C6C6279237994F80BE043EA0223A2792E
:10738C0095F8388043EA024343EA0060627A237A34
:10739C004FF0FF3143EA0223A27AD5F834A043EA36
:1073AC00024343EA0E6E95F837304FF0FF3243EA52
:1073BC00082805F13C0418CCC918AF6B42EB040249
:1073CC00B2F1FF3F95F83490CAF30F2AC7F30F2799
:1073DC0002D111F1030F04D88B4A06CA5B1844EB97
:1073EC0002040FFA8AF18C440FFA88F1081839B2AA
:1073FC007144ADF81A10090C0022ADF812C0ADF8AA
:10740C0016004FEA1C4C000CADF81C10ADF81E30E9
:10741C00190C230CADF82010ADF824308DF8109019
:10742C008DF81120ADF814C0ADF81800ADF822405D
:10743C00334606F110019A7701338B42FBD10024BD
:10744C00305D013409F060FD532CF9D119B0BDE861
:10745C00F08FEB6CB3F1FF3F3FF464AF2A232B6347
:10746C0072B648F610030021C4F2080348F6140E55
:10747C001960C4F2080EDCF80000DEF800A048F633
:10748C00180EC4F2080EDEF800E003024FEA0E2ECE
:10749C0011EB0E0748F6240EC4F2080EDEF800E0DD
:1074AC0043F1000817EB0A024FEA1E4A4FEA0E4E50
:1074BC0048F1000312EB0E0248F6200EC4F2080E3F
:1074CC0043EB0A03DEF800A048F61C0E4FEA1A291B
:1074DC004FEA0A6A12EB0A02C4F2080EDEF800E068
:1074EC0043EB09035218DCF8001043EB0E038842FF
:1074FC0005D000204FF48071121843EB010362B6E3
:10750C0096E80300801841EB0301430943EAC16389
:10751C00EB634B092B642A2005E795F8372095F887
:10752C003810384C42EA01216079227909B242EADA
:10753C000022A07994F809C042EA0042E07994F85C
:10754C0001E042EA00628918227AA86B42EA0C2216
:10755C0094F80AC040F30F2042EA0C4294F80BC096
:10756C0042EA0C6282182078D5F834C040EA0E202A
:10757C0094F802E04CF30F2C40EA0E4094F803E030
:10758C0040EA0E606044DDF83CC08DF83B000CF026
:10759C007F4C4CEA10200F9010988DF83F1000F0A3
:1075AC007F4040EA1121109111998DF8432001F090
:1075BC007F4141EA12221192129A8DF8473002F063
:1075CC007F421292139A8DF84B3002F07F42139245
:1075DC008DF84F30149B4FF0FF3203F07F43149320
:1075EC00159B8DF853206FEA13636FEA03631593B1
:1075FC00169B8DF857206FEA13636FEA036316939B
:10760C002AE600BF94020020700300206C050020C5
:10761C007005002070B500F0ABFAB5494B68002B33
:10762C0000F059815A6846F20300824209D8B2F53B
:10763C00C04F06D0DB68002B00F04D815A688242A7
:10764C00F5D9A2F5C0425A60CA68A948A2F5C04251
:10765C00CA605A6892B90468012C00F0EF809968EE
:10766C00002900F01E81DD68002D00F02881CD601E
:10767C00DA6891600268013A02605A681968DFF8AA
:10768C0074C200238C18CCF80030CCF80430CCF841
:10769C000830CCF80C304CD04FF4C0408C506060AB
:1076AC00A360E360DCF80C301B18CCF80C30DCF871
:1076BC00043051F802E06068002B00F0A7801D68D0
:1076CC007044A8420CBF1A461A4604D0D26812B1B4
:1076DC0011688842FAD159686D18AE4508D0DB683C
:1076EC00002B00F092801868596841188E45F6D12D
:1076FC0019461346C3B160685A6882186260DCF898
:10770C000000012800F092809A68002A00F09B800B
:10771C00DD68002D00F0A680D560DB689A60DCF88F
:10772C000030013BCCF8003019B14A686368D318BB
:10773C004B60714BC3F800C000F05AFB00F082FCA8
:10774C006E4B002293E8300043F24803C4F203036B
:10775C0019686B4B55181868234643F1000644F61C
:10776C006D63C4F2C61305FB03F505F540550368BC
:10777C003935644CB5F1FF3F28BF0135DB6A256014
:10778C0098470378002B40F098804178003918BF57
:10779C00012149F20043C4F20D031A6822F02002C1
:1077AC001A6044F29402C4F20D020123136047F2F2
:1077BC000802C4F20D02B523136047F20002C4F2B2
:1077CC000D02136813F0800FFBD047F21002C4F2C5
:1077DC000D02136847F20C02C4F20D02126881EA22
:1077EC00050502EB032244F66D63C4F2C61303FBDA
:1077FC0005F505F540553935B5F1FF3F28BF013585
:10780C0042F30B135D40256070BD1346DCF800108D
:10781C00002936D1A160E160DCF80020CCF80440EE
:10782C000132CCF80840CCF8002063E70023CCF8F8
:10783C000430CCF80830CCF8003075E74260826038
:10784C0002605A681AE700283FF46EAFDCF8043087
:10785C00DB68CCF804309A60DCF80030013BCCF8E3
:10786C00003061E700283FF45FAFDCF808309B681C
:10787C00CCF80830DD60DCF80030013BCCF800308F
:10788C0052E7DCF808200021D460DCF80820E16025
:10789C00A260DCF80020CCF808400132CCF80020C3
:1078AC0028E7002C3FF4EAAE4168C96841608A6061
:1078BC000268013A02605A68E0E6012169E7002C8F
:1078CC003FF4DCAE816889688160CA600268013A65
:1078DC0002605A68D2E6DFF81CC00023CCF80030F6
:1078EC00CCF80430CCF80830CCF80C3021E700BFD1
:1078FC0034100020D0000020E000002044100020B4
:10790C0084050020EC00002000B500F011FA40F2D4
:10791C0048530022C2F200031A6040F24453C2F2F0
:10792C0000031A6040F2C803C2F200030A211A7164
:10793C00196040F2C003C2F2000319601A7100BD55
:10794C00704700BF40F2E403C2F2000300221A6049
:10795C005A60704700B5004603F06AFD00BD00BFD9
:10796C0000B503F065FD00BD00B509F03FFA00BDA0
:10797C0000B5FFF7F9FF00BD3D4B70B41D6850F822
:10798C00043C041F0F2B41D9002240F8044C6360C7
:10799C00A260E260EA68D318EB606B6850F804CC24
:1079AC006068002B35D01E686044B0420CBF1A468C
:1079BC001A4604D0D26812B111688842FAD15968BB
:1079CC007618B44507D0DB68002B21D018685968AD
:1079DC0041188C45F7D11946134693B160685A6823
:1079EC0082186260286801281DD09A68002A1FD06E
:1079FC00DE68002E31D0D660DB689A602B68013BC4
:107A0C002B6019B14A686368D3184B6070BC70471F
:107A1C0013462968B1B9A160E1602A686C60013233
:107A2C00AC602A60D9E700236B60AB602B60E8E7A1
:107A3C000028E6D06B68DB686B609A602B68013BB2
:107A4C002B60DEE7AA680021D460AA68E160A2601E
:107A5C002A68AC6001322A60BFE70028D1D0AB683D
:107A6C009B68AB60DE602B68013B2B60C9E700BFF5
:107A7C00E0000020032A30B405460C4610D941EA38
:107A8C00000313F0030F0CD1D0F800C00B689C4519
:107A9C0004D1043A04300431032AF5D805460C46C7
:107AAC00B2B1287894F800C060450ED1013A002399
:107ABC0072B105EB030C9CF8010004EB030C9CF871
:107ACC0001C00133013A6045F2D0CCEB000000E07C
:107ADC00002030BC704700BF0F2A30B405460C465E
:107AEC0042D941EA000313F0030F02BF14468C463F
:107AFC00034609D0002314F803C005F803C0013372
:107B0C009A42F8D130BC7047DCF80050103C1D6034
:107B1C00DCF804505D60DCF808509D60DCF80C501B
:107B2C000CF1100CDD6010330F2CEDD8A2F1100409
:107B3C0004F00F0224F00F04103405190C19032A59
:107B4C0012D9002354F803C045F803C00433C3EB27
:107B5C00020CBCF1030FF5D8043A22F003030433F2
:107B6C00ED18E41802F00302002AC3D1CAE700BFE3
:107B7C0000B500F003F800F095F800BDDFF81CC16B
:107B8C0047F2F832C2F20002CCEB020270B4002AC7
:107B9C004AD00023424DCCF800C0CCF80420CCF8DD
:107BAC000830CCF80C30EB686446D318EB606B688B
:107BBC00002B3CD01E680CEB8200B0420CBF1A4666
:107BCC001A4604D0D26812B111688842FAD15968A9
:107BDC0006EB8106B44208D0DB68002B26D058682F
:107BEC00196801EB80018C42F6D119461346ABB1F2
:107BFC00DCF804005A688218CCF804202C68284A57
:107C0C00012C23D09868002825D0DD68002D3AD0AF
:107C1C00C560DB6898601368013B136021B14A684A
:107C2C00DCF80430D3184B6070BC704713462A68DC
:107C3C001B48D2B90121CCF80820CCF80C200160EB
:107C4C00C0F804C0C0F808C01146D0E70023536048
:107C5C0093601360E2E7002CE0D05368DB6853605C
:107C6C0098601368013B1360D8E781680132C1F852
:107C7C000CC08168CCF808100021CCF80C10C0F8AE
:107C8C0008C00260B3E7002CC8D093689B6893606F
:107C9C00DD601368013B1360C0E700BF4C1000208F
:107CAC003410002043F20C03C4F203031A681220B0
:107CBC0022F001021A6042F20802C4F20D021168AD
:107CCC0041F00801116042F20C02C4F20D0211687D
:107CDC0041F00801116042F21002C4F20D02116869
:107CEC0041F00801116043F200020021C4F20302CA
:107CFC00116043F20402C4F20302106043F2280242
:107D0C00C4F203024FF0FF30106043F23802C4F2A9
:107D1C000302116043F21802C4F20302116841F02D
:107D2C00010111601A6842F001021A60704700BF2D
:107D3C004CF22043C4F20D031A6822F0C0021A6000
:107D4C004CF20043C4F20D031A6822F0C0021A6010
:107D5C0044F2F8030122C4F20D031A6044F2FC034E
:107D6C00C4F20D031A6042F20002C4F20D02116853
:107D7C004FF6F873CFF6DC6301EA030343F4081300
:107D8C0042F204011360C4F20D010A6840F20003D0
:107D9C00C0F2011302EA0303002BF6D142F20003F6
:107DAC00C4F20D031A6822F4E0621A6042F2040273
:107DBC00C4F20D02136813F0806FFBD0704700BF44
:107DCC004EF61453CEF200031A6842F001021A6008
:107DDC0042F29803C4F20D031A6842F001021A60D1
:107DEC004EF60853CEF200034FF401121A6070479E
:107DFC0000B5FFF7E5FF02F035FB00F019F800F0D5
:107E0C009BF800F009F800F001F800BD00B5002067
:107E1C0002F00AFA00BD00BF044B082203F5807182
:107E2C0083F8002801338B42FAD1704710070020E9
:107E3C004EF210034EF21802CEF200030021CEF2E5
:107E4C000002196011604EF21402CEF200024FF4DF
:107E5C00FA41116006221A6040F6856140F2106208
:107E6C00C2F20002C0F22101D1631A6842F0010291
:107E7C001A60704740F2F5030022C2F200031A7038
:107E8C0040F2F403C2F200031A7040F2F003C2F2A3
:107E9C0000030221196041F22403C2F200031A60AC
:107EAC0041F23003C2F2000349F2380C1A60C4F2FA
:107EBC00080C032349F2400049F24C01CCF8003085
:107ECC0030B4C4F208000424C4F2080149F244039B
:107EDC000460C4F208030A601D6845F040051D608B
:107EEC001D6845F008051D601D6845F008051D60FE
:107EFC002023CCF8004002600B6049F25003C4F21E
:107F0C0008031A6842F080021A601A6842F01002E4
:107F1C001A6049F21C03C4F2080301221A6049F2E8
:107F2C002403C4F208031A6049F22C03C4F20803B8
:107F3C001C6030BC704700BF4BF22043C4F20D03F1
:107F4C001A682DE9F04822F004021A604BF2004343
:107F5C00C4F20D031A6842F004021A604BF21003CB
:107F6C00C4F20D03FF221A6049F23C02C4F208026B
:107F7C00136843F001031360136843F002031360AA
:107F8C00136813F0800FFBD049F20403C4F208030A
:107F9C001A6822F001021A60FFF76CFF1D4B0122D8
:107FAC001A601D4A1D4BC3F8F0204EF20413CEF29A
:107FBC0000034FF480521A60EFF31087FFB207B141
:107FCC0062B6174843F24806C4F2030690E800185C
:107FDC00316800225B4612EB010B49F20002C0F241
:107FEC00D03243F1000C00231BEB020B4CEB030CC7
:107FFC0090E80C00316800241546621845F1000326
:10800C009C45F5D801D19345F2D807B162B6BDE8CD
:10801C00F08800BFF0000020951021001006002011
:10802C004410002000B540F28453C2F2000381B02A
:10803C001B6801A840F8043D684600F06DFC01B0D7
:10804C0000BD00BF00B502F065FA00F001F800BDFC
:10805C00704700BF40F2B023C2F200031B68014618
:10806C00186800B5036804221B68984700BD00BF60
:10807C000023016043608360C360704770B5614C3E
:10808C000646642383B04FF028105F490822237002
:10809C00FFF7F0FC002800F08B805C4D5C4B042259
:1080AC001B683146186803681B6898472B796A79F6
:1080BC0043EA0220AB78EA7843EA02212B786A780B
:1080CC0053EA02227CD0534B186843683BB15A6880
:1080DC00572A08D8482A06D0DB68002BF7D1FFF7BF
:1080EC0047FC00251BE0483A5A60C268483AC26017
:1080FC005A687AB90568012D68D0996800296AD048
:10810C00DE68002E72D0CE60DA6891600268013AA7
:10811C0002605A681B6848219D18995004353E4BE3
:10812C0001221B682A614FF6FD722B60C7F6FF72A5
:10813C000023AB616B606B610021009200226963CC
:10814C00AA63E9622A636962AA62ED61009A03A9D3
:10815C002A62EB632B64284641F8043D4FF44062DD
:10816C0002F0D0FDAB6803F53C614FF08070C3F8B2
:10817C00C00B2A482A4A40F00100C3F8F80B42F021
:10818C000100C3F8FC0BE96003A941F8082D28464F
:10819C004FF4406203F072F823784F2B06D8214D30
:1081AC00EB6802F07DFE23784F2BF9D903B070BD3C
:1081BC00164D28716871A870E870287068706DE7AA
:1081CC00002980D100287FF47EAFE5E74260826011
:1081DC0002605A689EE7002D9CD04168C9684160D6
:1081EC008A600268013A02605A6893E7002D91D0C8
:1081FC00816889688160CA600268013A02605A68C5
:10820C0088E700BF48030020C42021003C05002063
:10821C00B0020020E0000020540200206179200010
:10822C00ED842000580200202DE9F04FA34E0146AA
:10823C0033797779F07843EA0727B378727843EA91
:10824C000020337898B053EA022200F01A819C4B3C
:10825C0004221B68186803681B6898473379727985
:10826C0043EA0220B378F27843EA02213378727839
:10827C0053EA022200F0FD80DFF848B2DFF848C272
:10828C009248CDF834B0CDF830C0119048F6100BB0
:10829C0048F6200748F61C06C4F2080B48F61409E9
:1082AC0048F6180A48F62408C4F20807C4F208066F
:1082BC00C4F20809C4F2080AC4F20808CDF808B0E0
:1082CC000097019672B6029800210C9B01601A6807
:1082DC00D9F80040DAF8003016021B0211EB030B40
:1082EC000D46D8F8001046F1000C1BEB040310945B
:1082FC004CF100044FEA114C0904CDF81CC0009F4E
:10830C00069106A903C91B1844EB0104DDF804B05F
:10831C003968DBF800C00F0A09060997089108A90B
:10832C0003C9CDF82CC01B180A950C9F44EB010413
:10833C000AA903C91B1844EB010439688A4205D009
:10834C0000204FF480711B1844EB010462B6119F9E
:10835C000D9897E80600DDF834B0C91842EB04021A
:10836C00D0F804C04B09DBF800B043EAC2635209F1
:10837C006245CDF840B005D802D018B0BDE8F08FFA
:10838C005B45FAD972B6029A00230C9C13602268E2
:10839C000E93D9F800E0DAF8003017020F974FEA85
:1083AC00032B0EA903C910EB0B0341F10004D8F801
:1083BC00001013EB0E0344F100044FEA114B0904B7
:1083CC00CDF84CB0009F129112A903C91B1844EBB5
:1083DC0001043968DDF804B00F0A090615971491E9
:1083EC0014A903C9DBF800E01B1844EB01040021BD
:1083FC00CDF85CE016910C9F16A903C91B1844EB31
:10840C00010439688A4205D000204FF480711B1892
:10841C0044EB010462B6119FDDF840B097E806000A
:10842C00C91842EB04024FEA511ECDF810B0CDF83A
:10843C0014C004A903C926A418CC4EEAC26E520972
:10844C00C01841EB04018A420490059107D804D06E
:10845C00214BDB6802F024FD34E78645F8D91F4B2D
:10846C000020002183E803001B4BDB6802F018FDA1
:10847C0028E7A9B11349144A144B0D910C9211938E
:10848C0004E700287FF4E3AE002F7FF4E0AE0D4844
:10849C004FF0FF324FF0FF33074680E80C00D6E672
:1084AC0000283FF46AAF074FDFF81CB0DFF81CC0A0
:1084BC000D97CDF830B0CDF844C0E7E63C05002070
:1084CC00B00200208C0200206C05002070050020FA
:1084DC0020BCBE000000000058020020A0020020BA
:1084EC002DE9F04F48F6100048F6140148F6180232
:1084FC0048F6240348F6200548F61C06B2B0C4F230
:10850C000800C4F20801C4F20802C4F20803C4F261
:10851C000805C4F20806FB4CDFF8EC93119012919D
:10852C0013921493159516961CE140F2B023C2F2E7
:10853C00000319684FF0FF338DF8C4308DF8C53047
:10854C0004238DF8C73008680026036803220292C2
:10855C00009601961D6A31AA0DF1C703A84705467E
:10856C0072B6119FDDF848E03E6013982368DEF880
:10857C00002001684FEA03284FEA012CCDF88080D7
:10858C001F961FA903C910EB0C0741F100081499A1
:10859C00BF180A6848F100084FEA124E1204CDF8D1
:1085AC0070E01B921BA903C93F1848EB01081599F1
:1085BC00DDF858E00A68DEF800C0110A12061D92B8
:1085CC001E911DA903C9CDF888C03F18219648EB10
:1085DC00010821AA06CA7F1848EB020822689342B8
:1085EC0005D000224FF48073BF1848EB030862B625
:1085FC00062299E803000B900C912FA8C349FFF7B2
:10860C006BFA06222DA8C149FFF766FA00266FF017
:10861C0063032B706E700BAB0CCBD21943EB0803BE
:10862C00510941EAC361C1F30720A970E870C1F395
:10863C000740090E6971C3F34711A971C3F34731A0
:10864C00E971C3F347515B0F6B72287129720622D3
:10865C002FA905F10A00FFF73FFA2DA9062205F113
:10866C001800FFF739FA0523AB77284604F016F902
:10867C00284603F01DFF284604F086FA284603F02E
:10868C0089F972B61199129F0E60DDF84C80D4F8FE
:10869C0000E03868D8F800304FEA0E22190207962D
:1086AC00089207AB0CCB571843F100083A18149FEB
:1086BC0048F100033868169F4FEA104C0004CDF8BF
:1086CC0010C0039003A903C9121843EB01031599B9
:1086DC0009960868D7F800C0010A000606910590B3
:1086EC0005A903C9CDF828C01218206843EB010373
:1086FC0009AFC0CF921943EB0703864505D0002084
:10870C004FF48071121843EB010362B699E8030031
:10871C00801841EB03014FEA501A49F280624AEA91
:10872C00C16AC0F298024FEA511B002312EB0A02F5
:10873C0043EB0B03C5F89C20C5F8A03040F2B021E8
:10874C00C2F200010B682946186803685B6A9847F7
:10875C0049F28062C0F2980200232BA82B922C9332
:10876C0002F058F940F24837C2F200073B784F2B21
:10877C007FF6DBAE72B6DDF844800021C8F800103D
:10878C002068129A139D4FEA002CCDF860C0D2F8E5
:10879C0000C02B6817911B0217AE60CEEF1846F184
:1087AC000008149E17EB0C02D6F800C048F1000329
:1087BC004FEA1C484FEA0C4CCDF834C0CDF8388049
:1087CC000DAE60CE521943EB0603159E169FD6F8DC
:1087DC0000C0D7F800E04FEA1C254FEA0C6C10954E
:1087EC00CDF83CC00FAFC0CF19919219CDF868E00D
:1087FC00216843EB070319AE60CE521943EB060315
:10880C00884205D000264FF48077921943EB07037A
:10881C0062B640F28C2799E80300C2F20007801878
:10882C0041EB0301D7F804C04A0943096245D7F864
:10883C0000E043EAC16302D88AD1734588D972B685
:10884C00DDF844800021C8F800102568129B139EA7
:10885C00280228901868336827914FEA032827AB21
:10886C000CCB12EB080643F10007321847F100035A
:10887C00149F29913868060C00042390249623AF8A
:10888C00C0CF921943EB0703159F169E3868D6F894
:10889C000080060A00062590269625AFC0CFCDF89D
:1088AC00A880921929A903C943EB0703121843EBBB
:1088BC00010321688D4205D000254FF480765219B2
:1088CC0043EB060362B699E80300801841EB030101
:1088DC0043090FA7C0CF480943EAC1631EEB060149
:1088EC004CEB0702904204D87FF41FAE8B427FF60C
:1088FC001CAE40F2A02200200021C2F2000282E84D
:10890C00030012E66C050020700500203C050020D9
:10891C0020BCBE00000000002DE9F0410546DFF848
:10892C001844206843683BB15A681F2A08D8102A9B
:10893C0006D0DB68002BF7D1FFF71AF800231EE0F6
:10894C00103A5A60C268103AC2605A6892B9066806
:10895C00012E00F075819968002900F0A581DF686F
:10896C00002F00F0DD81CF60DA6891600268013A77
:10897C0002605A68196810208B18885004332A68D2
:10898C00DFF8B8831A60C8F80030206843683BB140
:10899C005A68232A08D8142A06D0DB68002BF7D192
:1089AC00FEF7E6FF00271EE0143A5A60C268143A3C
:1089BC00C2605A6892B90568012D00F02D81996842
:1089CC00002900F04E81DE68002E00F08581CE601B
:1089DC00DA6891600268013A02605A681B681421D7
:1089EC009F1899500437D64A00233A60D54A7F60C5
:1089FC003B72FB60DFF850C31360D44A44F66D61E0
:108A0C001370DCF80030C4F2C61101FB03F303F55C
:108A1C0040533933B3F1FF3F28BF01339AB201FB06
:108A2C0003F303F540533933B3F1FF3F28BF013350
:108A3C0098B201FB03F303F540533933B3F1FF3F15
:108A4C0028BF01339DB2002A59D0CCF80030C04B5E
:108A5C001D7198702D0A000A1A70120A5D71D87077
:108A6C005A70206843683BB15A68232A08D8142AE4
:108A7C0006D0DB68002BF7D1FEF77AFF00261EE04C
:108A8C00143A5A60C268143AC2605A6892B90568BE
:108A9C00012D00F0C6809968002900F0D680DE68B0
:108AAC00002E00F00D81CE60DA6891600268013A08
:108ABC0002605A681B6814219E18995004360023D2
:108ACC003372F360A34B00213360A34B002276601A
:108ADC0083E80600A14B83E80600A14B83E806005F
:108AEC00206843683BB15A68232A16D8142A14D03C
:108AFC00DB68002BF7D1FEF73BFF00252EE00028AA
:108B0C007CD0CCF80030924B1D7198702D0A000A65
:108B1C005D71D8701A705A70A3E7143A5A60C26823
:108B2C00143AC2605A68A2B90568012D7ED09968C2
:108B3C00002900F0AD80D3F80CC0BCF1000F00F0A0
:108B4C00E380C1F80CC0DA6891600268013A0260F7
:108B5C005A681B6814219D189950043500232B72F8
:108B6C00EB60804B6D602B60206843683BB15A68AA
:108B7C00232A09D8142A07D0DB68002BF7D100244C
:108B8C00FEF7F6FE234620E0143A5A60C268143A07
:108B9C00C2605A689AB90468012C4CD099680029B3
:108BAC006BD0D3F80CC0BCF1000F00F0A180C1F861
:108BBC000CC0DA6891600268013A02605A68196860
:108BCC0014208B18043388501C4600221A72DA6069
:108BDC00654A5B601A603846FFF750FA3046FFF77B
:108BEC0023FB2846FFF736FAD8F8003021461868E0
:108BFC00042203681B689847BDE8F081002D3FF400
:108C0C0004AFCCF80030524B1D712D0A5D71987079
:108C1C00D8701870587024E74260826002605A68FD
:108C2C00DCE64260826002605A6843E74260826020
:108C3C0002605A688DE74260826002605A68BEE743
:108C4C004260826002605A6894E6002D3FF432AFB5
:108C5C004168C96841608A600268013A02605A68DA
:108C6C0028E7002D3FF4BAAE4168C96841608A60BC
:108C7C000268013A02605A68B0E6002C9FD0416845
:108C8C00C96841608A600268013A02605A6896E7D6
:108C9C00002D3FF45EAF4168C96841608A6002688C
:108CAC00013A02605A6854E7002E3FF463AE416803
:108CBC00C96841608A600268013A02605A6859E6E4
:108CCC00002D3FF4F7AE816889688160CA60026844
:108CDC00013A02605A68EDE6002D3FF47FAE8168E0
:108CEC0089688160CA600268013A02605A6875E658
:108CFC00002C3FF464AF816889688160CA600268A7
:108D0C00013A02605A685AE7002D3FF422AF81689D
:108D1C0089688160CA600268013A02605A6818E783
:108D2C00002E3FF427AE816889688160CA600268B2
:108D3C00013A02605A681DE6E0000020B0020020F3
:108D4C001421210038050020EC00002048030020ED
:108D5C003C0500200821210084020020A0020020F4
:108D6C008C020020FC202100F02021002DE9F0478E
:108D7C0072B6454A1368116813F0080F21EA030113
:108D8C00116003D0414A11680131116013F0020FD8
:108D9C0070D0DFF8FC80D8F80030002B6AD048F691
:108DAC0010024FF0000CC4F20802384F48F61404BD
:108DBC00C2F800C0C4F208043E68D4F800A048F61B
:108DCC001804C4F20804D4F8009032024FEA0929BE
:108DDC001CEB090442F1000514EB0A0148F62404CB
:108DEC00C4F20804D4F800A045F100024FEA0A448A
:108DFC00091948F62004C4F208044FEA1A45D4F8BD
:108E0C0000A042EB05024FEA0A64091948F61C045B
:108E1C004FEA1A25C4F2080442EB0502D4F800A06C
:108E2C0011EB0C01D7F800C042EB0A02664505D0E5
:108E3C0000244FF48075091942EB0502DFF854C089
:108E4C009CE83000954215D812D00022C8F80020BA
:108E5C0048F60802C4F208020821116062B698476D
:108E6C004EF20013CEF200034FF080621A6009E05C
:108E7C008C42EAD94EF20013CEF200034FF080621E
:108E8C001A6062B6BDE8F087800500206C050020F2
:108E9C00580500205005002040F2645300210022A8
:108EAC00C2F2000383E8060040F27853C2F20003DA
:108EBC0083E8060040F25C53C2F2000383E806002C
:108ECC0048F60403C4F208031A6848F60C0122F0B1
:108EDC0001021A6048F60802C4F208020020C4F22B
:108EEC00080110600860196848F6795021F00201F9
:108EFC0019601968C0F2200041F00801196040F2B5
:108F0C001061C2F20001C1F8C4004EF20411CEF29D
:108F1C00000102200860116841F0080111601A6814
:108F2C0042F001021A6070472DE9F001D4B20C72C4
:108F3C0046680023CB6049600F1D002E22D0D0F86C
:108F4C00088098F80430A34222D8D8F808308BB1A6
:108F5C00454693F804C0A44507D9CDB10136AF609E
:108F6C004660CB60BDE8F00170479A6812B11D46AF
:108F7C001346EEE7C36801369F600023CB60466062
:108F8C00C760EFE70123CE6043608760C760E9E705
:108F9C000136C1F80C8046608760E3E710B4446882
:108FAC00012C17D0836801F1040C9C4517D04BB1F0
:108FBC009A682AB1944503D013469268002AF9D1D5
:108FCC00CA689A60C268944508BFC360013C44609B
:108FDC0010BC704700238360C3604360F8E7002C2B
:108FEC00F6D0CB68013C83604460F1E7F0B584684F
:108FFC0006461746CDB29CB1002001E0A46874B1BE
:10900C002379AB42FAD12068314603682A46D3F85B
:10901C0000C03B46E047A4680120002CF0D1F0BD15
:10902C002046FCE78368C9B27BB1002001E09B6855
:10903C0043B193F804C08C45F9D122B918689B68E8
:10904C00002BF6D17047013AF1E71846FAE700BF5A
:10905C00174A0120002110B492E818001B1844EBA9
:10906C000104012B82E818001AD0124A012092E860
:10907C00180000211B1844EB0104012B82E8180096
:10908C0001D010BC7047002CFBD10B4A146054600B
:10909C009460D46054619461D46114625462F0E7BA
:1090AC00002CE2D1054A146054609460DDE700BFE7
:1090BC00F80000200001002014010020080100200D
:1090CC002DE9F04F84B072B6DFF84C542968039147
:1090DC0072B648F610030022C4F20803DFF83C64B1
:1090EC0048F614011A60C4F20801D6F800C00868EA
:1090FC0048F61801C4F2080109684FEA0C24090269
:10910C00571848F62401C4F2080144F100083B1832
:10911C000F6848F100043804390C1B1844EB0104A7
:10912C0048F62001C4F20801D1F8008048F61C0171
:10913C00C4F208014FEA08600F681B184FEA1821A7
:10914C0044EB01049B18326844EB0704944505D0AA
:10915C0000214FF480725B1844EB020462B640F2BB
:10916C007052C2F2000206CAC91842EB04028DE822
:10917C000600019BEA4E5F0973684FEA511B4BEAEC
:10918C00C26B002B00F0C18148F60801C4F2080143
:10919C00039AB0464FF0000A029118685C68817817
:1091AC0090F8039090F807C041EA0929017949EA3F
:1091BC000149417949EA0169817941EA0C2190F828
:1091CC0008C041EA0C4190F809C041EA0C61B9426F
:1091DC0002D82CD1D9452AD9824200F04F81D6F839
:1091EC0000C0BCF1010F00F02A81D8F80420934292
:1091FC0000F0398142B1516829B18B4203D00A4643
:10920C0049680029F9D15460B1688B4204BFD8F881
:10921C0000C0C8F808200CF1FF3CC6F800C0FEF7EF
:10922C00ABFB2868002C3AD02A682346B5E7D0F867
:10923C00A010D0F89CC0B9421CD801D1DC4519D87B
:10924C00824200F05081D6F800C0BCF1010F00F052
:10925C00F680D8F80420934200F00581002AD3D080
:10926C0051680029CFD08B42CDD00A4649680029DD
:10927C00F9D1C8E7002A00F0F48092F8983013B1C5
:10928C0090F8983043B1D0F8B490D2F8B4309945F6
:10929C00C0F0E78000F0DA801046002CC4D1002822
:1092AC0000F0C980039A824200F0C580D0F8B41057
:1092BC004FF4A05C4B1CC0F8B4301CFA03F300F163
:1092CC00900530CD43F6006290F89860C0F24902E8
:1092DC0008BF1346002E00F0DD80924E44F66D6CF4
:1092EC003768C4F2C61C07FB0CFC0CF5405C0CF197
:1092FC00390CBCF1FF3F28BF0CF1010CC6F800C0C3
:10930C00BCFBF3F603FB16C3E61A65F100071FB9A5
:10931C00B6F5205F80F0FB80C0F8B4104FF42056F7
:10932C0000279DE830004FF4A052A41945EB070527
:10933C0000231219C2F307214174C2F3074143EB16
:10934C0005038174110EC174C3F3072103754175B4
:10935C00C3F307411B0EC37548F638030274C4F2FD
:10936C000803EE2281751A60D0F8CC1048F27062B6
:10937C00C4F208021368002BFCD148F6280CC4F286
:10938C00080CCCF80010023905D0C25C01339942AC
:10939C00CCF80020F9D872B648F60C03C4F20803D6
:1093AC001A6802F008021A605F4B1A6802F0080291
:1093BC001A6040F27053C2F2000393E80300224695
:1093CC002B46121A63EB010348F610013320C4F24A
:1093DC000801086048F61401C4F208010A60100A7A
:1093EC0048F6180140EA0360C4F208010860100C4A
:1093FC0048F6240140EA0340C4F208010860100E4C
:10940C0048F6200140EA0320C4F20801086048F63F
:10941C001C01C4F208010B604448454908604549E9
:10942C0081E80C0048F60803C4F208031A6842F0FD
:10943C0012021A6062B662B604B0BDE8F08FC8F8CA
:10944C0004A0C8F808A0C8F800A0E8E6D2F8A0303C
:10945C008B4206D87FF420AFD2F89C3063457FF660
:10946C001BAF2860DEE6BCF1000F3FF4D8AE0CF168
:10947C00FF3CC8F80440C8F800C0D0E640F258528F
:10948C00C2F200020299C2F800A00822C5F800A09E
:10949C000A60A4E6234E44F66D6C3768C4F2C61C11
:1094AC0007FB0CFC0CF5405C0CF1390CBCF1FF3FDC
:1094BC0028BF0CF1010CC6F800C0BCFBF3F603FB93
:1094CC0016C3E61845F100072FB9B6F5A04F16D311
:1094DC0096427FF626AF43F60066C0F8B410C0F291
:1094EC00490600271DE740F25851C2F20001029ACA
:1094FC00C1F800A00821C5F800A01160A3E6C0F8CF
:10950C00B4104FF4A04600270BE70398C7E6964229
:10951C007FF607AF00E700BF3C0100206C05002080
:10952C0008010020EC00002080050020459520005B
:10953C00580500205005002042F2A803C4F20D0388
:10954C001A682DE9F04F42F001021A6042F2AC03A6
:10955C00C4F20D031A688FB042F001021A6042F295
:10956C00B003C4F20D031A6842F001021A6048F20B
:10957C002463C4F208031A6842F00C021A6072B633
:10958C0048F610020023C4F208021360DFF8DC4432
:10959C0048F61402C4F20802D4F80090D2F800C0C5
:1095AC0048F61802C4F2080212684FEA092B12029C
:1095BC00981848F62402C4F2080212684BF1000114
:1095CC0010EB0C0A41F1000BCDF808A0CDF80CB053
:1095DC0002A903C94FEA124B4FEA024A48F620028D
:1095EC00C4F20802126810EB0A0048F61C0C4FEA91
:1095FC00026A41EB0B01C4F2080C10EB0A004FEAB3
:10960C00122BDCF800C041EB0B01C018236841EBB6
:10961C000C0199450290039107D0002280184FF459
:10962C00807341EB03010290039162B640F27052D9
:10963C00C2F2000206CA0691079206A903C94FF4AA
:10964C00A0520023801841EB030102AB0CCB801815
:10965C0048F2646241EB0301C4F2080206900791E0
:10966C009DE80300136813F0010FFBD048F24C6324
:10967C00C4F208031A6848F61009C2F300128DE808
:10968C0003000E92484648F6140148F61802C4F23C
:10969C000800C4F20801C4F2080248F62409089034
:1096AC0009910A92484648F6200148F61C028DE8BA
:1096BC006000C4F20800C4F20801C4F208020B9066
:1096CC000C910D9272B6089B0025099E0A9F1D6095
:1096DC00D4F800C0D6F800A03B6828461B02ED1851
:1096EC004FEA0C2141F1000615EB0A0246F100038A
:1096FC000B9E0D9FD6F800A004904FEA1A494FEA32
:10970C000A4ACDF800A0CDF804909DE860005219EB
:10971C0043EB06030C9ED6F800A0D7F800B04FEA36
:10972C001A254FEA0A6A12EB0A02CDF814B0D4F8E3
:10973C0000A043EB050304AE60CE521943EB0603C5
:10974C00D44505D000254FF48076521943EB06031F
:10975C0062B640F27056C2F2000696E8000C1AEBA4
:10976C00020A079A4BEB030B93456FD90E9F002F00
:10977C0074D048F23463C4F2080380221A6048F6AD
:10978C003803C4F20803E9221A60B94BB94D5A6880
:10979C00286801325A60D0F8CC10DA688A18DA607E
:1097AC0090F8AC2012B91A6901321A6190F898300D
:1097BC00002B00F03881DFF8C0C2DCF80070012FFC
:1097CC0000F03C81DCF8043000F1D001994200F04B
:1097DC003F8153B15A682AB1914203D01346526863
:1097EC00002AF9D1D0F8D4205A60DCF80820DFF830
:1097FC0088E2914204BFDEF80070CEF808307B1E80
:10980C00CCF80030FEF7B8F8002348F6300048F6E4
:10981C002C012B60C4F20800C4F208010368C3F3E6
:10982C0040031BB1026822F0020202600A6812F0C7
:10983C00300F0CBF002201222AB1D1F800C02CF04D
:10984C00300CC1F800C063B95AB9E7E702D1069BE6
:10985C009A458BD80E9D002D40F0DB80854B002265
:10986C001A6072B648F610020023C4F2080248F6D9
:10987C00140C1360C4F2080C2068DCF8007048F675
:10988C00180CC4F2080CDCF800C002024FEA0C2CD5
:10989C0013EB0C0548F6240CC4F2080CDCF800C0E1
:1098AC0042F10006E91946F100024FEA0C454FEA75
:1098BC001C4648F6200CC4F2080CDCF80070491960
:1098CC0042EB060248F61C0C3D063E0AC4F2080C9C
:1098DC004919DCF800C042EB0602C918236842EBB8
:1098EC000C02984205D000234FF48074C91842EB47
:1098FC00040262B640F27059C2F2000999E81800ED
:10990C0072B648F60C00C4F20800D0F800C043F65A
:10991C0000670CF0080CC0F800C05848C0F24907AA
:10992C00D0F800C0DB190CF0080C4FF00008C0F8A0
:10993C0000C044EB080499E860005B1B64EB060470
:10994C005B1844EB020448F610023321C4F20802FF
:10995C00116048F61402C4F208021360190A48F6A2
:10996C00180241EA0461C4F208021160190C48F6AD
:10997C00240241EA0441C4F208021160190E48F6AF
:10998C00200241EA0421C4F20802116048F61C02CC
:10999C00C4F2080214603A493A4A11603A4A82E821
:1099AC00180048F60803C4F208031A6842F01202C1
:1099BC001A6062B642F2A803C4F20D031A6842F0B0
:1099CC0001021A6042F2AC03C4F20D031A6842F0B1
:1099DC0001021A6042F2B003C4F20D031A6842F09D
:1099EC0001021A6048F22463C4F208031A6822F0D8
:1099FC000C021A6048F28C63C4F208031A6822F055
:109A0C0004021A601A6842F004021A600FB0BDE832
:109A1C00F08F48F24C66C4F20806336813F0100F4E
:109A2C007FF450AE1AE70378C3F3C103032B7FF422
:109A3C00EBAE837F052B7FF4E7AEBCE60023CCF8BE
:109A4C000430CCF80830CCF80030FDF795FFDBE69D
:109A5C00002F3FF4D7AED0F8D430013FCCF804300F
:109A6C00CCF80070FDF788FFCEE600BF6C05002037
:109A7C00140100203C01002008010020800500207A
:109A8C00CD902000580500205005002048F63803E2
:109A9C00C4F20803E2221A60EF221A6048F28C62C8
:109AAC002DE9F04FC4F208020026166048F29062CD
:109ABC00C4F20802166048F29462C4F208021660FE
:109ACC0048F25862044646608660C660C4F20802DA
