:020000040020DA
:10400000F87F00201D41200015EE200015EE200055
:1040100015EE200015EE200015EE200015EE200014
:1040200015EE200015EE200015EE20004BEE2000CE
:1040300015EE200015EE200015EE200015EE2000F4
:1040400015EE200015EE200015EE200015EE2000E4
:1040500015EE200015EE200015EE200015EE2000D4
:1040600015EE200015EE200015EE200015EE2000C4
:1040700015EE200015EE200015EE200015EE2000B4
:1040800015EE200015EE200015EE200015EE2000A4
:1040900015EE200015EE200015EE200015EE200094
:1040A00015EE200015EE200015EE200015EE200084
:1040B00015EE200015EE200015EE200015EE200074
:1040C00015EE200015EE200015EE200015EE200064
:1040D00015EE200015EE200015EE200015EE200054
:1040E00015EE200015EE200015EE200015EE200044
:1040F00015EE200015EE200010B5074C54F8043CD6
:10410000B3F1FF3F06D0043C984754F8043DB3F1A7
:0C411000FF3FF9D110BD00BF9CFE200055
:10411C0040400949094A086004319142FBDBFFF732
:10412C00E5FF00BF00F02EFA00F056FA01B40BF0D8
:10413C0091FD01F011FC000004000020481000204B
:10414C0043680A1D5BB1D0F80CC00133CCF80420D5
:10415C004FF0000CC1F808C04360C26070478B6020
:10416C0001238260C2604360F8E700BF10B444686A
:10417C00012C17D0836801F1040C9C4517D04BB16E
:10418C005A682AB1944503D013465268002AF9D1D3
:10419C008A685A60C268944508BFC360013C446099
:1041AC0010BC704700238360C3604360F8E7002CA9
:1041BC00F6D08B68013C83604460F1E730B58468CD
:1041CC0005464CB12068294603681B68984764680B
:1041DC00002CF7D1012030BD2046FCE7F0B54B6A2E
:1041EC0081B004460D461746002B37D0AC462360F1
:1041FC005CF8043B04F1200E2361BCE80F00AEE830
:10420C000F009CE807008EE807000026AA6A66618A
:10421C00A661E461E663266405F12001204604F002
:10422C00D9FDAB6AA2686660D218A2F140034FF0C8
:10423C00807142F8401C0B4A01A942F001029A63BA
:10424C0047F00102DA63204641F8047DE3606946D9
:10425C004FF4406205F07AF801B0F0BD024B1B68D8
:10426C00C4E700BF5959200050020020294B30B53B
:10427C00186844682246002C47D06368572B07D82F
:10428C00482B11D0D268002A3FD05368572BF7D94E
:10429C00483B5360C1684839C16053B1126848212A
:1042AC00D018D150043030BD00235360C168483958
:1042BC00C160016801290BD0956875B1D468BCB197
:1042CC00EC60D2F80CC00139CCF808500160E5E77D
:1042DC000021416081600160E0E70029DED0D4F864
:1042EC000CC00139C0F804C00160CCF80850D5E707
:1042FC000029D3D0D0F808C00139DCF808C001601F
:10430C00C0F808C0CCF80C40C8E701F02DFB002029
:10431C00C9E700BFDC0000202DE9F04598B000246F
:10432C001694169B002500264FF4406A01930094C6
:10433C00069507960495059602950396089409949C
:10434C00CDF828A0FFF792FF44F23012C0F2200201
:10435C0069460746FFF742FF6FF000431793179B20
:10436C004FF001080C93CDF82C80119512960F95F7
:10437C0010960D950E9613941494CDF854A0FFF747
:10438C0075FF49F27D02C0F220020BA9FFF726FF50
:10439C0040F27023C2F2000383F80080F8680AF040
:1043AC0085FF18B0BDE8F0852DE9F0076B4E7368FA
:1043BC00002B76D05968002973D0DFF8A481B2465F
:1043CC00002700225A60F268D8F80050521AF260A6
:1043DC005A68BAB9DAF80040012C76D098680028EF
:1043EC0000F09B80D3F80CC0BCF1000F00F0A5804E
:1043FC00C0F80CC0DA689060DAF80020013ACAF80C
:10440C0000205A681C68A41849D00F2947D961604C
:10441C002460A760E760EB6859186B68E960D4F812
:10442C0000C06068002B40D0D3F800906044484531
:10443C000CBF1A461A4604D0D26812B111688842D1
:10444C00FAD159688944CC4507D0DB68002B2BD0B6
:10445C001868596841188C45F7D119461346CBB1E9
:10446C0060685A68821862602868012802BF6F6011
:10447C00AF602F600ED09A68002A2ED0D3F80CC0F3
:10448C00BCF1000F33D0C2F80CC0DB689A602B680B
:10449C00013B2B6019B14A686368D3184B60736891
:1044AC0073B9BDE8F007704713462968002929D174
:1044BC00A160E1602A686C600132AC602A60CEE7D2
:1044CC00596800297FF47DAFEBE7CAF80020CAF8E1
:1044DC000420CAF808205A6894E70028DAD06B68E0
:1044EC00DB686B609A602B68013B2B60D2E700287D
:1044FC00D0D0AB689B68AB60C3F80CC02B68013B99
:10450C002B60C7E7AA683946D460AA68E760A26046
:10451C002A68AC6001322A60A1E7002C3FF472AF2C
:10452C00DAF80400C068CAF804008260DAF80020E7
:10453C00013ACAF800205A6864E7002C3FF462AFD5
:10454C00DAF808008068CAF80800C260DAF80020BF
:10455C00013ACAF800205A6854E700BF3010002016
:10456C00DC00002040F21403C2F200030A210022F6
:10457C001A71196040F20C03C2F2000319601A712F
:10458C00704700BF00B501F049FD00BD0B4940F27A
:10459C001C03C2F20003002219605A609A60DA60B0
:1045AC0019615A619A61DA6119625A629A62DA6225
:1045BC0019635A639A63DA63704700BF90FC20005A
:1045CC00044A40F21C03C2F200031A631A621A6115
:1045DC001A60704790FC20002DE9F04FDFF8586608
:1045EC0092B0306843683BB15A68732A08D8642A81
:1045FC0006D0DB68002BF7D101F0B6F900241EE0E1
:10460C00643A5A60C268643AC2605A6892B90468E3
:10461C00012C00F0C8829968002900F0DD82DD6869
:10462C00002D00F0F182CD60DA6891600268013AE9
:10463C0002605A681B6864219C1899500434002548
:10464C0004F1100004F120036560A560E56006909C
:10465C006362DFF8E8356061236003F11C022833E4
:10466C0023624CF62413C8F292432261A561E561E2
:10467C00A562E362256384F8345004F13500DFF859
:10468C00C015062201F024FA72B648F61003C4F2E3
:10469C000803DFF8B08548F614011D60C4F2080168
:1046AC00D8F800C0D1F800E048F61801C4F20801AF
:1046BC000F684FEA0C233F02E81943F1000110EB9D
:1046CC000E0241F1000348F62401C4F20801D1F8AE
:1046DC0000E04FEA0E404FEA1E41121843EB010373
:1046EC0048F62001C4F20801D1F800E048F61C019C
:1046FC00C4F208014FEA0E600F6812184FEA1E212F
:10470C0043EB0103D8F80010521943EB07038C4517
:10471C0005D000204FF48071121843EB010362B6F0
:10472C0040F26C5CC2F2000C9CE80300801841EB78
:10473C000301430943EAC16344F24020E363C0F23E
:10474C000F004B0900216064A16423640122002343
:10475C00E36422656365A365306843683BB15A68BE
:10476C00B32A0AD8A42A08D0DB68002BF7D101F0B1
:10477C00FBF8002107910D461FE0A43A5A60C2686D
:10478C00A43AC2605A6892B90568012D00F01082F3
:10479C009968002900F02C82DE68002E00F040821F
:1047AC00CE60DA6891600268013A02605A681B6850
:1047BC00A4219D1804359950079572B648F610023D
:1047CC000023C4F20802136048F61402C4F2080273
:1047DC00D8F80000D2F800C048F61802C4F208025B
:1047EC00D2F800E007024FEA0E2E13EB0E0147F150
:1047FC00000211EB0C0642F1000748F62402C4F249
:10480C000802D2F800C04FEA0C414FEA1C4276185D
:10481C0047EB020748F62002C4F20802D2F800E087
:10482C0048F61C02C4F208024FEA0E61D2F800C02E
:10483C0076184FEA1E2247EB0207F618D8F800301C
:10484C0047EB0C07984205D000224FF48073B61842
:10485C0047EB030762B640F26C530DF13409C2F218
:10486C0000030CCBF649049205930DF13C0B062288
:10487C00484601F02DF90622F149584601F028F975
:10488C004FF0000A6FF073032B7085F801A004AB96
:10489C000CCB921943EB0703510941EAC3616980C0
:1048AC00090CA980C3F34F115B0DE9802B8149469C
:1048BC00062205F10A0001F00BF99BE803004023E6
:1048CC0085F823306B6A002203F07F4343F4746352
:1048DC0043F002036B622D23C5F880300023A983BB
:1048EC00C5F88420C5F8883048F29241C5F88C2070
:1048FC00C5F890304CF62412A86129844CF624108B
:10490C00C8F29242D049E88385F822A0C5F89450A9
:10491C00C5F89820C5F89CA00B6805F1940C002BE9
:10492C0040F00381C5F89C300B68C1F804C001331A
:10493C00C1F808C00B60DFF814934FF0FF33D9F8BF
:10494C0000108DF844308DF8453004238DF8473035
:10495C0008680026036809220292009601961F6AD5
:10496C0011AA0DF14703B84795F822300746089372
:10497C0072B648F61003C4F208031E6048F618021B
:10498C0048F61403C4F20803C4F20802D8F800E095
:10499C001B6812684FEA0E2B1202B0184BF1000183
:1049AC0010EB030A48F62403C4F20803186841F11B
:1049BC00000B0204030C1AEB020A4BEB030B48F638
:1049CC002003C4F20803186848F61C03C4F2080359
:1049DC000206D3F800C0030A1AEB020A4BEB030BD6
:1049EC00D8F800301AEB060A4BEB0C0B9E4506D0A0
:1049FC0000224FF480731AEB020A4BEB030B62B6E6
:104A0C0040F26C520DF12C08C2F2000206CA40466C
:104A1C000491059206228A4901F05AF809AB18460E
:104A2C00062287490026039301F052F86FF06302C7
:104A3C003A707E7004AA06CA11EB0A0142EB0B0213
:104A4C00480940EAC260C0F3072CB87087F803C06D
:104A5C00C0F3074C000E7871C2F34710B871C2F363
:104A6C004730F871C2F34750520F87F804C03872C0
:104A7C007A724146062207F10A0001F029F8039BDD
:104A8C000622194607F1180001F022F80422BA7721
:104A9C0005F11E0107F11F0001F01AF8089B3846BA
:104AAC0087F8233087F8246005F060FF384605F05E
:104ABC0067FD384606F0D0F8384604F0D3FFD9F835
:104ACC0000303946186803685B6A98472A23E56505
:104ADC002363E6610798A0610699204640F8141FED
:104AEC005B494B68002B57D0D1F808C0079ADCF80B
:104AFC000430934261DCDCF80830002B37D065467B
:104B0C0096465A68724528DD002D56D0A860E361A0
:104B1C004B6801334B604F4B0021DB68186804F085
:104B2C0035F8002012B0BDE8F08FD1F804E0DEF8C3
:104B3C000430934248D8DEF808300BB3764617465B
:104B4C005A68BA420ED9002E3ED0C6F808C0C5F835
:104B5C009C300B6801330B60EDE69A683AB11D4648
:104B6C001346CEE79A685AB11E461346E8E7CB685F
:104B7C0098600023E3614B68C86001334B60CAE75F
:104B8C008B68C3F808C00023C5F89C300B68C1F8CB
:104B9C0008C001330B60CEE6E3614B6888600133DB
:104BAC00C8604B60B7E74260826002605A6841E5BA
:104BBC004260826002605A68F9E5C4F81CC04B6818
:104BCC00886001334B60A6E7C5F89CE00B68C1F820
:104BDC0004C001330B60AEE6002C3FF42BAD4168F2
:104BEC00C96841608A600268013A02605A6821E52E
:104BFC00002D3FF4DCAD4168C96841608A600268F1
:104C0C00013A02605A68D2E5002C3FF413AD81687A
:104C1C0089688160CA600268013A02605A6809E5D5
:104C2C00002D3FF4C4AD816889688160CA60026858
:104C3C00013A02605A68BAE5DC000020A4FC2000AE
:104C4C003805002068050020BC020020AC020020C2
:104C5C003403002054020020014B0360704700BF56
:104C6C0000FD2000014B0360704700BF00FD2000D9
:104C7C00014B0360704700BF00FD2000F0B5438876
:104C8C0082880D4643EA02410289C38884B043EA14
:104C9C000243D0F8882004469A4250D851D0D4F818
:104CAC0090209A424BD355D02D4E4FF0FF338DF8B8
:104CBC000C308DF80D30316804238DF80F30D4F89A
:104CCC0080C008680023026800930193ACF11E03B6
:104CDC000293176A0DF10F0303AAB8472146074642
:104CEC00D4F8802000F0F4FEFA78BB78384643EA1A
:104CFC0002233A7943EA02437A7943EA02632A6847
:104D0C00D31AC3F3072287F8233087F82420C3F380
:104D1C0007421B0E87F8263087F8252005F026FE63
:104D2C00384605F02DFC384605F096FF384604F061
:104D3C0099FE33683946186803685B6A984704B073
:104D4C00F0BDD0F884208A42F9D8D4F890209A4249
:104D5C00A9D2F4E7D4F88C308B42A5D2EFE700BF90
:104D6C00AC020020024B00B5036000F001FE00BD58
:104D7C0000FD2000024B00B5036000F0F9FD00BD02
:104D8C0000FD2000024B00B5036000F0F1FD00BDFA
:104D9C0000FD200000B5406803F066FE00BD00BFBA
:104DAC00A0F1100000E000BF2DE9F0451D461B7876
:104DBC0093B0C3F3C103012B044600F0848005D3E8
:104DCC00022B00F0C98013B0BDE8F085036D13F021
:104DDC00010FF8D095F8282095F82910C36D42EAF8
:104DEC00012195F82A2095F82D0041EA024195F809
:104DFC002B2041EA026195F82C2042EA002295F81A
:104E0C002E0042EA004295F82F00C3F8841042EAC3
:104E1C000062C3F8882095F8302095F8311095F889
:104E2C00350042EA012195F8322041EA024195F819
:104E3C00332041EA026195F8342042EA002295F8C9
:104E4C00360042EA004295F83700C3F88C1042EA6B
:104E5C000062C3F8902095F83C2002F00302022A6D
:104E6C0000F08B8095F8412095F8421095F846009B
:104E7C0042EA012195F8432041EA024195F8442089
:104E8C0041EA026195F8452042EA002295F8470074
:104E9C0042EA004295F8480042EA006251EA0200F8
:104EAC0000F08280606D002800F00481D0F85CC0B6
:104EBC00036E5CEA030386D00D915C300DA90E9253
:104ECC0003F06AFC7FE7EA78AB7843EA02232A799D
:104EDC0043EA02436A7943EA0261EA79AB7943EA2D
:104EEC0002232A7A43EA02436A7A43EA0263026C97
:104EFC009A4203D330D1C36B8B422DD2236D13F066
:104F0C00040F36D0226BD5F82730D318236395F8CD
:104F1C00223005F10A0184F83430062204F1350000
:104F2C0000F0D6FDAB78EA78E97943EA02222B79D6
:104F3C00204642EA03426B7942EA0362AB7943EAC8
:104F4C000123297A43EA0143697AE26343EA016364
:104F5C00236423689B689847236D13F0030F3FF479
:104F6C0032AF04F1350005F10A01062200F0B0FD64
:104F7C0029E7D5F827302363C9E7656D002D3FF489
:104F8C0022AF05F15C0003F0C1FBA94B05F1440015
:104F9C006B6503F091FD284604F0F6FB284600F003
:104FAC00E7FC002363650EE72A22226372B648F6FB
:104FBC001002C4F20802DFF87CE248F61406106016
:104FCC00C4F20806DEF800C0D6F8008048F61806D1
:104FDC00C4F20806D6F800A04FEA0C224FEA0A2ABF
:104FEC0010EB0A0642F1000716EB080148F62406FE
:104FFC00C4F20806D6F8008047F100024FEA0846D2
:10500C00891948F62006C4F208064FEA1847D6F864
:10501C00008048F61C06C4F20806D6F800A04FEA39
:10502C00086642EB070289194FEA182742EB070280
:10503C000918DEF8000042EB0A02844505D0002670
:10504C004FF48077891942EB070262B67A4890E8F0
:10505C00C000761847EB0207720942EAC762790969
:10506C002164E2635A80E28F2A219A80C3F82710C8
:10507C00B4F84010D980B4F842201A8195F83E203B
:10508C0095F83D3095F83FC043EA022343EA0C43C0
:10509C0095F840C004F13C0206CA43EA0C6C11EBD3
:1050AC000C03E06D0BA942EBEC740B930C94FFF723
:1050BC00E5FD88E60F91109295F83E2095F83D306D
:1050CC0095F840A043EA022395F83F2043EA0243B7
:1050DC0043EA0A6A594B186843683BB15A68932AE9
:1050EC0070D8842A6ED0DB68002BF7D100F03CFC22
:1050FC0000250F9BD4F84C8002931293109B022234
:10510C000393129B009201934D4B00261B680021C8
:10511C0000224FF44067069107920491059208967D
:10512C0009960A972B60009B05F1200C2B616E6190
:10513C00AE61ED610DF1040EBEE80F00ACE80F009E
:10514C009EE807008CE80700EE632E640A9A284656
:10515C0008A903F03FFE6E60AA680A9BD318A3F15E
:10516C0040024FF0807143F8401C3649364841F0FC
:10517C000101916340F00101D16313A943F838ACEC
:10518C0043F83C8C43F8344CEA603A4641F8080D3D
:10519C0005F14407284604F0D9F83846314603F0A7
:1051AC005DFC2A4B05F15C006B6505F154020FA9FF
:1051BC004FF0FF33AF6503F0A1FB284604F068F80D
:1051CC00656500E6843A5A60C268843AC2605A68DF
:1051DC006AB90168012910D09D689DB1DE68E6B1FD
:1051EC00EE60DA6895600268013A02605A681B68E2
:1051FC0084219D18995004357BE7426082600260DF
:10520C005A68F4E70029F2D04168C96841608A60A5
:10521C000268013A02605A68E9E70029E7D0816820
:10522C0089688160CA600268013A02605A68DEE7E8
:10523C0000FD2000680500206C050020DC0000202B
:10524C00500200205959200079532000D8FC20002E
:10525C00A0F1200000E000BF2DE9F048044682B028
:10526C0072B648F610030021C4F208033D4D48F60F
:10527C0014001960C4F20800D5F800E0D0F800C0A2
:10528C0048F61800C4F2080000684FEA0E2300022A
:10529C000E1848F62400C4F20800006843F1000719
:1052AC004FEA004B16EB0C024FEA104C48F620006C
:1052BC00C4F20800066847F1000348F61C0012EB24
:1052CC000B024FEA066B43EB0C03C4F2080012EB23
:1052DC000B024FEA162C006843EB0C038B4652185A
:1052EC00296843EB00038E4505D000204FF48071F4
:1052FC00121843EB010362B61B4903C9801841EB3A
:10530C000301430943EAC163E3634B0923642A2382
:10531C002363236820469B689847E36D0BB1626D4D
:10532C0012B102B0BDE8F088226B02A9C3F82720A5
:10533C00A28F5A80E28F9A80B4F84020DA80B4F8B9
:10534C0042201A8104F144030CCBE06D04F13C05BE
:10535C0030CD121943EB050321E90C006946FFF728
:10536C008DFCDEE7680500206C0500202DE9F04F70
:10537C0093B0119148F6100048F61401C4F20800DD
:10538C00C4F2080148F6200A91460B900C9148F69D
:10539C00180248F62403504648F61C01C4F20802D1
:1053AC00C4F20803C4F20800C4F208010D920E9373
:1053BC000F90109111E000F0178140F25420C2F2CE
:1053CC000000C3681E68B06E002840F0FD800038F5
:1053DC0018BF0120002800F0048172B60B9A00233C
:1053EC0040F2685A1360C2F2000ADAF800A00C9A74
:1053FC00CDF80CA05046DDF834A0166819461F46AF
:10540C00DAF8003000021B028046C81848F100018F
:10541C00821941F100030E99DDF840A00868079746
:10542C004FEA104B0004CDF818B0059005A903C93C
:10543C00121843EB01030F990868DAF800604FEA81
:10544C00006B4FEA102C12EB0B02089607A903C94C
:10545C0043EB0C03121843EB010340F26851C2F208
:10546C00000108680399BA46814205D000204FF428
:10547C008071121843EB010362B640F26C54C2F215
:10548C00000494E80300801841EB0301D9F85C3068
:10549C004D09D3F890204409AA4244EAC1648AD940
:1054AC002A22C9F83020C3F82720220CC9F83C4026
:1054BC00C9F840509A802A0C5C80DD801A81D9F89A
:1054CC005CA0BAF80230BAF80410BAF8082043EA23
:1054DC000141BAF8063043EA0243DAF888209A42CE
:1054EC005FD800F08D80DAF890209A4259D300F002
:1054FC00818040F2AC204FF0FF33C2F20000DAF8AA
:10550C0080E001688DF848308DF8493004238DF81F
:10551C004B3008680023026800930193AEF11E0320
:10552C000293CDF810C0166A0DF14B0312AAB047C6
:10553C005146DAF88020064600F0CAFA119AB37880
:10554C00A018F27840F2AC2A43EA02233279C2F274
:10555C00000A43EA0243727943EA0263C31AC3F3B3
:10556C00072286F8233086F82420C3F307421B0E4B
:10557C0086F8252086F82630304605F0F7F93046B7
:10558C0004F0FEFF304605F067FB304604F06AFA83
:10559C00DAF800303146186803685B6A9847DDF822
:1055AC0010C0D9F80030CDF810C09B684846984719
:1055BC0040F25420C2F20000C368DDF810C01E682F
:1055CC00B06E00283FF403AF06F14400CDF810C0D4
:1055DC0003F05EFAB06E003818BF012000287FF48B
:1055EC00FCAE13B0BDE8F08FD3F88C20A2427FF64E
:1055FC00E4AE55E7DAF88C308B42BFF47AAFD0E7E3
:10560C00DAF884208A427FF66EAFCAE770B500F0F4
:10561C00ABFAB5494B68002B00F059815A6846F239
:10562C000300824209D8B2F5C04F06D0DB68002BCC
:10563C0000F04D815A688242F5D9A2F5C0425A60F9
:10564C00CA68A948A2F5C042CA605A6892B90468EF
:10565C00012C00F0EF809968002900F01E81DD68B4
:10566C00002D00F02881CD60DA6891600268013A63
:10567C0002605A681968DFF874C200238C18CCF8E1
:10568C000030CCF80430CCF80830CCF80C304CD0CE
:10569C004FF4C0408C506060A360E360DCF80C30C9
:1056AC001B18CCF80C30DCF8043051F802E06068C0
:1056BC00002B00F0A7801D687044A8420CBF1A464E
:1056CC001A4604D0D26812B111688842FAD15968CE
:1056DC006D18AE4508D0DB68002B00F0928018687E
:1056EC00596841188E45F6D119461346C3B1606806
:1056FC005A6882186260DCF80000012800F0928081
:10570C009A68002A00F09B80DD68002D00F0A680CE
:10571C00D560DB689A60DCF80030013BCCF80030D7
:10572C0019B14A686368D3184B60714BC3F800C059
:10573C0000F05AFB00F082FC6E4B002293E8300024
:10574C0043F24803C4F2030319686B4B55181868ED
:10575C00234643F1000644F66D63C4F2C61305FB01
:10576C0003F505F5405503683935644CB5F1FF3F39
:10577C0028BF0135DB6A256098470378002B40F081
:10578C0098804178003918BF012149F20043C4F2D6
:10579C000D031A6822F020021A6044F29402C4F23B
:1057AC000D020123136047F20802C4F20D02B52367
:1057BC00136047F20002C4F20D02136813F0800F5D
:1057CC00FBD047F21002C4F20D02136847F20C0230
:1057DC00C4F20D02126881EA050502EB032244F6BD
:1057EC006D63C4F2C61303FB05F505F54055393559
:1057FC00B5F1FF3F28BF013542F30B135D40256027
:10580C0070BD1346DCF80010002936D1A160E160B0
:10581C00DCF80020CCF804400132CCF80840CCF87D
:10582C00002063E70023CCF80430CCF80830CCF827
:10583C00003075E74260826002605A681AE70028FF
:10584C003FF46EAFDCF80430DB68CCF804309A60BF
:10585C00DCF80030013BCCF8003061E700283FF465
:10586C005FAFDCF808309B68CCF80830DD60DCF802
:10587C000030013BCCF8003052E7DCF80820002166
:10588C00D460DCF80820E160A260DCF80020CCF8E1
:10589C0008400132CCF8002028E7002C3FF4EAAE97
:1058AC004168C96841608A600268013A02605A68BE
:1058BC00E0E6012169E7002C3FF4DCAE81688968E1
:1058CC008160CA600268013A02605A68D2E6DFF869
:1058DC001CC00023CCF80030CCF80430CCF80830D5
:1058EC00CCF80C3021E700BF30100020CC00002099
:1058FC00DC0000204010002080050020E800002083
:10590C0000B500F011FA40F244530022C2F2000339
:10591C001A6040F24053C2F200031A6040F2C40312
:10592C00C2F200030A211A71196040F2BC03C2F2E0
:10593C00000319601A7100BD704700BF40F2E0030C
:10594C00C2F2000300221A605A60704700B500468C
:10595C0003F0D6FD00BD00BF00B503F0D1FD00BDC6
:10596C0000B509F0ABFA00BD00B5FFF7F9FF00BDBB
:10597C003D4B70B41D6850F8043C041F0F2B41D9EB
:10598C00002240F8044C6360A260E260EA68D3181D
:10599C00EB606B6850F804CC6068002B35D01E6847
:1059AC006044B0420CBF1A461A4604D0D26812B1F9
:1059BC0011688842FAD159687618B44507D0DB686B
:1059CC00002B21D01868596841188C45F7D119461D
:1059DC00134693B160685A6882186260286801287F
:1059EC001DD09A68002A1FD0DE68002E31D0D660F8
:1059FC00DB689A602B68013B2B6019B14A686368BD
:105A0C00D3184B6070BC704713462968B1B9A160BC
:105A1C00E1602A686C600132AC602A60D9E700232F
:105A2C006B60AB602B60E8E70028E6D06B68DB6846
:105A3C006B609A602B68013B2B60DEE7AA68002143
:105A4C00D460AA68E160A2602A68AC6001322A6066
:105A5C00BFE70028D1D0AB689B68AB60DE602B68D9
:105A6C00013B2B60C9E700BFDC000020032A30B4E7
:105A7C0005460C4610D941EA000313F0030F0CD174
:105A8C00D0F800C00B689C4504D1043A04300431B2
:105A9C00032AF5D805460C46B2B1287894F800C014
:105AAC0060450ED1013A002372B105EB030C9CF852
:105ABC00010004EB030C9CF801C00133013A604572
:105ACC00F2D0CCEB000000E0002030BC704700BFEF
:105ADC000F2A30B405460C4642D941EA000313F0B4
:105AEC00030F02BF14468C46034609D0002314F85A
:105AFC0003C005F803C001339A42F8D130BC70479B
:105B0C00DCF80050103C1D60DCF804505D60DCF8E3
:105B1C0008509D60DCF80C500CF1100CDD6010335B
:105B2C000F2CEDD8A2F1100404F00F0224F00F0496
:105B3C00103405190C19032A12D9002354F803C088
:105B4C0045F803C00433C3EB020CBCF1030FF5D8CA
:105B5C00043A22F003030433ED18E41802F00302B4
:105B6C00002AC3D1CAE700BF00B500F003F800F06B
:105B7C0095F800BDDFF81CC147F2F832C2F2000202
:105B8C00CCEB020270B4002A4AD00023424DCCF870
:105B9C0000C0CCF80420CCF80830CCF80C30EB6802
:105BAC006446D318EB606B68002B3CD01E680CEB82
:105BBC008200B0420CBF1A461A4604D0D26812B109
:105BCC0011688842FAD1596806EB8106B44208D0B4
:105BDC00DB68002B26D05868196801EB80018C42D9
:105BEC00F6D119461346ABB1DCF804005A6882189A
:105BFC00CCF804202C68284A012C23D09868002863
:105C0C0025D0DD68002D3AD0C560DB68986013683C
:105C1C00013B136021B14A68DCF80430D3184B60A7
:105C2C0070BC704713462A681B48D2B90121CCF8C6
:105C3C000820CCF80C200160C0F804C0C0F808C0E3
:105C4C001146D0E70023536093601360E2E7002C09
:105C5C00E0D05368DB68536098601368013B1360B5
:105C6C00D8E781680132C1F80CC08168CCF8081003
:105C7C000021CCF80C10C0F808C00260B3E7002C6F
:105C8C00C8D093689B689360DD601368013B136018
:105C9C00C0E700BF481000203010002043F20C0376
:105CAC00C4F203031A68122022F001021A6042F2B5
:105CBC000802C4F20D02116841F00801116042F2B1
:105CCC000C02C4F20D02116841F00801116042F29D
:105CDC001002C4F20D02116841F00801116043F288
:105CEC0000020021C4F20302116043F20402C4F268
:105CFC000302106043F22802C4F203024FF0FF309B
:105D0C00106043F23802C4F20302116043F218022D
:105D1C00C4F20302116841F0010111601A6842F0EB
:105D2C0001021A60704700BF4CF22043C4F20D030D
:105D3C001A6822F0C0021A604CF20043C4F20D0340
:105D4C001A6822F0C0021A6044F2F8030122C4F26D
:105D5C000D031A6044F2FC03C4F20D031A6042F204
:105D6C000002C4F20D0211684FF6F873CFF6DC6333
:105D7C0001EA030343F4081342F204011360C4F272
:105D8C000D010A6840F20003C0F2011302EA03039A
:105D9C00002BF6D142F20003C4F20D031A6822F470
:105DAC00E0621A6042F20402C4F20D02136813F0AE
:105DBC00806FFBD0704700BF4EF61453CEF2000339
:105DCC001A6842F001021A6042F29803C4F20D0301
:105DDC001A6842F001021A604EF60853CEF2000324
:105DEC004FF401121A60704700B5FFF7E5FF02F09F
:105DFC0039FB00F019F800F09BF800F009F800F0FE
:105E0C0001F800BD00B5002002F00EFA00BD00BF85
:105E1C00044B082203F5807183F8002801338B4270
:105E2C00FAD170470C0700204EF210034EF2180204
:105E3C00CEF200030021CEF20002196011604EF286
:105E4C001402CEF200024FF4FA41116006221A60DD
:105E5C004EF6557140F20C62C2F20002C0F2200103
:105E6C00D1631A6842F001021A60704740F2F103E4
:105E7C000022C2F200031A7040F2F003C2F20003D7
:105E8C001A7040F2EC03C2F200030221196041F2D5
:105E9C002003C2F200031A6041F22C03C2F2000389
:105EAC0049F2380C1A60C4F2080C032349F2400082
:105EBC0049F24C01CCF8003030B4C4F20800042490
:105ECC00C4F2080149F244030460C4F208030A60F6
:105EDC001D6845F040051D601D6845F008051D60F6
:105EEC001D6845F008051D602023CCF800400260B9
:105EFC000B6049F25003C4F208031A6842F08002A6
:105F0C001A601A6842F010021A6049F21C03C4F2BB
:105F1C00080301221A6049F22403C4F208031A6030
:105F2C0049F22C03C4F208031C6030BC704700BF5C
:105F3C004BF22043C4F20D031A682DE9F04822F00D
:105F4C0004021A604BF20043C4F20D031A6842F0CB
:105F5C0004021A604BF21003C4F20D03FF221A6004
:105F6C0049F23C02C4F20802136843F001031360C7
:105F7C00136843F002031360136813F0800FFBD017
:105F8C0049F20403C4F208031A6822F001021A60F1
:105F9C00FFF76CFF1D4B01221A601D4A1D4BC3F805
:105FAC00F0204EF20413CEF200034FF480521A602C
:105FBC00EFF31087FFB207B162B6174843F24806F9
:105FCC00C4F2030690E80018316800225B4612EB1D
:105FDC00010B49F20002C0F2D03243F1000C002355
:105FEC001BEB020B4CEB030C90E80C00316800240B
:105FFC001546621845F100039C45F5D801D193452F
:10600C00F2D807B162B6BDE8F08800BFEC00002002
:10601C0009F120000C0600204010002000B540F2D1
:10602C008053C2F2000381B01B6801A840F8043D04
:10603C00684600F071FC01B000BD00BF00B502F075
:10604C0069FA00F001F800BD704700BF40F2AC23C4
:10605C00C2F200031B680146186800B503680422ED
:10606C001B68984700BD00BF00230160436083603C
:10607C00C3607047F0B5634D634C64232B700A22E8
:10608C0000230746A270227083B023716371E37002
:10609C0063704FF028105D4908221E46FFF7E6FC9E
:1060AC0028B926716671A070E67020706670584B26
:1060BC0004221B683946186803681B6898472379C3
:1060CC00627943EA0220A378E27843EA022123783A
:1060DC00627853EA022274D04E4B186843683BB185
:1060EC005A68572A08D8482A06D0DB68002BF7D103
:1060FC00FFF73AFC00241BE0483A5A60C268483A61
:10610C00C2605A687AB90468012C5FD0996800297A
:10611C0061D0DE68002E69D0CE60DA6891600268CA
:10612C00013A02605A681B6848219C189950043443
:10613C00394B01221B6822614FF6FD722360C7F6B2
:10614C00FF720023A361636063610021009200224F
:10615C006163A263E16222636162A262E461009AFC
:10616C0003A92262E3632364204641F8043D4FF403
:10617C00406202F02FFEA36803F53C614FF0807083
:10618C00C3F8C00B2548264A40F00100C3F8F80BB1
:10619C0042F00100C3F8FC0BE16003A941F8082DA3
:1061AC0020464FF4406203F0D1F82B784F2B06D8E1
:1061BC001C4CE36802F0DCFE2B784F2BF9D903B0B2
:1061CC00F0BD002988D1002886D1EEE742608260BC
:1061DC0002605A68A7E7002CA5D04168C9684160E5
:1061EC008A600268013A02605A689CE7002C9AD0D7
:1061FC00816889688160CA600268013A02605A68E5
:10620C0091E700BF440300203805002064FD200006
:10621C00AC020020DC000020500200205959200064
:10622C00ED642000540200202DE9F04FA34E0146EE
:10623C0033797779F07843EA0727B378727843EAB1
:10624C000020337898B053EA022200F01A819C4B5C
:10625C0004221B68186803681B68984733797279A5
:10626C0043EA0220B378F27843EA02213378727859
:10627C0053EA022200F0FD80DFF848B2DFF848C292
:10628C009248CDF834B0CDF830C0119048F6100BD0
:10629C0048F6200748F61C06C4F2080B48F6140909
:1062AC0048F6180A48F62408C4F20807C4F208068F
:1062BC00C4F20809C4F2080AC4F20808CDF808B000
:1062CC000097019672B6029800210C9B01601A6827
:1062DC00D9F80040DAF8003016021B0211EB030B60
:1062EC000D46D8F8001046F1000C1BEB040310947B
:1062FC004CF100044FEA114C0904CDF81CC0009F6E
:10630C00069106A903C91B1844EB0104DDF804B07F
:10631C003968DBF800C00F0A09060997089108A92B
:10632C0003C9CDF82CC01B180A950C9F44EB010433
:10633C000AA903C91B1844EB010439688A4205D029
:10634C0000204FF480711B1844EB010462B6119FBE
:10635C000D9897E80600DDF834B0C91842EB04023A
:10636C00D0F804C04B09DBF800B043EAC263520911
:10637C006245CDF840B005D802D018B0BDE8F08F1A
:10638C005B45FAD972B6029A00230C9C1360226802
:10639C000E93D9F800E0DAF8003017020F974FEAA5
:1063AC00032B0EA903C910EB0B0341F10004D8F821
:1063BC00001013EB0E0344F100044FEA114B0904D7
:1063CC00CDF84CB0009F129112A903C91B1844EBD5
:1063DC0001043968DDF804B00F0A09061597149109
:1063EC0014A903C9DBF800E01B1844EB01040021DD
:1063FC00CDF85CE016910C9F16A903C91B1844EB51
:10640C00010439688A4205D000204FF480711B18B2
:10641C0044EB010462B6119FDDF840B097E806002A
:10642C00C91842EB04024FEA511ECDF810B0CDF85A
:10643C0014C004A903C926A418CC4EEAC26E520992
:10644C00C01841EB04018A420490059107D804D08E
:10645C00214BDB6802F08CFD34E78645F8D91F4BE5
:10646C000020002183E803001B4BDB6802F080FD59
:10647C0028E7A9B11349144A144B0D910C921193AE
:10648C0004E700287FF4E3AE002F7FF4E0AE0D4864
:10649C004FF0FF324FF0FF33074680E80C00D6E692
:1064AC0000283FF46AAF074FDFF81CB0DFF81CC0C0
:1064BC000D97CDF830B0CDF844C0E7E63805002094
:1064CC00AC02002088020020680500206C0500202A
:1064DC0020BCBE0000000000540200209C020020E2
:1064EC002DE9F04F48F6100048F6140148F6180252
:1064FC0048F6240348F6200548F61C06B2B0C4F250
:10650C000800C4F20801C4F20802C4F20803C4F281
:10651C000805C4F20806FB4CDFF8EC9311901291BD
:10652C0013921493159516961CE140F2AC23C2F20B
:10653C00000319684FF0FF338DF8C4308DF8C53067
:10654C0004238DF8C73008680026036803220292E2
:10655C00009601961D6A31AA0DF1C703A84705469E
:10656C0072B6119FDDF848E03E6013982368DEF8A0
:10657C00002001684FEA03284FEA012CCDF88080F7
:10658C001F961FA903C910EB0C0741F100081499C1
:10659C00BF180A6848F100084FEA124E1204CDF8F1
:1065AC0070E01B921BA903C93F1848EB0108159911
:1065BC00DDF858E00A68DEF800C0110A12061D92D8
:1065CC001E911DA903C9CDF888C03F18219648EB30
:1065DC00010821AA06CA7F1848EB020822689342D8
:1065EC0005D000224FF48073BF1848EB030862B645
:1065FC00062299E803000B900C912FA8C349FFF7D2
:10660C0067FA06222DA8C149FFF762FA00266FF03F
:10661C0063032B706E700BAB0CCBD21943EB0803DE
:10662C00510941EAC361C1F30720A970E870C1F3B5
:10663C000740090E6971C3F34711A971C3F34731C0
:10664C00E971C3F347515B0F6B72287129720622F3
:10665C002FA905F10A00FFF73BFA2DA9062205F137
:10666C001800FFF735FA0523AB77284604F07EF9BE
:10667C00284603F085FF284604F0EEFA284603F07E
:10668C00F1F972B61199129F0E60DDF84C80D4F8B6
:10669C0000E03868D8F800304FEA0E22190207964D
:1066AC00089207AB0CCB571843F100083A18149F0B
:1066BC0048F100033868169F4FEA104C0004CDF8DF
:1066CC0010C0039003A903C9121843EB01031599D9
:1066DC0009960868D7F800C0010A000606910590D3
:1066EC0005A903C9CDF828C01218206843EB010393
:1066FC0009AFC0CF921943EB0703864505D00020A4
:10670C004FF48071121843EB010362B699E8030051
:10671C00801841EB03014FEA501A49F280624AEAB1
:10672C00C16AC0F298024FEA511B002312EB0A0215
:10673C0043EB0B03C5F89C20C5F8A03040F2AC210C
:10674C00C2F200010B682946186803685B6A984717
:10675C0049F28062C0F2980200232BA82B922C9352
:10676C0002F058F940F24437C2F200073B784F2B45
:10677C007FF6DBAE72B6DDF844800021C8F800105D
:10678C002068129A139D4FEA002CCDF860C0D2F805
:10679C0000C02B6817911B0217AE60CEEF1846F1A4
:1067AC000008149E17EB0C02D6F800C048F1000349
:1067BC004FEA1C484FEA0C4CCDF834C0CDF8388069
:1067CC000DAE60CE521943EB0603159E169FD6F8FC
:1067DC0000C0D7F800E04FEA1C254FEA0C6C10956E
:1067EC00CDF83CC00FAFC0CF19919219CDF868E02D
:1067FC00216843EB070319AE60CE521943EB060335
:10680C00884205D000264FF48077921943EB07039A
:10681C0062B640F2882799E80300C2F2000780189C
:10682C0041EB0301D7F804C04A0943096245D7F884
:10683C0000E043EAC16302D88AD1734588D972B6A5
:10684C00DDF844800021C8F800102568129B139EC7
:10685C00280228901868336827914FEA032827AB41
:10686C000CCB12EB080643F10007321847F100037A
:10687C00149F29913868060C00042390249623AFAA
:10688C00C0CF921943EB0703159F169E3868D6F8B4
:10689C000080060A00062590269625AFC0CFCDF8BD
:1068AC00A880921929A903C943EB0703121843EBDB
:1068BC00010321688D4205D000254FF480765219D2
:1068CC0043EB060362B699E80300801841EB030121
:1068DC0043090FA7C0CF480943EAC1631EEB060169
:1068EC004CEB0702904204D87FF41FAE8B427FF62C
:1068FC001CAE40F29C2200200021C2F2000282E871
:10690C00030012E6680500206C0500203805002005
:10691C0020BCBE00000000002DE9F0410546DFF868
:10692C001844206843683BB15A681F2A08D8102ABB
:10693C0006D0DB68002BF7D1FFF716F800231EE01A
:10694C00103A5A60C268103AC2605A6892B9066826
:10695C00012E00F075819968002900F0A581DF688F
:10696C00002F00F0DD81CF60DA6891600268013A97
:10697C0002605A68196810208B18885004332A68F2
:10698C00DFF8B8831A60C8F80030206843683BB160
:10699C005A68232A08D8142A06D0DB68002BF7D1B2
:1069AC00FEF7E2FF00271EE0143A5A60C268143A60
:1069BC00C2605A6892B90568012D00F02D81996862
:1069CC00002900F04E81DE68002E00F08581CE603B
:1069DC00DA6891600268013A02605A681B681421F7
:1069EC009F1899500437D64A00233A60D54A7F60E5
:1069FC003B72FB60DFF850C31360D44A44F66D6100
:106A0C001370DCF80030C4F2C61101FB03F303F57C
:106A1C0040533933B3F1FF3F28BF01339AB201FB26
:106A2C0003F303F540533933B3F1FF3F28BF013370
:106A3C0098B201FB03F303F540533933B3F1FF3F35
:106A4C0028BF01339DB2002A59D0CCF80030C04B7E
:106A5C001D7198702D0A000A1A70120A5D71D87097
:106A6C005A70206843683BB15A68232A08D8142A04
:106A7C0006D0DB68002BF7D1FEF776FF00261EE070
:106A8C00143A5A60C268143AC2605A6892B90568DE
:106A9C00012D00F0C6809968002900F0D680DE68D0
:106AAC00002E00F00D81CE60DA6891600268013A28
:106ABC0002605A681B6814219E18995004360023F2
:106ACC003372F360A34B00213360A34B002276603A
:106ADC0083E80600A14B83E80600A14B83E806007F
:106AEC00206843683BB15A68232A16D8142A14D05C
:106AFC00DB68002BF7D1FEF737FF00252EE00028CE
:106B0C007CD0CCF80030924B1D7198702D0A000A85
:106B1C005D71D8701A705A70A3E7143A5A60C26843
:106B2C00143AC2605A68A2B90568012D7ED09968E2
:106B3C00002900F0AD80D3F80CC0BCF1000F00F0C0
:106B4C00E380C1F80CC0DA6891600268013A026017
:106B5C005A681B6814219D189950043500232B7218
:106B6C00EB60804B6D602B60206843683BB15A68CA
:106B7C00232A09D8142A07D0DB68002BF7D100246C
:106B8C00FEF7F2FE234620E0143A5A60C268143A2B
:106B9C00C2605A689AB90468012C4CD099680029D3
:106BAC006BD0D3F80CC0BCF1000F00F0A180C1F881
:106BBC000CC0DA6891600268013A02605A68196880
:106BCC0014208B18043388501C4600221A72DA6089
:106BDC00654A5B601A603846FFF74CFA3046FFF79F
:106BEC0023FB2846FFF732FAD8F800302146186804
:106BFC00042203681B689847BDE8F081002D3FF420
:106C0C0004AFCCF80030524B1D712D0A5D71987099
:106C1C00D8701870587024E74260826002605A681D
:106C2C00DCE64260826002605A6843E74260826040
:106C3C0002605A688DE74260826002605A68BEE763
:106C4C004260826002605A6894E6002D3FF432AFD5
:106C5C004168C96841608A600268013A02605A68FA
:106C6C0028E7002D3FF4BAAE4168C96841608A60DC
:106C7C000268013A02605A68B0E6002C9FD0416865
:106C8C00C96841608A600268013A02605A6896E7F6
:106C9C00002D3FF45EAF4168C96841608A600268AC
:106CAC00013A02605A6854E7002E3FF463AE416823
:106CBC00C96841608A600268013A02605A6859E604
:106CCC00002D3FF4F7AE816889688160CA60026864
:106CDC00013A02605A68EDE6002D3FF47FAE816800
:106CEC0089688160CA600268013A02605A6875E678
:106CFC00002C3FF464AF816889688160CA600268C7
:106D0C00013A02605A685AE7002D3FF422AF8168BD
:106D1C0089688160CA600268013A02605A6818E7A3
:106D2C00002E3FF427AE816889688160CA600268D2
:106D3C00013A02605A681DE6DC000020AC0200201B
:106D4C00B4FD200034050020E8000020440300209E
:106D5C0038050020A8FD2000800200209C020020A5
:106D6C00880200209CFD200090FD20002DE9F047BA
:106D7C0072B6454A1368116813F0080F21EA030133
:106D8C00116003D0414A11680131116013F0020FF8
:106D9C0070D0DFF8FC80D8F80030002B6AD048F6B1
:106DAC0010024FF0000CC4F20802384F48F61404DD
:106DBC00C2F800C0C4F208043E68D4F800A048F63B
:106DCC001804C4F20804D4F8009032024FEA0929DE
:106DDC001CEB090442F1000514EB0A0148F62404EB
:106DEC00C4F20804D4F800A045F100024FEA0A44AA
:106DFC00091948F62004C4F208044FEA1A45D4F8DD
:106E0C0000A042EB05024FEA0A64091948F61C047B
:106E1C004FEA1A25C4F2080442EB0502D4F800A08C
:106E2C0011EB0C01D7F800C042EB0A02664505D005
:106E3C0000244FF48075091942EB0502DFF854C0A9
:106E4C009CE83000954215D812D00022C8F80020DA
:106E5C0048F60802C4F208020821116062B698478D
:106E6C004EF20013CEF200034FF080621A6009E07C
:106E7C008C42EAD94EF20013CEF200034FF080623E
:106E8C001A6062B6BDE8F0877C050020680500201A
:106E9C00540500204C05002040F2605300210022D4
:106EAC00C2F2000383E8060040F27453C2F20003FE
:106EBC0083E8060040F25853C2F2000383E8060050
:106ECC0048F60403C4F208031A6848F60C0122F0D1
:106EDC0001021A6048F60802C4F208020020C4F24B
:106EEC00080110600860196846F6795021F002011B
:106EFC0019601968C0F2200041F00801196040F2D5
:106F0C000C61C2F20001C1F8C4004EF20411CEF2C1
:106F1C00000102200860116841F0080111601A6834
:106F2C0042F001021A6070472DE9F001D4B20C72E4
:106F3C0046680023CB6049600F1D002E22D0D0F88C
:106F4C00088098F80430A34222D8D8F808308BB1C6
:106F5C00454693F804C0A44507D9CDB10136AF60BE
:106F6C004660CB60BDE8F00170479A6812B11D46CF
:106F7C001346EEE7C36801369F600023CB60466082
:106F8C00C760EFE70123CE6043608760C760E9E725
:106F9C000136C1F80C8046608760E3E710B44468A2
:106FAC00012C17D0836801F1040C9C4517D04BB110
:106FBC009A682AB1944503D013469268002AF9D1F5
:106FCC00CA689A60C268944508BFC360013C4460BB
:106FDC0010BC704700238360C3604360F8E7002C4B
:106FEC00F6D0CB68013C83604460F1E7F0B584686F
:106FFC0006461746CDB29CB1002001E0A46874B1DE
:10700C002379AB42FAD12068314603682A46D3F87B
:10701C0000C03B46E047A4680120002CF0D1F0BD35
:10702C002046FCE78368C9B27BB1002001E09B6875
:10703C0043B193F804C08C45F9D122B918689B6808
:10704C00002BF6D17047013AF1E71846FAE700BF7A
:10705C00174A0120002110B492E818001B1844EBC9
:10706C000104012B82E818001AD0124A012092E880
:10707C00180000211B1844EB0104012B82E81800B6
:10708C0001D010BC7047002CFBD10B4A146054602B
:10709C009460D46054619461D46114625462F0E7DA
:1070AC00002CE2D1054A146054609460DDE700BF07
:1070BC00F4000020FC00002010010020040100203E
:1070CC002DE9F04F84B072B6DFF84C542968039167
:1070DC0072B648F610030022C4F20803DFF83C64D1
:1070EC0048F614011A60C4F20801D6F800C008680A
:1070FC0048F61801C4F2080109684FEA0C24090289
:10710C00571848F62401C4F2080144F100083B1852
:10711C000F6848F100043804390C1B1844EB0104C7
:10712C0048F62001C4F20801D1F8008048F61C0191
:10713C00C4F208014FEA08600F681B184FEA1821C7
:10714C0044EB01049B18326844EB0704944505D0CA
:10715C0000214FF480725B1844EB020462B640F2DB
:10716C006C52C2F2000206CAC91842EB04028DE846
:10717C000600019BEA4E5F0973684FEA511B4BEA0C
:10718C00C26B002B00F0C18148F60801C4F2080163
:10719C00039AB0464FF0000A029118685C68817837
:1071AC0090F8039090F807C041EA0929017949EA5F
:1071BC000149417949EA0169817941EA0C2190F848
:1071CC0008C041EA0C4190F809C041EA0C61B9428F
:1071DC0002D82CD1D9452AD9824200F04F81D6F859
:1071EC0000C0BCF1010F00F02A81D8F804209342B2
:1071FC0000F0398142B1516829B18B4203D00A4663
:10720C0049680029F9D15460B1688B4204BFD8F8A1
:10721C0000C0C8F808200CF1FF3CC6F800C0FEF70F
:10722C00A7FB2868002C3AD02A682346B5E7D0F88B
:10723C00A010D0F89CC0B9421CD801D1DC4519D89B
:10724C00824200F05081D6F800C0BCF1010F00F072
:10725C00F680D8F80420934200F00581002AD3D0A0
:10726C0051680029CFD08B42CDD00A4649680029FD
:10727C00F9D1C8E7002A00F0F48092F8983013B1E5
:10728C0090F8983043B1D0F8B490D2F8B430994516
:10729C00C0F0E78000F0DA801046002CC4D1002842
:1072AC0000F0C980039A824200F0C580D0F8B41077
:1072BC004FF4A05C4B1CC0F8B4301CFA03F300F183
:1072CC00900530CD43F6006290F89860C0F2490208
:1072DC0008BF1346002E00F0DD80924E44F66D6C14
:1072EC003768C4F2C61C07FB0CFC0CF5405C0CF1B7
:1072FC00390CBCF1FF3F28BF0CF1010CC6F800C0E3
:10730C00BCFBF3F603FB16C3E61A65F100071FB9C5
:10731C00B6F5205F80F0FB80C0F8B4104FF4205617
:10732C0000279DE830004FF4A052A41945EB070547
:10733C0000231219C2F307214174C2F3074143EB36
:10734C0005038174110EC174C3F3072103754175D4
:10735C00C3F307411B0EC37548F638030274C4F21D
:10736C000803EE2281751A60D0F8CC1048F27062D6
:10737C00C4F208021368002BFCD148F6280CC4F2A6
:10738C00080CCCF80010023905D0C25C01339942CC
:10739C00CCF80020F9D872B648F60C03C4F20803F6
:1073AC001A6802F008021A605F4B1A6802F00802B1
:1073BC001A6040F26C53C2F2000393E803002246B9
:1073CC002B46121A63EB010348F610013320C4F26A
:1073DC000801086048F61401C4F208010A60100A9A
:1073EC0048F6180140EA0360C4F208010860100C6A
:1073FC0048F6240140EA0340C4F208010860100E6C
:10740C0048F6200140EA0320C4F20801086048F65F
:10741C001C01C4F208010B60444845490860454909
:10742C0081E80C0048F60803C4F208031A6842F01D
:10743C0012021A6062B662B604B0BDE8F08FC8F8EA
:10744C0004A0C8F808A0C8F800A0E8E6D2F8A0305C
:10745C008B4206D87FF420AFD2F89C3063457FF680
:10746C001BAF2860DEE6BCF1000F3FF4D8AE0CF188
:10747C00FF3CC8F80440C8F800C0D0E640F25452B3
:10748C00C2F200020299C2F800A00822C5F800A0BE
:10749C000A60A4E6234E44F66D6C3768C4F2C61C31
:1074AC0007FB0CFC0CF5405C0CF1390CBCF1FF3FFC
:1074BC0028BF0CF1010CC6F800C0BCFBF3F603FBB3
:1074CC0016C3E61845F100072FB9B6F5A04F16D331
:1074DC0096427FF626AF43F60066C0F8B410C0F2B1
:1074EC00490600271DE740F25451C2F20001029AEE
:1074FC00C1F800A00821C5F800A01160A3E6C0F8EF
:10750C00B4104FF4A04600270BE70398C7E6964249
:10751C007FF607AF00E700BF3801002068050020A8
:10752C0004010020E80000207C05002045752000A7
:10753C00540500204C05002042F2A803C4F20D03B0
:10754C001A682DE9F04F42F001021A6042F2AC03C6
:10755C00C4F20D031A688FB042F001021A6042F2B5
:10756C00B003C4F20D031A6842F001021A6048F22B
:10757C002463C4F208031A6842F00C021A6072B653
:10758C0048F610020023C4F208021360DFF8DC4452
:10759C0048F61402C4F20802D4F80090D2F800C0E5
:1075AC0048F61802C4F2080212684FEA092B1202BC
:1075BC00981848F62402C4F2080212684BF1000134
:1075CC0010EB0C0A41F1000BCDF808A0CDF80CB073
:1075DC0002A903C94FEA124B4FEA024A48F62002AD
:1075EC00C4F20802126810EB0A0048F61C0C4FEAB1
:1075FC00026A41EB0B01C4F2080C10EB0A004FEAD3
:10760C00122BDCF800C041EB0B01C018236841EBD6
:10761C000C0199450290039107D0002280184FF479
:10762C00807341EB03010290039162B640F26C52FD
:10763C00C2F2000206CA0691079206A903C94FF4CA
:10764C00A0520023801841EB030102AB0CCB801835
:10765C0048F2646241EB0301C4F208020690079100
:10766C009DE80300136813F0010FFBD048F24C6344
:10767C00C4F208031A6848F61009C2F300128DE828
:10768C0003000E92484648F6140148F61802C4F25C
:10769C000800C4F20801C4F2080248F62409089054
:1076AC0009910A92484648F6200148F61C028DE8DA
:1076BC006000C4F20800C4F20801C4F208020B9086
:1076CC000C910D9272B6089B0025099E0A9F1D60B5
:1076DC00D4F800C0D6F800A03B6828461B02ED1871
:1076EC004FEA0C2141F1000615EB0A0246F10003AA
:1076FC000B9E0D9FD6F800A004904FEA1A494FEA52
:10770C000A4ACDF800A0CDF804909DE8600052190B
:10771C0043EB06030C9ED6F800A0D7F800B04FEA56
:10772C001A254FEA0A6A12EB0A02CDF814B0D4F803
:10773C0000A043EB050304AE60CE521943EB0603E5
:10774C00D44505D000254FF48076521943EB06033F
:10775C0062B640F26C56C2F2000696E8000C1AEBC8
:10776C00020A079A4BEB030B93456FD90E9F002F20
:10777C0074D048F23463C4F2080380221A6048F6CD
:10778C003803C4F20803E9221A60B94BB94D5A68A0
:10779C00286801325A60D0F8CC10DA688A18DA609E
:1077AC0090F8AC2012B91A6901321A6190F898302D
:1077BC00002B00F03881DFF8C0C2DCF80070012F1C
:1077CC0000F03C81DCF8043000F1D001994200F06B
:1077DC003F8153B15A682AB1914203D01346526883
:1077EC00002AF9D1D0F8D4205A60DCF80820DFF850
:1077FC0088E2914204BFDEF80070CEF808307B1EA0
:10780C00CCF80030FEF7B4F8002348F6300048F608
:10781C002C012B60C4F20800C4F208010368C3F306
:10782C0040031BB1026822F0020202600A6812F0E7
:10783C00300F0CBF002201222AB1D1F800C02CF06D
:10784C00300CC1F800C063B95AB9E7E702D1069B06
:10785C009A458BD80E9D002D40F0DB80854B002285
:10786C001A6072B648F610020023C4F2080248F6F9
:10787C00140C1360C4F2080C2068DCF8007048F695
:10788C00180CC4F2080CDCF800C002024FEA0C2CF5
:10789C0013EB0C0548F6240CC4F2080CDCF800C001
:1078AC0042F10006E91946F100024FEA0C454FEA95
:1078BC001C4648F6200CC4F2080CDCF80070491980
:1078CC0042EB060248F61C0C3D063E0AC4F2080CBC
:1078DC004919DCF800C042EB0602C918236842EBD8
:1078EC000C02984205D000234FF48074C91842EB67
:1078FC00040262B640F26C59C2F2000999E8180011
:10790C0072B648F60C00C4F20800D0F800C043F67A
:10791C0000670CF0080CC0F800C05848C0F24907CA
:10792C00D0F800C0DB190CF0080C4FF00008C0F8C0
:10793C0000C044EB080499E860005B1B64EB060490
:10794C005B1844EB020448F610023321C4F208021F
:10795C00116048F61402C4F208021360190A48F6C2
:10796C00180241EA0461C4F208021160190C48F6CD
:10797C00240241EA0441C4F208021160190E48F6CF
:10798C00200241EA0421C4F20802116048F61C02EC
:10799C00C4F2080214603A493A4A11603A4A82E841
:1079AC00180048F60803C4F208031A6842F01202E1
:1079BC001A6062B642F2A803C4F20D031A6842F0D0
:1079CC0001021A6042F2AC03C4F20D031A6842F0D1
:1079DC0001021A6042F2B003C4F20D031A6842F0BD
:1079EC0001021A6048F22463C4F208031A6822F0F8
:1079FC000C021A6048F28C63C4F208031A6822F075
:107A0C0004021A601A6842F004021A600FB0BDE852
:107A1C00F08F48F24C66C4F20806336813F0100F6E
:107A2C007FF450AE1AE70378C3F3C103032B7FF442
:107A3C00EBAE837F052B7FF4E7AEBCE60023CCF8DE
:107A4C000430CCF80830CCF80030FDF791FFDBE6C1
:107A5C00002F3FF4D7AED0F8D430013FCCF804302F
:107A6C00CCF80070FDF784FFCEE600BF680500205F
:107A7C001001002038010020040100207C050020AA
:107A8C00CD702000540500204C05002048F638032A
:107A9C00C4F20803E2221A60EF221A6048F28C62E8
:107AAC002DE9F04FC4F208020026166048F29062ED
:107ABC00C4F20802166048F29462C4F2080216601E
:107ACC0048F25862044646608660C660C4F20802FA
:107ADC00F820106048F2E872C4F208020920106025
:107AEC0048F2C862C4F208021520106048F604027D
:107AFC00C4F208020B20106048F2B862C4F208020B
:107B0C0001201060EE221A60ED221A6048F25463D4
:107B1C00C4F208031A68DFF8E87622F001021A6052
:107B2C0048F28C53C4F208031E6048F25063FF22E3
:107B3C00C4F208031A6048F24063C4F208031A60E6
:107B4C0048F29473C4F208031A6048F63403C4F282
:107B5C0008031E6048F63003C4F208031E6048F6A2
:107B6C002C03C4F208031E60DFF8983621612360F1
:107B7C00616126626662A662E662666384B0A66391
:107B8C003546E66326646664C4F89860C4F89C6065
:107B9C004FF0E408386843683BB15A68F32A08D8B8
:107BAC00E42A06D0DB68002BF7D1FDF7DDFE0023BD
:107BBC0023E0E43A5A60C268E43AC2605A68BAB93F
:107BCC00D0F800C0BCF1010F00F087829968002941
:107BDC0000F0A682D3F80CE0BEF1000F00F0AD82ED
:107BEC00C1F80CE0DA6891600268013A02605A68E8
:107BFC0019688B1841F802800433A2190436502EF0
:107C0C0083F8C050C3F8C450C3F8CC50C3F8D0307C
:107C1C00C3F8D450C3F8D830C3F8DC509364B9D14E
:107C2C0040F22C03C0F228031A7840F22D03C0F264
:107C3C002803197840F22E0351402176C0F2280314
:107C4C001A7840F22F03C0F228031B7848F22466FE
:107C5C0083EA020248F2D053C4F208036276196038
:107C6C0048F2D453C4F208031A6048F20463C4F215
:107C7C0008031A68C4F2080622F020021A6033685E
:107C8C00204643F04003336048F20063C4F208031B
:107C9C001A6822F001021A6048F20863C4F2080361
:107CAC001A6822F001021A6048F230634022C4F2D2
:107CBC0008031A600F23E36148F23C631F22C4F2ED
:107CCC0008031A6005F01CFF48F63403C4F20803DD
:107CDC001D6048F63003C4F208031D6048F62C03FF
:107CEC00C4F208031D6048F28C63C4F2080304223A
:107CFC001A6048F29062C4F20802156048F294626D
:107D0C000C21C4F20802116042F2A802C4F20D0266
:107D1C00116841F00101116042F2AC02C4F20D0293
:107D2C00116841F00101116042F2B002C4F20D027F
:107D3C00116841F001011160326822F00C023260CE
:107D4C001A6822F004021A601A6842F004021A60DF
:107D5C0048F63803C4F20803E3221A6072B6DFF85F
:107D6C00A8643168039172B648F61003C4F2080394
:107D7C00DFF898C448F614021D60C4F20802DCF85F
:107D8C000000116848F61802C4F2080212680402D6
:107D9C001202AF1848F62402C4F2080244F100089B
:107DAC007B18176848F1000439043A0C5B1844EB53
:107DBC00020448F62002C4F20802D2F8008048F609
:107DCC001C02C4F208024FEA086117685B184FEAFC
:107DDC00182244EB0204DCF800205B1944EB070486
:107DEC00904205D000214FF480725B1844EB0204E2
:107DFC0062B640F26C52C2F2000206CAC91842EBDB
:107E0C0004028DE80600019BDFF804545F096B68DF
:107E1C004FEA511B4BEAC26B002B00F0EA8148F68B
:107E2C000801C4F20801039AA8464FF0000A029117
:107E3C0018685C6890F803C0817890F8049041EA67
:107E4C000C2141EA094190F8059090F807C041EAED
:107E5C000969817941EA0C2190F808C041EA0C418A
:107E6C0090F809C041EA0C61B94202D828D1D94531
:107E7C0026D9904200F06E812968012900F03281E8
:107E8C00D8F80420934200F041814AB1516829B1DD
:107E9C008B4203D00A4649680029F9D159685160D0
:107EAC00A9688B422B6808BFC8F80820013B2B60DF
:107EBC00FDF75EFD3068002C38D032682346B7E7FA
:107ECC00D0F8A010D0F89CC0B9421AD801D1DC452A
:107EDC0017D8904200F078812968012900F00281BE
:107EEC00D8F80420934200F01181002AD8D05168B0
:107EFC000029D3D08B42D1D00A4649680029F9D148
:107F0C00CCE7002A00F0008192F8983013B190F879
:107F1C00983043B1D0F8B490D2F8B4309945C0F051
:107F2C00F38000F0E6801046002CC6D1002800F04B
:107F3C00D080039A824200F0CC80D0F8B43000F1AB
:107F4C00900530CD0133C0F8B43030684FF4A052F6
:107F5C00D0F8B43043F6006112FA03F390F898208D
:107F6C00C0F2490108BF0B46002A00F0FF80A94867
:107F7C0044F66D62D0F800C0C4F2C6120CFB02F2DB
:107F8C0002F540523932B2F1FF3F28BF0132026094
:107F9C00B2FBF3F003FB1020221A65F100031BB9AE
:107FAC00B2F5205F80F027813368D3F8B420013A12
:107FBC00C3F8B4204FF4205200239DE83000A418DD
:107FCC004FF4A052316845EB030500231219C2F39C
:107FDC0007204874C2F3074043EB05038874100E66
:107FEC00C874C3F307200B754875C3F307401B0E09
:107FFC000A74CB758875316848F63803EE22C4F2E2
:10800C0008031A60D1F8CCC048F27062C4F20802BE
:10801C001368002BFCD148F62800C4F20800C0F805
:10802C0000C0BCF1020C04D0CA5C01339C45026058
:10803C00FAD872B648F60C03C4F208031A6802F0B8
:10804C0008021A60744B1A6802F008021A6040F2B7
:10805C006C53C2F2000393E8030022462B46121A1B
:10806C0063EB010348F610013320C4F208010860E9
:10807C0048F61401C4F208010A60100A48F6180107
:10808C0040EA0360C4F208010860100C48F62401B1
:10809C0040EA0340C4F208010860100E48F62001C3
:1080AC0040EA0320C4F20801086048F61C01C4F23F
:1080BC0008010B6059485A4908605A4981E80C007C
:1080CC0048F60803C4F208031A6842F012021A6058
:1080DC0062B662B604B0BDE8F08F426082600260A6
:1080EC005A6885E5C8F804A0C8F808A0C8F800A02C
:1080FC00DEE6D2F8A0308B4206D87FF414AFD2F86B
:10810C009C3063457FF60FAF3060D4E600293FF416
:10811C00CFAE5B680139C8F80430C8F80010C7E668
:10812C00BCF1000F3FF464AD4168C96841608A60DE
:10813C000268013A02605A685AE5BCF1000F3FF43C
:10814C0057AD816889688160CA600268013A026033
:10815C005A684DE540F25452C2F200020299C2F83C
:10816C0000A00822C6F800A00A6085E6DFF8A4C0CB
:10817C0044F66D62DCF80070C4F2C61207FB02F222
:10818C0002F540523932B2F1FF3F28BF0132CCF830
:10819C000020B2FBF3FC03FB1C2C14EB0C0245F18E
:1081AC0000032BB9B2F5A04F1AD38A427FF605AF64
:1081BC003368D3F8B420013AC3F8B42043F6006214
:1081CC00C0F249020023F8E640F25451C2F2000119
:1081DC00029AC1F800A00821C6F800A011607BE645
:1081EC00D0F8B4304FF4A042013BC0F8B4300023B7
:1081FC00E3E603989AE68A427FF6DFAED4E600BF48
:10820C00DC000020F8FD200038010020680500206B
:10821C0004010020E80000207C05002045752000AA
:10822C00540500204C05002042F2A803C4F20D03B3
:10823C001A6870B542F001021A6042F2AC03C4F243
:10824C000D031A68044642F001021A6042F2B003B0
:10825C00C4F20D031A6842F001021A60FEF71CFE0C
:10826C00344B186841680B4600295FD04A68B32A22
:10827C0007D8A42A05D0DB68002B57D05A68B32A3C
:10828C00F7D9A43A5A60C268A43AC2605A6872B963
:10829C000568012D32D09E68002E34D0D968002993
:1082AC003AD0F160DA68013D056096605A681B6847
:1082BC00A4219D189950043521462846FFF7E6FB6A
:1082CC001D4B04EB440403EB840243F824502A2195
:1082DC00013443F824102B239360184B184A43F8AD
:1082EC002120C3F8AC204EF20013CEF200034FF065
:1082FC0080621A604FF000621A6070BD02604260CA
:10830C0082605A68D3E7002DD1D0C968013D056061
:10831C0041608A605A68CAE7002DC8D08168013D67
:10832C00896805608160CA605A68C0E7FDF71CFB6C
:10833C000025C1E7DC000020800500200C06002091
:10834C0069ED200041F24003C2F200034DF804BD78
:10835C0093E806004FF0010B11EB0B014FF0000CF2
:10836C0042EB0C0283E806005DF804BB704700BFCB
:10837C0049F21803C4F208031A6841F21403C2F25A
:10838C000003196841EA02021A6049F20803C4F2B8
:10839C0008031A6841F21803C2F20003196841EA93
:1083AC0002021A6049F21003C4F208031A6841F27F
:1083BC001C03C2F20003196841EA02021A607047FA
:1083CC0048F60C0340F27C52C4F20803C2F20002DD
:1083DC001968106840EA0101116000221A604EF21F
:1083EC008013CEF200034FF080621A604EF28023AD
:1083FC00CEF200031A6070474EF28413CEF20003E3
:10840C0002221A604EF28423CEF200031A607047E7
:10841C000368232B0DD0252B13D0272B19D0332BEE
:10842C0001BF43F22403C4F203034FF0FF321A607E
:10843C00704740F22403C4F203034FF0FF321A607A
:10844C00F6E741F22403C4F203034FF0FF321A6043
:10845C00EEE742F22403C4F203034FF0FF321A603A
:10846C00E6E700BF72B64EF280134FF0FF32CEF249
:10847C0000031A604EF28413CEF200031A601B49FB
:10848C001B4A0023CA500433B3F5807FFAD1002372
:10849C00DFF860C018464CF803000433B3F5807F56
:1084AC00144AF8D1144BC2F88C30C2F89430C2F88C
:1084BC009C30C2F8CC30114BC2F8A830104BC2F82B
:1084CC00C430104BC2F8F0300F4B136453649364F8
:1084DC00D3640E4B0822CB600D4BC1F8CC304EF25E
:1084EC000413CEF200031A60704700BF0C06002084
:1084FC00A9EE20003C0100201D84200005842000F2
:10850C00CD8320007D8320008DED2000ADEE20007A
:10851C005183200010B5314B186841680B46002977
:10852C0057D04A68272A07D8182A05D0DB68002BB1
:10853C004FD05A68272AF7D9183A5A60C268183AA5
:10854C00C2605A6892B9D0F800C0BCF1010F1FD0BC
:10855C009C68002C24D0D96800292DD0E160DA6801
:10856C000CF1FF3CC0F800C094605A6819681820E0
:10857C008B18885004331A490122196119491A6061
:10858C005A601A72486840B1DA60174A136010BD1D
:10859C000260426082605A68E8E74B605A68F3E711
:1085AC00BCF1000FE2D0C9680CF1FF3CC0F800C070
:1085BC0041608A605A68D9E7BCF1000FD6D0816857
:1085CC000CF1FF3C8968C0F800C08160CA605A6831
:1085DC00CCE7FDF7C9F90023CDE700BFDC00002094
:1085EC000D8620000C1000204002002040F2442395
:1085FC00C2F2000300221A605A609A60704700BFF2
:10860C00F0B572B63F4B1A6801321A603E4A1368D5
:10861C002BB15168486801380028486007DD0023F9
:10862C0062B61BB1986803689B689847F0BD012B34
:10863C003CD0CB680020536098601368013B1360FA
:10864C00CB6823B1D3F804C04868604458600B6809
:10865C00D868B0F1FF3F03D00138D8600028DFD0D4
:10866C00D3F810C02848C1F804C01668002E35D0C5
:10867C0047687C68A445B8BF3D4609DBF868F8B18B
:10868C00C4EB0C0CC1F804C044680546A44514DACC
:10869C00A868002829D0CCEB040C0136C5F804C01E
:1086AC00C160A960CD6088601660B9E70023536093
:1086BC0093601368013B1360C2E7C0680028DFD1E8
:1086CC009068C4EB0C0CC1608860C1F804C0002039
:1086DC00C8609160116801311160A1E701228E60C0
:1086EC00CE600260416081609AE7CCEB040CC5F867
:1086FC0004C08860CF60B9605160116801311160AD
:10870C008EE700BF3C0200204402002030B472B659
:10871C00DFF880C0DCF80410E9B10B68984218BF90
:10872C000B462BD0DB68B3B11A689042FAD1DCF857
:10873C000000184C012811D09D68002D20D0DA685B
:10874C0092B1EA60DA680138956020601AB151681C
:10875C005B68CB18536062B630BC70470022626015
:10876C00A2602260DA68F1E70028F4D0A168013831
:10877C0089682060A160CA60DA68E7E70B46D6E733
:10878C0008B9DA68E2E7CA6801386260206095606F
:10879C00DA68DBE7440200202DE9F0418C46044600
:1087AC0072B6544D6868F0B103689C4218BF03461A
:1087BC0000F08980DB68B3B11A689442FAD12E6854
:1087CC004C49012E6FD09F68002F7ED0DA68002AAA
:1087DC006FD0FA60DA68013E97600E601AB151688A
:1087EC005B68CB1853602E689CE80C0084E80C0086
:1087FC00414B4FF47A721B689CE880015B68B2FBBA
:10880C00F3F244F24023C0F20F03B3FBF2F2124630
:10881C004FF0000359084FEA3200C01941EB080130
:10882C0006F010FE206104F11400002E33D06F68A6
:10883C00A36979688B42B8BFBC4618DBFA6842B1B1
:10884C005B1A4360516894468B4220DAA3698B42D1
:10885C000DDB5B1AA361AB68D860E3610023236274
:10886C002B68A86001332B6062B6BDE8F081DCF8A0
:10887C000820002A33D0CB1A0136CCF80430D06053
:10888C00CCF80800C4F820C0E2612E60ECE7D26896
:10889C00002AD5D1DAE72B68E661013326622B601A
:1088AC006860A860E0E700224A608A600A60DA68C3
:1088BC0094E7002E98D08868013E80680E6088602E
:1088CC00C260DA688AE7034679E70EB9DA6885E7A9
:1088DC00C268013E4A600E609760DA687EE7CB1A88
:1088EC00CCF804302B68E26101332762B8602B604E
:1088FC006860B9E74402002040020020C360434B8B
:10890C00F0B591E8C0001B6804465B68A260154690
:10891C004FF47A72B2FBF3F244F24023C0F20F032D
:10892C0080E8C000B3FBF2F212464FF000035F0880
:10893C004FEA320603C9361847EB01073046394671
:10894C0006F080FD002320616461A061E361236275
:10895C0072B628B962B62B6828469B689847F0BD5A
:10896C00DFF8ACC004F11401DCF80060002E33D049
:10897C00DCF804707A689042B8BF3D461BDBFB689C
:10898C0043B1801A48605A681D46904220DAA069AB
:10899C00824210DCDCF80830821AD960A261E361F3
:1089AC0000232362DCF80030CCF808100133CCF83B
:1089BC00003062B6D3E7AB68CBB1121A01366A60ED
:1089CC00D960A9602562E361CCF8006062B6C6E7A5
:1089DC00DB68002BD5D1DAE70123E6612662CCF8FF
:1089EC000030CCF80410CCF8081062B6B7E7121AB5
:1089FC006A60E361DCF8003027620133B960CCF8BF
:108A0C000030CCF8041062B6A9E700BF4002002089
:108A1C004402002070B58FB009AC064600212046F8
:108A2C0000F01CF80B4B31460DAA0D936846012340
:108A3C000E94FFF763FF204600F02AF86846FFF714
:108A4C0065FE054B20466D460D9300F035F80FB0D2
:108A5C0070BD00BFECFC200000FD20000023036073
:108A6C0043608360C160704700B572B600F10C01C1
:108A7C0051E8002F02F1010241E80023002BF7D14D
:108A8C00002A01DD62B600BD00F0C2FCFBE700BFAE
:108A9C0000B572B600F10C0151E8002FA2F10102F1
:108AAC0041E80023002BF7D1002A01DB62B600BDA0
:108ABC0000F0D4F8FBE700BF00B572B600F05CFB29
:108ACC0000BD00BFF0B40668002E23D047680D1D12
:108ADC007B684A683C1D9A422CDB7B6A002B29D0B0
:108AEC00D3F804C02A681C1D94450EDDD4F800C0D0
:108AFC004A68944515DC8368013659620B62002381
:108B0C004B6206608160F0BC70475A6A002AEDD057
:108B1C001346E5E701230E624E62036041608160FB
:108B2C00F1E71A6A42B10136516219624B620A626C
:108B3C000660E8E73B46D9E701360A624F623962C4
:108B4C0006604160DFE700BF40F254220023C2F20E
:108B5C000002D36013605360936040F26822C2F24B
:108B6C000002136053607047884200B509D0036956
:108B7C004BB100230B6150F80C3FCB68C96806F071
:108B8C0037FC62B600BD01230361F2E711F0FF0F61
:108B9C0030B5034600D172B62F4AD1680868D16847
:108BAC00D2F80CC003F11C018C4517D011680129B7
:108BBC0037D0DC6B002C27D01D6C002D36D06562B5
:108BCC00D3F840C00139CCF8204011600221196162
:108BDC00D36801221968FFF7C7FF30BD116879B15E
:108BEC00012930D0D2F804C00024DCF824E001398B
:108BFC00C2F804E01160CEF82040C2F80CC0E5E7E2
:108C0C008C46C2F80CC0E1E70029DFD0D2F804C0D2
:108C1C000139DCF824C01160C2F804C0CCF8204043
:108C2C00D4E70021516091601160CFE70029CDD0CD
:108C3C00D2F808C00139DCF820C01160C2F808C0B5
:108C4C00CCF82450C2E7D2F804C0002151609160E6
:108C5C001160C2F80CC0B9E7540200205C492DE940
:108C6C00F045CB68CB681A68CB68CB6802F11C0660
:108C7C009E4263D00B68012B00F08380D46B002CD8
:108C8C0072D0156C002D00F081806562D2F840C066
:108C9C00013BCCF820400B60D0F80080032313611B
:108CAC00B8F1000F25D0D0F804A002F12007DAF8B3
:108CBC000430D2F820C00AF104059C452EDA534644
:108CCC00D5F800E0D2F820C0E6451BDC836808F13B
:108CDC0001085E62D36300231364C0F800808660D1
:108CEC00CB685061196810460122FFF73DFFBDE8C3
:108CFC00F0850123C2F83C80C2F8408003604660D6
:108D0C008660EDE71C6A002C56D008F101086662FB
:108D1C001E621364D463C0F80080E1E7DAF82430F3
:108D2C0023B9CCE75C6A002CCAD02346D3F804E004
:108D3C00D7F800C01D1DE645F4DDC1E70B687BB11B
:108D4C00012B30D0D1F804C00024DCF824E0013B26
:108D5C00C1F804E00B60CEF82040C1F80CC09BE7D2
:108D6C009C46C1F80CC097E7002B95D0D1F804C0F5
:108D7C00013BDCF824C00B60C1F804C0CCF82040E7
:108D8C008AE700234B608B600B6085E7002B83D058
:108D9C00D1F808C0013BDCF820C00B60C1F808C05A
:108DAC00CCF8245078E7D1F804C000234B608B60DA
:108DBC000B60C1F80CC06FE708F10108D463C2F86E
:108DCC0040A0CAF82060C0F80080466088E700BF69
:108DDC00540200202DE9F045044672B6614B6248FE
:108DEC00196804F11C0701311960C368C368002BB2
:108DFC0064D0D0F80080B8F1000F1FD0D0F804A0D8
:108E0C0004F12006DAF80410236A0AF104059942E9
:108E1C0056DD5346D5F800C0216A8C4569DC836861
:108E2C005F62E3630023236403688760013303609C
:108E3C004E4B18687AB9A260BDE8F0850123C4F8DE
:108E4C003C80C4F84080036047608760474B1868DB
:108E5C000AB9F0E7013212F0030FFBD14568043276
:108E6C000F2A98BF10222B46002D76D0696802F18C
:108E7C00100C8C4507D9914205D0DB68002B6CD0C7
:108E8C0059686145F7D3891A5960C168891AC1605C
:108E9C00596871B90668012E36D09F68002F42D0F0
:108EAC00DD68002D4BD0FD60D968013E06608F60F7
:108EBC0059681B6858185A50021DBCE7C760C5E7B3
:108ECC00DAF82430002BA4D0D3F804C031681D1D6F
:108EDC008C459FDC596A00299CD00B46D3F804C002
:108EEC0031681D1D8C45F5DDD5F800C0216A8C4517
:108EFC0095DD196A69B108F101084F621F6223649C
:108F0C00E163C0F80080A1E70160416081605968AD
:108F1C00CFE70368E1630133C4F840A0CAF82070BE
:108F2C000360476092E7002EC3D0D5F80CC0013E19
:108F3C000660C0F804C0CCF808105968B9E7002ED8
:108F4C00B7D0D0F808C0013EDCF808C00660C0F805
:108F5C0008C0CCF80C105968ABE7FCF705FD0022F3
:108F6C0069E700BF6402002054020020DC000020EE
:108F7C00F0B572B63D4BDA68DA681068DA681A68D0
:108F8C00002A3DD059686FF0004CD1F804E0E6455A
:108F9C0036D0012AD3F80CE055D0D1F824C00024E7
:108FAC00013AC3F804C01A60CCF820401E682F4A5E
:108FBC00D960002E2AD057680EF104057A68DEF8C5
:108FCC0004103C1D914243DB7A6A002A40D0D2F84F
:108FDC0004C02968141D8C4523DDD4F800C0DEF8CC
:108FEC0004108C4522DC9A68C2F824E0CEF82020CC
:108FFC000022CEF824201A68C3F808E001321A6067
:10900C00DB6801221968FFF7AFFDF0BD0121CEF836
:10901C002060CEF824601160C2F804E0C2F808E0C9
:10902C00EEE7516A0029D8D00A46D0E7116A89B117
:10903C000136C1F824E0C2F820E0CEF82420CEF8A6
:10904C0020101E60DCE700225A609A601A60ADE7BF
:10905C003A46C2E71A68CEF820100132CEF82470D6
:10906C00C7F820E01A60C3F804E0C9E754020020F6
:10907C0030B5094D094C2A682368012B06D962B614
:10908C0030BF002AF8D0FFF773FFF4E772B605F093
:10909C000BFF30BF002030BD5402002064020020C2
:1090AC00344BF0B5DA681C681068DA682CB9DB68E8
:1090BC0001221968FFF758FDF0BDD3F80CE05F688A
:1090CC000EF104067A68DEF804103D1D914243DB74
:1090DC007A6A002A40D0D2F804C03168151D8C453C
:1090EC001FDDD5F800C0DEF804108C451EDC9A6834
:1090FC001C68C2F824E0CEF8202001340022CEF8FF
:10910C0024201C60C3F808E04CB1012C1BD05C6817
:10911C000021626A5A6011621A68013A1A60DC60B6
:10912C00C5E7516A0029DCD00A46D4E7116AA9B117
:10913C000134C1F824E0C2F820E0CEF82420CEF8A7
:10914C0020101C60E0E700225C689A605A601A6884
:10915C00DC60013A1A60AAE73A46C2E71C68CEF80E
:10916C0020100134CEF82470C7F820E01C60C3F83E
:10917C0004E0C9E7540200202DE9F04F434D0446AA
:10918C00EB680368002B74D000264FF001082F46C3
:10919C00012B40D06268013B516A236061600E6212
:1091AC001268C2F81080EB68EB68566102F11C0C77
:1091BC00002B26D0D7F800A0BAF1000F30D0D7F88A
:1091CC00049002F1200ED9F80410136A09F104007E
:1091DC0099422EDD4B460068116A88423CDCAB6834
:1091EC00C3F824C0D3632B6816640133C5F808C0D8
:1091FC002B60FFF755FF72B62368002BC8D1BDE872
:10920C00F08FC7F80CC0FFF74BFF72B62368002B2A
:10921C00F5D0012BBED16268A66066602660BFE700
:10922C00D6631664C7F80080C7F804C0C7F808C036
:10923C00E9E7D9F8243023B9CCE7596A0029CAD018
:10924C000B46D3F804B0DEF80010181D8B45F4DD86
:10925C000068116A8842C2DD196A61B10AF1010A1B
:10926C00C1F824C0C3F820C01364D163C5F800A0B2
:10927C00C9E762B6C3E72B68D1630133C2F84090EB
:10928C00C9F820C02B60C5F804C0BCE7540200200C
:10929C00F0B572B60369022B01D062B6F0BD2A4A52
:1092AC0001230361D168D16800F11C0421B3166855
:1092BC00D6B1576800F120057B68016A07F1040EEE
:1092CC00994228DA3B46DEF800C0016A8C4517DC6F
:1092DC0093685C62C3630023036413689460013376
:1092EC001360FFF7DDFED9E7C663066413605460B4
:1092FC009460FFF7D5FED1E7D460FFF7D1FECDE740
:10930C00196AB9B101364C621C620364C163166000
:10931C00FFF7C6FEC2E77B6A23B9D3E7596A002977
:10932C00D1D00B46D3F804C0296803F1040E8C4548
:10933C00F4DDC8E71368C163013307643C62136052
:10934C005460FFF7ADFEA9E754020020C36803691F
:10935C0010B5012B18D00369B3B12C4BDA68D9685E
:10936C0000F11C0291421CD01A68012A29D0C16B51
:10937C00002935D0046C002C3FD04C62D0F840C092
:10938C00013ACCF820101A600369012B01D062B6A7
:10939C0010BD026A6FF000439A42F8D0FFF780FECE
:1093AC00F6E71A68CAB1012A10D059680024D1F81E
:1093BC0024C0013AC3F804C01A60CCF82040D9602C
:1093CC00E2E700225A609A601A60DDE759680022D1
:1093DC005A609A601A60D960D6E71146D960D3E713
:1093EC00002AD1D0D3F804C0013ADCF824C01A60AA
:1093FC00C3F804C0CCF82010C6E7002AC4D0996882
:10940C00013A096A1A6099604C62BDE75402002067
:10941C003A4BF0B5DA680268002A37D0012A43D0FB
:10942C0041684FF0000ED1F824C0013AC0F804C0D6
:10943C000260CCF820E0096801200861D3F80CC068
:10944C00DD6800224A6101F11C042C4A002D1FD05A
:10945C001668002E20D0576801F120057A68086A3A
:10946C0007F1040E904225DA3A46DEF800C0086A8D
:10947C0084452EDC9A685462CA6300220A641A6816
:10948C009C6001321A60FFF70BFE00E062B6F0BD83
:10949C00D460FFF705FEFAE7CE630E6410605460EB
:1094AC009460FFF7FDFDF2E70022416882604260A4
:1094BC000260C0E77A6A22B9D6E7506A0028D4D095
:1094CC000246D2F804C0286802F1040E8445F4DD8B
:1094DC00CBE7106A40B10136446214620A64C86377
:1094EC001E60FFF7DDFDD2E71A68C86301320F6416
:1094FC003C621A605C60FFF7D3FDC8E754020020A1
:10950C002DE9F04172B69E4BDA68DA68D9681268B8
:10951C00D3F80CC002F11C018C4500F09E80196838
:10952C00012900F0DF80D46B002C00F0AE80156CAC
:10953C00002D00F0EA806562D2F840C00139CCF809
:10954C002040196091680860042111618D490868F8
:10955C00013808609169002900F09180916901241B
:10956C000C61D2F818C0D868D86885490CF11C0574
:10957C0070B30F68002F00F0A180D1F804800CF1BB
:10958C002006D8F80410DCF8200008F10404884206
:10959C00C0F2DD80D8F82410002900F0D880D1F872
:1095AC0004E030680C1D86457DDDD4F800E0DCF865
:1095BC002000864500F38A8099681C684D62CCF8BF
:1095CC003C1001340021CCF840101C609D6001E07F
:1095DC000C68CD60002191616949D8683CB9DB68A1
:1095EC00104619680122FFF7BFFABDE8F081D1F8E7
:1095FC000CE04F680EF104067868DEF804103D1D8F
:10960C00884200F3A280796A002900F09E80D1F88C
:10961C0004C030680D1D84454BDDD5F800C0DEF864
:10962C000400844563DC99681C68C1F824E0CEF81A
:10963C00201001340021CEF824101C60C3F808E07F
:10964C004CB1012C6FD05C680020616A59600862D3
:10965C00196801391960DC60C1E7196889B1012901
:10966C006AD0D3F804C00024DCF824E00139C3F834
:10967C0004E01960CEF82040C3F80CC062E71C6807
:10968C00AAE78C46C3F80CC05CE700293FF45AAF3C
:10969C00D3F804C00139DCF824C01960C3F804C045
:1096AC00CCF820404EE7486A00283FF47EAF0146D4
:1096BC0075E7486A0028B0D00146A8E7CCF83C70A2
:1096CC00CCF840700C604D608D6083E7086A002810
:1096DC003FD07C1C45620D62CCF84010CCF83C00AD
:1096EC001C6077E700215960996019602AE7086AC5
:1096FC00002839D00134C0F824E0C1F820E0CEF8BD
:10970C002410CEF820001C609AE700293FF41AAF11
:10971C00D3F808C00139DCF820C01960C3F808C0C0
:10972C00CCF824500EE700215C68996059601968E8
:10973C00DC600139196052E7D3F804C0002159608C
:10974C0099601960C3F80CC0FCE6394665E74146E0
:10975C002BE71C68CCF83C000134CCF84080C8F8EE
:10976C0020501C605D6035E71C68CEF82000013489
:10977C00CEF82470C7F820E01C60C3F804E05FE763
:10978C00540200206402002070B5044672B6C3680F
:10979C000369032B37D8DFE803F05740145C03460A
:1097AC000A68012A00F0AA801D6A002D00F0BC8016
:1097BC00586A002800F0C18068625B6A013A1D6239
:1097CC000A606B4D04F11C06EB68EB68002B5ED055
:1097DC0028463146FFF776F9EA68EA68644B964208
:1097EC005BD01A68012A67D0E16B002969D0206C24
:1097FC00002875D04862206C013A01621A605D4BFA
:10980C001A68013A1A60A36913B1A069FFF740FD09
:10981C0062B6A068FCF7ACF870BD554DEB68EA6811
:10982C0000F11C039A4224D02B68012B61D0C26B2F
:10983C00002A6FD0016C002900F089805162016C04
:10984C00013B0A622B60DAE74FF0FF30FFF758FE5E
:10985C00D9E7416948680028B3D003689C4218BF17
:10986C0003469CD05B6A002BABD01A689442F9D1AA
:10987C0096E72B68002B2DD0012B72D06A68002044
:10988C00516A013B69602B600862EA60B7E7EE60E1
:10989C00EA68EA68364B9642A3D11A68EAB1012A03
:1098AC0031D059684FF0000C486A013A58601A6080
:1098BC00C0F820C0E960A2E700225A609A601A60E2
:1098CC009DE7002A9BD05868013A406A1A6058609C
:1098DC00016294E71A46EA6091E71146E9608EE767
:1098EC00002A8CD09968013A096A1A60996048621A
:1098FC0085E700236B60AB602B6080E700234B6037
:10990C008B600B605DE7596800225A609A601A60A0
:10991C00E96074E7002B3FF472AF6968013B496A58
:10992C002B6069600A626AE7002A3FF44AAF436A17
:10993C00013A4B600A601D6243E7002A3FF441AFD5
:10994C008B68013A1B6A0A608B60586239E7002BFE
:10995C003FF455AFAA68013B126A2B60AA605162B2
:10996C004DE76A6800236B60AB602B60EA6046E7EA
:10997C005402002064020020F0B472B648F61003C2
:10998C000022C4F20803244D48F614011A60C4F2F4
:10999C000801D5F800C00E6848F61801C4F2080199
:1099AC000F684FEA0C243F02D01944F100018319CF
:1099BC0041F1000448F62401C4F208010E68300499
:1099CC00310C1B1844EB010448F62001C4F20801C9
:1099DC000E6848F61C01C4F2080130060F68310A03
:1099EC001B1844EB01049B182A6844EB07049445AC
:1099FC0005D000214FF480725B1844EB020462B670
:109A0C00064A06CAC91842EB0402480940EAC26079
:109A1C005109F0BC704700BF680500206C050020A0
:109A2C0010B540F2AC23C2F2000384B019684FF0B9
:109A3C00FF338DF80C308DF80D3004238DF80F307A
:109A4C000B680022D3F800C01E38009201920290DD
:109A5C00DCF82040184603AA0DF10F03A04704B010
:109A6C0010BD00BF704700BF30B4536890F80BC0F6
:109A7C001468827A42EA0C2290F80CC042EA0C423A
:109A8C0090F80DC042EA0C6590F80FC0827B42EA58
:109A9C000C2290F810C042EA0C4290F811C042EA35
:109AAC000C629A421CD87CD090F813C0827C42EA9B
:109ABC000C2290F814C042EA0C4290F815C042EA0D
:109ACC000C6590F817C0827D42EA0C2290F818C001
