:020000040020DA
:10400000F87F00201D41200099FA200099FA200035
:1040100099FA200099FA200099FA200099FA2000D4
:1040200099FA200099FA200099FA2000CFFA20008E
:1040300099FA200099FA200099FA200099FA2000B4
:1040400099FA200099FA200099FA200099FA2000A4
:1040500099FA200099FA200099FA200099FA200094
:1040600099FA200099FA200099FA200099FA200084
:1040700099FA200099FA200099FA200099FA200074
:1040800099FA200099FA200099FA200099FA200064
:1040900099FA200099FA200099FA200099FA200054
:1040A00099FA200099FA200099FA200099FA200044
:1040B00099FA200099FA200099FA200099FA200034
:1040C00099FA200099FA200099FA200099FA200024
:1040D00099FA200099FA200099FA200099FA200014
:1040E00099FA200099FA200099FA200099FA200004
:1040F00099FA200099FA200010B5074C54F8043CB6
:10410000B3F1FF3F06D0043C984754F8043DB3F1A7
:0C411000FF3FF9D110BD00BF4C0E210094
:10411C0040400949094A086004319142FBDBFFF732
:10412C00E5FF00BF00F02EFA00F062FA01B40CF0CB
:10413C0013FC01F00BFF0000040000204C100020C9
:10414C0043680A1D5BB1D0F80CC00133CCF80420D5
:10415C004FF0000CC1F808C04360C26070478B6020
:10416C0001238260C2604360F8E700BF10B444686A
:10417C00012C17D0836801F1040C9C4517D04BB16E
:10418C005A682AB1944503D013465268002AF9D1D3
:10419C008A685A60C268944508BFC360013C446099
:1041AC0010BC704700238360C3604360F8E7002CA9
:1041BC00F6D08B68013C83604460F1E730B58468CD
:1041CC0005464CB12068294603681B68984764680B
:1041DC00002CF7D1012030BD2046FCE7F0B54B6A2E
:1041EC0081B004460D461746002B37D0AC462360F1
:1041FC005CF8043B04F1200E2361BCE80F00AEE830
:10420C000F009CE807008EE807000026AA6A66618A
:10421C00A661E461E663266405F12001204605F001
:10422C005FFEAB6AA2686660D218A2F140034FF041
:10423C00807142F8401C0B4A01A942F001029A63BA
:10424C0047F00102DA63204641F8047DE3606946D9
:10425C004FF4406206F028F901B0F0BD024B1B6828
:10426C00C4E700BF4D5F200048020020294B30B549
:10427C00186844682246002C47D06368572B07D82F
:10428C00482B11D0D268002A3FD05368572BF7D94E
:10429C00483B5360C1684839C16053B1126848212A
:1042AC00D018D150043030BD00235360C168483958
:1042BC00C160016801290BD0956875B1D468BCB197
:1042CC00EC60D2F80CC00139CCF808500160E5E77D
:1042DC000021416081600160E0E70029DED0D4F864
:1042EC000CC00139C0F804C00160CCF80850D5E707
:1042FC000029D3D0D0F808C00139DCF808C001601F
:10430C00C0F808C0CCF80C40C8E701F07FFE0020D4
:10431C00C9E700BFE40000202DE9F04598B0002467
:10432C001694169B002500264FF4406A01930094C6
:10433C00069507960495059602950396089409949C
:10434C00CDF828A0FFF792FF44F23012C0F2200201
:10435C0069460746FFF742FF6FF000431793179B20
:10436C004FF001080C93CDF82C80119512960F95F7
:10437C0010960D950E9613941494CDF854A0FFF747
:10438C0075FF4AF28912C0F220020BA9FFF726FF33
:10439C0040F26823C2F2000383F80080F8680BF047
:1043AC0007FE18B0BDE8F0852DE9F0076B4E736879
:1043BC00002B76D05968002973D0DFF8A481B2465F
:1043CC0000270022D8F800505A60F268521AF260A6
:1043DC005A68BAB9DAF80040012C76D098680028EF
:1043EC0000F09B80D3F80CC0BCF1000F00F0A5804E
:1043FC00C0F80CC0DA689060DAF80020013ACAF80C
:10440C0000205A681C68A41849D00F2947D961604C
:10441C002460A760E760EB6859186B68E960D4F812
:10442C0000C06068002B40D0D3F800906044484531
:10443C000CBF1A461A4604D0D26812B111688842D1
:10444C00FAD159688944CC4507D0DB68002B2BD0B6
:10445C001868596841188C45F7D119461346CBB1E9
:10446C0060685A68821862602868012802BF6F6011
:10447C00AF602F600ED09A68002A2ED0D3F80CC0F3
:10448C00BCF1000F33D0C2F80CC0DB689A602B680B
:10449C00013B2B6019B14A686368D3184B60736891
:1044AC0073B9BDE8F007704713462968002929D174
:1044BC00A160E1602A686C600132AC602A60CEE7D2
:1044CC00596800297FF47DAFEBE7CAF80420CAF8DD
:1044DC000820CAF800205A6894E70028DAD06B68E4
:1044EC00DB686B609A602B68013B2B60D2E700287D
:1044FC00D0D0AB689B68AB60C3F80CC02B68013B99
:10450C002B60C7E7AA683946D460AA68E760A26046
:10451C002A68AC6001322A60A1E7002C3FF472AF2C
:10452C00DAF80400C068CAF804008260DAF80020E7
:10453C00013ACAF800205A6864E7002C3FF462AFD5
:10454C00DAF808008068CAF80800C260DAF80020BF
:10455C00013ACAF800205A6854E700BF3410002012
:10456C00E400002040F21403C2F200030A210022EE
:10457C001A71196040F20C03C2F2000319601A712F
:10458C00704700BF00B502F065F900BD012807D0E7
:10459C0028B90F4B0F4A1A631A621A611A607047D6
:1045AC000B4B0C49002219601961196219630A211D
:1045BC005A609A60DA605A619A61DA615A629A6258
:1045CC00DA625A639A63DA63196483F84420E6E783
:1045DC001C0000209409210000B50020FFF7D6FF35
:1045EC0000BD00BF00B50120FFF7D0FF00BD00BF2C
:1045FC002DE9F04FDFF80C0BB4B001F0AFFCDFF895
:10460C00087BDFF8080B01F0A9FC0A233B64DFF8F8
:10461C00000B01F0A3FC40F230084FF028151EAC43
:10462C004FF010094FF0000BC0F22808DFF8E40A35
:10463C00DFF8D46A01F092FCC7F8409015F8011B22
:10464C000023224606F1400001F062FD34A908184F
:10465C0000F858BC204601F081FC45454FF0000A9B
:10466C00E4D14FF00A08DFF8A40A01F077FCC6F891
:10467C004080DFF8A40A01F071FCDFF8A05ADFF8E3
:10468C008C0A01F06BFCC6F84080DFF8940A01F04C
:10469C0065FC2978DFF88C0A95F802B095F8019042
:1046AC00039101F05BFC0399224606F1400001F0F6
:1046BC0075FD34AA101800F858AC204601F04EFCD9
:1046CC00DFF8640A01F04AFC4946224606F1400034
:1046DC0001F064FD34AB181800F858AC204601F01A
:1046EC003DFCDFF8440A01F039FC5946224606F13C
:1046FC00400001F053FD0DF1D00C604400F858ACB3
:10470C00204601F02BFCDFF8240A01F027FCDFF82F
:10471C00FC0901F023FCC6F84080DFF8140A01F014
:10472C001DFC72B648F61003C4F20803DFF8049AB5
:10473C0048F61401C3F800A0C4F20801D9F800C06F
:10474C00D1F800E048F61801C4F208010E684FEAEF
:10475C000C2336021AEB060043F1000110EB0E029B
:10476C0041F1000348F62401C4F20801D1F800E03D
:10477C004FEA0E404FEA1E41121843EB010348F674
:10478C002001C4F20801D1F800E048F61C01C4F283
:10479C0008014FEA0E600E6812184FEA1E2143EB17
:1047AC000103D9F8001012EB0A0243EB06038C4507
:1047BC0005D000204FF48071121843EB010362B650
:1047CC0040F27050C2F2000090E8000C1AEB020AA2
:1047DC004BEB030B4FEA5A114FEA5B12234641EAAB
:1047EC00CB610026DFF85009009601F0E3FC34A9F8
:1047FC00081800F8586C204601F0B0FBDFF80C09E3
:10480C0001F0ACFB0A233B64DFF8300901F0A6FB96
:10481C002B78A9786A78002B00F0D983DFF820096F
:10482C0001F09CFBDFF81C0901F098FBDFF8DC08B9
:10483C0001F094FB0DF11C080A233B6408F11003F2
:10484C000C9308F120031093DFF8FC38DFF8FC28F8
:10485C000B93DFF8FC7842F6241300240792C8F27D
:10486C0096430DF15100DFF8B41803220894099413
:10487C000A940D940E9411940F97129313948DF82F
:10488C00504001F041FD72B648F61003C4F2080323
:10489C0048F614011C60C4F20801D9F800C0D1F824
:1048AC0000E048F61801C4F208010D684FEA0C2329
:1048BC002D02601943F1000110EB0E0241F10003CF
:1048CC0048F62401C4F20801D1F800E04FEA0E408A
:1048DC0012184FEA1E4143EB010348F62001C4F2C3
:1048EC0008010D6848F61C01C4F208012806D1F82D
:1048FC0000E0290A121843EB0103D9F80010121931
:10490C0043EB0E038C4505D000204FF48071121838
:10491C0043EB010362B640F2705CC2F2000C9CE8FF
:10492C000300801841EB0301430943EAC16315936B
:10493C004B09169344F240200023C0F20F00199348
:10494C001B931C930021DFF80C381790189101224F
:10495C0018681A9243683BB15A68B32A08D8A42A3B
:10496C0006D0DB68002BF7D101F050FB00241EE0D1
:10497C00A43A5A60C268A43AC2605A6892B90468F0
:10498C00012C00F060839968002900F0A383DD6896
:10499C00002D00F0AB83CD60DA6891600268013ABB
:1049AC0002605A681B68A4219C189950043472B692
:1049BC0048F610020023C4F20802136048F61402F1
:1049CC00C4F20802D9F80000D2F800C048F6180268
:1049DC00C4F20802D2F800E006024FEA0E2E13EBE6
:1049EC000E0146F1000211EB0C0542F1000648F6EF
:1049FC002402C4F20802D2F800C04FEA0C414FEA7C
:104A0C001C426D1846EB020648F62002C4F208025E
:104A1C00D2F800C048F61C02C4F208024FEA0C613E
:104A2C00D2F800E06D184FEA1C2246EB0206ED1896
:104A3C00D9F8003046EB0E06984205D000224FF410
:104A4C008073AD1846EB030662B640F270520DF15E
:104A5C00C00AC2F2000206CA0DF1C40B0491059201
:104A6C0050460322DFF8B41601F04EFC0322DFF8A7
:104A7C00AC16584601F048FC00270C2323706770D5
:104A8C0004AB0CCB521943EB0603510941EAC36149
:104A9C006180090CA180C3F34F115B0D2381E18070
:104AAC000322514604F10A0001F02EFC5946032260
:104ABC0004F1150001F028FCFBB20020002143F0AA
:104ACC00746343F41033C4F88400C4F88810C4F839
:104ADC008C00C4F8901042F62412C8F29642E3619E
:104AEC00DFF874562723A26184F82070C4F8803054
:104AFC00C4F89440C4F89820C4F89C702B6B04F153
:104B0C009400002B40F04282C4F89C302B6B6863FD
:104B1C000133A8632B6340F22C524FF0FF33C2F2E7
:104B2C00000211688DF8CC308DF8CD3004238DF84F
:104B3C00CF3008680026036809220292009601967D
:104B4C001F6A33AA0DF1CF03B847237F074606939C
:104B5C0072B648F61003C4F208031E6048F6180239
:104B6C0048F61403C4F20803C4F20802D9F800E0B2
:104B7C001B6812684FEA0E2B1202B0184BF10001A1
:104B8C0010EB030A48F62403C4F20803186841F139
:104B9C00000B0204030C1AEB020A4BEB030B48F656
:104BAC002003C4F20803186848F61C03C4F2080377
:104BBC000206D3F800C0030A1AEB020A4BEB030BF4
:104BCC00D9F800301AEB060A4BEB0C0B9E4506D0BD
:104BDC0000224FF480731AEB020A4BEB030B62B604
:104BEC0040F270520DF1BC09C2F2000206CA4846EE
:104BFC00049105920322DFF8241501F085FB2EABFE
:104C0C0018460322DFF814150393002601F07CFBF1
:104C1C001C223A707E7004AA06CA11EB0A0142EB00
:104C2C000B02480940EAC260C0F3072CB87087F841
:104C3C0003C0C0F3074C000E7871C2F34710B87173
:104C4C00C2F34730F871C2F34750520F87F804C0D3
:104C5C0038727A724946032207F10A0001F054FBBC
:104C6C00039B0322194607F1150001F04DFB0422AA
:104C7C003A7604F1180107F1190001F045FB069B87
:104C8C0038467B77BE7707F059FA384607F070F84C
:104C9C00384606F001FD384605F092FF40F22C5CD8
:104CAC00C2F2000CDCF800303946186803685B6A05
:104CBC009847DFF8A8341D945A68002A40F05D81AB
:104CCC00119208F124029A60DA6001225A60D4B180
:104CDC000023DFF88C240E9308F110030C93536817
:104CEC000D94002B00F06B81D2F808C0DCF8043076
:104CFC00A34240F3838108F1140393605368CDF809
:104D0C0038C001335360DFF85C340021DB6818686D
:104D1C0004F0C2FFDFF83404DFF82C14DFF8302481
:104D2C001B9C07900B910F9284B104F15C0004F072
:104D3C0073FDDFF8343404F14400636504F042FF82
:104D4C00204605F0CFFD204601F064F91C9C002C98
:104D5C0000F0AD80DFF808245168012900F09D8136
:104D6C00936808F11400834200F072814BB199688A
:104D7C0029B1814203D00B4689680029F9D10E99DB
:104D8C009960D06808F11401884204BFF449CB60E3
:104D9C005368013B5360002C00F08980636C4CF627
:104DAC00CD41CCF6CC41A1FB0371C90801EB8101CB
:104DBC004900591ADFF8B4C34FEA410E0EEB010358
:104DCC005CF823200CEB8307012A00F034815E1C75
:104DDC005CF8263004F14000984200F06B814BB136
:104DEC009A682AB1904203D013469268002AF9D1EE
:104DFC00A26C9A600EEB01020CEB82029668714475
:104E0C00B04208BF93605CF82130013B4CF8213074
:104E1C0094F83130022262F3010340F22C5C84F8E6
:104E2C003130C2F2000C4FF0FF33DCF800108DF87B
:104E3C00C8308DF8C93004238DF8CE3008680023B3
:104E4C0002680093019328230293166A0DF1CE0396
:104E5C0032AAB047274606460FCFBE4637460FC785
:104E6C00BC46BEE80F00ACE80F00BEE80F00ACE893
:104E7C000F009EE80F008CE80F00304607F05EF93B
:104E8C00304606F075FF304606F006FC304605F05D
:104E9C0097FE40F22C5CC2F2000CDCF8003031467C
:104EAC00186803685B6A9847204601F0B3F81D98B0
:104EBC0000285ED0AA4A5168012900F0E980936865
:104ECC0008F1140C634500F0ED804BB1996829B1E1
:104EDC00614503D00B4689680029F9D10E99996078
:104EEC00D16808F11408414504BF9D49CB60536853
:104EFC00013B536000283CD0D0F898304CF6CD41A3
:104F0C00CCF6CC41A1FB0321C90801EB810149007E
:104F1C00591A4FEA410E0EEB010355F823408E4A05
:104F2C00012C05EB830700F0AA805E1C52F826309A
:104F3C0000F1940C9C4500F0938053B19A682AB10F
:104F4C00944503D013469268002AF9D1D0F89C20DE
:104F5C009A600EEB010205EB820294687144A44541
:104F6C0008BF936055F82130013B45F8213001F022
:104F7C0051F8002034B0BDE8F08FD86808F1240156
:104F8C00013241605A601196D960A0E6D5F834C060
:104F9C00DCF80430934200F29680DCF808301BB346
:104FAC00614696465A68724519D9002900F08B80E3
:104FBC008860C4F89C302B6B01332B63ABE50E93EC
:104FCC0008F114039360D360012353609BE6002A1D
:104FDC007FF424AC00297FF421AC4E4820E49A687D
:104FEC0012B119461346DDE7AB6B98600023C4F889
:104FFC009C302B6BA86301332B638CE5DCF80830F9
:10500C0073B1604659688C4233DA00283FF473AEB2
:10501C0008F1140181600E9353680133536072E6FA
:10502C00D16808F114038B60D360536800210133FD
:10503C000E91536067E60022591C4CF82120BA608F
:10504C004CF82320E4E64260826002605A68A9E4CE
:10505C0000293FF4A3AE0E9B0139936051609AE690
:10506C00002C84D0D0F89C30013C42F826303C60B7
:10507C007DE799680029D3D018460B46C2E700217A
:10508C0003F1010C42F82C10B96042F823106EE7C2
:10509C0000239360D36053602CE700239360D360AC
:1050AC00536078E600293FF427AF0E9B01399360DB
:1050BC0051601FE7002A3FF4ABAEA36C013A4CF8E9
:1050CC0026303A60A4E6C4F89CC02B6B68630133AD
:1050DC002B6320E5002C3FF465AC4168C968416046
:1050EC008A600268013A02605A685BE4002C3FF463
:1050FC0059AC816889688160CA600268013A0260B3
:10510C005A684FE4100A21001C000020240A2100D8
:10511C00280A2100D80A21003C0A21006C02002038
:10512C009C0A2100B00A2100B40A2100DC0D2100E8
:10513C00B80A21006C0500205C000020CC0A21007C
:10514C00D40A2100DC0A2100C4092100A80921008D
:10515C00D0092100E40000200804002038050020BC
:10516C00880200204C020020040A21009802002032
:10517C00014B0360704700BF040A2100014B036020
:10518C00704700BF040A2100014B0360704700BF49
:10519C00040A2100F0B5438882880D4643EA024197
:1051AC000289C38884B043EA0243D0F888200446BD
:1051BC009A4204D805D0D4F890209A4209D204B06F
:1051CC00F0BDD0F884208A42F9D8D4F890209A42C5
:1051DC00F5D303D1D4F88C308B42F0D3244E4FF05E
:1051EC00FF338DF80C308DF80D30316804238DF8B9
:1051FC000F30D4F880C00868002302680093019334
:10520C00ACF118030293176A0DF10F0303AAB84708
:10521C0021460746D4F8802001F076F8FA78BB785E
:10522C00384643EA02233A7943EA02437A7943EA5D
:10523C0002632A68D31AC3F307227B77BA77C3F3C6
:10524C0007421B0E87F82030FA7706F077FF3846B6
:10525C0006F08EFD384606F01FFA384605F0B0FC15
:10526C0033683946186803685B6A9847A7E700BF3C
:10527C002C050020024B00B5036000F0CBFE00BDF6
:10528C00040A2100024B00B5036000F0C3FE00BD10
:10529C00040A2100024B00B5036000F0BBFE00BD08
:1052AC00040A210000B5406804F064FC00BD00BF96
:1052BC00A0F1100000E000BF2DE9F0451D461B7861
:1052CC0093B0C3F3C103012B044600F0818005D3D6
:1052DC00022B00F0C58013B0BDE8F085C36C13F051
:1052EC00010FF8D06A7FA97F836D42EA0121EA7F22
:1052FC0095F8220041EA024195F8202041EA02612A
:10530C0095F8212042EA002295F8230042EA004257
:10531C0095F82400C3F8841042EA0062C3F8882090
:10532C0095F8252095F8261095F82A0042EA0121D7
:10533C0095F8272041EA024195F8282041EA0261BC
:10534C0095F8292042EA002295F82B0042EA004207
:10535C0095F82C00C3F88C1042EA0062C3F8902038
:10536C0095F8312002F00302022A00F08A8095F8A9
:10537C00362095F8371095F83B0042EA012195F854
:10538C00382041EA024195F8392041EA026195F84A
:10539C003A2042EA002295F83C0042EA004295F895
:1053AC003D0042EA006251EA020000F08180206D6B
:1053BC00002800F01E81D0F85CC0036E5CEA030389
:1053CC0089D00D915C300DA90E9204F06BFA82E736
:1053DC00EA78AB7843EA02232A7943EA02436A79F2
:1053EC0043EA0261EA79AB7943EA02232A7A43EA77
:1053FC0002436A7A43EA0263C26B9A4203D32FD107
:10540C00836B8B422CD2E36C13F0040F35D0226BE0
:10541C00D5F82130D31823632B7F05F10A0184F8CA
:10542C003430032204F1350000F06EFFAB78EA78DB
:10543C00E97943EA02222B79204642EA03426B794E
:10544C0042EA0362AB7943EA0123297A43EA014336
:10545C00697AA26343EA0163E36323689B68984714
:10546C00E36C13F0030F3FF436AF04F1350005F194
:10547C000A01032200F048FF2DE7D5F82130236301
:10548C00CAE7256D002D3FF426AF05F15C0004F052
:10549C00C3F9B94B05F144006B6504F093FB284646
:1054AC0005F020FA284600F0B5FD0023236512E72D
:1054BC00B24A1268032A16DDEFF31081B04AC9B262
:1054CC00117072B649F23802C4F20802042010605E
:1054DC0049F25002C4F20802126801B962B612F025
:1054EC00010F40F029814FF0FF32226372B648F66B
:1054FC0010020020C4F20802DFF888E248F6140615
:10550C001060C4F20806DEF800C0D6F8008048F639
:10551C001806C4F20806D6F800A04FEA0C224FEA8F
:10552C000A2A10EB0A0642F1000716EB080148F6AE
:10553C002406C4F20806D6F8008047F100024FEAB0
:10554C000846891948F62006C4F208064FEA18479F
:10555C00D6F8008048F61C06C4F20806D6F800A05F
:10556C004FEA086642EB070289194FEA182742EB0B
:10557C0007020918DEF8000042EB0A02844505D048
:10558C0000264FF48077891942EB070262B67E48F9
:10559C0090E8C000761847EB0207720942EAC7622E
:1055AC007909E163A263216B5A80628FC3F82110E1
:1055BC009A80A08FD880E18F198195F8332095F8C7
:1055CC00323095F834C043EA022343EA0C4395F891
:1055DC0035C004F1380206CA43EA0C6C11EB0C031B
:1055EC00A06D0BA942EBEC740B930C94FFF7D2FD5E
:1055FC0071E60F91109295F8332095F8323095F8AA
:10560C0035A043EA022395F8342043EA024343EAE7
:10561C000A6A5E4B186843683BB15A68932A70D883
:10562C00842A6ED0DB68002BF7D100F0EFFC00254C
:10563C000F9BD4F8488002931293109B0222039381
:10564C00129B00920193524B00261B6800210022F2
:10565C004FF44067069107920491059208960996BB
:10566C000A972B60009B05F1200C2B616E61AE61DB
:10567C00ED610DF1040EBEE80F00ACE80F009EE8E2
:10568C0007008CE80700EE632E640A9A284608A9E6
:10569C0004F026FC6E60AA680A9BD318A3F14002A2
:1056AC004FF0807143F8401C3A493B4841F00101EE
:1056BC00916340F00101D16313A943F838AC43F86E
:1056CC003C8C43F8344CEA603A4641F8080D05F13D
:1056DC004407284604F0E8FE3846314604F044FA04
:1056EC002E4B05F15C006B6505F154020FA94FF0D0
:1056FC00FF33AF6504F088F9284604F067FE256592
:10570C00E9E5843A5A60C268843AC2605A686AB958
:10571C000168012915D09D68C5B1DE680EB3EE6035
:10572C00DA6895600268013A02605A681B68842145
:10573C009D18995004357BE70AF074FAA36D206329
:10574C00D4E64260826002605A68EFE70029EDD02F
:10575C004168C96841608A600268013A02605A680F
:10576C00E4E70029E2D0816889688160CA60026838
:10577C00013A02605A68D9E7040A2100F4000020BB
:10578C00F80000206C05002070050020E4000020CB
:10579C00480200204D5F20000D592000DC0921003B
:1057AC00A0F1200000E000BF2DE9F048044682B0D3
:1057BC0072B648F610030021C4F208034C4D48F6AB
:1057CC0014001960C4F20800D5F800E0D0F800C04D
:1057DC0048F61800C4F2080000684FEA0E230002D5
:1057EC000E1848F62400C4F20800006843F10007C4
:1057FC004FEA004B16EB0C024FEA104C48F6200017
:10580C00C4F20800066847F1000348F61C0012EBCE
:10581C000B024FEA066B43EB0C03C4F2080012EBCD
:10582C000B024FEA162C006843EB0C038B46521804
:10583C00296843EB00038E4505D000204FF480719E
:10584C00121843EB010362B62A4903C9801841EBD5
:10585C000301430943EAC163A3634B09E363264B8A
:10586C001B68032B15DDEFF31082244BD2B21A7098
:10587C0072B649F23803C4F208030421196049F2E4
:10588C005003C4F208031B6802B962B613F0010F8F
:10589C000DD14FF0FF332363236820469B68984754
:1058AC00A36D0BB1226D32B102B0BDE8F0880AF0E5
:1058BC00B9F92063F0E7226B02A9C3F82120228FEB
:1058CC005A80628F9A80A28FDA80E28F1A8104F15B
:1058DC0040030CCBA06D04F1380530CD121943EB0D
:1058EC00050321E90C006946FFF754FCDCE700BF17
:1058FC006C05002070050020F4000020F80000204A
:10590C002DE9F04F94B0129148F6100048F61401AE
:10591C00C4F20800C4F2080149F2380A16460B908A
:10592C000C9148F6180248F6240348F61C0750461A
:10593C0049F25001C4F20802C4F20803C4F2080789
:10594C00C4F20800C4F208010D920E930F97109048
:10595C001191039611E000F0D38040F24C27C2F273
:10596C000007FB681F68B86E002840F0B98000384B
:10597C0018BF0120002800F0C08072B60B9A0023DB
:10598C000C9FDDF834A040F26C561360C2F2000696
:10599C00316898463868DAF800300E9F1B0218EB15
:1059AC00030B4FEA012949F1000C1BEB000238688C
:1059BC004CF100034FEA104B0004059048F6200010
:1059CC00CDF818B0C4F20800DDF83CA005AFC0CF8C
:1059DC000068921943EB0703DAF800704FEA006B8A
:1059EC004FEA102C12EB0B020897CDF81C8007AF76
:1059FC00C0CF43EB0C03921943EB070340F26C57F7
:105A0C00C2F200073868814205D000204FF4807143
:105A1C00121843EB010362B640F27054C2F2000458
:105A2C00039E94E80300801841EB0301B36D4D090C
:105A3C00D3F890204409AA4244EAC1648BD9664A3F
:105A4C001268032A12DDEFF310826449D2B20A7095
:105A5C0072B6109F0421DDF844A03960DAF800100A
:105A6C0002B962B611F0010F40F0AB80039E4FF00B
:105A7C00FF323263039F3A6BBC63FD63C3F8212092
:105A8C00220C9A802A0C5C80DD801A81D7F858A0F1
:105A9C00BAF80230BAF80410BAF8082043EA014107
:105AAC00BAF8063043EA0243DAF888209A4204D85E
:105ABC002CD0DAF890209A4230D2039E40F24C2738
:105ACC003368CDF810C09B68C2F200073046984787
:105ADC00FB68DDF810C01F68B86E00283FF447AFB4
:105AEC0007F14400CDF810C004F058F8B86E003837
:105AFC0018BF012000287FF440AF14B0BDE8F08F30
:105B0C00D3F88C20A2427FF628AF98E7DAF88420ED
:105B1C008A42D2D8DAF890209A42CED303D1DAF85E
:105B2C008C308B42C9D32E4E4FF0FF33DAF880E025
:105B3C0031688DF84C308DF84D3004238DF84F3092
:105B4C0008680023026800930193AEF118030293D6
:105B5C00CDF810C0176A0DF14F0313AAB847514680
:105B6C00DAF88020074600F0CFFB129AFB78A018D9
:105B7C00BA7842EA03223B7942EA03427B7942EA51
:105B8C000363C31AC3F307227B77BA77C3F30742C5
:105B9C001B0EFA7787F82030384606F0CFFA3846D5
:105BAC0006F0E6F8384605F077FD384605F008F8BB
:105BBC0033683946186803685B6A9847DDF810C08B
:105BCC007BE7CDF810C00AF02DF80399DDF810C072
:105BDC0008638B6D4EE700BFF4000020F800002036
:105BEC002C05002070B500F0DBFBBA494B68002B8C
:105BFC0000F059815A6846F20300824209D8B2F586
:105C0C00C04F06D0DB68002B00F04D815A688242F1
:105C1C00F5D9A2F5C0425A60CA68AE48A2F5C04296
:105C2C00CA605A6892B90468012C00F0EF80996838
:105C3C00002900F01E81DD68002D00F02881CD6068
:105C4C00DA6891600268013A02605A681968DFF8F4
:105C5C0088C200238C18CCF80030CCF80430CCF877
:105C6C000830CCF80C304CD04FF4C0408C506060F5
:105C7C00A360E360DCF80C301B18CCF80C30DCF8BB
:105C8C00043051F802E06068002B00F0A7801D681A
:105C9C007044A8420CBF1A461A4604D0D26812B1FE
:105CAC0011688842FAD159686D18AE4508D0DB6886
:105CBC00002B00F092801868596841188E45F6D177
:105CCC0019461346C3B160685A6882186260DCF8E2
:105CDC000000012800F092809A68002A00F09B8056
:105CEC00DD68002D00F0A680D560DB689A60DCF8DA
:105CFC000030013BCCF8003019B14A686368D31806
:105D0C004B60764BC3F800C000F08AFC00F0B2FD8B
:105D1C00734B002293E8300043F24803C4F20303B0
:105D2C001968704B55181868234643F1000644F661
:105D3C006D63C4F2C61305FB03F505F54055036806
:105D4C003935694CB5F1FF3F28BF0135DB6A256059
:105D5C0098470378002B40F098804178003918BFA1
:105D6C00012149F20043C4F20D031A6822F020020B
:105D7C001A6044F29402C4F20D020123136047F23C
:105D8C000802C4F20D02B523136047F20002C4F2FC
:105D9C000D02136813F0800FFBD047F21002C4F20F
:105DAC000D02136847F20C02C4F20D02126881EA6C
:105DBC00050502EB032244F66D63C4F2C61303FB24
:105DCC0005F505F540553935B5F1FF3F28BF0135CF
:105DDC0042F30B135D40256070BD1346DCF80010D8
:105DEC00002936D1A160E160DCF80020CCF8044039
:105DFC000132CCF80840CCF8002063E70023CCF843
:105E0C000430CCF80830CCF8003075E74260826082
:105E1C0002605A681AE700283FF46EAFDCF80430D1
:105E2C00DB68CCF804309A60DCF80030013BCCF82D
:105E3C00003061E700283FF45FAFDCF808309B6866
:105E4C00CCF80830DD60DCF80030013BCCF80030D9
:105E5C0052E7DCF808200021D460DCF80820E1606F
:105E6C00A260DCF80020CCF808400132CCF800200D
:105E7C0028E7002C3FF4EAAE4168C96841608A60AB
:105E8C000268013A02605A68E0E6012169E7002CD9
:105E9C003FF4DCAE816889688160CA600268013AAF
:105EAC0002605A68D2E6114C01232371104800F0AD
:105EBC0055F8104800F052F8DFF81CC00A23236094
:105ECC000023CCF80030CCF80430CCF80830CCF8F7
:105EDC000C3016E734100020D4000020E400002021
:105EEC004410002084050020F0000020C400002095
:105EFC00E80A2100240A210000B500F031FB40F231
:105F0C0034530022C2F200031A6040F23053C2F242
:105F1C0000031A6040F2CC03C2F200030A211A718A
:105F2C00196040F2C403C2F2000319601A7100BD7B
:105F3C0040F2E803C2F2000300221A605A60704774
:105F4C0000B5004604F08AFB00BD00BF00B504F0AC
:105F5C0085FB00BD00B509F005FE00BD2DE9F0453F
:105F6C00002507467C5D1C4EAA46DFF8708084B184
:105F7C00092C29D00A2C18D0336820460133336001
:105F8C0009F07EFE33684F2B05DC01357C5D002C5F
:105F9C00EED1BDE8F0850D2009F072FE0A2009F063
:105FAC006FFE0135C6F800A0F0E70D2009F068FE81
:105FBC00204609F065FED8F80030C6F800A0013381
:105FCC00C8F800300135E1E7204609F059FE336886
:105FDC00013508333360D9E7300500203405002043
:105FEC0010B540F6003040F2C4040123C2F20004A4
:105FFC00C0F221002371FFF7B1FF40F62420C0F25C
:10600C002100FFF7ABFF0A23236010BD00B5FFF79B
:10601C00A1FF00BD3D4B70B41D6850F8043C041F3B
:10602C000F2B41D9002240F8044C6360A260E2605F
:10603C00EA68D318EB606B6850F804CC6068002BEE
:10604C0035D01E686044B0420CBF1A461A4604D0C4
:10605C00D26812B111688842FAD159687618B445E1
:10606C0007D0DB68002B21D01868596841188C4583
:10607C00F7D11946134693B160685A68821862606A
:10608C00286801281DD09A68002A1FD0DE68002ECF
:10609C0031D0D660DB689A602B68013B2B6019B15C
:1060AC004A686368D3184B6070BC70471346296804
:1060BC00B1B9A160E1602A686C600132AC602A6001
:1060CC00D9E700236B60AB602B60E8E70028E6D0D3
:1060DC006B68DB686B609A602B68013B2B60DEE7BA
:1060EC00AA680021D460AA68E160A2602A68AC604A
:1060FC0001322A60BFE70028D1D0AB689B68AB6047
:10610C00DE602B68013B2B60C9E700BFE400002078
:10611C0070B400293BD0B1F5807F1BD9D0F800C0FA
:10612C00BCF1080F14BF00240124BCF1100F08BFF0
:10613C0044F0010484B14FF0300C02F803C0D0F8E5
:10614C0000C00133BCF1100F06D14FF0780C02F8EF
:10615C0003C00133D0F800C00C465D1CB4FBFCF44A
:10616C001E462B46002CF8D10B4C9219B1FBFCF3BC
:10617C000CFB131C14F80C3002F80139D0F800C0D9
:10618C00B1FBFCF10029F1D1284670BC70473021DD
:10619C00D154581CF9E700BF1C0B2100002900B595
:1061AC0003DB0023FFF7B4FF00BD2D23137049421E
:1061BC000123F7E72DE9F04F144651EA040281461A
:1061CC000D469B46099E4BD0002C4ED0D9F8007042
:1061DC00082F14BF00230123102F08BF43F0010325
:1061EC006BB130230BF80630D9F800700136102F44
:1061FC0005D178230BF806300136D9F800703F46EC
:10620C004FEAE778284621463A46434609F09CFF78
:10621C0006F1010A50EA010233465646F4D10BEB63
:10622C000306DFF850B03A464346284621460AF0AA
:10623C0037F91BF80030214606F80139D9F80070FF
:10624C0028463F464FEAE77843463A4609F07CFF3A
:10625C0050EA010305460C46E5D15046BDE8F08FE7
:10626C0030230BF80630701CF8E7B1F5807FADD801
:10627C00C3E700BF1C0B2100302310B41370084C73
:10628C0078235370072301F00F0C14F80CC0D018AE
:10629C000909013B80F802C0F5D20A2010BC7047F6
:1062AC001C0B2100032A30B405460C4610D941EAD8
:1062BC00000313F0030F0CD1D0F800C00B689C4501
:1062CC0004D1043A04300431032AF5D805460C46AF
:1062DC00B2B1287894F800C060450ED1013A002381
:1062EC0072B105EB030C9CF8010004EB030C9CF859
:1062FC0001C00133013A6045F2D0CCEB000000E064
:10630C00002030BC704700BF0F2A30B405460C4645
:10631C0042D941EA000313F0030F02BF14468C4626
:10632C00034609D0002314F803C005F803C0013359
:10633C009A42F8D130BC7047DCF80050103C1D601C
:10634C00DCF804505D60DCF808509D60DCF80C5003
:10635C000CF1100CDD6010330F2CEDD8A2F11004F1
:10636C0004F00F0224F00F04103405190C19032A41
:10637C0012D9002354F803C045F803C00433C3EB0F
:10638C00020CBCF1030FF5D8043A22F003030433DA
:10639C00ED18E41802F00302002AC3D1CAE700BFCB
:1063AC0000B500F003F800F095F800BDDFF81CC153
:1063BC0047F2F832C2F20002CCEB020270B4002AAF
:1063CC004AD00023424DCCF800C0CCF80420CCF8C5
:1063DC000830CCF80C30EB686446D318EB606B6873
:1063EC00002B3CD01E680CEB8200B0420CBF1A464E
:1063FC001A4604D0D26812B111688842FAD1596891
:10640C0006EB8106B44208D0DB68002B26D0586816
:10641C00196801EB80018C42F6D119461346ABB1D9
:10642C00DCF804005A688218CCF804202C68284A3E
:10643C00012C23D09868002825D0DD68002D3AD097
:10644C00C560DB6898601368013B136021B14A6832
:10645C00DCF80430D3184B6070BC704713462A68C4
:10646C001B48D2B90121CCF80820CCF80C200160D3
:10647C00C0F804C0C0F808C01146D0E70023536030
:10648C0093601360E2E7002CE0D05368DB68536044
:10649C0098601368013B1360D8E781680132C1F83A
:1064AC000CC08168CCF808100021CCF80C10C0F896
:1064BC0008C00260B3E7002CC8D093689B68936057
:1064CC00DD601368013B1360C0E700BF4C10002077
:1064DC003410002043F20C03C4F203031A68122098
:1064EC0022F001021A6042F20802C4F20D02116895
:1064FC0041F00801116042F20C02C4F20D02116865
:10650C0041F00801116042F21002C4F20D02116850
:10651C0041F00801116043F200020021C4F20302B1
:10652C00116043F20402C4F20302106043F2280229
:10653C00C4F203024FF0FF30106043F23802C4F291
:10654C000302116043F21802C4F20302116841F015
:10655C00010111601A6842F001021A60704700BF15
:10656C004CF22043C4F20D031A6822F0C0021A60E8
:10657C004CF20043C4F20D031A6822F0C0021A60F8
:10658C0044F2F8030122C4F20D031A6044F2FC0336
:10659C00C4F20D031A6042F20002C4F20D0211683B
:1065AC004FF6F873CFF6DC6301EA030343F40813E8
:1065BC0042F204011360C4F20D010A6840F20003B8
:1065CC00C0F2011302EA0303002BF6D142F20003DE
:1065DC00C4F20D031A6822F4E0621A6042F204025B
:1065EC00C4F20D02136813F0806FFBD0704700BF2C
:1065FC004EF61453CEF200031A6842F001021A60F0
:10660C0042F29803C4F20D031A6842F001021A60B8
:10661C004EF60853CEF200034FF401121A60704785
:10662C0000B5FFF7E5FF02F0A3FF00F019F800F04A
:10663C009BF800F009F800F001F800BD00B500204F
:10664C0002F0C4FA00BD00BF044B082203F58071B0
:10665C0083F8002801338B42FAD1704710070020D1
:10666C004EF210034EF21802CEF200030021CEF2CD
:10667C000002196011604EF21402CEF200024FF4C7
:10668C00FA41116006221A604FF6FD3140F2106299
:10669C00C2F20002C0F22001D1631A6842F001027A
:1066AC001A60704740F2FA030022C2F200031A701B
:1066BC0040F2F903C2F200031A7040F2F403C2F282
:1066CC0000030221196041F22403C2F200031A6094
:1066DC0041F23003C2F2000349F2380C1A60C4F2E2
:1066EC00080C032349F2400049F24C01CCF800306D
:1066FC0030B4C4F208000424C4F2080149F2440383
:10670C000460C4F208030A601D6845F040051D6072
:10671C001D6845F008051D601D6845F008051D60E5
:10672C002023CCF8004002600B6049F25003C4F205
:10673C0008031A6842F080021A601A6842F01002CC
:10674C001A6049F21C03C4F2080301221A6049F2D0
:10675C002403C4F208031A6049F22C03C4F20803A0
:10676C001C6030BC704700BF4BF22043C4F20D03D9
:10677C001A682DE9F04822F004021A604BF200432B
:10678C00C4F20D031A6842F004021A604BF21003B3
:10679C00C4F20D03FF221A6049F23C02C4F2080253
:1067AC00136843F001031360136843F00203136092
:1067BC00136813F0800FFBD049F20403C4F20803F2
:1067CC001A6822F001021A60FFF76CFF1D4B0122C0
:1067DC001A601D4A1D4BC3F8F0204EF20413CEF282
:1067EC0000034FF480521A60EFF31087FFB207B129
:1067FC0062B6174843F24806C4F2030690E8001844
:10680C00316800225B4612EB010B49F20002C0F228
:10681C00D03243F1000C00231BEB020B4CEB030CAE
:10682C0090E80C00316800241546621845F100030D
:10683C009C45F5D801D19345F2D807B162B6BDE8B5
:10684C00F08800BFF40000200DFE20001006002090
:10685C004410002000B540F28453C2F2000381B012
:10686C001B6801A840F8043D684600F051FC01B0DB
:10687C0000BD00BF00B502F0D3FE00F001F800BD72
:10688C00704700BF40F22C53C2F200031B68014654
:10689C00186800B5036804221B68984700BD00BF48
:1068AC000023016043608360C360704770B55B4C2C
:1068BC000646642383B04FF02810594908222370F0
:1068CC00FFF7F0FC002800F08380564D564B314604
:1068DC001B680422186803681B6898472B78A978F2
:1068EC006A78002B79D0514B186843683BB15A68D1
:1068FC00572A08D8482A06D0DB68002BF7D1FFF7B7
:10690C0085FB00251BE0483A5A60C268483AC260D1
:10691C005A687AB90568012D64D09968002966D047
:10692C00DE68002E6ED0CE60DA6891600268013AA3
:10693C0002605A681B6848219D18995004353C4BDD
:10694C0001221B682A614FF6FD722B60C7F6FF729D
:10695C000023AB616B606B610021009200226963C4
:10696C00AA63E9622A636962AA62ED61009A03A9CB
:10697C002A62EB632B64284641F8043D4FF44062D5
:10698C0003F0AEFAAB6803F53C614FF08070C3F8CE
:10699C00C00B2848284A40F00100C3F8F80B42F01D
:1069AC000100C3F8FC0BE96003A941F8082D284647
:1069BC004FF4406203F078FD23784F2B06D81F4D1F
:1069CC00EB6803F05BFB23784F2BF9D903B070BD58
:1069DC00144DA8706870287078E7002A83D10029BC
:1069EC0081D1E9E74260826002605A68A2E7002D1B
:1069FC00A0D04168C96841608A600268013A0260AF
:106A0C005A6897E7002D95D0816889688160CA60C3
:106A1C000268013A02605A688CE700BFAC0400209F
:106A2C00880B21006C0200202C050020E4000020C3
:106A3C00480200204D5F2000E56C20004C02002035
:106A4C002DE9F04F9B4E0146337898B0B0787278B0
:106A5C00002B00F01281984B04221B681868036805
:106A6C001B6898473278B1787378002A00F0FD8063
:106A7C00DFF848B2DFF848C29248CDF834B0CDF810
:106A8C0030C0119048F6100B48F6200748F61C064B
:106A9C00C4F2080B48F6140948F6180A48F62408FC
:106AAC00C4F20807C4F20806C4F20809C4F2080AC2
:106ABC00C4F20808CDF808B00097019672B6029897
:106ACC0000210C9B01601A68D9F80040DAF80030FC
:106ADC0016021B0211EB030B0D46D8F8001046F101
:106AEC00000C1BEB040310944CF100044FEA114C06
:106AFC000904CDF81CC0009F069106A903C91B18F8
:106B0C0044EB0104DDF804B03968DBF800C00F0A6F
:106B1C0009060997089108A903C9CDF82CC01B18C0
:106B2C000A950C9F44EB01040AA903C91B1844EBFA
:106B3C00010439688A4205D000204FF480711B187B
:106B4C0044EB010462B6119F0D9897E80600DDF83E
:106B5C0034B0C91842EB0402D0F804C04B09DBF87E
:106B6C0000B043EAC26352096245CDF840B005D883
:106B7C0002D018B0BDE8F08F5B45FAD972B6029A14
:106B8C0000230C9C136022680E93D9F800E0DAF80D
:106B9C00003017020F974FEA032B0EA903C910EB15
:106BAC000B0341F10004D8F8001013EB0E0344F171
:106BBC0000044FEA114B0904CDF84CB0009F129120
:106BCC0012A903C91B1844EB01043968DDF804B0A1
:106BDC000F0A09061597149114A903C9DBF800E0F4
:106BEC001B1844EB01040021CDF85CE016910C9FBE
:106BFC0016A903C91B1844EB010439688A4205D055
:106C0C0000204FF480711B1844EB010462B6119FF5
:106C1C00DDF840B097E80600C91842EB04024FEAD1
:106C2C00511ECDF810B0CDF814C004A903C926A488
:106C3C0018CC4EEAC26E5209C01841EB04018A42CC
:106C4C000490059107D804D0214BDB6803F016FAA9
:106C5C0034E78645F8D91F4B0020002183E8030058
:106C6C001B4BDB6803F00AFA28E7ABB11349144A53
:106C7C00144B0D910C92119304E7002A7FF4EBAEA8
:106C8C0000287FF4E8AE0D484FF0FF324FF0FF3391
:106C9C00074680E80C00DEE600293FF46AAF074F98
:106CAC00DFF81CB0DFF81CC00D97CDF830B0CDF874
:106CBC0044C0E7E66C0200202C050020B404002040
:106CCC006C0500207005002020BCBE0000000000F8
:106CDC004C020020800400202DE9F04F48F61000F3
:106CEC0048F6140148F6180248F6240348F6200525
:106CFC0048F61C06B0B0C4F20800C4F20801C4F295
:106D0C000802C4F20803C4F20805C4F20806FB4CDE
:106D1C00DFF8EC931190129113921493159516962B
:106D2C001BE140F22C53C2F2000319684FF0FF3301
:106D3C008DF8BC308DF8BD3004238DF8BF30086859
:106D4C000026036803220292009601961D6A2FAA60
:106D5C000DF1BF03A847054672B6119FDDF848E058
:106D6C003E6013982368DEF8002001684FEA032880
:106D7C004FEA012CCDF880801F961FA903C910EB98
:106D8C000C0741F100081499BF180A6848F1000873
:106D9C004FEA124E1204CDF870E01B921BA903C9E6
:106DAC003F1848EB01081599DDF858E00A68DEF841
:106DBC0000C0110A12061D921E911DA903C9CDF81F
:106DCC0088C03F18219648EB010821AA06CA7F18F3
:106DDC0048EB02082268934205D000224FF48073DE
:106DEC00BF1848EB030862B6032299E803000B9026
:106DFC000C912EA8C349FFF787FA03222DA8C1498D
:106E0C00FFF782FA00261C232B706E700BAB0CCB99
:106E1C00D21943EB0803510941EAC361C1F30720BE
:106E2C00A970E870C1F30740090E6971C3F34711EB
:106E3C00A971C3F34731E971C3F347515B0F6B720F
:106E4C002871297203222EA905F10A00FFF75CFABA
:106E5C002DA9032205F11500FFF756FA05232B7611
:106E6C00284605F06BF9284604F082FF284604F00A
:106E7C0013FC284603F0A4FE72B61199129F0E6003
:106E8C00DDF84C80D4F800E03868D8F800304FEAD0
:106E9C000E2219020796089207AB0CCB571843F138
:106EAC0000083A18149F48F100033868169F4FEAFF
:106EBC00104C0004CDF810C0039003A903C912189C
:106ECC0043EB0103159909960868D7F800C0010A2D
:106EDC0000060691059005A903C9CDF828C0121823
:106EEC00206843EB010309AFC0CF921943EB0703B2
:106EFC00864505D000204FF48071121843EB010336
:106F0C0062B699E80300801841EB03014FEA501A6E
:106F1C0049F280624AEAC16AC0F298024FEA511BF8
:106F2C00002312EB0A0243EB0B03C5F89C20C5F8B7
:106F3C00A03040F22C51C2F200010B6829461868AF
:106F4C0003685B6A984749F28062C0F2980200239A
:106F5C002BA82B922C9302F0E3FD40F2AC47C2F22B
:106F6C0000073B784F2B7FF6DCAE72B6DDF8448021
:106F7C000021C8F800102068129A139D4FEA002CCB
:106F8C00CDF860C0D2F800C02B6817911B0217AE69
:106F9C0060CEEF1846F10008149E17EB0C02D6F8E1
:106FAC0000C048F100034FEA1C484FEA0C4CCDF8E6
:106FBC0034C0CDF838800DAE60CE521943EB0603C9
:106FCC00159E169FD6F800C0D7F800E04FEA1C2596
:106FDC004FEA0C6C1095CDF83CC00FAFC0CF199197
:106FEC009219CDF868E0216843EB070319AE60CE27
:106FFC00521943EB0603884205D000264FF48077E4
:10700C00921943EB070362B640F2B44799E80300C8
:10701C00C2F20007801841EB0301D7F804C04A09FB
:10702C0043096245D7F800E043EAC16302D88AD12C
:10703C00734588D972B6DDF844800021C8F8001079
:10704C002568129B139E2802289018683368279194
:10705C004FEA032827AB0CCB12EB080643F10007D1
:10706C00321847F10003149F29913868060C00046C
:10707C002390249623AFC0CF921943EB0703159F9F
:10708C00169E3868D6F80080060A000625902696CB
:10709C0025AFC0CFCDF8A880921929A903C943EB1D
:1070AC000703121843EB010321688D4205D000251C
:1070BC004FF48076521943EB060362B699E803004D
:1070CC00801841EB030143090FA7C0CF480943EADD
:1070DC00C1631EEB06014CEB0702904204D87FF40F
:1070EC0020AE8B427FF61DAE40F280420020002184
:1070FC00C2F2000282E8030013E600BF6C05002018
:10710C00700500206C02002020BCBE0000000000B6
:10711C002DE9F0410546F94C206843683BB15A68AB
:10712C001F2A08D8102A06D0DB68002BF7D1FEF7EF
:10713C006DFF00231EE0103A5A60C268103AC2601C
:10714C005A6892B90668012E00F05381996800299B
:10715C0000F06981DF68002F00F0A081CF60DA6851
:10716C0091600268013A02605A68196810208B1805
:10717C00885004332A68DFF888831A60C8F8003016
:10718C00206843683BB15A68232A08D8142A06D0D1
:10719C00DB68002BF7D1FEF739FF00271EE0143A0D
:1071AC005A60C268143AC2605A6892B90568012DD7
:1071BC0000F029819968002900F05881DE68002EC2
:1071CC0000F09081CE60DA6891600268013A02604A
:1071DC005A681B6814219F1899500437C94A002318
:1071EC003A60C94A7F603B72FB60DFF820C31360D2
:1071FC00C74A137044F66D62DCF80030C4F2C61254
:10720C0002FB03F303F540533933B3F1FF3F28BFBF
:10721C000133D9B202FB03F303F540533933B3F115
:10722C00FF3F28BF0133D8B202FB03F303F54053F1
:10723C003933B3F1FF3F28BF0133DDB2002953D0FE
:10724C00CCF80030B34B9D705870197020684368AF
:10725C003BB15A68232A08D8142A06D0DB68002BC5
:10726C00F7D1FEF7D3FE00261EE0143A5A60C2682E
:10727C00143AC2605A6892B90568012D00F0AF80CB
:10728C009968002900F0E680DE68002E00F01E816F
:10729C00CE60DA6891600268013A02605A681B6835
:1072AC0014219E189950043600233372F3609A4BC4
:1072BC0000213360994B0022766083E80600984BDE
:1072CC0083E80600974B83E80600206843683BB1CF
:1072DC005A68232A13D8142A11D0DB68002BF7D153
:1072EC00FEF794FE00252AE00028A9D1002D87D0B6
:1072FC00CCF80030874B9D7058701870A6E7143A84
:10730C005A60C268143AC2605A689AB90568012D6D
:10731C006AD0996800297BD0D3F80CC0BCF1000F5F
:10732C0000F0B080C1F80CC0DA6891600268013AD4
:10733C0002605A681B6814219D189950043500236B
:10734C002B72EB60784B6D602B60206843683BB10F
:10735C005A68232A09D8142A07D0DB68002BF7D1E6
:10736C000024FEF753FE234620E0143A5A60C2680C
:10737C00143AC2605A689AB90468012C3ED09968D4
:10738C0000295CD0D3F80CC0BCF1000F00F0928047
:10739C00C1F80CC0DA6891600268013A02605A6860
:1073AC00196814208B18043388501C4600221A725A
:1073BC00DA605E4A5B601A603846FFF777FA30464F
:1073CC00FFF73EFB2846FFF75DFAD8F80030214660
:1073DC001868042203681B689847BDE8F081426076
:1073EC00826002605A685AE74260826002605A68A2
:1073FC00A0E74260826002605A68B6E64260826032
:10740C0002605A68CCE74260826002605A68E0E62B
:10741C00002D8FD04168C96841608A600268013ACA
:10742C0002605A6886E7002E3FF49FAE4168C96837
:10743C0041608A600268013A02605A6895E6002C45
:10744C00AED04168C96841608A600268013A026046
:10745C005A68A5E7002D3FF422AF4168C968416026
:10746C008A600268013A02605A6818E7002D3FF4FE
:10747C00B0AE4168C96841608A600268013A026036
:10748C005A68A6E6002D3FF455AF81688968816083
:10749C00CA600268013A02605A684BE7002E3FF45A
:1074AC0064AE816889688160CA600268013A0260D2
:1074BC005A685AE6002C3FF473AF81688968816082
:1074CC00CA600268013A02605A6869E7002D3FF40D
:1074DC00E6AE816889688160CA600268013A026020
:1074EC005A68DCE6002D3FF474AE816889688160CF
:1074FC00CA600268013A02605A686AE6E400002039
:10750C002C050020A80C210088040020F00000208D
:10751C00AC0400206C0200209C0C2100F403002021
:10752C0080040020B4040020900C2100840C210065
:10753C002DE9F04772B6454A1368116813F0080F2D
:10754C0021EA0301116003D0414A11680131116035
:10755C0013F0020F70D0DFF8FC80D8F80030002B4D
:10756C006AD048F610024FF0000CC4F20802384FF3
:10757C0048F61404C2F800C0C4F208043E68D4F8FB
:10758C0000A048F61804C4F20804D4F800903202A3
:10759C004FEA09291CEB090442F1000514EB0A011E
:1075AC0048F62404C4F20804D4F800A045F1000203
:1075BC004FEA0A44091948F62004C4F208044FEAB9
:1075CC001A45D4F800A042EB05024FEA0A640919E7
:1075DC0048F61C044FEA1A25C4F2080442EB0502D3
:1075EC00D4F800A011EB0C01D7F800C042EB0A0252
:1075FC00664505D000244FF48075091942EB05024D
:10760C00DFF854C09CE83000954215D812D0002207
:10761C00C8F8002048F60802C4F2080208211160DC
:10762C0062B698474EF20013CEF200034FF0806220
:10763C001A6009E08C42EAD94EF20013CEF2000334
:10764C004FF080621A6062B6BDE8F08780050020BA
:10765C006C050020580500205005002040F26453B2
:10766C0000210022C2F2000383E8060040F27853A6
:10767C00C2F2000383E8060040F25C53C2F200033E
:10768C0083E8060048F60403C4F208031A6848F6B7
:10769C000C0122F001021A6048F60802C4F208023A
:1076AC000020C4F2080110600860196847F23D50D0
:1076BC0021F0020119601968C0F2200041F00801A4
:1076CC00196040F21061C2F20001C1F8C4004EF220
:1076DC000411CEF2000102200860116841F008018B
:1076EC0011601A6842F001021A6070472DE9F0012E
:1076FC00D4B20C7246680023CB6049600F1D002E7B
:10770C0022D0D0F8088098F80430A34222D8D8F8B8
:10771C0008308BB1454693F804C0A44507D9CDB1C8
:10772C000136AF604660CB60BDE8F00170479A68E7
:10773C0012B11D461346EEE7C36801369F60002365
:10774C00CB604660C760EFE70123CE604360876083
:10775C00C760E9E70136C1F80C8046608760E3E753
:10776C0010B44468012C17D0836801F1040C9C45BB
:10777C0017D04BB19A682AB1944503D0134692683E
:10778C00002AF9D1CA689A60C268944508BFC360E0
:10779C00013C446010BC704700238360C3604360AD
:1077AC00F8E7002CF6D0CB68013C83604460F1E72D
:1077BC00F0B5846806461746CDB29CB1002001E0B6
:1077CC00A46874B12379AB42FAD1206831460368BE
:1077DC002A46D3F800C03B46E047A4680120002CA1
:1077EC00F0D1F0BD2046FCE7014B0360704700BFB1
:1077FC00E00B21008368C9B27BB1002001E09B68DB
:10780C0043B193F804C08C45F9D122B918689B6830
:10781C00002BF6D17047013AF1E71846FAE700BFA2
:10782C000F4A0120002110B492E818001B1844EBF9
:10783C000104012B82E818000BD00A4A012092E8BF
:10784C00180000211B1844EB010482E8180010BC3E
:10785C007047002CF1D1044A146054609460ECE73A
:10786C00FC000020040100200C010020024B00B59C
:10787C000360FEF7CFFB00BDE00B210048F2346340
:10788C008022C4F208031A6048F63803E922C4F2D5
:10789C0008031A60A74B46F2E0112DE9300893E873
:1078AC00001800221BEB010B4CEB020C83E80018B8
:1078BC0045F20003C4F20D03A0221A609E4C502224
:1078CC001A602368C3F34A02511E23F47E6389B203
:1078DC0023F01E0343EA41032360002A40F0AC80EE
:1078EC00964B00241A684FF4C95313EB0B03C3F3E4
:1078FC0007219173C3F3074144EB0C04D173190EA8
:10790C001174C4F3072153735474230E917448F605
:10791C002C00C4F3074148F63004D1741375C4F23B
:10792C000804C4F208002368C3F340031BB12168A8
:10793C0021F002012160016811F0300F0CBF002111
:10794C00012119B1056825F0300505600BB9002936
:10795C00E9D048F63803EE21C4F208031960D2F8D6
:10796C00CC0048F27061C4F208010B68002BFCD10A
:10797C0048F62804C4F208042060023804D0D15C14
:10798C00013383422160FAD372B648F60C03C4F279
:10799C0008031A684FF0FF3402F008021A60684BB3
:1079AC001A6802F008021A60664B93E806004FF65C
:1079BC00E063CFF6FF7313EB0B0344EB0C045B1A81
:1079CC0064EB020448F61002C4F208023321116081
:1079DC0048F61402C4F208021360190A48F6180299
:1079EC0041EA0461C4F208021160190C48F6240241
:1079FC0041EA0441C4F208021160190E48F6200253
:107A0C0041EA0421C4F20802116048F61C02C4F2D7
:107A1C0008024D4914604D4A11604D4A82E8180025
:107A2C0048F60803C4F208031A6842F012021A60FE
:107A3C0062B6BDE83008704748F6300248F62C03B1
:107A4C00C4F20802C4F208031168C1F3400119B171
:107A5C00106820F002001060186810F0300F0CBF96
:107A6C000020012018B11D6825F030051D6009B9F2
:107A7C000028E9D048F63803EE22C4F208031A6055
:107A8C0048F27062C4F208021368002BFCD148F66D
:107A9C002801C4F2080109220A60E25C0133072BB9
:107AAC000A60FAD172B648F60C03C4F208031A68DD
:107ABC004FF0FF3402F008021A60214B1A6802F0F2
:107ACC0008021A601F4B93E806004FF6E063CFF6EE
:107ADC00FF7313EB0B0344EB0C045B1A64EB020413
:107AEC0048F61002C4F208023321116048F6140261
:107AFC00C4F208021360190A48F6180241EA04613C
:107B0C00C4F208021160190C48F6240241EA04413F
:107B1C00C4F208021160190E48F6200241EA042151
:107B2C00C4F20802116048F61C02C4F20802146088
:107B3C00084970E72C0100201801002028010020C2
:107B4C008005002070050020517D20005805002084
:107B5C00500500208978200045F20003C4F20D0383
:107B6C00A0221A6050221A606E4A002313706E4ACB
:107B7C0001212DE9F008117072B648F61002C4F21A
:107B8C0008026A4D48F614001360C4F208002C6811
:107B9C00D0F800C048F61800C4F2080000682202B1
:107BAC0000021E1848F62400C4F20800006842F1D6
:107BBC0000074FEA004B16EB0C014FEA104C48F64D
:107BCC002000C4F20800066847F1000248F61C00C9
:107BDC0011EB0B014FEA066B42EB0C02C4F20800EE
:107BEC0011EB0B014FEA162C006842EB0C02C91882
:107BFC002B6842EB00029C4205D000234FF48074AA
:107C0C00C91842EB040262B6DFF824C19CE81800E4
:107C1C0072B648F60C00C4F2080005684BF2206BF3
:107C2C0005F008050560434813EB0B03056805F0E8
:107C3C00080505609CE860004FF0000C44EB0C0458
:107C4C005B1B64EB06045B1844EB020448F6100261
:107C5C003321C4F20802116048F61402C4F208027F
:107C6C001360190A48F6180241EA0461C4F20802CA
:107C7C001160190C48F6240241EA0441C4F20802CE
:107C8C001160190E48F6200241EA0421C4F20802E0
:107C9C00116048F61C02C4F2080214602649274AF7
:107CAC001160274A82E8180048F60803C4F208035A
:107CBC001A6842F012021A6062B642F2A803C4F2C9
:107CCC000D031A6842F001021A6042F2AC03C4F2CE
:107CDC000D031A6842F001021A6042F2B003C4F2BA
:107CEC000D031A6842F001021A6048F22463C4F2D0
:107CFC0008031A6822F00C021A6048F28C63C4F272
:107D0C0008031A6822F004021A601A6842F004028E
:107D1C001A6048F63803C4F20803E3221A60BDE87F
:107D2C00F008704724010020250100206C0500207C
:107D3C007005002080050020958220005805002049
:107D4C00500500202DE9F041CE4B186890F8983082
:107D5C00002B40F00C8148F23463C4F208038022FB
:107D6C001A6048F63803C4F20803E9221A6045F297
:107D7C000003C4F20D03A0221A6048F6300C502206
:107D8C0048F62C011A60C4F2080CC4F20801DCF8A5
:107D9C000030C3F340032BB1DCF8002022F00202C8
:107DAC00CCF800200A6812F0300F0CBF0022012220
:107DBC001AB10C6824F030040C600BB9002AE6D020
:107DCC0072B648F610030021C4F20803AE4E48F612
:107DDC0014021960C4F20802D6F800C0156848F6FF
:107DEC001802C4F2080212684FEA0C2412028F180F
:107DFC0044F1000848F62404C4F208047A192768F0
:107E0C0048F100033C043D0C121948F62004C4F25E
:107E1C000804276848F61C04C4F2080443EB050365
:107E2C00D4F800803C063D0A121943EB05035218A6
:107E3C00316843EB08038C4505D000244FF4807562
:107E4C00121943EB050362B6904C914D94E8C000B7
:107E5C00B61847EB030785E8C0000378C3F3C103EA
:107E6C00032B00F0BA8048F63803C4F20803E22270
:107E7C001A60EF221A6048F28C63C4F208031A6885
:107E8C0022F004021A6048F23463C4F208031A6840
:107E9C0022F004021A6042F2A803C4F20D031A681D
:107EAC0042F001021A6042F2AC03C4F20D031A68EC
:107EBC0042F001021A6042F2B003C4F20D031A68D8
:107ECC0042F001021A6072B648F60C03C4F20803C1
:107EDC001A6802F008021A606E4B1A6802F0080267
:107EEC001A6040F2C04394E80600C0F24703002435
:107EFC005B1A64EB02049B1948F6100244EB07046E
:107F0C00C4F208023321116048F61402C4F20802CC
:107F1C001360190A48F6180241EA0461C4F2080217
:107F2C001160190C48F6240241EA0441C4F208021B
:107F3C001160190E48F6200241EA0421C4F208022D
:107F4C00116048F61C02C4F2080214605249534AEC
:107F5C001160534A82E8180048F60803C4F208037B
:107F6C001A6842F012021A6062B6BDE8F08172B66D
:107F7C00DFF830C145F20003DCF80040A022C4F267
:107F8C000D031A605022012C1A6056D0DCF8043014
:107F9C0000F1D001994258D053B15A682AB191429C
:107FAC0003D013465268002AF9D1D0F8D4205A6075
:107FBC00DCF80820DFF8ECE0914204BFDEF800406A
:107FCC00CEF80830013CCCF80040FEF723F862B63E
:107FDC002F4B2E4C93E8C00045E7037E052B7FF416
:107FEC0042AF72B6DFF8BCC0DCF80060012E36D0B0
:107FFC00DCF8043000F1D001994238D053B15A6802
:10800C002AB1914203D013465268002AF9D1D0F814
:10801C00D4205A60DCF80820DFF888E0914204BFD5
:10802C00DEF80060CEF80830013ECCF80060FDF7B9
:10803C00F1FF62B695E8C00015E70023CCF80430D8
:10804C00CCF80830CCF80030BFE7002CBDD0D0F80D
:10805C00D430013CCCF80430CCF80040B5E7002318
:10806C00CCF80430CCF80830CCF80030DFE7002E28
:10807C00DDD0D0F8D430013ECCF80430CCF8006020
:10808C00D5E700BF280100206C05002070050020FA
:10809C002C01002080050020657B20005805002065
:1080AC00500500200C010020F0B58AB000293CD00E
:1080BC00012908BF046835D011F0010F3BD10139FB
:1080CC004B08056833D0012B05FB05F428D013F0C1
:1080DC00010F52D1013B5A087DD0012A04FB04F652
:1080EC001CD012F0010F7AD1013A520800F0A58091
:1080FC00012A06FB06F70FD012F0010F40F0AB80FF
:10810C0007FB07F30AA8013A40F8283D51086846D6
:10811C00FFF7CAFF00FB07F707FB06F606FB04F4A4
:10812C0005FB04F420460AB0F0BD0124FAE7012453
:10813C0005FB04F4F6E74B080468F6D0012B04FBAE
:10814C0004F4EFD013F0010F31D1013B5A082AD0BF
:10815C00012A04FB04F5E3D012F0010F55D105FB05
:10816C0005F30AA8013A40F8103D5108FFF79CFFAF
:10817C0000FB05F505FB04F4D4E78B08012B04FB8D
:10818C0004F4CDD013F0010F4BD104FB04F20AA878
:10819C00013B40F8182D5908FFF786FF00FB04F44B
:1081AC0005FB04F4BEE7012505FB04F4BAE78B08D4
:1081BC00012B04FB04F4B5D013F0010F41D104FBE7
:1081CC0004F20AA8013B40F8082D5908FFF76CFF90
:1081DC0000FB04F4A6E7012606FB04F4A0E79B08C9
:1081EC00012B06FB06F699D013F0010F3FD106FBCD
:1081FC0006F20AA8013B40F8202D5908FFF754FF5E
:10820C0000FB06F606FB04F48AE705FB05F50AA855
:10821C0040F80C5D9908FFF747FF054605FB04F491
:10822C0080E704FB04F40AA840F8144DC908FFF7D2
:10823C003BFF044605FB04F474E7012707FB06F635
:10824C006CE704FB04F40AA840F8044DC908FFF7D6
:10825C002BFF044666E707FB07F70AA840F8247DC6
:10826C005108FFF721FF074607FB06F656E706FB0A
:10827C0006F60AA840F81C6D5908FFF715FF0646CC
:10828C0006FB04F44CE700BF40F258510023C2F245
:10829C00000148F608020B60C4F2080208211160C4
:1082AC0045F20002C4F20D02A021116050211160B0
:1082BC0048F63802C4F20802E2211160EF21116085
:1082CC0048F28C62C4F2080211682DE9F04F21F0DB
:1082DC000401116048F23462C4F208021168DFF83C
:1082EC00CC4521F00401116042F2A802C4F20D0247
:1082FC00116885B041F00101116042F2AC02C4F288
:10830C000D021168236041F00101116042F2B002CC
:10831C00C4F20D02116841F001011160DFF89025E3
:10832C001370DFF89025137072B648F61002C4F281
:10833C000802DFF884C548F614051360C4F208057A
:10834C00DCF800002E6848F61805C4F208052D6804
:10835C0002022D025F1948F62405C4F2080542F109
:10836C000008B9192F6848F100023D043E0C491968
:10837C0048F62005C4F20805D5F8008048F61C051F
:10838C00C4F208052F684FEA086542EB060249194A
:10839C004FEA182642EB0602C918DCF8003042EB13
:1083AC000702984205D000254FF48076491942EB1C
:1083BC00060262B6DFF804B59BE860006D1846EB68
:1083CC0002060195029602994FEA551A4AEAC66AC4
:1083DC004E0972B6DFF8E8747B68002B42D0B846C1
:1083EC004FF0000918685D68827890F803C0C17975
:1083FC0042EA0C2C02794CEA024C42794CEA026CAF
:10840C00827942EA0122017A42EA0142417A42EA45
:10841C000162B24200F2298100F02481D0F89C2044
:10842C000092D0F8A020B24240F240812368A3B160
:10843C0093F898C0BCF1000F10D190F898C0BCF123
:10844C00000F0AD1D3F8B4C0D0F8B410614504D3EE
:10845C00D3F8A0C0944540F25B8120602B46002DE0
:10846C00C0D1236862B6002B00F0C88193F8980045
:10847C00D3F88C20D3F8BC10002800F046814FF0C4
:10848C00000C1205120D4CEA0232DFF8380442F4EB
:10849C00BB7242EA016202600022027242F2A8023E
:1084AC00C4F20D02090A4160116841F0010111602A
:1084BC0042F2AC02C4F20D02116841F001011160EC
:1084CC0042F2B002C4F20D02116841F001011160D8
:1084DC0048F22462C4F20802116841F00C011160E8
:1084EC0048F63802EE21C4F20802116048F27061BD
:1084FC00C4F208010A68002AFCD148F6280CC4F220
:10850C00080C0921CCF80010815C0132072ACCF848
:10851C000010F9D145F20002C4F20D02A021116045
:10852C0050211160D3F8B41003F1900660CE4A1CB0
:10853C00C3F8B420002A00F00E81012A00F0488113
:10854C0012F0010F40F02381042305A840F8083DE8
:10855C004908FFF7A9FDDC4944F66D62D1F800C06B
:10856C00C4F2C61202FB0CF202F540523932B2F1DF
:10857C00FF3F28BF01324000B2FBF0FC00FB1C2087
:10858C004FF4A05CA0FB0C78236893F898000028AB
:10859C0000F0C7800A6029463246C91B62EB08020C
:1085AC001AB9B1F5A05F80F07881D3F8B4204FF4FC
:1085BC00A051013AC3F8B420002272B648F60C035D
:1085CC00C4F20803186800F008001860BF4B186864
:1085DC0000F0080018609BE8600001AC18CC5B1B35
:1085EC0064EB06045B1844EB020448F61002C4F278
:1085FC0008023321116048F61402C4F20802136019
:10860C00190A48F6180241EA0461C4F20802116022
:10861C00190C48F6240241EA0441C4F20802116024
:10862C00190E48F62002C4F2080241EA0421116036
:10863C0048F61C02C4F208021460A54A40F25855D0
:10864C00C2F200052A60A34A82E8180048F6080323
:10865C00C4F208031A6842F012021A6062B605B03E
:10866C00BDE8F08FD4457FF6D9AED7F800C0BCF189
:10867C00010F35D0D8F8042093423AD042B151685A
:10868C0029B18B4203D00A4649680029F9D15560BB
:10869C00B9688B4204BFD8F800C0C8F808200CF1A8
:1086AC00FF3CC7F800C0FDF7B5FCD7E603D1009935
:1086BC0051453FF6BBAED7F800C0BCF1010F0FD04F
:1086CC00D8F80420934214D0002AE1D05168002934
:1086DC00DDD08B42DBD00A4649680029F9D1D6E7B8
:1086EC00C8F80490C8F80890C8F80090FDF792FC00
:1086FC00B4E6BCF1000FD6D00CF1FF3CC8F8045026
:10870C00C8F800C0FDF786FCA8E693F899C0B8E657
:10871C007FF4A4AED3F89C30009A93427FF69EAEC1
:10872C009BE60A60791948EB06024AB9B1F5705F0D
:10873C0024D340F2C040C0F2470081427FF63DAFE7
:10874C00D3F8B42040F2C041013AC3F8B420C0F2CF
:10875C004701002231E75C4944F66D620868C4F2B7
:10876C00C61202FB00F202F540523932B2F1FF3F61
:10877C0028BF013200274FF0000806E7D3F8B420D9
:10878C004FF47051013AC3F8B420002215E70423CA
:10879C0005A8510840F8043DFFF786FC4A4944F609
:1087AC006D62D1F800C0C4F2C61202FB0CF202F5E5
:1087BC0040523932B2F1FF3F28BF0132B2FBF0FC1C
:1087CC0000FB1C204FF4A05C2368A0FB0C78DCE6BB
:1087DC003D4944F66D620868C4F2C61202FB00F211
:1087EC0002F540523932B2F1FF3F28BF013202F09C
:1087FC0001074FF4A050A7FB0078C6E645F2000332
:10880C00C4F20D03A0221A6050221A6072B648F608
:10881C000C03C4F208031A68002402F008021A6060
:10882C002A4B1A6802F008021A6040F2C043C0F2E8
:10883C0047039BE806005B1A64EB020401AA06CA14
:10884C005B1844EB020448F61002C4F20802332110
:10885C00116048F61402C4F208021360190A48F6B3
:10886C00180241EA0461C4F208021160190C48F6BE
:10887C00240241EA0441C4F208021160190E48F6C0
:10888C002002C4F2080241EA0421116048F61C02DD
:10889C00C4F208021460104AD0E640F2C040C0F2A4
:1088AC00470081427FF689AE7FE600BF2801002099
:1088BC0024010020250100206C05002070050020FB
:1088CC000C01002018010020F00000208005002081
:1088DC00F58C200050050020657B2000B84BE2226F
:1088EC00036048F63803C4F208031A60EF221A60DA
:1088FC0048F28C622DE9F041C4F2080200261660A1
:10890C0048F29062C4F20802166048F29462C4F213
:10891C000802166048F25862044646608660C660DB
:10892C00C4F20802F820106048F2E872C4F208029F
:10893C000920106048F2C862C4F2080215201060C9
:10894C0048F60402C4F208020B20106048F2B86228
:10895C00C4F2080201201060EE221A60ED221A60A7
:10896C0048F25463C4F208031A68964F22F00102CD
:10897C001A6048F28C53C4F208031E6048F250632C
:10898C00FF22C4F208031A6048F24063C4F20803E1
:10899C001A6048F29473C4F208031A6048F6340360
:1089AC00C4F208031E6048F63003C4F208031E60CC
:1089BC0048F62C03C4F208031E60834B216123602C
:1089CC00616126626662A662E66281B066633546C4
:1089DC00A663E66326646664C4F89860C4F89C6079
:1089EC004FF0E408386843683BB15A68F32A08D85A
:1089FC00E42A06D0DB68002BF7D1FDF707FB002338
:108A0C0023E0E43A5A60C268E43AC2605A68BAB9E0
:108A1C00D0F800C0BCF1010F00F0B28099680029B9
:108A2C0000F0B380D3F80CE0BEF1000F00F0BA8078
:108A3C00C1F80CE0DA6891600268013A02605A6889
:108A4C0019688B1841F802800433A2190436502E91
:108A5C0083F8C050C3F8C450C3F8CC50C3F8D0301E
:108A6C00C3F8D450C3F8D830C3F8DC509364B9D1F0
:108A7C0040F22C03C0F228031A7840F22D03C0F206
:108A8C002803197840F22E0351402176C0F22803B6
:108A9C001A7840F22F03C0F228031B78204683EA91
:108AAC00020248F2D053C4F208036276196048F20D
:108ABC00D453C4F208031A6048F20463C4F20803E6
:108ACC001A6822F020021A6048F22463C4F20803E8
:108ADC001A6842F040021A6048F20063C4F20803BC
:108AEC001A6822F001021A6048F20863C4F2080303
:108AFC001A6822F001021A6048F22863C4F20803D3
:108B0C001A6822F001021A601A23E36148F23C63EE
:108B1C005622C4F208031A6006F0BEF848F6340375
:108B2C00C4F208031D6048F63003C4F208031D604C
:108B3C0048F62C03C4F208031D6048F28C6304222F
:108B4C00C4F208031A6048F29063C4F208031D6073
:108B5C0048F294630C22C4F208031A6045F2000335
:108B6C00C4F20D031D601A6801A842F0080240F817
:108B7C00045D1A606846FFF787FB01B0BDE8F08121
:108B8C004260826002605A685AE7BCF1000F3FF401
:108B9C0057AF4168C96841608A600268013A026057
:108BAC005A684DE7BCF1000F3FF44AAF8168896801
:108BBC008160CA600268013A02605A6840E700BFEF
:108BCC009C0B2100E4000020440D210042F2A8037C
:108BDC00C4F20D031A6870B542F001021A6042F239
:108BEC00AC03C4F20D031A68044642F001021A6089
:108BFC0042F2B003C4F20D031A6842F001021A608B
:108C0C00FEF72CFD344B186841680B4600295FD0E9
:108C1C004A68B32A07D8A42A05D0DB68002B57D0A2
:108C2C005A68B32AF7D9A43A5A60C268A43AC26007
:108C3C005A6872B90568012D32D09E68002E34D066
:108C4C00D96800293AD0F160DA68013D0560966078
:108C5C005A681B68A4219D18995004352146284652
:108C6C00FFF73CFE1D4B04EB440403EB840243F87A
:108C7C0024502A21013443F824102B239360184BE1
:108C8C00184A43F82120C3F8AC204EF20013CEF260
:108C9C0000034FF080621A604FF000621A6070BDE2
:108CAC000260426082605A68D3E7002DD1D0C96857
:108CBC00013D056041608A605A68CAE7002DC8D042
:108CCC008168013D896805608160CA605A68C0E7A7
:108CDC00FDF79CF90025C1E7E40000208405002085
:108CEC0010060020DDF520002DE9F00F45F2000301
:108CFC00C4F20D03A02018605020186048F6380309
:108D0C00C4F20803E32018608FB072B648F6100066
:108D1C000023C4F208000360DFF80CA748F6140027
:108D2C00C4F20800DAF80040D0F8009048F61800B9
:108D3C00C4F2080000684FEA042C0002191848F627
:108D4C002400C4F2080000684CF1000211EB090B7E
:108D5C0042F1000CCDF808B0CDF80CC04FEA004B36
:108D6C004FEA104C02A903C910EB0B0041EB0C01AC
:108D7C000290039102AA06CA48F62000C4F2080029
:108D8C00006848F61C0CC4F2080C4FEA006BDCF8C7
:108D9C00009011EB0B014FEA102C42EB0C02C9189E
:108DAC00DAF8003042EB09029C420291039208D09F
:108DBC0008460023C0184FF4807442EB0401029063
:108DCC00039162B640F2705243F6A013C2F2000255
:108DDC00002406CAC91842EB040248F2646002ACD3
:108DEC0018CCC91842EB0402C4F208000691079291
:108DFC009DE80600036813F0010FFBD048F24C63AA
:108E0C00C4F20803186848F61409C0F300100E9059
:108E1C0048F610044846C4F20804C4F2080048F6A8
:108E2C001C098DE806000894099048F6180148F6CC
:108E3C00240248F6200448468DE86000C4F208017C
:108E4C00C4F20802C4F20804C4F208000A910B929E
:108E5C000C940D9072B608990022099B0A9C0A602A
:108E6C00DAF80000D3F800C0236800211B020202CC
:108E7C00CD1842F1000615EB0C0346F100040B9ED5
:108E8C000D9FD6F800C004914FEA1C494FEA0C4CD8
:108E9C00CDF80490CDF800C09DE860005B1944EB60
:108EAC0006040C9E8946D6F800C0D7F800B04FEAED
:108EBC001C254FEA0C6C13EB0C03CDF814B0DAF84C
:108ECC0000C044EB050404AE60CE5B1944EB060411
:108EDC00604505D000254FF480765B1944EB060401
:108EEC0062B640F27056C2F2000696E80018079877
:108EFC001BEB030B4CEB040C844540F220810E9EC3
:108F0C00002E00F0258172B648F610030022C4F240
:108F1C00080348F614011A60C4F20801DAF800C01C
:108F2C000D6848F61801C4F208010F684FEA0C24CA
:108F3C003F02D01944F10001431941F1000448F6F5
:108F4C002401C4F208010D682804290C1B1844EBF9
:108F5C00010448F62001C4F208010D6848F61C0112
:108F6C00C4F2080128060F68290A1B1844EB0104F7
:108F7C009B18DAF8002044EB0704944505D0002137
:108F8C004FF480725B1844EB020462B640F27057E7
:108F9C00C2F2000797E80600C91848F23463C4F21D
:108FAC0008034FF0800CC3F800C048F63803C4F235
:108FBC0008034FF0EA0CC3F800C048F24C63C4F24B
:108FCC0008031B68DFF8640442EB040213F0080387
:108FDC0080E8060000F0B68146F2E0140025641823
:108FEC0045EB020580E83000DFF844C448F6300059
:108FFC00DCF8003048F62C01C3F34A02013A23F4A2
:10900C007E6392B223F01E0343EA4203CCF8003095
:10901C0045F20003C4F20D03A0221A6050221A601C
:10902C00C4F20800C4F208012746A8460368C3F33B
:10903C0040031BB1026822F0020202600A6812F0BF
:10904C00300F0CBF002201221AB10D6825F030053B
:10905C000D600BB9002AE9D048F63803EE22C4F2B1
:10906C0008031A6048F270623C464546C4F2080296
:10907C001368002BFCD148F62801C4F20801092220
:10908C000A601CF803200133072B0A60F9D172B671
:10909C0048F60C03C4F208031A6840F2705902F047
:1090AC0008021A60E34BC2F200091A6802F00802C7
:1090BC001A604FF6E062CFF6FF724FF0FF3399E87B
:1090CC000300121A63EB0103121948F6100143EB6B
:1090DC000503C4F208013320086048F61401C4F2F9
:1090EC0008010A60100A48F6180140EA0360C4F24D
:1090FC0008010860100C48F6240140EA0340C4F251
:10910C0008010860100E48F6200140EA0320C4F262
:10911C000801086048F61C01C4F208010B60C6483F
:10912C00C6490860C64981E80C0048F60803C4F239
:10913C0008031A6842F012021A6062B6F4E003D116
:10914C00069B9B453FF6DBAE0E9C002C40F0F0805E
:10915C0045F20003C4F20D03A0221A6050221A60DB
:10916C00B84A00231370B84A0121117072B648F640
:10917C001002C4F2080248F6140C1360C4F2080C76
:10918C00DAF80000DCF8007048F6180CC4F2080C91
:10919C00DCF800C002024FEA0C2C13EB0C0448F66E
:1091AC00240CC4F2080CDCF800C042F10005E119F3
:1091BC0045F100024FEA0C444FEA1C4548F6200CDE
:1091CC00C4F2080CDCF80070091942EB050248F6F1
:1091DC001C0C3C063D0AC4F2080C0919DCF800C052
:1091EC0042EB0502C918DAF8003042EB0C02984247
:1091FC0005D000234FF48074C91842EB040262B608
:10920C0040F2705CC2F2000C9CE8180072B648F692
:10921C000C00C4F20800D0F800C00CF0080CC0F828
:10922C0000C08448D0F800C00CF0080CC0F800C096
:10923C0040F27050C2F2000090E860004BF22067E0
:10924C00DB194FF0000844EB08045B1B64EB0604CD
:10925C005B1844EB020448F610023321C4F20802F6
:10926C00116048F61402C4F208021360190A48F699
:10927C00180241EA0461C4F208021160190C48F6A4
:10928C00240241EA0441C4F208021160190E48F6A6
:10929C00200241EA0421C4F20802116048F61C02C3
:1092AC00C4F2080214606949644A1160644A82E895
:1092BC00180048F60803C4F208031A6842F01202B8
:1092CC001A6062B642F2A803C4F20D031A6842F0A7
:1092DC0001021A6042F2AC03C4F20D031A6842F0A8
:1092EC0001021A6042F2B003C4F20D031A6842F094
:1092FC0001021A6048F22463C4F208031A6822F0CF
:10930C000C021A6048F28C63C4F208031A6822F04B
:10931C0004021A601A6842F004021A6048F6380314
:10932C00C4F20803E3221A600FB0BDE8F00F7047D7
:10933C0048F24C65C4F208052B6813F0100F7FF44B
:10934C0089AD05E745F20002C4F20D02A0211160BF
:10935C00502111603B4A012113703B4A117072B6C7
:10936C0048F61002C4F2080248F6140C1360C4F25A
:10937C00080CDAF80000DCF8007048F6180CC4F29F
:10938C00080CDCF800C002024FEA0C2C13EB0C04A6
:10939C0048F6240CC4F2080CDCF800C042F10005BD
:1093AC00E11945F100024FEA0C444FEA1C4548F61E
:1093BC00200CC4F2080CDCF80070091942EB050211
:1093CC0048F61C0C3C063D0AC4F2080C0919DCF8E2
:1093DC0000C042EB0502C918DAF8003042EB0C026F
:1093EC00984205D000234FF48074C91842EB040254
:1093FC0062B640F2705BC2F2000B9BE8180072B6CA
:10940C0048F60C00C4F20800D0F800C00CF0080CB0
:10941C00C0F800C00748D0F800C00CF0080CC0F829
:10942C0000C09BE8600009E76C0500202C010020BF
:10943C0018010020800500208978200058050020A4
:10944C0050050020240100202501002095822000D9
:10945C0041F24403C2F200034DF804BD93E8060048
:10946C004FF0010B11EB0B014FF0000C42EB0C0217
:10947C0083E806005DF804BB704700BF49F218038F
:10948C00C4F208031A6841F21803C2F20003196807
:10949C0041EA02021A6049F20803C4F208031A688E
:1094AC0041F21C03C2F20003196841EA02021A607D
:1094BC0049F21003C4F208031A6841F22003C2F205
:1094CC000003196841EA02021A60704748F60C035F
:1094DC0040F28052C4F20803C2F20002196810680C
:1094EC0040EA0101116000221A604EF28013CEF2A4
:1094FC0000034FF080621A604EF28023CEF200031C
:10950C001A6070474EF28413CEF2000302221A60E6
:10951C004EF28423CEF200031A6070470368232BAB
:10952C000DD0252B13D0272B19D0332B01BF43F291
:10953C002403C4F203034FF0FF321A60704740F269
:10954C002403C4F203034FF0FF321A60F6E741F232
:10955C002403C4F203034FF0FF321A60EEE742F229
:10956C002403C4F203034FF0FF321A60E6E700BF96
:10957C0072B64EF280134FF0FF32CEF200031A6037
:10958C004EF28413CEF200031A601B491B4A0023CF
:10959C00CA500433B3F5807FFAD10023DFF860C0E2
:1095AC0018464CF803000433B3F5807F144AF8D105
:1095BC00144BC2F88C30C2F89430C2F89C30C2F80C
:1095CC00CC30114BC2F8A830104BC2F8C430104B41
:1095DC00C2F8F0300F4B136453649364D3640E4B96
:1095EC000822CB600D4BC1F8CC304EF20413CEF2F6
:1095FC0000031A60704700BF100600202DFB2000EE
:10960C00340100202995200011952000D9942000C8
:10961C008994200011FA200031FB20005D94200079
:10962C0010B5314B186841680B46002957D04A6871
:10963C00272A07D8182A05D0DB68002B4FD05A6888
:10964C00272AF7D9183A5A60C268183AC2605A6881
:10965C0092B9D0F800C0BCF1010F1FD09C68002C4F
:10966C0024D0D96800292DD0E160DA680CF1FF3CD8
:10967C00C0F800C094605A68196818208B1888507C
:10968C0004331A490122196119491A605A601A7275
:10969C00486840B1DA60174A136010BD026042603E
:1096AC0082605A68E8E74B605A68F3E7BCF1000F38
:1096BC00E2D0C9680CF1FF3CC0F800C041608A6080
:1096CC005A68D9E7BCF1000FD6D081680CF1FF3C89
:1096DC008968C0F800C08160CA605A68CCE7FCF7A2
:1096EC0095FC0023CDE700BFE40000201997200073
:1096FC00101000203802002040F23C23C2F200037C
:10970C0000221A605A609A60704700BFF0B572B6BA
:10971C003F4B1A6801321A603E4A13682BB15168EC
:10972C00486801380028486007DD002362B61BB189
:10973C00986803689B689847F0BD012B3CD0CB68B8
:10974C000020536098601368013B1360CB6823B111
:10975C00D3F804C04868604458600B68D868B0F10E
:10976C00FF3F03D00138D8600028DFD0D3F810C0F9
:10977C002848C1F804C01668002E35D047687C68AC
:10978C00A445B8BF3D4609DBF868F8B1C4EB0C0C36
:10979C00C1F804C044680546A44514DAA86800283A
:1097AC0029D0CCEB040C0136C5F804C0C160A9600B
:1097BC00CD6088601660B9E700235360936013682E
:1097CC00013B1360C2E7C0680028DFD19068C4EB8E
:1097DC000C0CC1608860C1F804C00020C8609160A6
:1097EC00116801311160A1E701228E60CE60026028
:1097FC00416081609AE7CCEB040CC5F804C088602A
:10980C00CF60B96051601168013111608EE700BF03
:10981C00340200203C02002030B472B6DFF880C065
:10982C00DCF80410E9B10B68984218BF0B462BD03A
:10983C00DB68B3B11A689042FAD1DCF80000184C1E
:10984C00012811D09D68002D20D0DA6892B1EA6011
:10985C00DA680138956020601AB151685B68CB18E2
:10986C00536062B630BC704700226260A260226016
:10987C00DA68F1E70028F4D0A16801388968206023
:10988C00A160CA60DA68E7E70B46D6E708B9DA6880
:10989C00E2E7CA680138626020609560DA68DBE74D
:1098AC003C0200202DE9F0418C46044672B6544D22
:1098BC006868F0B103689C4218BF034600F08980C9
:1098CC00DB68B3B11A689442FAD12E684C49012E68
:1098DC006FD09F68002F7ED0DA68002A6FD0FA60B4
:1098EC00DA68013E97600E601AB151685B68CB185C
:1098FC0053602E689CE80C0084E80C00414B4FF43C
:10990C007A721B689CE880015B68B2FBF3F244F24C
:10991C004023C0F20F03B3FBF2F212464FF00003E8
:10992C0059084FEA3200C01941EB080106F00CFC53
:10993C00206104F11400002E33D06F68A36979689C
:10994C008B42B8BFBC4618DBFA6842B15B1A436065
:10995C00516894468B4220DAA3698B420DDB5B1A6B
:10996C00A361AB68D860E361002323622B68A86015
:10997C0001332B6062B6BDE8F081DCF80820002AC8
:10998C0033D0CB1A0136CCF80430D060CCF80800B8
:10999C00C4F820C0E2612E60ECE7D268002AD5D171
:1099AC00DAE72B68E661013326622B606860A860F9
:1099BC00E0E700224A608A600A60DA6894E7002EC9
:1099CC0098D08868013E80680E608860C260DA6852
:1099DC008AE7034679E70EB9DA6885E7C268013E83
:1099EC004A600E609760DA687EE7CB1ACCF80430D8
:1099FC002B68E26101332762B8602B606860B9E7BD
:109A0C003C02002038020020C360434BF0B591E8C3
:109A1C00C0001B6804465B68A26015464FF47A725E
:109A2C00B2FBF3F244F24023C0F20F0380E8C00013
:109A3C00B3FBF2F212464FF000035F084FEA320616
:109A4C0003C9361847EB01073046394606F07CFB54
:109A5C00002320616461A061E361236272B628B9BE
:109A6C0062B62B6828469B689847F0BDDFF8ACC0FF
:109A7C0004F11401DCF80060002E33D0DCF8047023
:109A8C007A689042B8BF3D461BDBFB6843B1801A35
:109A9C0048605A681D46904220DAA069824210DC68
:109AAC00DCF80830821AD960A261E36100232362DA
:109ABC00DCF80030CCF808100133CCF8003062B67A
:109ACC00D3E7AB68CBB1121A01366A60D960A960D2
