:020000040020DA
:10400000F87F00201D412000B5FA2000B5FA2000FD
:10401000B5FA2000B5FA2000B5FA2000B5FA200064
:10402000B5FA2000B5FA2000B5FA2000EBFA20001E
:10403000B5FA2000B5FA2000B5FA2000B5FA200044
:10404000B5FA2000B5FA2000B5FA2000B5FA200034
:10405000B5FA2000B5FA2000B5FA2000B5FA200024
:10406000B5FA2000B5FA2000B5FA2000B5FA200014
:10407000B5FA2000B5FA2000B5FA2000B5FA200004
:10408000B5FA2000B5FA2000B5FA2000B5FA2000F4
:10409000B5FA2000B5FA2000B5FA2000B5FA2000E4
:1040A000B5FA2000B5FA2000B5FA2000B5FA2000D4
:1040B000B5FA2000B5FA2000B5FA2000B5FA2000C4
:1040C000B5FA2000B5FA2000B5FA2000B5FA2000B4
:1040D000B5FA2000B5FA2000B5FA2000B5FA2000A4
:1040E000B5FA2000B5FA2000B5FA2000B5FA200094
:1040F000B5FA2000B5FA200010B5074C54F8043C7E
:10410000B3F1FF3F06D0043C984754F8043DB3F1A7
:0C411000FF3FF9D110BD00BF240F2100BB
:10411C0040400949094A086004319142FBDBFFF732
:10412C00E5FF00BF00F02EFA00F062FA01B40CF0CB
:10413C0021FC01F099FF0000040000203C1000203D
:10414C0043680A1D5BB1D0F80CC00133CCF80420D5
:10415C004FF0000CC1F808C04360C26070478B6020
:10416C0001238260C2604360F8E700BF10B444686A
:10417C00012C17D0836801F1040C9C4517D04BB16E
:10418C005A682AB1944503D013465268002AF9D1D3
:10419C008A685A60C268944508BFC360013C446099
:1041AC0010BC704700238360C3604360F8E7002CA9
:1041BC00F6D08B68013C83604460F1E730B58468CD
:1041CC0005464CB12068294603681B68984764680B
:1041DC00002CF7D1012030BD2046FCE7F0B54B6A2E
:1041EC0081B004460D461746002B37D0AC462360F1
:1041FC005CF8043B04F1200E2361BCE80F00AEE830
:10420C000F009CE807008EE807000026AA6A66618A
:10421C00A661E461E663266405F12001204605F001
:10422C0085FEAB6AA2686660D218A2F140034FF01B
:10423C00807142F8401C0B4A01A942F001029A63BA
:10424C0047F00102DA63204641F8047DE3606946D9
:10425C004FF4406206F04EF901B0F0BD024B1B6802
:10426C00C4E700BF6960200048020020294B30B52C
:10427C00186844682246002C47D06368572B07D82F
:10428C00482B11D0D268002A3FD05368572BF7D94E
:10429C00483B5360C1684839C16053B1126848212A
:1042AC00D018D150043030BD00235360C168483958
:1042BC00C160016801290BD0956875B1D468BCB197
:1042CC00EC60D2F80CC00139CCF808500160E5E77D
:1042DC000021416081600160E0E70029DED0D4F864
:1042EC000CC00139C0F804C00160CCF80850D5E707
:1042FC000029D3D0D0F808C00139DCF808C001601F
:10430C00C0F808C0CCF80C40C8E701F00DFF002045
:10431C00C9E700BFE40000202DE9F04598B0002467
:10432C001694169B002500264FF4406A01930094C6
:10433C00069507960495059602950396089409949C
:10434C00CDF828A0FFF792FF44F23012C0F2200201
:10435C0069460746FFF742FF6FF000431793179B20
:10436C004FF001080C93CDF82C80119512960F95F7
:10437C0010960D950E9613941494CDF854A0FFF747
:10438C0075FF4AF2D512C0F220020BA9FFF726FFE7
:10439C0040F26823C2F2000383F80080F8680BF047
:1043AC0015FE18B0BDE8F0852DE9F0076B4E73686B
:1043BC00002B76D05968002973D0DFF8A481B2465F
:1043CC0000270022D8F800505A60F268521AF260A6
:1043DC005A68BAB9DAF80040012C76D098680028EF
:1043EC0000F09B80D3F80CC0BCF1000F00F0A5804E
:1043FC00C0F80CC0DA689060DAF80020013ACAF80C
:10440C0000205A681C68A41849D00F2947D961604C
:10441C002460A760E760EB6859186B68E960D4F812
:10442C0000C06068002B40D0D3F800906044484531
:10443C000CBF1A461A4604D0D26812B111688842D1
:10444C00FAD159688944CC4507D0DB68002B2BD0B6
:10445C001868596841188C45F7D119461346CBB1E9
:10446C0060685A68821862602868012802BF6F6011
:10447C00AF602F600ED09A68002A2ED0D3F80CC0F3
:10448C00BCF1000F33D0C2F80CC0DB689A602B680B
:10449C00013B2B6019B14A686368D3184B60736891
:1044AC0073B9BDE8F007704713462968002929D174
:1044BC00A160E1602A686C600132AC602A60CEE7D2
:1044CC00596800297FF47DAFEBE7CAF80420CAF8DD
:1044DC000820CAF800205A6894E70028DAD06B68E4
:1044EC00DB686B609A602B68013B2B60D2E700287D
:1044FC00D0D0AB689B68AB60C3F80CC02B68013B99
:10450C002B60C7E7AA683946D460AA68E760A26046
:10451C002A68AC6001322A60A1E7002C3FF472AF2C
:10452C00DAF80400C068CAF804008260DAF80020E7
:10453C00013ACAF800205A6864E7002C3FF462AFD5
:10454C00DAF808008068CAF80800C260DAF80020BF
:10455C00013ACAF800205A6854E700BF2410002022
:10456C00E400002040F21403C2F200030A210022EE
:10457C001A71196040F20C03C2F2000319601A712F
:10458C00704700BF00B502F0F3F900BD012807D059
:10459C0028B90F4B0F4A1A631A621A611A607047D6
:1045AC000B4B0C49002219601961196219630A211D
:1045BC005A609A60DA605A619A61DA615A629A6258
:1045CC00DA625A639A63DA63196483F84420E6E783
:1045DC001C000020B009210000B50020FFF7D6FF19
:1045EC0000BD00BF00B50120FFF7D0FF00BD00BF2C
:1045FC002DE9F04FDFF8040CC5B001F03DFDDFF8FC
:10460C00000C01F039FD40F21C000A23C2F200003C
:10461C000364DFF8F00B01F02FFD40F230094FF08E
:10462C00281430AE4FF0100BC0F2280940F21C0ACF
:10463C00DFF8D40BC2F2000A01F01EFDCAF840B03C
:10464C0014F8011B002332460AF1400001F0EEFD84
:10465C0045A90B184FF0000203F8542C30460025E6
:10466C0001F00AFD4C45E1D14FF00A0BDFF8900B3D
:10467C0001F002FDCAF840B0DFF8900B01F0FCFC31
:10468C00DFF88C9BDFF8780B01F0F6FCCAF840B031
:10469C00DFF8800B01F0F0FC99F801C099F80230BA
:1046AC0099F80040DFF8700BCDF810C0079301F0BB
:1046BC00E3FC214632460AF1400001F0FDFD45AC19
:1046CC00231803F8545C304601F0D6FCDFF84C0B91
:1046DC0001F0D2FCDDF810C0324661460AF1400010
:1046EC0001F0EAFD0DF58A7C0CEB000303F8545C39
:1046FC00304601F0C1FCDFF8240B01F0BDFC324662
:10470C0007990AF1400001F0D7FD45A90B1803F8F1
:10471C00545C304601F0B0FCDFF8040B01F0ACFC4B
:10472C00DFF8DC0A01F0A8FCCAF840B0DFF8F40AA4
:10473C0001F0A2FC72B648F61003C4F208031D6027
:10474C0040F25C5248F61403C2F20002C4F20803B1
:10475C00D2F800C0186848F61803C4F208031B68A6
:10476C004FEA0C221B0215EB030A48F62403C4F291
:10477C00080342F1000B1AEB000118684BF1000220
:10478C000304040CC91848F62003C4F20803186883
:10479C0048F61C03C4F2080342EB0402D3F800E011
:1047AC000306040AC91842EB040240F25C54C2F23C
:1047BC0000042368491942EB0E029C4505D00023E6
:1047CC004FF48074C91842EB040262B640F2605A8E
:1047DC00C2F2000A9AE818005B1844EB020459096B
:1047EC0041EAC461620933460024DFF83C0A0094B4
:1047FC0001F06EFD0DF58A7B0BEB000303F8544CB6
:10480C00304601F039FCDFF8F80901F035FC40F2D4
:10481C001C0C0A23C2F2000CCCF84030DFF80C0A56
:10482C0001F02AFC99F8002099F8021099F801304F
:10483C00002A00F0BD84DFF8F80901F01DFCDFF858
:10484C00F40901F019FCDFF8B80901F015FC40F28D
:10485C001C000A23C2F20000036472B648F610036F
:10486C000022C4F208031A6040F25C5148F61403AB
:10487C00C2F20001C4F20803D1F800E0D3F800C082
:10488C0048F61803C4F208031B684FEA0E211B02FA
:10489C00D41848F62403C4F2080341F1000514EBC4
:1048AC000C00D3F800C045F100014FEA0C43C018CE
:1048BC0048F62003C4F208034FEA1C44D3F800C0A6
:1048CC0048F61C03C4F208031D684FEA0C6341EB65
:1048DC000401C0184FEA1C2441EB0401801840F27B
:1048EC005C52C2F20002136841EB05019E4505D0F3
:1048FC0000234FF48074C01841EB040162B640F2FF
:10490C00605AC2F2000A9AE818001B1844EB010422
:10491C004FEA541BDFF820094FEA5319CDF834B095
:10492C0001F0AAFBDFF8140901F0A6FBDFF80C0973
:10493C0001F0A2FBDFF8080901F09EFBDFF8D808B4
:10494C0001F09AFB0A213246DFF8DC0801F0B4FCD6
:10495C000DF58A7C0CEB000349EAC469002403F8CA
:10496C00544C304601F088FBDFF8B00801F084FBB2
:10497C0032460A21DFF8B00801F09EFC45A90B185D
:10498C0003F8544C304601F077FBDFF8900801F047
:10499C0073FB21463246DFF8900801F08DFC45AAE6
:1049AC00131803F8544C304601F066FBDFF870081E
:1049BC0001F062FBDFF88C0801F05EFB2146324609
:1049CC00DFF8640801F078FC0DF58A7A0AEB000335
:1049DC0003F8544C304601F04FFBDFF86C0801F043
:1049EC004BFBDFF8680801F047FB49460D9A33464C
:1049FC00DFF83408009401F06BFC0DF58A7B0BEBAF
:104A0C00000303F8544C304601F036FBDFF8400845
:104A1C0001F032FB4FF0FF314FF0FF323346DFF83D
:104A2C000808009401F054FC0DF58A7C0CEB000393
:104A3C0003F8544C304601F01FFBDFF80C0801F072
:104A4C001BFBDFF8BC0701F017FB40F21C000A232C
:104A5C0019A9C2F20000DFF8FC27036401F110036E
:104A6C001E9301F12003229302F11C031D9302F10A
:104A7C002803219342F62413C8F2964319922493E7
:104A8C00002200232792289348F280404FF0FF33F6
:104A9C00C0F21E0000212B93DFF8BC3729902A911D
:104AAC0018681A941B941C941F9420942394259496
:104ABC008DF898408DF899408DF89A408DF89B4070
:104ACC002C942D94416849B14B685F2B00F2E58220
:104ADC00502B00F0E282C9680029F5D101F024FBCB
:104AEC00002107910D4672B648F610030022C4F25D
:104AFC0008031A6040F25C53C2F20003D3F800C002
:104B0C0048F61403C4F20803D3F800E048F618037F
:104B1C00C4F208031B684FEA0C211B0212EB030AB8
:104B2C0048F62403C4F2080341F1000B19681AEB90
:104B3C000E0A4BF1000B0B040C0C1AEB030A48F693
:104B4C002003C4F20803196848F61C03C4F20803D6
:104B5C004BEB040B18680C0A0B0640F25C51C2F2CA
:104B6C0000011AEB030A0B684BEB040B1AEB020A5D
:104B7C004BEB000B9C4506D000234FF480741AEBD2
:104B8C00030A4BEB040B62B640F260530DF5847CC8
:104B9C00C2F200030CCB60460E920F93DFF8701636
:104BAC000322CDF810C001F03DFC0322DFF86016A3
:104BBC0043A801F037FC002404232B706C700EAA60
:104BCC0006CA11EB0A0142EB0B024B0943EAC26322
:104BDC006B801B0CAB80C2F34F13EB80530D2B81FE
:104BEC00DDF810C00322614605F10A0001F01AFC41
:104BFC0043A9032205F1150001F014FC6B6A4FF078
:104C0C00FF326FEA036385F828206FEA13636B6247
:104C1C00AB6A85F82C206FEA03636FEA1363AB620F
:104C2C002B7FD2B243EA0923EB614FEA196385F873
:104C3C0020300D98DBB243EA00232B62030E85F87B
:104C4C0024300A232B766B7642F20043C9F2296397
:104C5C0042EA0303EB626FF07B0385F8303095F882
:104C6C0031304FF01E0203F0FC0364F3870342F66D
:104C7C00241C85F83130AA8644F240234FF00F00F3
:104C8C0048F28041C8F2964CDFF8D0252887EC76A4
:104C9C002C77AC766986EB866C87AC872D64C5F86F
:104CAC0044C0AC64136B05F14000002B40F03C8217
:104CBC00AB64136B5063013390631363DFF8A095FF
:104CCC004FF0FF33D9F800108DF810318DF81131F9
:104CDC0005338DF8133108684FF0000A026824334D
:104CEC000293CDF800A0CDF804A044AB146A0333B2
:104CFC0044AAA0472C4683460FCCA6465C460FC45C
:104D0C00A446BEE80F00ACE80F00BEE80F00ACE80C
:104D1C000F009EE80F008CE80F00584607F034FA9D
:104D2C00584607F04BF8584606F0DCFC584605F0A0
:104D3C006DFFD9F800305946186803685B6A9847CC
:104D4C0019A9DFF8202501F1100307981E93536869
:104D5C002E95CDF8BCA0CDF880A01F90002B40F074
:104D6C00BD81209301F114039360D3600123536040
:104D7C00DFF8F444DFF8F43440AADFF8F4540D9271
:104D8C001593169448F6100048F61401C4F2080066
:104D9C00C4F2080148F6200A0E90109148F6180249
:104DAC0048F62403504648F61C01C4F20802C4F22B
:104DBC000803C4F20800C4F20801002411921293F3
:104DCC00139014911EE000F064812C9B259913F034
:104DDC00040F3246DFF8500418BF259401F06CFA2A
:104DEC000DF58A7C604400F8544C304601F044F9CF
:104DFC00DFF80C0401F040F940F21C000A23C2F267
:104E0C000000036444F240220023C0F20F020DF5AF
:104E1C00807A8AE80C000D9804F010FFDFF8540437
:104E2C0001F02AF92A78697895F8059042EA01216F
:104E3C00AA789DF8993041EA0241EA78687A41EA09
:104E4C0002612A79591842EA0929AA799DF89A30FF
:104E5C0049EA0249EA790DF58A7B49EA02699944E3
:104E6C002B7A9DF89B2043EA0023A87A43EA00435F
:104E7C00E87A049143EA0063D318E748039301F0FE
:104E8C00FBF804993246E84801F016FA584400F849
:104E9C00544C304601F0F0F8E04801F0EDF849468A
:104EAC003246E14801F008FA0DF58A7C604400F8BE
:104EBC00544C304601F0E0F8D84801F0DDF8039B83
:104ECC0032461946D84801F0F7F945A9081800F8F8
:104EDC00544C304601F0D0F8D14801F0CDF8E648FA
:104EEC0001F0CAF80DF19C0B9BE8000C4FF0FF3061
:104EFC0010EB0A004FF0FF3141EB0B01B1F1FF3F1A
:104F0C0002D110F1030F06D8159A92E803001AEBA0
:104F1C00000A4BEB010B51465A463346C2480094EB
:104F2C0001F0D6F945AB181800F8544C304601F096
:104F3C00A3F8D24801F0A0F872B60E9F40F25C586C
:104F4C003C6010981199C2F20008D8F800E0D0F833
:104F5C0000C00B684FEA0E2A129F1902CDF828A048
:104F6C000994386809AB0CCB12EB010A43F1000B26
:104F7C001AEB0C024BF100034FEA104A0004CDF877
:104F8C0060A0179017A903C9121843EB01031399DA
:104F9C00149F0868D7F800C04FEA102B00061218AF
:104FAC00CDF830C00B940BA903C943EB0B031218BB
:104FBC0043EB010340F25C51C2F2000108688645E4
:104FCC0005D000204FF48071121843EB010362B638
:104FDC0040F26051C2F2000191E8000C1AEB020A97
:104FEC004BEB030B27A903C929AB0CCB121843EBD2
:104FFC0001034FEA5B1E4FEA5A1C9E454CEACB6CF0
:10500C00079208937FF6DFAE9D4801F035F83246E3
:10501C0019A9954801F0BEF945A9081800F8544C97
:10502C00304601F029F8974801F026F827A903C962
:10503C0029AB0CCB121843EB0103079208931146D2
:10504C0089481A463346009401F042F945AB1818CA
:10505C0000F8544C304601F00FF88B4801F00CF876
:10506C0025993246804801F027F90DF58A7A50448B
:10507C0000F8544C304600F0FFFF844800F0FCFF71
:10508C005F4800F0F9FFDDF858B00A23CBF8003088
:10509C009BE694457FF699AEB6E7503B4B60C368F0
:1050AC00503BC3604A6892B90468012C00F0A080A0
:1050BC008D68002D00F09080CB68002B00F0818073
:1050CC00EB60CB689D600368013B03604A680B682A
:1050DC0050219D1804359950079504E5D2F808C065
:1050EC00504661464B68079CA34205DC8C68002C3B
:1050FC003FD008462146F5E7002851D019AC04F101
:10510C00140383605368DFF864B1DFF85CC10133CA
:10511C000DF5807A20915360CDF834A0544DCDF824
:10512C0054B0CDF858C02DE6D2F834A0A64651465E
:10513C004B68634504D88C6864B18E462146F7E70A
:10514C00BEF1000F0ED0CEF80800A964136B01332A
:10515C001363B3E5936B9860AC64136B906301338A
:10516C001363ABE5C5F848A0136B506301331363AD
:10517C00A4E5D1680DF1640A0AF114038B60209444
:10518C00D3605368DFF8E4C0374801330DF5807BFA
:10519C005360CDF834B0364DCDF854C01690F1E5CF
:1051AC000DF1640A0AF11403CDF880C09360E8E7AE
:1051BC00002B7FF440AB00297FF43DAB1248FFF786
:1051CC003CBB002C83D083689B688360DA600368E7
:1051DC00013B03604A687AE7002C3FF478AF4368E0
:1051EC00DB6843609A600368013B03604A686EE7C2
:1051FC004260826002604A6869E700BF2C0A2100A5
:10520C00400A2100440A2100880B2100580A210081
:10521C006C020020B80A2100CC0A2100D00A21001F
:10522C00B80E2100D40A21005C000020E80A2100FD
:10523C00F00A2100F80A2100040B2100480B210080
:10524C004C0B2100500B2100540B2100580B21005A
:10525C00600B2100C4092100E4000020980200200A
:10526C002C05002088020020C40000208C040020A3
:10527C00FC030020680B21007C0B2100840B210017
:10528C008C0B2100A40B2100AC0B2100B40B2100D2
:10529C00014B0360704700BF200A2100014B0360E3
:1052AC00704700BF200A2100014B0360704700BF0C
:1052BC00200A2100F0B5438882880D4643EA02415A
:1052CC000289C38884B043EA0243D0F8882004469C
:1052DC009A424DD84ED0D4F890209A4248D352D00E
:1052EC002B4E4FF0FF338DF80C308DF80D303168AC
:1052FC0004238DF80F30D4F880C0086800230268AE
:10530C0000930193ACF118030293176A0DF10F038C
:10531C0003AAB84721460746D4F8802001F082F84A
:10532C00FA78BB78384643EA02233A7943EA0243D7
:10533C007A7943EA02632A68D31AC3F307227B778C
:10534C00BA77C3F307421B0E87F82030FA7706F0C2
:10535C001BFF384606F032FD384606F0C3F93846D6
:10536C0005F054FC33683946186803685B6A984743
:10537C0004B0F0BDD0F884208A42F9D8D4F890203B
:10538C009A42ACD2F4E7D4F88C308B42A8D2EFE737
:10539C002C050020024B00B5036000F0C9FE00BDD7
:1053AC00200A2100024B00B5036000F0C1FE00BDD5
:1053BC00200A2100024B00B5036000F0B9FE00BDCD
:1053CC00200A210000B5406804F062FC00BD00BF5B
:1053DC00A0F1100000E000BF2DE9F0451D461B7840
:1053EC0093B0C3F3C103012B044600F0818005D3B5
:1053FC00022B00F0C58013B0BDE8F085C36C13F030
:10540C00010FF8D06A7FA97F836D42EA0121EA7F00
:10541C0095F8220041EA024195F8202041EA026108
:10542C0095F8212042EA002295F8230042EA004236
:10543C0095F82400C3F8841042EA0062C3F888206F
:10544C0095F8252095F8261095F82A0042EA0121B6
:10545C0095F8272041EA024195F8282041EA02619B
:10546C0095F8292042EA002295F82B0042EA0042E6
:10547C0095F82C00C3F88C1042EA0062C3F8902017
:10548C0095F8312002F00302022A00F08A8095F888
:10549C00362095F8371095F83B0042EA012195F833
:1054AC00382041EA024195F8392041EA026195F829
:1054BC003A2042EA002295F83C0042EA004295F874
:1054CC003D0042EA006251EA020000F08180206D4A
:1054DC00002800F01E81D0F85CC0036E5CEA030368
:1054EC0089D00D915C300DA90E9204F069FA82E717
:1054FC00EA78AB7843EA02232A7943EA02436A79D1
:10550C0043EA0261EA79AB7943EA02232A7A43EA55
:10551C0002436A7A43EA0263C26B9A4203D32FD1E5
:10552C00836B8B422CD2E36C13F0040F35D0226BBF
:10553C00D5F82130D31823632B7F05F10A0184F8A9
:10554C003430032204F1350000F06CFFAB78EA78BC
:10555C00E97943EA02222B79204642EA03426B792D
:10556C0042EA0362AB7943EA0123297A43EA014315
:10557C00697AA26343EA0163E36323689B689847F3
:10558C00E36C13F0030F3FF436AF04F1350005F173
:10559C000A01032200F046FF2DE7D5F821302363E2
:1055AC00CAE7256D002D3FF426AF05F15C0004F031
:1055BC00C1F9B94B05F144006B6504F091FB284629
:1055CC0005F0B6F9284600F0B3FD0023236512E779
:1055DC00B24A1268032A16DDEFF31081B04AC9B241
:1055EC00117072B649F23802C4F20802042010603D
:1055FC0049F25002C4F20802126801B962B612F004
:10560C00010F40F029814FF0FF32226372B648F649
:10561C0010020020C4F20802DFF888E248F61406F3
:10562C001060C4F20806DEF800C0D6F8008048F618
:10563C001806C4F20806D6F800A04FEA0C224FEA6E
:10564C000A2A10EB0A0642F1000716EB080148F68D
:10565C002406C4F20806D6F8008047F100024FEA8F
:10566C000846891948F62006C4F208064FEA18477E
:10567C00D6F8008048F61C06C4F20806D6F800A03E
:10568C004FEA086642EB070289194FEA182742EBEA
:10569C0007020918DEF8000042EB0A02844505D027
:1056AC0000264FF48077891942EB070262B67E48D8
:1056BC0090E8C000761847EB0207720942EAC7620D
:1056CC007909E163A263216B5A80628FC3F82110C0
:1056DC009A80A08FD880E18F198195F8332095F8A6
:1056EC00323095F834C043EA022343EA0C4395F870
:1056FC0035C004F1380206CA43EA0C6C11EB0C03FA
:10570C00A06D0BA942EBEC740B930C94FFF7D2FD3C
:10571C0071E60F91109295F8332095F8323095F888
:10572C0035A043EA022395F8342043EA024343EAC6
:10573C000A6A5E4B186843683BB15A68932A70D862
:10574C00842A6ED0DB68002BF7D100F0EDFC00252D
:10575C000F9BD4F8488002931293109B0222039360
:10576C00129B00920193524B00261B6800210022D1
:10577C004FF440670691079204910592089609969A
:10578C000A972B60009B05F1200C2B616E61AE61BA
:10579C00ED610DF1040EBEE80F00ACE80F009EE8C1
:1057AC0007008CE80700EE632E640A9A284608A9C5
:1057BC0004F0BCFB6E60AA680A9BD318A3F14002EC
:1057CC004FF0807143F8401C3A493B4841F00101CD
:1057DC00916340F00101D16313A943F838AC43F84D
:1057EC003C8C43F8344CEA603A4641F8080D05F11C
:1057FC004407284604F07EFE3846314604F042FA4F
:10580C002E4B05F15C006B6505F154020FA94FF0AE
:10581C00FF33AF6504F086F9284604F0FDFD2565DD
:10582C00E9E5843A5A60C268843AC2605A686AB937
:10583C000168012915D09D68C5B1DE680EB3EE6014
:10584C00DA6895600268013A02605A681B68842124
:10585C009D18995004357BE70AF0F2F9A36D20638B
:10586C00D4E64260826002605A68EFE70029EDD00E
:10587C004168C96841608A600268013A02605A68EE
:10588C00E4E70029E2D0816889688160CA60026817
:10589C00013A02605A68D9E7200A2100F40000207E
:1058AC00F80000205C05002060050020E4000020CA
:1058BC0048020020696020002D5A2000F8092100C0
:1058CC00A0F1200000E000BF2DE9F048044682B0B2
:1058DC0072B648F610030021C4F208034C4D48F68A
:1058EC0014001960C4F20800D5F800E0D0F800C02C
:1058FC0048F61800C4F2080000684FEA0E230002B4
:10590C000E1848F62400C4F20800006843F10007A2
:10591C004FEA004B16EB0C024FEA104C48F62000F5
:10592C00C4F20800066847F1000348F61C0012EBAD
:10593C000B024FEA066B43EB0C03C4F2080012EBAC
:10594C000B024FEA162C006843EB0C038B465218E3
:10595C00296843EB00038E4505D000204FF480717D
:10596C00121843EB010362B62A4903C9801841EBB4
:10597C000301430943EAC163A3634B09E363264B69
:10598C001B68032B15DDEFF31082244BD2B21A7077
:10599C0072B649F23803C4F208030421196049F2C3
:1059AC005003C4F208031B6802B962B613F0010F6E
:1059BC000DD14FF0FF332363236820469B68984733
:1059CC00A36D0BB1226D32B102B0BDE8F0880AF0C4
:1059DC0037F92063F0E7226B02A9C3F82120228F4C
:1059EC005A80628F9A80A28FDA80E28F1A8104F13A
:1059FC0040030CCBA06D04F1380530CD121943EBEC
:105A0C00050321E90C006946FFF754FCDCE700BFF5
:105A1C005C05002060050020F4000020F800002048
:105A2C002DE9F04F94B0129148F6100048F614018D
:105A3C00C4F20800C4F2080149F2380A16460B9069
:105A4C000C9148F6180248F6240348F61C075046F9
:105A5C0049F25001C4F20802C4F20803C4F2080768
:105A6C00C4F20800C4F208010D920E930F97109027
:105A7C001191039611E000F0218140F24C27C2F203
:105A8C000007FB681F68B86E002840F007810038DB
:105A9C0018BF0120002800F00E8172B60B9A00236B
:105AAC000C9FDDF834A040F25C561360C2F2000685
:105ABC00316898463868DAF800300E9F1B0218EBF4
:105ACC00030B4FEA012949F1000C1BEB000238686B
:105ADC004CF100034FEA104B0004059048F62000EF
:105AEC00CDF818B0C4F20800DDF83CA005AFC0CF6B
:105AFC000068921943EB0703DAF800704FEA006B69
:105B0C004FEA102C12EB0B020897CDF81C8007AF54
:105B1C00C0CF43EB0C03921943EB070340F25C57E5
:105B2C00C2F200073868814205D000204FF4807122
:105B3C00121843EB010362B640F26054C2F2000447
:105B4C00039E94E80300801841EB0301B36D4D09EB
:105B5C00D3F890204409AA4244EAC1648BD9654A1F
:105B6C001268032A12DDEFF310826349D2B20A7075
:105B7C0072B6109F0421DDF844A03960DAF80010E9
:105B8C0002B962B611F0010F40F0A980039E4FF0EC
:105B9C00FF323263039F3A6BBC63FD63C3F8212071
:105BAC00220C9A802A0C5C80DD801A81D7F858A0D0
:105BBC00BAF80230BAF80410BAF8082043EA0141E6
:105BCC00BAF8063043EA0243DAF888209A4252D8EF
:105BDC007FD0DAF890209A424DD375D0474E4FF0D3
:105BEC00FF33DAF880E031688DF84C308DF84D30A9
:105BFC0004238DF84F30086800230268009301934A
:105C0C00AEF118030293CDF810C0176A0DF14F03D3
:105C1C0013AAB8475146DAF88020074600F002FC78
:105C2C00129ABB78A018FA7843EA02233A7943EA2D
:105C3C0002437A7943EA0263C31AC3F307227B77E0
:105C4C00BA77C3F307421B0EFA7787F82030384631
:105C5C0006F09AFA384606F0B1F8384605F042FDDF
:105C6C00384604F0D3FF33683946186803685B6A1A
:105C7C009847DDF810C0039E40F24C273368CDF8EE
:105C8C0010C09B68C2F2000730469847FB68DDF8ED
:105C9C0010C01F68B86E00283FF4F9AE07F144003D
:105CAC00CDF810C004F008F8B86E003818BF012009
:105CBC0000287FF4F2AE14B0BDE8F08FD3F88C203E
:105CCC00A2427FF6DAAE4AE7DAF88C308B4285D204
:105CDC00D1E7DAF884208A427FF67BAFCBE7CDF8A8
:105CEC0010C009F0ADFF0399DDF810C008638B6D8F
:105CFC0050E700BFF4000020F80000202C05002025
:105D0C0070B500F0DBFBBA494B68002B00F05981F1
:105D1C005A6846F20300824209D8B2F5C04F06D049
:105D2C00DB68002B00F04D815A688242F5D9A2F550
:105D3C00C0425A60CA68AE48A2F5C042CA605A68EE
:105D4C0092B90468012C00F0EF809968002900F0EA
:105D5C001E81DD68002D00F02881CD60DA6891602D
:105D6C000268013A02605A681968DFF888C2002399
:105D7C008C18CCF80030CCF80430CCF80830CCF8C7
:105D8C000C304CD04FF4C0408C506060A360E3608A
:105D9C00DCF80C301B18CCF80C30DCF8043051F863
:105DAC0002E06068002B00F0A7801D687044A842D8
:105DBC000CBF1A461A4604D0D26812B11168884238
:105DCC00FAD159686D18AE4508D0DB68002B00F08D
:105DDC0092801868596841188E45F6D119461346B9
:105DEC00C3B160685A6882186260DCF80000012850
:105DFC0000F092809A68002A00F09B80DD68002DEC
:105E0C0000F0A680D560DB689A60DCF80030013BBE
:105E1C00CCF8003019B14A686368D3184B60764BE4
:105E2C00C3F800C000F08AFC00F0B2FD734B0022F6
:105E3C0093E8300043F24803C4F203031968704B33
:105E4C0055181868234643F1000644F66D63C4F2F6
:105E5C00C61305FB03F505F5405503683935694C48
:105E6C00B5F1FF3F28BF0135DB6A25609847037801
:105E7C00002B40F098804178003918BF012149F27D
:105E8C000043C4F20D031A6822F020021A6044F297
:105E9C009402C4F20D020123136047F20802C4F20B
:105EAC000D02B523136047F20002C4F20D02136811
:105EBC0013F0800FFBD047F21002C4F20D021368EE
:105ECC0047F20C02C4F20D02126881EA050502EBDE
:105EDC00032244F66D63C4F2C61303FB05F505F506
:105EEC0040553935B5F1FF3F28BF013542F30B134F
:105EFC005D40256070BD1346DCF80010002936D1DA
:105F0C00A160E160DCF80020CCF804400132CCF850
:105F1C000840CCF8002063E70023CCF80430CCF820
:105F2C000830CCF8003075E74260826002605A6835
:105F3C001AE700283FF46EAFDCF80430DB68CCF8CD
:105F4C0004309A60DCF80030013BCCF8003061E79B
:105F5C0000283FF45FAFDCF808309B68CCF80830C1
:105F6C00DD60DCF80030013BCCF8003052E7DCF8A7
:105F7C0008200021D460DCF80820E160A260DCF885
:105F8C000020CCF808400132CCF8002028E7002C87
:105F9C003FF4EAAE4168C96841608A600268013A20
:105FAC0002605A68E0E6012169E7002C3FF4DCAEA0
:105FBC00816889688160CA600268013A02605A6827
:105FCC00D2E6114C01232371104800F055F810480B
:105FDC0000F052F8DFF81CC00A2323600023CCF831
:105FEC000030CCF80430CCF80830CCF80C3016E784
:105FFC0024100020D4000020E400002034100020E5
:10600C0074050020F0000020C4000020C40B210007
:10601C00400A210000B500F031FB40F2345300225D
:10602C00C2F200031A6040F23053C2F200031A604D
:10603C0040F2CC03C2F200030A211A71196040F23B
:10604C00C403C2F2000319601A7100BD40F2E803E8
:10605C00C2F2000300221A605A60704700B5004675
:10606C0004F022FB00BD00BF00B504F01DFB00BD19
:10607C0000B509F085FD00BD2DE9F045002507466A
:10608C007C5D1C4EAA46DFF8708084B1092C29D0A7
:10609C000A2C18D0336820460133336009F0FEFD1A
:1060AC0033684F2B05DC01357C5D002CEED1BDE84F
:1060BC00F0850D2009F0F2FD0A2009F0EFFD013505
:1060CC00C6F800A0F0E70D2009F0E8FD204609F025
:1060DC00E5FDD8F80030C6F800A00133C8F8003050
:1060EC000135E1E7204609F0D9FD33680135083365
:1060FC003360D9E7300500203405002010B540F698
:10610C00DC3040F2C4040123C2F20004C0F22100CE
:10611C002371FFF7B1FF40F64020C0F22100FFF7DA
:10612C00ABFF0A23236010BD00B5FFF7A1FF00BD34
:10613C003D4B70B41D6850F8043C041F0F2B41D923
:10614C00002240F8044C6360A260E260EA68D31855
:10615C00EB606B6850F804CC6068002B35D01E687F
:10616C006044B0420CBF1A461A4604D0D26812B131
:10617C0011688842FAD159687618B44507D0DB68A3
:10618C00002B21D01868596841188C45F7D1194655
:10619C00134693B160685A688218626028680128B7
:1061AC001DD09A68002A1FD0DE68002E31D0D66030
:1061BC00DB689A602B68013B2B6019B14A686368F5
:1061CC00D3184B6070BC704713462968B1B9A160F5
:1061DC00E1602A686C600132AC602A60D9E7002368
:1061EC006B60AB602B60E8E70028E6D06B68DB687F
:1061FC006B609A602B68013B2B60DEE7AA6800217C
:10620C00D460AA68E160A2602A68AC6001322A609E
:10621C00BFE70028D1D0AB689B68AB60DE602B6811
:10622C00013B2B60C9E700BFE400002070B40029DB
:10623C003BD0B1F5807F1BD9D0F800C0BCF1080F62
:10624C0014BF00240124BCF1100F08BF44F001045A
:10625C0084B14FF0300C02F803C0D0F800C0013309
:10626C00BCF1100F06D14FF0780C02F803C00133CB
:10627C00D0F800C00C465D1CB4FBFCF41E462B464B
:10628C00002CF8D10B4C9219B1FBFCF30CFB131C3A
:10629C0014F80C3002F80139D0F800C0B1FBFCF155
:1062AC000029F1D1284670BC70473021D154581CBC
:1062BC00F9E700BFF80B2100002900B503DB002330
:1062CC00FFF7B4FF00BD2D23137049420123F7E7FC
:1062DC002DE9F04F144651EA040281460D469B46C7
:1062EC00099E4BD0002C4ED0D9F80070082F14BF4B
:1062FC0000230123102F08BF43F001036BB130239F
:10630C000BF80630D9F800700136102F05D1782320
:10631C000BF806300136D9F800703F464FEAE778A3
:10632C00284621463A46434609F01CFF06F1010A6D
:10633C0050EA010233465646F4D10BEB0306DFF864
:10634C0050B03A464346284621460AF0B7F81BF8A7
:10635C000030214606F80139D9F8007028463F462E
:10636C004FEAE77843463A4609F0FCFE50EA01034F
:10637C0005460C46E5D15046BDE8F08F30230BF8AE
:10638C000630701CF8E7B1F5807FADD8C3E700BFCD
:10639C00F80B2100302310B41370084C7823537081
:1063AC00072301F00F0C14F80CC0D0180909013B9D
:1063BC0080F802C0F5D20A2010BC7047F80B2100FF
:1063CC00032A30B405460C4610D941EA000313F0F9
:1063DC00030F0CD1D0F800C00B689C4504D1043AD3
:1063EC0004300431032AF5D805460C46B2B128789E
:1063FC0094F800C060450ED1013A002372B105EB50
:10640C00030C9CF8010004EB030C9CF801C0013355
:10641C00013A6045F2D0CCEB000000E0002030BC2B
:10642C00704700BF0F2A30B405460C4642D941EAEA
:10643C00000313F0030F02BF14468C46034609D029
:10644C00002314F803C005F803C001339A42F8D1B5
:10645C0030BC7047DCF80050103C1D60DCF8045078
:10646C005D60DCF808509D60DCF80C500CF1100CF1
:10647C00DD6010330F2CEDD8A2F1100404F00F02E4
:10648C0024F00F04103405190C19032A12D9002317
:10649C0054F803C045F803C00433C3EB020CBCF141
:1064AC00030FF5D8043A22F003030433ED18E41873
:1064BC0002F00302002AC3D1CAE700BF00B500F006
:1064CC0003F800F095F800BDDFF81CC147F2F83274
:1064DC00C2F20002CCEB020270B4002A4AD00023B4
:1064EC00424DCCF800C0CCF80420CCF80830CCF8E5
:1064FC000C30EB686446D318EB606B68002B3CD017
:10650C001E680CEB8200B0420CBF1A461A4604D02F
:10651C00D26812B111688842FAD1596806EB81062B
:10652C00B44208D0DB68002B26D05868196801EB00
:10653C0080018C42F6D119461346ABB1DCF804004D
:10654C005A688218CCF804202C68284A012C23D0D5
:10655C009868002825D0DD68002D3AD0C560DB682E
:10656C0098601368013B136021B14A68DCF8043071
:10657C00D3184B6070BC704713462A681B48D2B9BD
:10658C000121CCF80820CCF80C200160C0F804C024
:10659C00C0F808C01146D0E7002353609360136025
:1065AC00E2E7002CE0D05368DB6853609860136816
:1065BC00013B1360D8E781680132C1F80CC08168D7
:1065CC00CCF808100021CCF80C10C0F808C0026000
:1065DC00B3E7002CC8D093689B689360DD601368A8
:1065EC00013B1360C0E700BF3C10002024100020CA
:1065FC0043F20C03C4F203031A68122022F00102C6
:10660C001A6042F20802C4F20D02116841F008014E
:10661C00116042F20C02C4F20D02116841F0080143
:10662C00116042F21002C4F20D02116841F008012F
:10663C00116043F200020021C4F20302116043F224
:10664C000402C4F20302106043F22802C4F20302F3
:10665C004FF0FF30106043F23802C4F203021160B5
:10666C0043F21802C4F20302116841F001011160F7
:10667C001A6842F001021A60704700BF4CF22043C6
:10668C00C4F20D031A6822F0C0021A604CF20043E7
:10669C00C4F20D031A6822F0C0021A6044F2F80327
:1066AC000122C4F20D031A6044F2FC03C4F20D0380
:1066BC001A6042F20002C4F20D0211684FF6F87330
:1066CC00CFF6DC6301EA030343F4081342F204013E
:1066DC001360C4F20D010A6840F20003C0F201130A
:1066EC0002EA0303002BF6D142F20003C4F20D03BD
:1066FC001A6822F4E0621A6042F20402C4F20D023B
:10670C00136813F0806FFBD0704700BF4EF6145324
:10671C00CEF200031A6842F001021A6042F29803AA
:10672C00C4F20D031A6842F001021A604EF60853C7
:10673C00CEF200034FF401121A60704700B5FFF758
:10674C00E5FF02F0A3FF00F019F800F09BF800F051
:10675C0009F800F001F800BD00B5002002F0C4FA01
:10676C0000BD00BF044B082203F5807183F800289C
:10677C0001338B42FAD17047000700204EF2100310
:10678C004EF21802CEF200030021CEF20002196084
:10679C0011604EF21402CEF200024FF4FA41116075
:1067AC0006221A604FF6194140F20062C2F2000252
:1067BC00C0F22001D1631A6842F001021A607047DE
:1067CC0040F2FA030022C2F200031A7040F2F903FD
:1067DC00C2F200031A7040F2F403C2F20003022169
:1067EC00196041F21403C2F200031A6041F2200353
:1067FC00C2F2000349F2380C1A60C4F2080C0323ED
:10680C0049F2400049F24C01CCF8003030B4C4F2EB
:10681C0008000424C4F2080149F244030460C4F2E1
:10682C0008030A601D6845F040051D601D6845F0B1
:10683C0008051D601D6845F008051D602023CCF877
:10684C00004002600B6049F25003C4F208031A685E
:10685C0042F080021A601A6842F010021A6049F283
:10686C001C03C4F2080301221A6049F22403C4F287
:10687C0008031A6049F22C03C4F208031C6030BCF4
:10688C00704700BF4BF22043C4F20D031A682DE988
:10689C00F04822F004021A604BF20043C4F20D03DC
:1068AC001A6842F004021A604BF21003C4F20D0392
:1068BC00FF221A6049F23C02C4F20802136843F04A
:1068CC0001031360136843F002031360136813F0A1
:1068DC00800FFBD049F20403C4F208031A6822F0BB
:1068EC0001021A60FFF76CFF1D4B01221A601D4A52
:1068FC001D4BC3F8F0204EF20413CEF200034FF4FC
:10690C0080521A60EFF31087FFB207B162B61748D6
:10691C0043F24806C4F2030690E8001831680022DE
:10692C005B4612EB010B49F20002C0F2D03243F18C
:10693C00000C00231BEB020B4CEB030C90E80C003F
:10694C00316800241546621845F100039C45F5D8C2
:10695C0001D19345F2D807B162B6BDE8F08800BF0B
:10696C00F400002029FE2000000600203410002036
:10697C0000B540F27453C2F2000381B01B6801A849
:10698C0040F8043D684600F051FC01B000BD00BF6A
:10699C0000B502F0D3FE00F001F800BD704700BF57
:1069AC0040F22C53C2F200031B680146186800B574
:1069BC00036804221B68984700BD00BF00230160D8
:1069CC0043608360C360704770B55B4C06466423BC
:1069DC0083B04FF02810594908222370FFF7F0FCC0
:1069EC00002800F08380564D564B31461B6804221C
:1069FC00186803681B6898472B78A9786A78002B6D
:106A0C0079D0514B186843683BB15A68572A08D85B
:106A1C00482A06D0DB68002BF7D1FFF785FB002551
:106A2C001BE0483A5A60C268483AC2605A687AB960
:106A3C000568012D64D09968002966D0DE68002EA7
:106A4C006ED0CE60DA6891600268013A02605A68D2
:106A5C001B6848219D18995004353C4B01221B683A
:106A6C002A614FF6FD722B60C7F6FF720023AB61F3
:106A7C006B606B610021009200226963AA63E9627A
:106A8C002A636962AA62ED61009A03A92A62EB6328
:106A9C002B64284641F8043D4FF4406203F046FA5B
:106AAC00AB6803F53C614FF08070C3F8C00B28480D
:106ABC00284A40F00100C3F8F80B42F00100C3F87B
:106ACC00FC0BE96003A941F8082D28464FF44062FD
:106ADC0003F010FD23784F2B06D81F4DEB6803F005
:106AEC00F3FA23784F2BF9D903B070BD144DA8706D
:106AFC006870287078E7002A83D1002981D1E9E7F2
:106B0C004260826002605A68A2E7002DA0D0416802
:106B1C00C96841608A600268013A02605A6897E766
:106B2C00002D95D0816889688160CA600268013A3D
:106B3C0002605A688CE700BFAC040020640C210092
:106B4C006C0200202C050020E400002048020020EC
:106B5C0069602000016E20004C0200202DE9F04FEE
:106B6C009B4E0146337898B0B0787278002B00F0C9
:106B7C001281984B04221B68186803681B6898479D
:106B8C003278B1787378002A00F0FD80DFF848B2D3
:106B9C00DFF848C29248CDF834B0CDF830C011902F
:106BAC0048F6100B48F6200748F61C06C4F2080BF2
:106BBC0048F6140948F6180A48F62408C4F20807DF
:106BCC00C4F20806C4F20809C4F2080AC4F20808A0
:106BDC00CDF808B00097019672B6029800210C9B74
:106BEC0001601A68D9F80040DAF8003016021B026E
:106BFC0011EB030B0D46D8F8001046F1000C1BEB03
:106C0C00040310944CF100044FEA114C0904CDF824
:106C1C001CC0009F069106A903C91B1844EB010474
:106C2C00DDF804B03968DBF800C00F0A09060997D3
:106C3C00089108A903C9CDF82CC01B180A950C9F04
:106C4C0044EB01040AA903C91B1844EB010439687D
:106C5C008A4205D000204FF480711B1844EB0104CC
:106C6C0062B6119F0D9897E80600DDF834B0C9188C
:106C7C0042EB0402D0F804C04B09DBF800B043EA45
:106C8C00C26352096245CDF840B005D802D018B0A5
:106C9C00BDE8F08F5B45FAD972B6029A00230C9CC2
:106CAC00136022680E93D9F800E0DAF8003017026E
:106CBC000F974FEA032B0EA903C910EB0B0341F1FD
:106CCC000004D8F8001013EB0E0344F100044FEA53
:106CDC00114B0904CDF84CB0009F129112A903C9B5
:106CEC001B1844EB01043968DDF804B00F0A0906DF
:106CFC001597149114A903C9DBF800E01B1844EB99
:106D0C0001040021CDF85CE016910C9F16A903C973
:106D1C001B1844EB010439688A4205D000204FF45B
:106D2C0080711B1844EB010462B6119FDDF840B072
:106D3C0097E80600C91842EB04024FEA511ECDF841
:106D4C0010B0CDF814C004A903C926A418CC4EEA7F
:106D5C00C26E5209C01841EB04018A42049005919D
:106D6C0007D804D0214BDB6803F0AEF934E7864535
:106D7C00F8D91F4B0020002183E803001B4BDB6874
:106D8C0003F0A2F928E7ABB11349144A144B0D9147
:106D9C000C92119304E7002A7FF4EBAE00287FF4E9
:106DAC00E8AE0D484FF0FF324FF0FF33074680E856
:106DBC000C00DEE600293FF46AAF074FDFF81CB089
:106DCC00DFF81CC00D97CDF830B0CDF844C0E7E625
:106DDC006C0200202C050020B40400205C0500206F
:106DEC006005002020BCBE00000000004C0200200A
:106DFC00800400202DE9F04F48F6100048F61401ED
:106E0C0048F6180248F6240348F6200548F61C06F6
:106E1C00B0B0C4F20800C4F20801C4F20802C4F213
:106E2C000803C4F20805C4F20806FB4CDFF8EC9327
:106E3C001190129113921493159516961BE140F232
:106E4C002C53C2F2000319684FF0FF338DF8BC309D
:106E5C008DF8BD3004238DF8BF3008680026036818
:106E6C0003220292009601961D6A2FAA0DF1BF0310
:106E7C00A847054672B6119FDDF848E03E601398AE
:106E8C002368DEF8002001684FEA03284FEA012C42
:106E9C00CDF880801F961FA903C910EB0C0741F198
:106EAC0000081499BF180A6848F100084FEA124EFE
:106EBC001204CDF870E01B921BA903C93F1848EBD4
:106ECC0001081599DDF858E00A68DEF800C0110ACF
:106EDC0012061D921E911DA903C9CDF888C03F183A
:106EEC00219648EB010821AA06CA7F1848EB020834
:106EFC002268934205D000224FF48073BF1848EBF0
:106F0C00030862B6032299E803000B900C912EA89B
:106F1C00C349FFF787FA03222DA8C149FFF782FA6C
:106F2C0000261C232B706E700BAB0CCBD21943EBD1
:106F3C000803510941EAC361C1F30720A970E87045
:106F4C00C1F30740090E6971C3F34711A971C3F36B
:106F5C004731E971C3F347515B0F6B72287129728A
:106F6C0003222EA905F10A00FFF75CFA2DA90322D2
:106F7C0005F11500FFF756FA05232B76284605F088
:106F8C0003F9284604F01AFF284604F0ABFB284608
:106F9C0003F03CFE72B61199129F0E60DDF84C8026
:106FAC00D4F800E03868D8F800304FEA0E22190205
:106FBC000796089207AB0CCB571843F100083A1808
:106FCC00149F48F100033868169F4FEA104C0004D8
:106FDC00CDF810C0039003A903C9121843EB0103A9
:106FEC00159909960868D7F800C0010A00060691A1
:106FFC00059005A903C9CDF828C01218206843EBE9
:10700C00010309AFC0CF921943EB0703864505D0A6
:10701C0000204FF48071121843EB010362B699E81B
:10702C000300801841EB03014FEA501A49F28062C9
:10703C004AEAC16AC0F298024FEA511B002312EBD4
:10704C000A0243EB0B03C5F89C20C5F8A03040F2B4
:10705C002C51C2F200010B682946186803685B6A60
:10706C00984749F28062C0F2980200232BA82B9219
:10707C002C9302F0E3FD40F2AC47C2F200073B78E0
:10708C004F2B7FF6DCAE72B6DDF844800021C8F8D9
:10709C0000102068129A139D4FEA002CCDF860C0A6
:1070AC00D2F800C02B6817911B0217AE60CEEF18F8
:1070BC0046F10008149E17EB0C02D6F800C048F1FC
:1070CC0000034FEA1C484FEA0C4CCDF834C0CDF805
:1070DC0038800DAE60CE521943EB0603159E169FF9
:1070EC00D6F800C0D7F800E04FEA1C254FEA0C6C2C
:1070FC001095CDF83CC00FAFC0CF19919219CDF8B7
:10710C0068E0216843EB070319AE60CE521943EBDC
:10711C000603884205D000264FF48077921943EB82
:10712C00070362B640F2B44799E80300C2F20007C5
:10713C00801841EB0301D7F804C04A0943096245A2
:10714C00D7F800E043EAC16302D88AD1734588D9E5
:10715C0072B6DDF844800021C8F800102568129B37
:10716C00139E280228901868336827914FEA032849
:10717C0027AB0CCB12EB080643F10007321847F192
:10718C000003149F29913868060C00042390249660
:10719C0023AFC0CF921943EB0703159F169E386897
:1071AC00D6F80080060A00062590269625AFC0CF9B
:1071BC00CDF8A880921929A903C943EB070312182B
:1071CC0043EB010321688D4205D000254FF48076F6
:1071DC00521943EB060362B699E80300801841EBA1
:1071EC00030143090FA7C0CF480943EAC1631EEB53
:1071FC0006014CEB0702904204D87FF420AE8B4280
:10720C007FF61DAE40F2804200200021C2F2000247
:10721C0082E8030013E600BF5C0500206005002037
:10722C006C02002020BCBE00000000002DE9F041E3
:10723C000546F94C206843683BB15A681F2A08D8A8
:10724C00102A06D0DB68002BF7D1FEF76DFF002368
:10725C001EE0103A5A60C268103AC2605A6892B97D
:10726C000668012E00F053819968002900F06981AD
:10727C00DF68002F00F0A081CF60DA6891600268AF
:10728C00013A02605A68196810208B188850043330
:10729C002A68DFF888831A60C8F8003020684368D1
:1072AC003BB15A68232A08D8142A06D0DB68002B75
:1072BC00F7D1FEF739FF00271EE0143A5A60C26876
:1072CC00143AC2605A6892B90568012D00F0298100
:1072DC009968002900F05881DE68002E00F090813A
:1072EC00CE60DA6891600268013A02605A681B68E5
:1072FC0014219F1899500437C94A00233A60C94A8F
:10730C007F603B72FB60DFF820C31360C74A1370C9
:10731C0044F66D62DCF80030C4F2C61202FB03F3D3
:10732C0003F540533933B3F1FF3F28BF0133D9B2D2
:10733C0002FB03F303F540533933B3F1FF3F28BF8E
:10734C000133D8B202FB03F303F540533933B3F1E5
:10735C00FF3F28BF0133DDB2002953D0CCF80030F9
:10736C00B34B9D7058701970206843683BB15A68D4
:10737C00232A08D8142A06D0DB68002BF7D1FEF795
:10738C00D3FE00261EE0143A5A60C268143AC2605A
:10739C005A6892B90568012D00F0AF8099680029F0
:1073AC0000F0E680DE68002E00F01E81CE60DA6808
:1073BC0091600268013A02605A681B6814219E1899
:1073CC009950043600233372F3609A4B00213360DA
:1073DC00994B0022766083E80600984B83E8060000
:1073EC00974B83E80600206843683BB15A68232A10
:1073FC0013D8142A11D0DB68002BF7D1FEF794FEBA
:10740C0000252AE00028A9D1002D87D0CCF8003027
:10741C00874B9D7058701870A6E7143A5A60C26872
:10742C00143AC2605A689AB90568012D6AD09968F5
:10743C0000297BD0D3F80CC0BCF1000F00F0B08059
:10744C00C1F80CC0DA6891600268013A02605A68AF
:10745C001B6814219D189950043500232B72EB6086
:10746C00784B6D602B60206843683BB15A68232AC7
:10747C0009D8142A07D0DB68002BF7D10024FEF7BB
:10748C0053FE234620E0143A5A60C268143AC26094
:10749C005A689AB90468012C3ED0996800295CD0CE
:1074AC00D3F80CC0BCF1000F00F09280C1F80CC0F6
:1074BC00DA6891600268013A02605A68196814200F
:1074CC008B18043388501C4600221A72DA605E4A0C
:1074DC005B601A603846FFF777FA3046FFF73EFBE1
:1074EC002846FFF75DFAD8F80030214618680422C8
:1074FC0003681B689847BDE8F081426082600260B7
:10750C005A685AE74260826002605A68A0E742609B
:10751C00826002605A68B6E64260826002605A6815
:10752C00CCE74260826002605A68E0E6002D8FD0A2
:10753C004168C96841608A600268013A02605A6811
:10754C0086E7002E3FF49FAE4168C96841608A60AF
:10755C000268013A02605A6895E6002CAED0416888
:10756C00C96841608A600268013A02605A68A5E7FE
:10757C00002D3FF422AF4168C96841608A600268FF
:10758C00013A02605A6818E7002D3FF4B0AE41682A
:10759C00C96841608A600268013A02605A68A6E6CE
:1075AC00002D3FF455AF816889688160CA6002681C
:1075BC00013A02605A684BE7002E3FF464AE8168D2
:1075CC0089688160CA600268013A02605A685AE6AA
:1075DC00002C3FF473AF816889688160CA600268CF
:1075EC00013A02605A6869E7002D3FF4E6AE816803
:1075FC0089688160CA600268013A02605A68DCE6F8
:10760C00002D3FF474AE816889688160CA6002689D
:10761C00013A02605A686AE6E40000202C0500205A
:10762C00840D210088040020F0000020AC04002010
:10763C006C020020780D2100F4030020800400204F
:10764C00B40400206C0D2100600D21002DE9F047E1
:10765C0072B6454A1368116813F0080F21EA03014A
:10766C00116003D0414A11680131116013F0020F0F
:10767C0070D0DFF8FC80D8F80030002B6AD048F6C8
:10768C0010024FF0000CC4F20802384F48F61404F4
:10769C00C2F800C0C4F208043E68D4F800A048F652
:1076AC001804C4F20804D4F8009032024FEA0929F5
:1076BC001CEB090442F1000514EB0A0148F6240402
:1076CC00C4F20804D4F800A045F100024FEA0A44C1
:1076DC00091948F62004C4F208044FEA1A45D4F8F4
:1076EC0000A042EB05024FEA0A64091948F61C0493
:1076FC004FEA1A25C4F2080442EB0502D4F800A0A4
:10770C0011EB0C01D7F800C042EB0A02664505D01C
:10771C0000244FF48075091942EB0502DFF854C0C0
:10772C009CE83000954215D812D00022C8F80020F1
:10773C0048F60802C4F208020821116062B69847A4
:10774C004EF20013CEF200034FF080621A6009E093
:10775C008C42EAD94EF20013CEF200034FF0806255
:10776C001A6062B6BDE8F087700500205C05002049
:10777C00480500204005002040F25453002100220F
:10778C00C2F2000383E8060040F26853C2F2000321
:10779C0083E8060040F24C53C2F2000383E8060073
:1077AC0048F60403C4F208031A6848F60C0122F0E8
:1077BC0001021A6048F60802C4F208020020C4F262
:1077CC00080110600860196847F2596021F0020145
:1077DC0019601968C0F2200041F00801196040F2EC
:1077EC000061C2F20001C1F8C4004EF20411CEF2E5
:1077FC00000102200860116841F0080111601A684C
:10780C0042F001021A6070472DE9F001D4B20C72FB
:10781C0046680023CB6049600F1D002E22D0D0F8A3
:10782C00088098F80430A34222D8D8F808308BB1DD
:10783C00454693F804C0A44507D9CDB10136AF60D5
:10784C004660CB60BDE8F00170479A6812B11D46E6
:10785C001346EEE7C36801369F600023CB60466099
:10786C00C760EFE70123CE6043608760C760E9E73C
:10787C000136C1F80C8046608760E3E710B44468B9
:10788C00012C17D0836801F1040C9C4517D04BB127
:10789C009A682AB1944503D013469268002AF9D10C
:1078AC00CA689A60C268944508BFC360013C4460D2
:1078BC0010BC704700238360C3604360F8E7002C62
:1078CC00F6D0CB68013C83604460F1E7F0B5846886
:1078DC0006461746CDB29CB1002001E0A46874B1F5
:1078EC002379AB42FAD12068314603682A46D3F893
:1078FC0000C03B46E047A4680120002CF0D1F0BD4D
:10790C002046FCE7014B0360704700BFBC0C210014
:10791C008368C9B27BB1002001E09B6843B193F846
:10792C0004C08C45F9D122B918689B68002BF6D19C
:10793C007047013AF1E71846FAE700BF0F4A0120F9
:10794C00002110B492E818001B1844EB0104012B21
:10795C0082E818000BD00A4A012092E81800002196
:10796C001B1844EB010482E8180010BC7047002C73
:10797C00F1D1044A146054609460ECE7FC000020E0
:10798C00040100200C010020024B00B50360FEF73F
:10799C00CFFB00BDBC0C210048F234638022C4F242
:1079AC0008031A6048F63803E922C4F208031A6087
:1079BC00A74B46F2E0112DE9300893E8001800229D
:1079CC001BEB010B4CEB020C83E8001845F2000397
:1079DC00C4F20D03A0221A609E4C50221A60236838
:1079EC00C3F34A02511E23F47E6389B223F01E03B3
:1079FC0043EA41032360002A40F0AC80964B0024FC
:107A0C001A684FF4C95313EB0B03C3F3072191739B
:107A1C00C3F3074144EB0C04D173190E1174C4F376
:107A2C00072153735474230E917448F62C00C4F33D
:107A3C00074148F63004D1741375C4F20804C4F23B
:107A4C0008002368C3F340031BB1216821F0020135
:107A5C002160016811F0300F0CBF0021012119B118
:107A6C00056825F0300505600BB90029E9D048F60A
:107A7C003803EE21C4F208031960D2F8CC0048F2A6
:107A8C007061C4F208010B68002BFCD148F6280485
:107A9C00C4F208042060023804D0D15C0133834264
:107AAC002160FAD372B648F60C03C4F208031A68C4
:107ABC004FF0FF3402F008021A60684B1A6802F0AB
:107ACC0008021A60664B93E806004FF6E063CFF6A7
:107ADC00FF7313EB0B0344EB0C045B1A64EB020413
:107AEC0048F61002C4F208023321116048F6140261
:107AFC00C4F208021360190A48F6180241EA04613C
:107B0C00C4F208021160190C48F6240241EA04413F
:107B1C00C4F208021160190E48F6200241EA042151
:107B2C00C4F20802116048F61C02C4F208024D4966
:107B3C0014604D4A11604D4A82E8180048F608035B
:107B4C00C4F208031A6842F012021A6062B6BDE869
:107B5C003008704748F6300248F62C03C4F208028D
:107B6C00C4F208031168C1F3400119B1106820F088
:107B7C0002001060186810F0300F0CBF00200120BC
:107B8C0018B11D6825F030051D6009B90028E9D031
:107B9C0048F63803EE22C4F208031A6048F2706209
:107BAC00C4F208021368002BFCD148F62801C4F279
:107BBC00080109220A60E25C0133072B0A60FAD142
:107BCC0072B648F60C03C4F208031A684FF0FF347F
:107BDC0002F008021A60214B1A6802F008021A60BF
:107BEC001F4B93E806004FF6E063CFF6FF7313EBE1
:107BFC000B0344EB0C045B1A64EB020448F6100212
:107C0C00C4F208023321116048F61402C4F20802CF
:107C1C001360190A48F6180241EA0461C4F208021A
:107C2C001160190C48F6240241EA0441C4F208021E
:107C3C001160190E48F6200241EA0421C4F2080230
:107C4C00116048F61C02C4F208021460084970E77F
:107C5C002C010020180100202801002070050020B4
:107C6C00600500206D7E20004805002040050020A6
:107C7C00A579200045F20003C4F20D03A0221A607E
:107C8C0050221A606E4A002313706E4A01212DE9AE
:107C9C00F008117072B648F61002C4F208026A4D70
:107CAC0048F614001360C4F208002C68D0F800C029
:107CBC0048F61800C4F208000068220200021E18E0
:107CCC0048F62400C4F20800006842F100074FEAAD
:107CDC00004B16EB0C014FEA104C48F62000C4F296
:107CEC000800066847F1000248F61C0011EB0B0176
:107CFC004FEA066B42EB0C02C4F2080011EB0B01CD
:107D0C004FEA162C006842EB0C02C9182B6842EBA8
:107D1C0000029C4205D000234FF48074C91842EB3A
:107D2C00040262B6DFF824C19CE8180072B648F66B
:107D3C000C00C4F2080005684BF2206B05F0080536
:107D4C000560434813EB0B03056805F00805056057
:107D5C009CE860004FF0000C44EB0C045B1B64EBE4
:107D6C0006045B1844EB020448F610023321C4F2FB
:107D7C000802116048F61402C4F208021360190AD2
:107D8C0048F6180241EA0461C4F208021160190CA9
:107D9C0048F6240241EA0441C4F208021160190EAB
:107DAC0048F6200241EA0421C4F20802116048F6A8
:107DBC001C02C4F2080214602649274A1160274AA3
:107DCC0082E8180048F60803C4F208031A6842F067
:107DDC0012021A6062B642F2A803C4F20D031A68CA
:107DEC0042F001021A6042F2AC03C4F20D031A68AD
:107DFC0042F001021A6042F2B003C4F20D031A6899
:107E0C0042F001021A6048F22463C4F208031A68B3
:107E1C0022F00C021A6048F28C63C4F208031A6850
:107E2C0022F004021A601A6842F004021A6048F642
:107E3C003803C4F20803E3221A60BDE8F008704767
:107E4C0024010020250100205C0500206005002095
:107E5C0070050020B183200048050020400500205B
:107E6C002DE9F041CE4B186890F89830002B40F07B
:107E7C000C8148F23463C4F2080380221A6048F67D
:107E8C003803C4F20803E9221A6045F20003C4F275
:107E9C000D03A0221A6048F6300C502248F62C0133
:107EAC001A60C4F2080CC4F20801DCF80030C3F309
:107EBC0040032BB1DCF8002022F00202CCF80020A9
:107ECC000A6812F0300F0CBF002201221AB10C68A4
:107EDC0024F030040C600BB9002AE6D072B648F6D8
:107EEC0010030021C4F20803AE4E48F614021960C8
:107EFC00C4F20802D6F800C0156848F61802C4F29D
:107F0C00080212684FEA0C2412028F1844F1000880
:107F1C0048F62404C4F208047A19276848F10003CF
:107F2C003C043D0C121948F62004C4F208042768DE
:107F3C0048F61C04C4F2080443EB0503D4F8008093
:107F4C003C063D0A121943EB05035218316843EB0A
:107F5C0008038C4505D000244FF48075121943EBAF
:107F6C00050362B6904C914D94E8C000B61847EBEF
:107F7C00030785E8C0000378C3F3C103032B00F0AB
:107F8C00BA8048F63803C4F20803E2221A60EF22E2
:107F9C001A6048F28C63C4F208031A6822F00402D7
:107FAC001A6048F23463C4F208031A6822F004021F
:107FBC001A6042F2A803C4F20D031A6842F00102DF
:107FCC001A6042F2AC03C4F20D031A6842F00102CB
:107FDC001A6042F2B003C4F20D031A6842F00102B7
:107FEC001A6072B648F60C03C4F208031A6802F061
:107FFC0008021A606E4B1A6802F008021A6040F20E
:10800C00C04394E80600C0F2470300245B1A64EBFB
:10801C0002049B1948F6100244EB0704C4F2080250
:10802C003321116048F61402C4F208021360190AD5
:10803C0048F6180241EA0461C4F208021160190CF6
:10804C0048F6240241EA0441C4F208021160190EF8
:10805C0048F6200241EA0421C4F20802116048F6F5
:10806C001C02C4F2080214605249534A1160534A6C
:10807C0082E8180048F60803C4F208031A6842F0B4
:10808C0012021A6062B6BDE8F08172B6DFF830C138
:10809C0045F20003DCF80040A022C4F20D031A6084
:1080AC005022012C1A6056D0DCF8043000F1D001BB
:1080BC00994258D053B15A682AB1914203D0134611
:1080CC005268002AF9D1D0F8D4205A60DCF8082084
:1080DC00DFF8ECE0914204BFDEF80040CEF8083047
:1080EC00013CCCF80040FEF723F862B62F4B2E4C27
:1080FC0093E8C00045E7037E052B7FF442AF72B6D0
:10810C00DFF8BCC0DCF80060012E36D0DCF804309F
:10811C0000F1D001994238D053B15A682AB191423A
:10812C0003D013465268002AF9D1D0F8D4205A60F3
:10813C00DCF80820DFF888E0914204BFDEF800602C
:10814C00CEF80830013ECCF80060FDF7F1FF62B6C6
:10815C0095E8C00015E70023CCF80430CCF80830C3
:10816C00CCF80030BFE7002CBDD0D0F8D430013CA7
:10817C00CCF80430CCF80040B5E70023CCF8043040
:10818C00CCF80830CCF80030DFE7002EDDD0D0F88A
:10819C00D430013ECCF80430CCF80060D5E700BFF9
:1081AC00280100205C050020600500202C01002027
:1081BC0070050020817C200048050020400500202F
:1081CC000C010020F0B58AB000293CD0012908BF71
:1081DC00046835D011F0010F3BD101394B0805680B
:1081EC0033D0012B05FB05F428D013F0010F52D12D
:1081FC00013B5A087DD0012A04FB04F61CD012F076
:10820C00010F7AD1013A520800F0A580012A06FB31
:10821C0006F70FD012F0010F40F0AB8007FB07F30D
:10822C000AA8013A40F8283D51086846FFF7CAFFF2
:10823C0000FB07F707FB06F606FB04F405FB04F44A
:10824C0020460AB0F0BD0124FAE7012405FB04F432
:10825C00F6E74B080468F6D0012B04FB04F4EFD0CE
:10826C0013F0010F31D1013B5A082AD0012A04FB2B
:10827C0004F5E3D012F0010F55D105FB05F30AA864
:10828C00013A40F8103D5108FFF79CFF00FB05F543
:10829C0005FB04F4D4E78B08012B04FB04F4CDD0CC
:1082AC0013F0010F4BD104FB04F20AA8013B40F878
:1082BC00182D5908FFF786FF00FB04F405FB04F4A6
:1082CC00BEE7012505FB04F4BAE78B08012B04FB80
:1082DC0004F4B5D013F0010F41D104FB04F20AA849
:1082EC00013B40F8082D5908FFF76CFF00FB04F424
:1082FC00A6E7012606FB04F4A0E79B08012B06FB6E
:10830C0006F699D013F0010F3FD106FB06F20AA82E
:10831C00013B40F8202D5908FFF754FF00FB06F6EF
:10832C0006FB04F48AE705FB05F50AA840F80C5D8A
:10833C009908FFF747FF054605FB04F480E704FBAB
:10834C0004F40AA840F8144DC908FFF73BFF044693
:10835C0005FB04F474E7012707FB06F66CE704FB46
:10836C0004F40AA840F8044DC908FFF72BFF044693
:10837C0066E707FB07F70AA840F8247D5108FFF7CA
:10838C0021FF074607FB06F656E706FB06F60AA88A
:10839C0040F81C6D5908FFF715FF064606FB04F460
:1083AC004CE700BF40F248510023C2F2000148F6EE
:1083BC0008020B60C4F208020821116045F20002A9
:1083CC00C4F20D02A02111605021116048F6380250
:1083DC00C4F20802E2211160EF21116048F28C62B4
:1083EC00C4F2080211682DE9F04F21F0040111606C
:1083FC0048F23462C4F208021168DFF8CC4521F06F
:10840C000401116042F2A802C4F20D02116885B099
:10841C0041F00101116042F2AC02C4F20D0211688C
:10842C00236041F00101116042F2B002C4F20D026E
:10843C00116841F001011160DFF890251370DFF82D
:10844C009025137072B648F61002C4F20802DFF8D9
:10845C0084C548F614051360C4F20805DCF8000066
:10846C002E6848F61805C4F208052D6802022D0284
:10847C005F1948F62405C4F2080542F10008B91941
:10848C002F6848F100023D043E0C491948F62005BE
:10849C00C4F20805D5F8008048F61C05C4F208059E
:1084AC002F684FEA086542EB060249194FEA182675
:1084BC0042EB0602C918DCF8003042EB0702984286
:1084CC0005D000254FF48076491942EB060262B6BE
:1084DC00DFF804B59BE860006D1846EB02060195C9
:1084EC00029602994FEA551A4AEAC66A4E0972B6C2
:1084FC00DFF8E8747B68002B42D0B8464FF00009D7
:10850C0018685D68827890F803C0C17942EA0C2C37
:10851C0002794CEA024C42794CEA026C827942EACA
:10852C000122017A42EA0142417A42EA0162B242F4
:10853C0000F2298100F02481D0F89C200092D0F820
:10854C00A020B24240F240812368A3B193F898C0B6
:10855C00BCF1000F10D190F898C0BCF1000F0AD1FB
:10856C00D3F8B4C0D0F8B410614504D3D3F8A0C08C
:10857C00944540F25B8120602B46002DC0D12368CE
:10858C0062B6002B00F0C88193F89800D3F88C20C9
:10859C00D3F8BC10002800F046814FF0000C1205F7
:1085AC00120D4CEA0232DFF8380442F4BB7242EA94
:1085BC00016202600022027242F2A802C4F20D02B1
:1085CC00090A4160116841F00101116042F2AC02EC
:1085DC00C4F20D02116841F00101116042F2B002C7
:1085EC00C4F20D02116841F00101116048F22462DD
:1085FC00C4F20802116841F00C01116048F638020F
:10860C00EE21C4F20802116048F27061C4F2080154
:10861C000A68002AFCD148F6280CC4F2080C09217F
:10862C00CCF80010815C0132072ACCF80010F9D18B
:10863C0045F20002C4F20D02A0211160502111601C
:10864C00D3F8B41003F1900660CE4A1CC3F8B420E2
:10865C00002A00F00E81012A00F0488112F0010F6F
:10866C0040F02381042305A840F8083D4908FFF792
:10867C00A9FDDC4944F66D62D1F800C0C4F2C61203
:10868C0002FB0CF202F540523932B2F1FF3F28BF27
:10869C0001324000B2FBF0FC00FB1C204FF4A05C4C
:1086AC00A0FB0C78236893F89800002800F0C78092
:1086BC000A6029463246C91B62EB08021AB9B1F5A9
:1086CC00A05F80F07881D3F8B4204FF4A051013A28
:1086DC00C3F8B420002272B648F60C03C4F20803A7
:1086EC00186800F008001860BF4B186800F008000C
:1086FC0018609BE8600001AC18CC5B1B64EB0604B3
:10870C005B1844EB020448F61002C4F20802332151
:10871C00116048F61402C4F208021360190A48F6F4
:10872C00180241EA0461C4F208021160190C48F6FF
:10873C00240241EA0441C4F208021160190E48F601
:10874C002002C4F2080241EA0421116048F61C021E
:10875C00C4F208021460A54A40F24855C2F2000562
:10876C002A60A34A82E8180048F60803C4F20803FA
:10877C001A6842F012021A6062B605B0BDE8F08FBA
:10878C00D4457FF6D9AED7F800C0BCF1010F35D077
:10879C00D8F8042093423AD042B1516829B18B42A7
:1087AC0003D00A4649680029F9D15560B9688B4253
:1087BC0004BFD8F800C0C8F808200CF1FF3CC7F87B
:1087CC0000C0FDF7B5FCD7E603D1009951453FF643
:1087DC00BBAED7F800C0BCF1010F0FD0D8F8042005
:1087EC00934214D0002AE1D051680029DDD08B428D
:1087FC00DBD00A4649680029F9D1D6E7C8F80490BD
:10880C00C8F80890C8F80090FDF792FCB4E6BCF1EB
:10881C00000FD6D00CF1FF3CC8F80450C8F800C0CB
:10882C00FDF786FCA8E693F899C0B8E67FF4A4AEF1
:10883C00D3F89C30009A93427FF69EAE9BE60A607A
:10884C00791948EB06024AB9B1F5705F24D340F2AE
:10885C00C040C0F2470081427FF63DAFD3F8B42050
:10886C0040F2C041013AC3F8B420C0F247010022E3
:10887C0031E75C4944F66D620868C4F2C61202FB2B
:10888C0000F202F540523932B2F1FF3F28BF0132FB
:10889C0000274FF0000806E7D3F8B4204FF47051CE
:1088AC00013AC3F8B420002215E7042305A85108A7
:1088BC0040F8043DFFF786FC4A4944F66D62D1F856
:1088CC0000C0C4F2C61202FB0CF202F5405239325F
:1088DC00B2F1FF3F28BF0132B2FBF0FC00FB1C20C1
:1088EC004FF4A05C2368A0FB0C78DCE63D4944F611
:1088FC006D620868C4F2C61202FB00F202F5405227
:10890C003932B2F1FF3F28BF013202F001074FF4B8
:10891C00A050A7FB0078C6E645F20003C4F20D0395
:10892C00A0221A6050221A6072B648F60C03C4F2E8
:10893C0008031A68002402F008021A602A4B1A680D
:10894C0002F008021A6040F2C043C0F247039BE8F1
:10895C0006005B1A64EB020401AA06CA5B1844EB1E
:10896C00020448F61002C4F208023321116048F6E2
:10897C001402C4F208021360190A48F6180241EAFC
:10898C000461C4F208021160190C48F6240241EA91
:10899C000441C4F208021160190E48F62002C4F218
:1089AC00080241EA0421116048F61C02C4F20802D4
:1089BC001460104AD0E640F2C040C0F24700814239
:1089CC007FF689AE7FE600BF28010020240100203D
:1089DC00250100205C050020600500200C01002012
:1089EC0018010020F000002070050020118E2000DE
:1089FC0040050020817C2000B84BE222036048F641
:108A0C003803C4F208031A60EF221A6048F28C6231
:108A1C002DE9F041C4F208020026166048F290627B
:108A2C00C4F20802166048F29462C4F2080216609E
:108A3C0048F25862044646608660C660C4F208027A
:108A4C00F820106048F2E872C4F2080209201060A5
:108A5C0048F2C862C4F208021520106048F60402FD
:108A6C00C4F208020B20106048F2B862C4F208028B
:108A7C0001201060EE221A60ED221A6048F2546355
:108A8C00C4F208031A68964F22F001021A6048F2E9
:108A9C008C53C4F208031E6048F25063FF22C4F2E8
:108AAC0008031A6048F24063C4F208031A6048F2E3
:108ABC009473C4F208031A6048F63403C4F2080332
:108ACC001E6048F63003C4F208031E6048F62C03FF
:108ADC00C4F208031E60834B21612360616126622E
:108AEC006662A662E66281B066633546A663E6639B
:108AFC0026646664C4F89860C4F89C604FF0E4087F
:108B0C00386843683BB15A68F32A08D8E42A06D07F
:108B1C00DB68002BF7D1FDF707FB002323E0E43AD9
:108B2C005A60C268E43AC2605A68BAB9D0F800C058
:108B3C00BCF1010F00F0B2809968002900F0B380FD
:108B4C00D3F80CE0BEF1000F00F0BA80C1F80CE0D5
:108B5C00DA6891600268013A02605A6819688B18E9
:108B6C0041F802800433A2190436502E83F8C05009
:108B7C00C3F8C450C3F8CC50C3F8D030C3F8D450A9
:108B8C00C3F8D830C3F8DC509364B9D140F22C034D
:108B9C00C0F228031A7840F22D03C0F2280319788A
:108BAC0040F22E0351402176C0F228031A7840F28D
:108BBC002F03C0F228031B78204683EA020248F2F6
:108BCC00D053C4F208036276196048F2D453C4F24D
:108BDC0008031A6048F20463C4F208031A6822F00E
:108BEC0020021A6048F22463C4F208031A6842F0A7
:108BFC0040021A6048F20063C4F208031A6822F0BB
:108C0C0001021A6048F20863C4F208031A6822F0E1
:108C1C0001021A6048F22863C4F208031A6822F0B1
:108C2C0001021A601A23E36148F23C635622C4F233
:108C3C0008031A6006F03EF848F63403C4F2080341
:108C4C001D6048F63003C4F208031D6048F62C037F
:108C5C00C4F208031D6048F28C630422C4F20803BA
:108C6C001A6048F29063C4F208031D6048F29463E2
:108C7C000C22C4F208031A6045F20003C4F20D037F
:108C8C001D601A6801A842F0080240F8045D1A60E1
:108C9C006846FFF787FB01B0BDE8F0814260826057
:108CAC0002605A685AE7BCF1000F3FF457AF4168B5
:108CBC00C96841608A600268013A02605A684DE7EF
:108CCC00BCF1000F3FF44AAF816889688160CA60CB
:108CDC000268013A02605A6840E700BF780C210034
:108CEC00E4000020200E210042F2A803C4F20D0380
:108CFC001A6870B542F001021A6042F2AC03C4F279
:108D0C000D031A68044642F001021A6042F2B003E5
:108D1C00C4F20D031A6842F001021A60FEF72CFD32
:108D2C00344B186841680B4600295FD04A68B32A57
:108D3C0007D8A42A05D0DB68002B57D05A68B32A71
:108D4C00F7D9A43A5A60C268A43AC2605A6872B998
:108D5C000568012D32D09E68002E34D0D9680029C8
:108D6C003AD0F160DA68013D056096605A681B687C
:108D7C00A4219D189950043521462846FFF73CFE46
:108D8C001D4B04EB440403EB840243F824502A21CA
:108D9C00013443F824102B239360184B184A43F8E2
:108DAC002120C3F8AC204EF20013CEF200034FF09A
:108DBC0080621A604FF000621A6070BD02604260FF
:108DCC0082605A68D3E7002DD1D0C968013D056097
:108DDC0041608A605A68CAE7002DC8D08168013D9D
:108DEC00896805608160CA605A68C0E7FDF79CF924
:108DFC000025C1E7E40000207405002000060020D7
:108E0C00F9F520002DE9F00F45F20003C4F20D0333
:108E1C00A02018605020186048F63803C4F20803EC
:108E2C00E32018608FB072B648F610000023C4F22D
:108E3C0008000360DFF80CA748F61400C4F2080021
:108E4C00DAF80040D0F8009048F61800C4F2080098
:108E5C0000684FEA042C0002191848F62400C4F2EA
:108E6C00080000684CF1000211EB090B42F1000CF8
:108E7C00CDF808B0CDF80CC04FEA004B4FEA104CBF
:108E8C0002A903C910EB0B0041EB0C0102900391FA
:108E9C0002AA06CA48F62000C4F20800006848F688
:108EAC001C0CC4F2080C4FEA006BDCF8009011EBC0
:108EBC000B014FEA102C42EB0C02C918DAF8003007
:108ECC0042EB09029C420291039208D0084600230F
:108EDC00C0184FF4807442EB04010290039162B607
:108EEC0040F2605243F6A013C2F20002002406CAFC
:108EFC00C91842EB040248F2646002AC18CCC918E1
:108F0C0042EB0402C4F20800069107929DE80600A9
:108F1C00036813F0010FFBD048F24C63C4F2080352
:108F2C00186848F61409C0F300100E9048F61004A7
:108F3C004846C4F20804C4F2080048F61C098DE83F
:108F4C0006000894099048F6180148F6240248F6E1
:108F5C00200448468DE86000C4F20801C4F20802FF
:108F6C00C4F20804C4F208000A910B920C940D9000
:108F7C0072B608990022099B0A9C0A60DAF8000074
:108F8C00D3F800C0236800211B020202CD1842F165
:108F9C00000615EB0C0346F100040B9E0D9FD6F852
:108FAC0000C004914FEA1C494FEA0C4CCDF80490D8
:108FBC00CDF800C09DE860005B1944EB06040C9EE4
:108FCC008946D6F800C0D7F800B04FEA1C254FEA06
:108FDC000C6C13EB0C03CDF814B0DAF800C044EBB6
:108FEC00050404AE60CE5B1944EB0604604505D065
:108FFC0000254FF480765B1944EB060462B640F210
:10900C006056C2F2000696E8001807981BEB030B9B
:10901C004CEB040C844540F220810E9E002E00F097
:10902C00258172B648F610030022C4F2080348F6F4
:10903C0014011A60C4F20801DAF800C00D6848F691
:10904C001801C4F208010F684FEA0C243F02D01932
:10905C0044F10001431941F1000448F62401C4F223
:10906C0008010D682804290C1B1844EB010448F670
:10907C002001C4F208010D6848F61C01C4F2080175
:10908C0028060F68290A1B1844EB01049B18DAF810
:10909C00002044EB0704944505D000214FF4807266
:1090AC005B1844EB020462B640F26057C2F2000750
:1090BC0097E80600C91848F23463C4F208034FF06D
:1090CC00800CC3F800C048F63803C4F208034FF014
:1090DC00EA0CC3F800C048F24C63C4F208031B68E6
:1090EC00DFF8640442EB040213F0080380E8060086
:1090FC0000F0B68146F2E0140025641845EB020539
:10910C0080E83000DFF844C448F63000DCF800306A
:10911C0048F62C01C3F34A02013A23F47E6392B25F
:10912C0023F01E0343EA4203CCF8003045F200035F
:10913C00C4F20D03A0221A6050221A60C4F2080077
:10914C00C4F208012746A8460368C3F340031BB1C9
:10915C00026822F0020202600A6812F0300F0CBFA3
:10916C00002201221AB10D6825F030050D600BB9F3
:10917C00002AE9D048F63803EE22C4F208031A603C
:10918C0048F270623C464546C4F208021368002B54
:10919C00FCD148F62801C4F2080109220A601CF827
:1091AC0003200133072B0A60F9D172B648F60C0381
:1091BC00C4F208031A6840F2605902F008021A60FF
:1091CC00E34BC2F200091A6802F008021A604FF66B
:1091DC00E062CFF6FF724FF0FF3399E80300121AEA
:1091EC0063EB0103121948F6100143EB0503C4F2BB
:1091FC0008013320086048F61401C4F208010A6023
:10920C00100A48F6180140EA0360C4F2080108602D
:10921C00100C48F6240140EA0340C4F2080108602F
:10922C00100E48F6200140EA0320C4F20801086041
:10923C0048F61C01C4F208010B60C648C649086018
:10924C00C64981E80C0048F60803C4F208031A6802
:10925C0042F012021A6062B6F4E003D1069B9B4501
:10926C003FF6DBAE0E9C002C40F0F08045F2000384
:10927C00C4F20D03A0221A6050221A60B84A0023CF
:10928C001370B84A0121117072B648F61002C4F27C
:10929C00080248F6140C1360C4F2080CDAF800004B
:1092AC00DCF8007048F6180CC4F2080CDCF800C0AE
:1092BC0002024FEA0C2C13EB0C0448F6240CC4F2FB
:1092CC00080CDCF800C042F10005E11945F1000280
:1092DC004FEA0C444FEA1C4548F6200CC4F2080C2B
:1092EC00DCF80070091942EB050248F61C0C3C0630
:1092FC003D0AC4F2080C0919DCF800C042EB050267
:10930C00C918DAF8003042EB0C02984205D0002361
:10931C004FF48074C91842EB040262B640F2605CF0
:10932C00C2F2000C9CE8180072B648F60C00C4F2AD
:10933C000800D0F800C00CF0080CC0F800C084483D
:10934C00D0F800C00CF0080CC0F800C040F260501F
:10935C00C2F2000090E860004BF22067DB194FF07E
:10936C00000844EB08045B1B64EB06045B1844EB3D
:10937C00020448F610023321C4F20802116048F6C8
:10938C001402C4F208021360190A48F6180241EAE2
:10939C000461C4F208021160190C48F6240241EA77
:1093AC000441C4F208021160190E48F6200241EA89
:1093BC000421C4F20802116048F61C02C4F208022F
:1093CC0014606949644A1160644A82E8180048F6DE
:1093DC000803C4F208031A6842F012021A6062B65B
:1093EC0042F2A803C4F20D031A6842F001021A609B
:1093FC0042F2AC03C4F20D031A6842F001021A6087
:10940C0042F2B003C4F20D031A6842F001021A6072
:10941C0048F22463C4F208031A6822F00C021A60A2
:10942C0048F28C63C4F208031A6822F004021A6032
:10943C001A6842F004021A6048F63803C4F20803B2
:10944C00E3221A600FB0BDE8F00F704748F24C658C
:10945C00C4F208052B6813F0100F7FF489AD05E7F3
:10946C0045F20002C4F20D02A021116050211160DE
:10947C003B4A012113703B4A117072B648F6100238
:10948C00C4F2080248F6140C1360C4F2080CDAF8A3
:10949C000000DCF8007048F6180CC4F2080CDCF87C
:1094AC0000C002024FEA0C2C13EB0C0448F6240CFF
:1094BC00C4F2080CDCF800C042F10005E11945F1DA
:1094CC0000024FEA0C444FEA1C4548F6200CC4F24B
:1094DC00080CDCF80070091942EB050248F61C0C6C
:1094EC003C063D0AC4F2080C0919DCF800C042EB3A
:1094FC000502C918DAF8003042EB0C02984205D08C
:10950C0000234FF48074C91842EB040262B640F297
:10951C00605BC2F2000B9BE8180072B648F60C00B8
:10952C00C4F20800D0F800C00CF0080CC0F800C061
:10953C000748D0F800C00CF0080CC0F800C09BE83D
:10954C00600009E75C0500202C01002018010020B8
:10955C0070050020A579200048050020400500205A
:10956C002401002025010020B183200041F23403A6
:10957C00C2F200034DF804BD93E806004FF0010B56
:10958C0011EB0B014FF0000C42EB0C0283E80600D0
:10959C005DF804BB704700BF49F21803C4F208031E
:1095AC001A6841F20803C2F20003196841EA020288
:1095BC001A6049F20803C4F208031A6841F20C035A
:1095CC00C2F20003196841EA02021A6049F2100360
:1095DC00C4F208031A6841F21003C2F200031968BE
:1095EC0041EA02021A60704748F60C0340F27052CE
:1095FC00C4F20803C2F200021968106840EA0101C3
:10960C00116000221A604EF28013CEF200034FF06C
:10961C0080621A604EF28023CEF200031A6070470B
:10962C004EF28413CEF2000302221A604EF284230F
:10963C00CEF200031A6070470368232B0DD0252B44
:10964C0013D0272B19D0332B01BF43F22403C4F2C0
:10965C0003034FF0FF321A60704740F22403C4F248
:10966C0003034FF0FF321A60F6E741F22403C4F211
:10967C0003034FF0FF321A60EEE742F22403C4F208
:10968C0003034FF0FF321A60E6E700BF72B64EF2EA
:10969C0080134FF0FF32CEF200031A604EF28413A7
:1096AC00CEF200031A601B491B4A0023CA50043334
:1096BC00B3F5807FFAD10023DFF860C018464CF870
:1096CC0003000433B3F5807F144AF8D1144BC2F86D
:1096DC008C30C2F89430C2F89C30C2F8CC30114BAC
:1096EC00C2F8A830104BC2F8C430104BC2F8F0309E
:1096FC000F4B136453649364D3640E4B0822CB60FA
:10970C000D4BC1F8CC304EF20413CEF200031A60AC
:10971C00704700BF0006002049FB200034010020E8
:10972C00459620002D962000F5952000A59520004B
:10973C002DFA20004DFB20007995200010B5314BFF
:10974C00186841680B46002957D04A68272A07D861
:10975C00182A05D0DB68002B4FD05A68272AF7D976
:10976C00183A5A60C268183AC2605A6892B9D0F86E
:10977C0000C0BCF1010F1FD09C68002C24D0D9680C
:10978C0000292DD0E160DA680CF1FF3CC0F800C074
:10979C0094605A68196818208B18885004331A4939
:1097AC000122196119491A605A601A72486840B14D
:1097BC00DA60174A136010BD0260426082605A681A
:1097CC00E8E74B605A68F3E7BCF1000FE2D0C968D8
:1097DC000CF1FF3CC0F800C041608A605A68D9E7C0
:1097EC00BCF1000FD6D081680CF1FF3C8968C0F841
:1097FC0000C08160CA605A68CCE7FCF795FC002376
:10980C00CDE700BFE40000203598200000100020B8
:10981C003802002040F23C23C2F2000300221A60FE
:10982C005A609A60704700BFF0B572B63F4B1A6829
:10983C0001321A603E4A13682BB1516848680138EE
:10984C000028486007DD002362B61BB198680368E6
:10985C009B689847F0BD012B3CD0CB68002053602F
:10986C0098601368013B1360CB6823B1D3F804C034
:10987C004868604458600B68D868B0F1FF3F03D06B
:10988C000138D8600028DFD0D3F810C02848C1F8C0
:10989C0004C01668002E35D047687C68A445B8BF54
:1098AC003D4609DBF868F8B1C4EB0C0CC1F804C0F8
:1098BC0044680546A44514DAA868002829D0CCEBE6
:1098CC00040C0136C5F804C0C160A960CD60886085
:1098DC001660B9E70023536093601368013B136073
:1098EC00C2E7C0680028DFD19068C4EB0C0CC160E3
:1098FC008860C1F804C00020C86091601168013113
:10990C001160A1E701228E60CE600260416081602F
:10991C009AE7CCEB040CC5F804C08860CF60B96042
:10992C0051601168013111608EE700BF34020020D4
:10993C003C02002030B472B6DFF880C0DCF80410B2
:10994C00E9B10B68984218BF0B462BD0DB68B3B15A
:10995C001A689042FAD1DCF80000184C012811D09A
:10996C009D68002D20D0DA6892B1EA60DA6801387F
:10997C00956020601AB151685B68CB18536062B671
:10998C0030BC704700226260A2602260DA68F1E7A6
:10999C000028F4D0A168013889682060A160CA60F1
:1099AC00DA68E7E70B46D6E708B9DA68E2E7CA688F
:1099BC000138626020609560DA68DBE73C020020C9
:1099CC002DE9F0418C46044672B6544D6868F0B1EE
:1099DC0003689C4218BF034600F08980DB68B3B172
:1099EC001A689442FAD12E684C49012E6FD09F68A8
:1099FC00002F7ED0DA68002A6FD0FA60DA68013E58
:109A0C0097600E601AB151685B68CB1853602E6872
:109A1C009CE80C0084E80C00414B4FF47A721B68F4
:109A2C009CE880015B68B2FBF3F244F24023C0F285
:109A3C000F03B3FBF2F212464FF0000359084FEA42
:109A4C003200C01941EB080106F08CFB206104F1D7
:109A5C001400002E33D06F68A36979688B42B8BFAD
:109A6C00BC4618DBFA6842B15B1A436051689446F5
:109A7C008B4220DAA3698B420DDB5B1AA361AB68C6
:109A8C00D860E361002323622B68A86001332B604C
:109A9C0062B6BDE8F081DCF80820002A33D0CB1A7E
:109AAC000136CCF80430D060CCF80800C4F820C0E3
:109ABC00E2612E60ECE7D268002AD5D1DAE72B6898
:109ACC00E661013326622B606860A860E0E7002243
